{
  "_format": "hh-sol-artifact-1",
  "contractName": "NFTRent",
  "sourceName": "contracts/NFTRent.sol",
  "abi": [
    {
      "inputs": [],
      "name": "getContractBalance",
      "outputs": [
        {
          "internalType": "uint256",
          "name": "",
          "type": "uint256"
        }
      ],
      "stateMutability": "view",
      "type": "function"
    },
    {
      "inputs": [],
      "name": "getUserAddressList",
      "outputs": [
        {
          "internalType": "address[]",
          "name": "",
          "type": "address[]"
        }
      ],
      "stateMutability": "view",
      "type": "function"
    },
    {
      "inputs": [
        {
          "internalType": "string",
          "name": "",
          "type": "string"
        }
      ],
      "name": "nftKeyToNftProps",
      "outputs": [
        {
          "internalType": "string",
          "name": "nftKey",
          "type": "string"
        },
        {
          "internalType": "address",
          "name": "nftOwner",
          "type": "address"
        },
        {
          "internalType": "address",
          "name": "nftAddress",
          "type": "address"
        },
        {
          "internalType": "uint256",
          "name": "nftId",
          "type": "uint256"
        },
        {
          "internalType": "string",
          "name": "nftName",
          "type": "string"
        },
        {
          "internalType": "string",
          "name": "nftImageURL",
          "type": "string"
        }
      ],
      "stateMutability": "view",
      "type": "function"
    },
    {
      "inputs": [
        {
          "internalType": "string",
          "name": "",
          "type": "string"
        }
      ],
      "name": "nftKeyToRentedNftDetails",
      "outputs": [
        {
          "internalType": "string",
          "name": "nftKey",
          "type": "string"
        },
        {
          "internalType": "address",
          "name": "lenderAddress",
          "type": "address"
        },
        {
          "internalType": "address",
          "name": "borrowerAddress",
          "type": "address"
        },
        {
          "internalType": "uint16",
          "name": "numberOfDays",
          "type": "uint16"
        },
        {
          "internalType": "uint32",
          "name": "rentalStartTime",
          "type": "uint32"
        }
      ],
      "stateMutability": "view",
      "type": "function"
    }
  ],
  "bytecode": "0x608060405234801561001057600080fd5b50610691806100206000396000f3fe608060405234801561001057600080fd5b506004361061004c5760003560e01c8063213f44ab146100515780635289f68a1461006f5780636f9fb98a146100945780638d2221d9146100a2575b600080fd5b6100596100c6565b604051610066919061050f565b60405180910390f35b61008261007d366004610411565b610128565b604051610066969594939291906105a6565b604051478152602001610066565b6100b56100b0366004610411565b610310565b60405161006695949392919061055c565b6060600080548060200260200160405190810160405280929190818152602001828054801561011e57602002820191906000526020600020905b81546001600160a01b03168152600190910190602001808311610100575b5050505050905090565b805160208183018101805160018252928201919093012091528054819061014e9061060a565b80601f016020809104026020016040519081016040528092919081815260200182805461017a9061060a565b80156101c75780601f1061019c576101008083540402835291602001916101c7565b820191906000526020600020905b8154815290600101906020018083116101aa57829003601f168201915b5050505060018301546002840154600385015460048601805495966001600160a01b039485169694909316945090926101ff9061060a565b80601f016020809104026020016040519081016040528092919081815260200182805461022b9061060a565b80156102785780601f1061024d57610100808354040283529160200191610278565b820191906000526020600020905b81548152906001019060200180831161025b57829003601f168201915b50505050509080600501805461028d9061060a565b80601f01602080910402602001604051908101604052809291908181526020018280546102b99061060a565b80156103065780601f106102db57610100808354040283529160200191610306565b820191906000526020600020905b8154815290600101906020018083116102e957829003601f168201915b5050505050905086565b80516020818301810180516002825292820191909301209152805481906103369061060a565b80601f01602080910402602001604051908101604052809291908181526020018280546103629061060a565b80156103af5780601f10610384576101008083540402835291602001916103af565b820191906000526020600020905b81548152906001019060200180831161039257829003601f168201915b50505050600183015460029093015491926001600160a01b0390811692908116915074010000000000000000000000000000000000000000810461ffff1690760100000000000000000000000000000000000000000000900463ffffffff1685565b60006020828403121561042357600080fd5b813567ffffffffffffffff8082111561043b57600080fd5b818401915084601f83011261044f57600080fd5b81358181111561046157610461610645565b604051601f8201601f19908116603f0116810190838211818310171561048957610489610645565b816040528281528760208487010111156104a257600080fd5b826020860160208301376000928101602001929092525095945050505050565b6000815180845260005b818110156104e8576020818501810151868301820152016104cc565b818111156104fa576000602083870101525b50601f01601f19169290920160200192915050565b6020808252825182820181905260009190848201906040850190845b818110156105505783516001600160a01b03168352928401929184019160010161052b565b50909695505050505050565b60a08152600061056f60a08301886104c2565b6001600160a01b03968716602084015294909516604082015261ffff92909216606083015263ffffffff1660809091015292915050565b60c0815260006105b960c08301896104c2565b6001600160a01b038881166020850152871660408401526060830186905282810360808401526105e981866104c2565b905082810360a08401526105fd81856104c2565b9998505050505050505050565b600181811c9082168061061e57607f821691505b6020821081141561063f57634e487b7160e01b600052602260045260246000fd5b50919050565b634e487b7160e01b600052604160045260246000fdfea26469706673582212208dcd9a10e3f18bf4321f44c37dd33ab574790c29818c00f18495642b2239aef364736f6c63430008050033",
  "linkReferences": {},
  "deployedLinkReferences": {}
}