{
  "_format": "hh-sol-artifact-1",
  "contractName": "NFTLend",
  "sourceName": "contracts/NFTLend.sol",
  "abi": [
    {
      "inputs": [],
      "name": "getContractBalance",
      "outputs": [
        {
          "internalType": "uint256",
          "name": "",
          "type": "uint256"
        }
      ],
      "stateMutability": "view",
      "type": "function"
    },
    {
      "inputs": [],
      "name": "getNftKeysListAvaiableForRent",
      "outputs": [
        {
          "internalType": "string[]",
          "name": "",
          "type": "string[]"
        }
      ],
      "stateMutability": "view",
      "type": "function"
    },
    {
      "inputs": [],
      "name": "getUserAddressList",
      "outputs": [
        {
          "internalType": "address[]",
          "name": "",
          "type": "address[]"
        }
      ],
      "stateMutability": "view",
      "type": "function"
    },
    {
      "inputs": [
        {
          "internalType": "string",
          "name": "",
          "type": "string"
        }
      ],
      "name": "nftKeyToLendedNftDetails",
      "outputs": [
        {
          "internalType": "string",
          "name": "nftKey",
          "type": "string"
        },
        {
          "internalType": "address",
          "name": "lenderAddress",
          "type": "address"
        },
        {
          "internalType": "address",
          "name": "borrowerAddress",
          "type": "address"
        },
        {
          "internalType": "uint32",
          "name": "dueDate",
          "type": "uint32"
        },
        {
          "internalType": "uint256",
          "name": "dailyRent",
          "type": "uint256"
        },
        {
          "internalType": "uint256",
          "name": "collateral",
          "type": "uint256"
        }
      ],
      "stateMutability": "view",
      "type": "function"
    },
    {
      "inputs": [
        {
          "internalType": "string",
          "name": "",
          "type": "string"
        }
      ],
      "name": "nftKeyToNftProps",
      "outputs": [
        {
          "internalType": "string",
          "name": "nftKey",
          "type": "string"
        },
        {
          "internalType": "address",
          "name": "nftOwner",
          "type": "address"
        },
        {
          "internalType": "address",
          "name": "nftAddress",
          "type": "address"
        },
        {
          "internalType": "uint256",
          "name": "nftId",
          "type": "uint256"
        },
        {
          "internalType": "string",
          "name": "nftName",
          "type": "string"
        },
        {
          "internalType": "string",
          "name": "nftImageURL",
          "type": "string"
        }
      ],
      "stateMutability": "view",
      "type": "function"
    }
  ],
  "bytecode": "0x608060405234801561001057600080fd5b506107ee806100206000396000f3fe608060405234801561001057600080fd5b50600436106100675760003560e01c8063657ed37d11610050578063657ed37d146100af5780636f9fb98a146100d4578063dc4ace8c146100e257600080fd5b8063213f44ab1461006c5780635289f68a1461008a575b600080fd5b6100746100f7565b6040516100819190610606565b60405180910390f35b61009d610098366004610508565b610159565b604051610081969594939291906106b5565b6100c26100bd366004610508565b610341565b60405161008196959493929190610719565b604051478152602001610081565b6100ea61042f565b6040516100819190610653565b6060600080548060200260200160405190810160405280929190818152602001828054801561014f57602002820191906000526020600020905b81546001600160a01b03168152600190910190602001808311610131575b5050505050905090565b805160208183018101805160018252928201919093012091528054819061017f90610767565b80601f01602080910402602001604051908101604052809291908181526020018280546101ab90610767565b80156101f85780601f106101cd576101008083540402835291602001916101f8565b820191906000526020600020905b8154815290600101906020018083116101db57829003601f168201915b5050505060018301546002840154600385015460048601805495966001600160a01b0394851696949093169450909261023090610767565b80601f016020809104026020016040519081016040528092919081815260200182805461025c90610767565b80156102a95780601f1061027e576101008083540402835291602001916102a9565b820191906000526020600020905b81548152906001019060200180831161028c57829003601f168201915b5050505050908060050180546102be90610767565b80601f01602080910402602001604051908101604052809291908181526020018280546102ea90610767565b80156103375780601f1061030c57610100808354040283529160200191610337565b820191906000526020600020905b81548152906001019060200180831161031a57829003601f168201915b5050505050905086565b805160208183018101805160038252928201919093012091528054819061036790610767565b80601f016020809104026020016040519081016040528092919081815260200182805461039390610767565b80156103e05780601f106103b5576101008083540402835291602001916103e0565b820191906000526020600020905b8154815290600101906020018083116103c357829003601f168201915b5050505060018301546002840154600385015460049095015493946001600160a01b039283169492821693507401000000000000000000000000000000000000000090910463ffffffff169186565b60606002805480602002602001604051908101604052809291908181526020016000905b828210156104ff57838290600052602060002001805461047290610767565b80601f016020809104026020016040519081016040528092919081815260200182805461049e90610767565b80156104eb5780601f106104c0576101008083540402835291602001916104eb565b820191906000526020600020905b8154815290600101906020018083116104ce57829003601f168201915b505050505081526020019060010190610453565b50505050905090565b60006020828403121561051a57600080fd5b813567ffffffffffffffff8082111561053257600080fd5b818401915084601f83011261054657600080fd5b813581811115610558576105586107a2565b604051601f8201601f19908116603f01168101908382118183101715610580576105806107a2565b8160405282815287602084870101111561059957600080fd5b826020860160208301376000928101602001929092525095945050505050565b6000815180845260005b818110156105df576020818501810151868301820152016105c3565b818111156105f1576000602083870101525b50601f01601f19169290920160200192915050565b6020808252825182820181905260009190848201906040850190845b818110156106475783516001600160a01b031683529284019291840191600101610622565b50909695505050505050565b6000602080830181845280855180835260408601915060408160051b870101925083870160005b828110156106a857603f198886030184526106968583516105b9565b9450928501929085019060010161067a565b5092979650505050505050565b60c0815260006106c860c08301896105b9565b6001600160a01b038881166020850152871660408401526060830186905282810360808401526106f881866105b9565b905082810360a084015261070c81856105b9565b9998505050505050505050565b60c08152600061072c60c08301896105b9565b6001600160a01b03978816602084015295909616604082015263ffffffff939093166060840152608083019190915260a09091015292915050565b600181811c9082168061077b57607f821691505b6020821081141561079c57634e487b7160e01b600052602260045260246000fd5b50919050565b634e487b7160e01b600052604160045260246000fdfea26469706673582212202bf0d6ba984349c00f495b7c1fd924afd71eafd2613a56890171632ddcebe1a164736f6c63430008050033",
  "linkReferences": {},
  "deployedLinkReferences": {}
}