{
  "_format": "hh-sol-artifact-1",
  "contractName": "NFTUser",
  "sourceName": "contracts/NFTUser.sol",
  "abi": [
    {
      "inputs": [
        {
          "internalType": "address",
          "name": "_userAddress",
          "type": "address"
        }
      ],
      "name": "addUser",
      "outputs": [],
      "stateMutability": "nonpayable",
      "type": "function"
    },
    {
      "inputs": [
        {
          "internalType": "address",
          "name": "",
          "type": "address"
        }
      ],
      "name": "addressToUser",
      "outputs": [
        {
          "internalType": "address",
          "name": "userAddress",
          "type": "address"
        }
      ],
      "stateMutability": "view",
      "type": "function"
    },
    {
      "inputs": [],
      "name": "getContractBalance",
      "outputs": [
        {
          "internalType": "uint256",
          "name": "",
          "type": "uint256"
        }
      ],
      "stateMutability": "view",
      "type": "function"
    },
    {
      "inputs": [],
      "name": "getNftKeysListAvaiableForRent",
      "outputs": [
        {
          "internalType": "string[]",
          "name": "",
          "type": "string[]"
        }
      ],
      "stateMutability": "view",
      "type": "function"
    },
    {
      "inputs": [],
      "name": "getUserAddressList",
      "outputs": [
        {
          "internalType": "address[]",
          "name": "",
          "type": "address[]"
        }
      ],
      "stateMutability": "view",
      "type": "function"
    },
    {
      "inputs": [
        {
          "internalType": "address",
          "name": "_userAddress",
          "type": "address"
        },
        {
          "internalType": "string",
          "name": "_nftKey",
          "type": "string"
        }
      ],
      "name": "getUserLendedNFTDetails",
      "outputs": [
        {
          "components": [
            {
              "internalType": "string",
              "name": "nftKey",
              "type": "string"
            },
            {
              "internalType": "address",
              "name": "lenderAddress",
              "type": "address"
            },
            {
              "internalType": "address",
              "name": "borrowerAddress",
              "type": "address"
            },
            {
              "internalType": "uint32",
              "name": "dueDate",
              "type": "uint32"
            },
            {
              "internalType": "uint256",
              "name": "dailyRent",
              "type": "uint256"
            },
            {
              "internalType": "uint256",
              "name": "collateral",
              "type": "uint256"
            }
          ],
          "internalType": "struct NFTLend.lendedNFT",
          "name": "",
          "type": "tuple"
        }
      ],
      "stateMutability": "view",
      "type": "function"
    },
    {
      "inputs": [
        {
          "internalType": "address",
          "name": "_userAddress",
          "type": "address"
        },
        {
          "internalType": "uint256",
          "name": "_index",
          "type": "uint256"
        }
      ],
      "name": "getUserLendedNFTListDetails",
      "outputs": [
        {
          "internalType": "string",
          "name": "",
          "type": "string"
        }
      ],
      "stateMutability": "view",
      "type": "function"
    },
    {
      "inputs": [
        {
          "internalType": "address",
          "name": "_userAddress",
          "type": "address"
        },
        {
          "internalType": "string",
          "name": "_nftKey",
          "type": "string"
        }
      ],
      "name": "getUserRentedNFTDetails",
      "outputs": [
        {
          "components": [
            {
              "internalType": "string",
              "name": "nftKey",
              "type": "string"
            },
            {
              "internalType": "address",
              "name": "lenderAddress",
              "type": "address"
            },
            {
              "internalType": "address",
              "name": "borrowerAddress",
              "type": "address"
            },
            {
              "internalType": "uint16",
              "name": "numberOfDays",
              "type": "uint16"
            },
            {
              "internalType": "uint32",
              "name": "rentalStartTime",
              "type": "uint32"
            }
          ],
          "internalType": "struct NFTRent.rentedNFT",
          "name": "",
          "type": "tuple"
        }
      ],
      "stateMutability": "view",
      "type": "function"
    },
    {
      "inputs": [
        {
          "internalType": "address",
          "name": "_userAddress",
          "type": "address"
        },
        {
          "internalType": "uint256",
          "name": "_index",
          "type": "uint256"
        }
      ],
      "name": "getUserRentedNFTListDetails",
      "outputs": [
        {
          "internalType": "string",
          "name": "",
          "type": "string"
        }
      ],
      "stateMutability": "view",
      "type": "function"
    },
    {
      "inputs": [
        {
          "internalType": "string",
          "name": "",
          "type": "string"
        }
      ],
      "name": "nftKeyToLendedNftDetails",
      "outputs": [
        {
          "internalType": "string",
          "name": "nftKey",
          "type": "string"
        },
        {
          "internalType": "address",
          "name": "lenderAddress",
          "type": "address"
        },
        {
          "internalType": "address",
          "name": "borrowerAddress",
          "type": "address"
        },
        {
          "internalType": "uint32",
          "name": "dueDate",
          "type": "uint32"
        },
        {
          "internalType": "uint256",
          "name": "dailyRent",
          "type": "uint256"
        },
        {
          "internalType": "uint256",
          "name": "collateral",
          "type": "uint256"
        }
      ],
      "stateMutability": "view",
      "type": "function"
    },
    {
      "inputs": [
        {
          "internalType": "string",
          "name": "",
          "type": "string"
        }
      ],
      "name": "nftKeyToNftProps",
      "outputs": [
        {
          "internalType": "string",
          "name": "nftKey",
          "type": "string"
        },
        {
          "internalType": "address",
          "name": "nftOwner",
          "type": "address"
        },
        {
          "internalType": "address",
          "name": "nftAddress",
          "type": "address"
        },
        {
          "internalType": "uint256",
          "name": "nftId",
          "type": "uint256"
        },
        {
          "internalType": "string",
          "name": "nftName",
          "type": "string"
        },
        {
          "internalType": "string",
          "name": "nftImageURL",
          "type": "string"
        }
      ],
      "stateMutability": "view",
      "type": "function"
    },
    {
      "inputs": [
        {
          "internalType": "string",
          "name": "",
          "type": "string"
        }
      ],
      "name": "nftKeyToRentedNftDetails",
      "outputs": [
        {
          "internalType": "string",
          "name": "nftKey",
          "type": "string"
        },
        {
          "internalType": "address",
          "name": "lenderAddress",
          "type": "address"
        },
        {
          "internalType": "address",
          "name": "borrowerAddress",
          "type": "address"
        },
        {
          "internalType": "uint16",
          "name": "numberOfDays",
          "type": "uint16"
        },
        {
          "internalType": "uint32",
          "name": "rentalStartTime",
          "type": "uint32"
        }
      ],
      "stateMutability": "view",
      "type": "function"
    }
  ],
  "bytecode": "0x608060405234801561001057600080fd5b50611660806100206000396000f3fe608060405234801561001057600080fd5b50600436106100d45760003560e01c80637f73ef6c11610081578063dc4ace8c1161005b578063dc4ace8c146101db578063deb41216146101f0578063edf538861461021057600080fd5b80637f73ef6c146101845780638d2221d9146101a4578063a66a89fd146101c857600080fd5b80635289f68a116100b25780635289f68a1461012c578063657ed37d146101515780636f9fb98a1461017657600080fd5b8063213f44ab146100d9578063421b2d8b146100f75780634df3d7b91461010c575b600080fd5b6100e1610251565b6040516100ee91906112fd565b60405180910390f35b61010a6101053660046111de565b6102b3565b005b61011f61011a36600461124e565b61045b565b6040516100ee91906113ac565b61013f61013a366004611278565b610618565b6040516100ee96959493929190611409565b61016461015f366004611278565b610800565b6040516100ee9695949392919061146d565b6040514781526020016100ee565b610197610192366004611200565b6108dd565b6040516100ee919061152a565b6101b76101b2366004611278565b610b52565b6040516100ee9594939291906113bf565b61011f6101d636600461124e565b610c2f565b6101e3610d50565b6040516100ee919061134a565b6102036101fe366004611200565b610e29565b6040516100ee91906114bb565b61023961021e3660046111de565b6005602052600090815260409020546001600160a01b031681565b6040516001600160a01b0390911681526020016100ee565b606060008054806020026020016040519081016040528092919081815260200182805480156102a957602002820191906000526020600020905b81546001600160a01b0316815260019091019060200180831161028b575b5050505050905090565b6102f16040518060400160405280600181526020017f48000000000000000000000000000000000000000000000000000000000000008152506110a8565b6001600160a01b03811661033e5760405162461bcd60e51b815260206004820152600f60248201526e496e76616c6964206164647265737360881b60448201526064015b60405180910390fd5b336001600160a01b038216146103bc5760405162461bcd60e51b815260206004820152602860248201527f4f6e6c792074686520757365722063616e2061646420686973206163636f756e60448201527f7420746f206170700000000000000000000000000000000000000000000000006064820152608401610335565b6001600160a01b0381811660009081526005602052604090205416610458576001600160a01b038116600081815260056020526040812080547fffffffffffffffffffffffff0000000000000000000000000000000000000000908116841790915581546001810183559180527f290decd9548b62a8d60345a988386fc84ba6bc95484008f6362f93160ef3e563909101805490911690911790555b50565b60606001600160a01b0383166104a55760405162461bcd60e51b815260206004820152600f60248201526e496e76616c6964206164647265737360881b6044820152606401610335565b6001600160a01b03808416600090815260056020526040902080549091166105065760405162461bcd60e51b81526020600482015260146024820152735573657220646f6573206e6f742065786973747360601b6044820152606401610335565b600481015483106105675760405162461bcd60e51b815260206004820152602560248201527f4e66742061742074686520676976656e20696e64657820646f6573206e6f7420604482015264195e1a5cdd60da1b6064820152608401610335565b80600401838154811061057c5761057c6115fe565b906000526020600020018054610591906115c3565b80601f01602080910402602001604051908101604052809291908181526020018280546105bd906115c3565b801561060a5780601f106105df5761010080835404028352916020019161060a565b820191906000526020600020905b8154815290600101906020018083116105ed57829003601f168201915b505050505091505092915050565b805160208183018101805160018252928201919093012091528054819061063e906115c3565b80601f016020809104026020016040519081016040528092919081815260200182805461066a906115c3565b80156106b75780601f1061068c576101008083540402835291602001916106b7565b820191906000526020600020905b81548152906001019060200180831161069a57829003601f168201915b5050505060018301546002840154600385015460048601805495966001600160a01b039485169694909316945090926106ef906115c3565b80601f016020809104026020016040519081016040528092919081815260200182805461071b906115c3565b80156107685780601f1061073d57610100808354040283529160200191610768565b820191906000526020600020905b81548152906001019060200180831161074b57829003601f168201915b50505050509080600501805461077d906115c3565b80601f01602080910402602001604051908101604052809291908181526020018280546107a9906115c3565b80156107f65780601f106107cb576101008083540402835291602001916107f6565b820191906000526020600020905b8154815290600101906020018083116107d957829003601f168201915b5050505050905086565b8051602081830181018051600382529282019190930120915280548190610826906115c3565b80601f0160208091040260200160405190810160405280929190818152602001828054610852906115c3565b801561089f5780601f106108745761010080835404028352916020019161089f565b820191906000526020600020905b81548152906001019060200180831161088257829003601f168201915b5050505060018301546002840154600385015460049095015493946001600160a01b03928316949282169350600160a01b90910463ffffffff169186565b6040805160a0810182526060808252600060208301819052928201839052810182905260808101919091526001600160a01b0383166109505760405162461bcd60e51b815260206004820152600f60248201526e496e76616c6964206164647265737360881b6044820152606401610335565b6001600160a01b03808416600090815260056020526040902080549091166109b15760405162461bcd60e51b81526020600482015260146024820152735573657220646f6573206e6f742065786973747360601b6044820152606401610335565b60006001600160a01b031681600301846040516109ce91906112e1565b908152604051908190036020019020600201546001600160a01b03161415610a475760405162461bcd60e51b815260206004820152602660248201527f5573657220646f6573206e6f74206861766520616e7920737563682072656e7460448201526519590813999d60d21b6064820152608401610335565b8060030183604051610a5991906112e1565b90815260200160405180910390206040518060a0016040529081600082018054610a82906115c3565b80601f0160208091040260200160405190810160405280929190818152602001828054610aae906115c3565b8015610afb5780601f10610ad057610100808354040283529160200191610afb565b820191906000526020600020905b815481529060010190602001808311610ade57829003601f168201915b505050918352505060018201546001600160a01b0390811660208301526002909201549182166040820152600160a01b820461ffff166060820152600160b01b90910463ffffffff16608090910152949350505050565b8051602081830181018051600482529282019190930120915280548190610b78906115c3565b80601f0160208091040260200160405190810160405280929190818152602001828054610ba4906115c3565b8015610bf15780601f10610bc657610100808354040283529160200191610bf1565b820191906000526020600020905b815481529060010190602001808311610bd457829003601f168201915b50505050600183015460029093015491926001600160a01b03908116929081169150600160a01b810461ffff1690600160b01b900463ffffffff1685565b60606001600160a01b038316610c795760405162461bcd60e51b815260206004820152600f60248201526e496e76616c6964206164647265737360881b6044820152606401610335565b6001600160a01b0380841660009081526005602052604090208054909116610cda5760405162461bcd60e51b81526020600482015260146024820152735573657220646f6573206e6f742065786973747360601b6044820152606401610335565b60028101548310610d3b5760405162461bcd60e51b815260206004820152602560248201527f4e66742061742074686520676976656e20696e64657820646f6573206e6f7420604482015264195e1a5cdd60da1b6064820152608401610335565b80600201838154811061057c5761057c6115fe565b60606002805480602002602001604051908101604052809291908181526020016000905b82821015610e20578382906000526020600020018054610d93906115c3565b80601f0160208091040260200160405190810160405280929190818152602001828054610dbf906115c3565b8015610e0c5780601f10610de157610100808354040283529160200191610e0c565b820191906000526020600020905b815481529060010190602001808311610def57829003601f168201915b505050505081526020019060010190610d74565b50505050905090565b6040805160c081018252606080825260006020830181905292820183905281018290526080810182905260a08101919091526001600160a01b038316610ea35760405162461bcd60e51b815260206004820152600f60248201526e496e76616c6964206164647265737360881b6044820152606401610335565b6001600160a01b0380841660009081526005602052604090208054909116610f045760405162461bcd60e51b81526020600482015260146024820152735573657220646f6573206e6f742065786973747360601b6044820152606401610335565b60006001600160a01b03168160010184604051610f2191906112e1565b908152604051908190036020019020600101546001600160a01b03161415610f9a5760405162461bcd60e51b815260206004820152602660248201527f5573657220646f6573206e6f74206861766520616e792073756368206c656e6460448201526519590813999d60d21b6064820152608401610335565b8060010183604051610fac91906112e1565b90815260200160405180910390206040518060c0016040529081600082018054610fd5906115c3565b80601f0160208091040260200160405190810160405280929190818152602001828054611001906115c3565b801561104e5780601f106110235761010080835404028352916020019161104e565b820191906000526020600020905b81548152906001019060200180831161103157829003601f168201915b505050918352505060018201546001600160a01b03908116602083015260028301549081166040830152600160a01b900463ffffffff1660608201526003820154608082015260049091015460a090910152949350505050565b610458816040516024016110bc91906113ac565b60408051601f198184030181529190526020810180517bffffffffffffffffffffffffffffffffffffffffffffffffffffffff167f41304fac0000000000000000000000000000000000000000000000000000000017905280516a636f6e736f6c652e6c6f67602083016000808483855afa5050505050565b80356001600160a01b038116811461114c57600080fd5b919050565b600082601f83011261116257600080fd5b813567ffffffffffffffff8082111561117d5761117d611614565b604051601f8301601f19908116603f011681019082821181831017156111a5576111a5611614565b816040528381528660208588010111156111be57600080fd5b836020870160208301376000602085830101528094505050505092915050565b6000602082840312156111f057600080fd5b6111f982611135565b9392505050565b6000806040838503121561121357600080fd5b61121c83611135565b9150602083013567ffffffffffffffff81111561123857600080fd5b61124485828601611151565b9150509250929050565b6000806040838503121561126157600080fd5b61126a83611135565b946020939093013593505050565b60006020828403121561128a57600080fd5b813567ffffffffffffffff8111156112a157600080fd5b6112ad84828501611151565b949350505050565b600081518084526112cd816020860160208601611593565b601f01601f19169290920160200192915050565b600082516112f3818460208701611593565b9190910192915050565b6020808252825182820181905260009190848201906040850190845b8181101561133e5783516001600160a01b031683529284019291840191600101611319565b50909695505050505050565b6000602080830181845280855180835260408601915060408160051b870101925083870160005b8281101561139f57603f1988860301845261138d8583516112b5565b94509285019290850190600101611371565b5092979650505050505050565b6020815260006111f960208301846112b5565b60a0815260006113d260a08301886112b5565b6001600160a01b03968716602084015294909516604082015261ffff92909216606083015263ffffffff1660809091015292915050565b60c08152600061141c60c08301896112b5565b6001600160a01b0388811660208501528716604084015260608301869052828103608084015261144c81866112b5565b905082810360a084015261146081856112b5565b9998505050505050505050565b60c08152600061148060c08301896112b5565b6001600160a01b03978816602084015295909616604082015263ffffffff939093166060840152608083019190915260a09091015292915050565b602081526000825160c060208401526114d760e08401826112b5565b905060208401516001600160a01b038082166040860152806040870151166060860152505063ffffffff6060850151166080840152608084015160a084015260a084015160c08401528091505092915050565b602081526000825160a0602084015261154660c08401826112b5565b905060208401516001600160a01b038082166040860152806040870151166060860152505061ffff606085015116608084015263ffffffff60808501511660a08401528091505092915050565b60005b838110156115ae578181015183820152602001611596565b838111156115bd576000848401525b50505050565b600181811c908216806115d757607f821691505b602082108114156115f857634e487b7160e01b600052602260045260246000fd5b50919050565b634e487b7160e01b600052603260045260246000fd5b634e487b7160e01b600052604160045260246000fdfea26469706673582212207c71c3637cc51638cf510293bb4480aa06215a8980c054c870ae5f91e30de82a64736f6c63430008050033",
  "linkReferences": {},
  "deployedLinkReferences": {}
}