{
  "_format": "hh-sol-artifact-1",
  "contractName": "ERC721Holder",
  "sourceName": "@openzeppelin/contracts/token/ERC721/utils/ERC721Holder.sol",
  "abi": [
    {
      "inputs": [
        {
          "internalType": "address",
          "name": "",
          "type": "address"
        },
        {
          "internalType": "address",
          "name": "",
          "type": "address"
        },
        {
          "internalType": "uint256",
          "name": "",
          "type": "uint256"
        },
        {
          "internalType": "bytes",
          "name": "",
          "type": "bytes"
        }
      ],
      "name": "onERC721Received",
      "outputs": [
        {
          "internalType": "bytes4",
          "name": "",
          "type": "bytes4"
        }
      ],
      "stateMutability": "nonpayable",
      "type": "function"
    }
  ],
  "bytecode": "0x608060405234801561001057600080fd5b50610371806100206000396000f3fe608060405234801561001057600080fd5b506004361061002b5760003560e01c8063150b7a0214610030575b600080fd5b61004a6004803603810190610045919061010e565b610060565b60405161005791906101a0565b60405180910390f35b600063150b7a0260e01b9050949350505050565b6000610087610082846101e0565b6101bb565b9050828152602081018484840111156100a3576100a26102ed565b5b6100ae848285610279565b509392505050565b6000813590506100c58161030d565b92915050565b600082601f8301126100e0576100df6102e8565b5b81356100f0848260208601610074565b91505092915050565b60008135905061010881610324565b92915050565b60008060008060808587031215610128576101276102f7565b5b6000610136878288016100b6565b9450506020610147878288016100b6565b9350506040610158878288016100f9565b925050606085013567ffffffffffffffff811115610179576101786102f2565b5b610185878288016100cb565b91505092959194509250565b61019a81610223565b82525050565b60006020820190506101b56000830184610191565b92915050565b60006101c56101d6565b90506101d18282610288565b919050565b6000604051905090565b600067ffffffffffffffff8211156101fb576101fa6102b9565b5b610204826102fc565b9050602081019050919050565b600061021c8261024f565b9050919050565b60007fffffffff0000000000000000000000000000000000000000000000000000000082169050919050565b600073ffffffffffffffffffffffffffffffffffffffff82169050919050565b6000819050919050565b82818337600083830152505050565b610291826102fc565b810181811067ffffffffffffffff821117156102b0576102af6102b9565b5b80604052505050565b7f4e487b7100000000000000000000000000000000000000000000000000000000600052604160045260246000fd5b600080fd5b600080fd5b600080fd5b600080fd5b6000601f19601f8301169050919050565b61031681610211565b811461032157600080fd5b50565b61032d8161026f565b811461033857600080fd5b5056fea26469706673582212205081a8df0ceee20d6b4ca3fee230b9abd8dbbf917cc015586be4832ee123230a64736f6c63430008050033",
  "linkReferences": {},
  "deployedLinkReferences": {}
}