{
  "_format": "hh-sol-artifact-1",
  "contractName": "NFTFactory",
  "sourceName": "contracts/NFTFactory.sol",
  "abi": [
    {
      "inputs": [],
      "name": "getContractBalance",
      "outputs": [
        {
          "internalType": "uint256",
          "name": "",
          "type": "uint256"
        }
      ],
      "stateMutability": "view",
      "type": "function"
    },
    {
      "inputs": [],
      "name": "getUserAddressList",
      "outputs": [
        {
          "internalType": "address[]",
          "name": "",
          "type": "address[]"
        }
      ],
      "stateMutability": "view",
      "type": "function"
    },
    {
      "inputs": [
        {
          "internalType": "string",
          "name": "",
          "type": "string"
        }
      ],
      "name": "nftKeyToNftProps",
      "outputs": [
        {
          "internalType": "string",
          "name": "nftKey",
          "type": "string"
        },
        {
          "internalType": "address",
          "name": "nftOwner",
          "type": "address"
        },
        {
          "internalType": "address",
          "name": "nftAddress",
          "type": "address"
        },
        {
          "internalType": "uint256",
          "name": "nftId",
          "type": "uint256"
        },
        {
          "internalType": "string",
          "name": "nftName",
          "type": "string"
        },
        {
          "internalType": "string",
          "name": "nftImageURL",
          "type": "string"
        }
      ],
      "stateMutability": "view",
      "type": "function"
    }
  ],
  "bytecode": "0x608060405234801561001057600080fd5b506104ee806100206000396000f3fe608060405234801561001057600080fd5b50600436106100415760003560e01c8063213f44ab146100465780635289f68a146100645780636f9fb98a14610089575b600080fd5b61004e610097565b60405161005b91906102e1565b60405180910390f35b610077610072366004610344565b6100f9565b60405161005b96959493929190610442565b60405147815260200161005b565b606060008054806020026020016040519081016040528092919081815260200182805480156100ef57602002820191906000526020600020905b81546001600160a01b031681526001909101906020018083116100d1575b5050505050905090565b805160208183018101805160018252928201919093012091528054819061011f906104a6565b80601f016020809104026020016040519081016040528092919081815260200182805461014b906104a6565b80156101985780601f1061016d57610100808354040283529160200191610198565b820191906000526020600020905b81548152906001019060200180831161017b57829003601f168201915b5050505060018301546002840154600385015460048601805495966001600160a01b039485169694909316945090926101d0906104a6565b80601f01602080910402602001604051908101604052809291908181526020018280546101fc906104a6565b80156102495780601f1061021e57610100808354040283529160200191610249565b820191906000526020600020905b81548152906001019060200180831161022c57829003601f168201915b50505050509080600501805461025e906104a6565b80601f016020809104026020016040519081016040528092919081815260200182805461028a906104a6565b80156102d75780601f106102ac576101008083540402835291602001916102d7565b820191906000526020600020905b8154815290600101906020018083116102ba57829003601f168201915b5050505050905086565b6020808252825182820181905260009190848201906040850190845b818110156103225783516001600160a01b0316835292840192918401916001016102fd565b50909695505050505050565b634e487b7160e01b600052604160045260246000fd5b60006020828403121561035657600080fd5b813567ffffffffffffffff8082111561036e57600080fd5b818401915084601f83011261038257600080fd5b8135818111156103945761039461032e565b604051601f8201601f19908116603f011681019083821181831017156103bc576103bc61032e565b816040528281528760208487010111156103d557600080fd5b826020860160208301376000928101602001929092525095945050505050565b6000815180845260005b8181101561041b576020818501810151868301820152016103ff565b8181111561042d576000602083870101525b50601f01601f19169290920160200192915050565b60c08152600061045560c08301896103f5565b6001600160a01b0388811660208501528716604084015260608301869052828103608084015261048581866103f5565b905082810360a084015261049981856103f5565b9998505050505050505050565b600181811c908216806104ba57607f821691505b602082108114156104db57634e487b7160e01b600052602260045260246000fd5b5091905056fea164736f6c6343000809000a",
  "linkReferences": {},
  "deployedLinkReferences": {}
}