{
  "_format": "hh-sol-artifact-1",
  "contractName": "NFTHelper",
  "sourceName": "contracts/NFTHelper.sol",
  "abi": [
    {
      "anonymous": false,
      "inputs": [],
      "name": "NFTCollateralClaimed",
      "type": "event"
    },
    {
      "anonymous": false,
      "inputs": [],
      "name": "NFTLended",
      "type": "event"
    },
    {
      "anonymous": false,
      "inputs": [],
      "name": "NFTRented",
      "type": "event"
    },
    {
      "anonymous": false,
      "inputs": [],
      "name": "NFTReturned",
      "type": "event"
    },
    {
      "anonymous": false,
      "inputs": [],
      "name": "NFTStopLended",
      "type": "event"
    },
    {
      "inputs": [
        {
          "internalType": "string",
          "name": "_nftKey",
          "type": "string"
        },
        {
          "internalType": "address",
          "name": "_nftOwner",
          "type": "address"
        },
        {
          "internalType": "address",
          "name": "_nftAddress",
          "type": "address"
        },
        {
          "internalType": "uint256",
          "name": "_nftId",
          "type": "uint256"
        },
        {
          "internalType": "string",
          "name": "_nftName",
          "type": "string"
        },
        {
          "internalType": "string",
          "name": "_nftImageURL",
          "type": "string"
        },
        {
          "internalType": "address",
          "name": "_lenderAddress",
          "type": "address"
        },
        {
          "internalType": "uint32",
          "name": "_dueDate",
          "type": "uint32"
        },
        {
          "internalType": "uint256",
          "name": "_dailyRent",
          "type": "uint256"
        },
        {
          "internalType": "uint256",
          "name": "_collateral",
          "type": "uint256"
        }
      ],
      "name": "addNFTToLend",
      "outputs": [],
      "stateMutability": "payable",
      "type": "function"
    },
    {
      "inputs": [
        {
          "internalType": "address",
          "name": "_userAddress",
          "type": "address"
        }
      ],
      "name": "addUser",
      "outputs": [],
      "stateMutability": "nonpayable",
      "type": "function"
    },
    {
      "inputs": [
        {
          "internalType": "address",
          "name": "",
          "type": "address"
        }
      ],
      "name": "addressToUser",
      "outputs": [
        {
          "internalType": "address",
          "name": "userAddress",
          "type": "address"
        }
      ],
      "stateMutability": "view",
      "type": "function"
    },
    {
      "inputs": [
        {
          "internalType": "string",
          "name": "_nftKey",
          "type": "string"
        }
      ],
      "name": "claimCollateral",
      "outputs": [],
      "stateMutability": "nonpayable",
      "type": "function"
    },
    {
      "inputs": [],
      "name": "getContractBalance",
      "outputs": [
        {
          "internalType": "uint256",
          "name": "",
          "type": "uint256"
        }
      ],
      "stateMutability": "view",
      "type": "function"
    },
    {
      "inputs": [],
      "name": "getNftKeysListAvaiableForRent",
      "outputs": [
        {
          "internalType": "string[]",
          "name": "",
          "type": "string[]"
        }
      ],
      "stateMutability": "view",
      "type": "function"
    },
    {
      "inputs": [],
      "name": "getUserAddressList",
      "outputs": [
        {
          "internalType": "address[]",
          "name": "",
          "type": "address[]"
        }
      ],
      "stateMutability": "view",
      "type": "function"
    },
    {
      "inputs": [
        {
          "internalType": "address",
          "name": "_userAddress",
          "type": "address"
        },
        {
          "internalType": "string",
          "name": "_nftKey",
          "type": "string"
        }
      ],
      "name": "getUserLendedNFTDetails",
      "outputs": [
        {
          "components": [
            {
              "internalType": "string",
              "name": "nftKey",
              "type": "string"
            },
            {
              "internalType": "address",
              "name": "lenderAddress",
              "type": "address"
            },
            {
              "internalType": "address",
              "name": "borrowerAddress",
              "type": "address"
            },
            {
              "internalType": "uint32",
              "name": "dueDate",
              "type": "uint32"
            },
            {
              "internalType": "uint256",
              "name": "dailyRent",
              "type": "uint256"
            },
            {
              "internalType": "uint256",
              "name": "collateral",
              "type": "uint256"
            }
          ],
          "internalType": "struct NFTLend.lendedNFT",
          "name": "",
          "type": "tuple"
        }
      ],
      "stateMutability": "view",
      "type": "function"
    },
    {
      "inputs": [
        {
          "internalType": "address",
          "name": "_userAddress",
          "type": "address"
        },
        {
          "internalType": "uint256",
          "name": "_index",
          "type": "uint256"
        }
      ],
      "name": "getUserLendedNFTListDetails",
      "outputs": [
        {
          "internalType": "string",
          "name": "",
          "type": "string"
        }
      ],
      "stateMutability": "view",
      "type": "function"
    },
    {
      "inputs": [
        {
          "internalType": "address",
          "name": "_userAddress",
          "type": "address"
        },
        {
          "internalType": "string",
          "name": "_nftKey",
          "type": "string"
        }
      ],
      "name": "getUserRentedNFTDetails",
      "outputs": [
        {
          "components": [
            {
              "internalType": "string",
              "name": "nftKey",
              "type": "string"
            },
            {
              "internalType": "address",
              "name": "lenderAddress",
              "type": "address"
            },
            {
              "internalType": "address",
              "name": "borrowerAddress",
              "type": "address"
            },
            {
              "internalType": "uint16",
              "name": "numberOfDays",
              "type": "uint16"
            },
            {
              "internalType": "uint32",
              "name": "rentalStartTime",
              "type": "uint32"
            }
          ],
          "internalType": "struct NFTRent.rentedNFT",
          "name": "",
          "type": "tuple"
        }
      ],
      "stateMutability": "view",
      "type": "function"
    },
    {
      "inputs": [
        {
          "internalType": "address",
          "name": "_userAddress",
          "type": "address"
        },
        {
          "internalType": "uint256",
          "name": "_index",
          "type": "uint256"
        }
      ],
      "name": "getUserRentedNFTListDetails",
      "outputs": [
        {
          "internalType": "string",
          "name": "",
          "type": "string"
        }
      ],
      "stateMutability": "view",
      "type": "function"
    },
    {
      "inputs": [
        {
          "internalType": "string",
          "name": "",
          "type": "string"
        }
      ],
      "name": "nftKeyToLendedNftDetails",
      "outputs": [
        {
          "internalType": "string",
          "name": "nftKey",
          "type": "string"
        },
        {
          "internalType": "address",
          "name": "lenderAddress",
          "type": "address"
        },
        {
          "internalType": "address",
          "name": "borrowerAddress",
          "type": "address"
        },
        {
          "internalType": "uint32",
          "name": "dueDate",
          "type": "uint32"
        },
        {
          "internalType": "uint256",
          "name": "dailyRent",
          "type": "uint256"
        },
        {
          "internalType": "uint256",
          "name": "collateral",
          "type": "uint256"
        }
      ],
      "stateMutability": "view",
      "type": "function"
    },
    {
      "inputs": [
        {
          "internalType": "string",
          "name": "",
          "type": "string"
        }
      ],
      "name": "nftKeyToNftProps",
      "outputs": [
        {
          "internalType": "string",
          "name": "nftKey",
          "type": "string"
        },
        {
          "internalType": "address",
          "name": "nftOwner",
          "type": "address"
        },
        {
          "internalType": "address",
          "name": "nftAddress",
          "type": "address"
        },
        {
          "internalType": "uint256",
          "name": "nftId",
          "type": "uint256"
        },
        {
          "internalType": "string",
          "name": "nftName",
          "type": "string"
        },
        {
          "internalType": "string",
          "name": "nftImageURL",
          "type": "string"
        }
      ],
      "stateMutability": "view",
      "type": "function"
    },
    {
      "inputs": [
        {
          "internalType": "string",
          "name": "",
          "type": "string"
        }
      ],
      "name": "nftKeyToRentedNftDetails",
      "outputs": [
        {
          "internalType": "string",
          "name": "nftKey",
          "type": "string"
        },
        {
          "internalType": "address",
          "name": "lenderAddress",
          "type": "address"
        },
        {
          "internalType": "address",
          "name": "borrowerAddress",
          "type": "address"
        },
        {
          "internalType": "uint16",
          "name": "numberOfDays",
          "type": "uint16"
        },
        {
          "internalType": "uint32",
          "name": "rentalStartTime",
          "type": "uint32"
        }
      ],
      "stateMutability": "view",
      "type": "function"
    },
    {
      "inputs": [
        {
          "internalType": "string",
          "name": "_nftKey",
          "type": "string"
        },
        {
          "internalType": "address",
          "name": "_borrowerAddress",
          "type": "address"
        },
        {
          "internalType": "uint16",
          "name": "_numberOfDays",
          "type": "uint16"
        },
        {
          "internalType": "uint32",
          "name": "_rentalStartTime",
          "type": "uint32"
        }
      ],
      "name": "rentNft",
      "outputs": [],
      "stateMutability": "payable",
      "type": "function"
    },
    {
      "inputs": [
        {
          "internalType": "string",
          "name": "_nftKey",
          "type": "string"
        }
      ],
      "name": "returnNFT",
      "outputs": [],
      "stateMutability": "nonpayable",
      "type": "function"
    },
    {
      "inputs": [
        {
          "internalType": "string",
          "name": "_nftKey",
          "type": "string"
        }
      ],
      "name": "stopLend",
      "outputs": [],
      "stateMutability": "nonpayable",
      "type": "function"
    }
  ],
  "bytecode": "0x608060405234801561001057600080fd5b50614089806100206000396000f3fe60806040526004361061010e5760003560e01c80637f73ef6c116100a5578063dc4ace8c11610074578063e08b573711610059578063e08b57371461031f578063e287183a1461033f578063edf538861461035f57600080fd5b8063dc4ace8c146102d0578063deb41216146102f257600080fd5b80637f73ef6c1461023f5780638d2221d91461026c578063a66a89fd1461029d578063c81e8d86146102bd57600080fd5b80634df3d7b9116100e15780634df3d7b9146101935780635289f68a146101c0578063657ed37d146101f25780636f9fb98a1461022457600080fd5b8063213f44ab14610113578063378a243b1461013e578063421b2d8b14610160578063423fdefb14610180575b600080fd5b34801561011f57600080fd5b506101286103ad565b604051610135919061388c565b60405180910390f35b34801561014a57600080fd5b5061015e61015936600461397c565b61040f565b005b34801561016c57600080fd5b5061015e61017b3660046139d5565b61081c565b61015e61018e366004613a0b565b61096e565b34801561019f57600080fd5b506101b36101ae366004613a83565b610b52565b6040516101359190613b09565b3480156101cc57600080fd5b506101e06101db36600461397c565b610d10565b60405161013596959493929190613b1c565b3480156101fe57600080fd5b5061021261020d36600461397c565b610ef8565b60405161013596959493929190613b80565b34801561023057600080fd5b50604051478152602001610135565b34801561024b57600080fd5b5061025f61025a366004613bce565b610fd5565b6040516101359190613c1c565b34801561027857600080fd5b5061028c61028736600461397c565b61124a565b604051610135959493929190613c85565b3480156102a957600080fd5b506101b36102b8366004613a83565b611327565b61015e6102cb366004613ccf565b611448565b3480156102dc57600080fd5b506102e56117e4565b6040516101359190613db9565b3480156102fe57600080fd5b5061031261030d366004613bce565b6118bd565b6040516101359190613e1b565b34801561032b57600080fd5b5061015e61033a36600461397c565b611b3c565b34801561034b57600080fd5b5061015e61035a36600461397c565b611f77565b34801561036b57600080fd5b5061039561037a3660046139d5565b6005602052600090815260409020546001600160a01b031681565b6040516001600160a01b039091168152602001610135565b6060600080548060200260200160405190810160405280929190818152602001828054801561040557602002820191906000526020600020905b81546001600160a01b031681526001909101906020018083116103e7575b5050505050905090565b6104188161250f565b33600090815260056020526040808220905190919060049061043b908590613e8a565b90815260408051602092819003830181206001808201546001600160a01b031660009081526005909552928420909450929183019061047b908790613e8a565b9081526040519081900360200181206004808201548554885493955090936001600160a01b039182169390911691906104b5908a90613e8a565b90815260405190819003602001902060006104d0828261373e565b506001810180546001600160a01b031916905560020180546001600160d01b0319169055600061050089896127e6565b905061050c818961288d565b876003018960405161051e9190613e8a565b9081526040519081900360200190206000610539828261373e565b506001810180546001600160a01b0319169055600290810180546001600160d01b0319169055850154600160a01b900463ffffffff16428111156106c1576002860180546001600160a01b03191690556040805160c0810182528b81526001600160a01b038616602082015260008183015263ffffffff83166060820152600380890154608083015260a082018890529151909182916105da908e90613e8a565b90815260200160405180910390206000820151816000019080519060200190610604929190613778565b50602082810151600180840180546001600160a01b039384166001600160a01b0319909116179055604085015160028086018054606089015163ffffffff16600160a01b026001600160c01b031990911693909516929092179390931790556080850151600385015560a090940151600490930192909255815492830182556000919091528c516106ba927f405787fa12a823e0f2b7631cc41b3ba8828b3321ca811111fa75cd3aa3bb5ace01918e0190613778565b50506107b0565b60006106cd8b89612998565b90506106d98189612a37565b876001018b6040516106eb9190613e8a565b9081526040519081900360200190206000610706828261373e565b50600181810180546001600160a01b03191690556002820180546001600160c01b031916905560006003830181905560049092019190915560405161074c908d90613e8a565b9081526040519081900360200190206000610767828261373e565b6001820180546001600160a01b0319908116909155600283018054909116905560006003830181905561079e90600484019061373e565b6107ac60058301600061373e565b5050505b6040516001600160a01b0384169086156108fc029087906000818181858888f193505050501580156107e6573d6000803e3d6000fd5b506040517f5762dfb61a8669a649a124998e72cecf9e9bc9d3f30c4c5dbca184ca7a97d6d090600090a150505050505050505050565b6001600160a01b0381166108695760405162461bcd60e51b815260206004820152600f60248201526e496e76616c6964206164647265737360881b60448201526064015b60405180910390fd5b336001600160a01b038216146108e75760405162461bcd60e51b815260206004820152602860248201527f4f6e6c792074686520757365722063616e2061646420686973206163636f756e60448201527f7420746f206170700000000000000000000000000000000000000000000000006064820152608401610860565b6001600160a01b038181166000908152600560205260409020541661096b576001600160a01b038116600081815260056020526040812080546001600160a01b0319908116841790915581546001810183559180527f290decd9548b62a8d60345a988386fc84ba6bc95484008f6362f93160ef3e563909101805490911690911790555b50565b61097a84848484612b1f565b600060038560405161098c9190613e8a565b908152602001604051809103902060030154905060006003866040516109b29190613e8a565b90815260405190819003602001902060040154905060006109d761ffff861684613ebc565b905060006109e58383613edb565b905080341015610a5d5760405162461bcd60e51b815260206004820152602a60248201527f43616e27742072656e74204e465420617320696e73756666696369656e74206160448201527f6d6f756e742070616964000000000000000000000000000000000000000000006064820152608401610860565b6000600389604051610a6f9190613e8a565b908152604051908190036020019020600101546001600160a01b03169050610a9989898989612e23565b81341115610ae457876001600160a01b0381166108fc610ab98534613ef3565b6040518115909202916000818181858888f19350505050158015610ae1573d6000803e3d6000fd5b50505b60405181906001600160a01b0382169085156108fc029086906000818181858888f19350505050158015610b1c573d6000803e3d6000fd5b506040517fe85b6202f15dfae39a54e501b5e65cbcc44a996fb8d14f843c7cb8e16fd49c7490600090a150505050505050505050565b60606001600160a01b038316610b9c5760405162461bcd60e51b815260206004820152600f60248201526e496e76616c6964206164647265737360881b6044820152606401610860565b6001600160a01b0380841660009081526005602052604090208054909116610bfd5760405162461bcd60e51b81526020600482015260146024820152735573657220646f6573206e6f742065786973747360601b6044820152606401610860565b60048101548310610c5e5760405162461bcd60e51b815260206004820152602560248201527f4e66742061742074686520676976656e20696e64657820646f6573206e6f7420604482015264195e1a5cdd60da1b6064820152608401610860565b806004018381548110610c7357610c73613f0a565b906000526020600020018054610c8890613f20565b80601f0160208091040260200160405190810160405280929190818152602001828054610cb490613f20565b8015610d015780601f10610cd657610100808354040283529160200191610d01565b820191906000526020600020905b815481529060010190602001808311610ce457829003601f168201915b50505050509150505b92915050565b8051602081830181018051600182529282019190930120915280548190610d3690613f20565b80601f0160208091040260200160405190810160405280929190818152602001828054610d6290613f20565b8015610daf5780601f10610d8457610100808354040283529160200191610daf565b820191906000526020600020905b815481529060010190602001808311610d9257829003601f168201915b5050505060018301546002840154600385015460048601805495966001600160a01b03948516969490931694509092610de790613f20565b80601f0160208091040260200160405190810160405280929190818152602001828054610e1390613f20565b8015610e605780601f10610e3557610100808354040283529160200191610e60565b820191906000526020600020905b815481529060010190602001808311610e4357829003601f168201915b505050505090806005018054610e7590613f20565b80601f0160208091040260200160405190810160405280929190818152602001828054610ea190613f20565b8015610eee5780601f10610ec357610100808354040283529160200191610eee565b820191906000526020600020905b815481529060010190602001808311610ed157829003601f168201915b5050505050905086565b8051602081830181018051600382529282019190930120915280548190610f1e90613f20565b80601f0160208091040260200160405190810160405280929190818152602001828054610f4a90613f20565b8015610f975780601f10610f6c57610100808354040283529160200191610f97565b820191906000526020600020905b815481529060010190602001808311610f7a57829003601f168201915b5050505060018301546002840154600385015460049095015493946001600160a01b03928316949282169350600160a01b90910463ffffffff169186565b6040805160a0810182526060808252600060208301819052928201839052810182905260808101919091526001600160a01b0383166110485760405162461bcd60e51b815260206004820152600f60248201526e496e76616c6964206164647265737360881b6044820152606401610860565b6001600160a01b03808416600090815260056020526040902080549091166110a95760405162461bcd60e51b81526020600482015260146024820152735573657220646f6573206e6f742065786973747360601b6044820152606401610860565b60006001600160a01b031681600301846040516110c69190613e8a565b908152604051908190036020019020600201546001600160a01b0316141561113f5760405162461bcd60e51b815260206004820152602660248201527f5573657220646f6573206e6f74206861766520616e7920737563682072656e7460448201526519590813999d60d21b6064820152608401610860565b80600301836040516111519190613e8a565b90815260200160405180910390206040518060a001604052908160008201805461117a90613f20565b80601f01602080910402602001604051908101604052809291908181526020018280546111a690613f20565b80156111f35780601f106111c8576101008083540402835291602001916111f3565b820191906000526020600020905b8154815290600101906020018083116111d657829003601f168201915b505050918352505060018201546001600160a01b0390811660208301526002909201549182166040820152600160a01b820461ffff166060820152600160b01b90910463ffffffff16608090910152949350505050565b805160208183018101805160048252928201919093012091528054819061127090613f20565b80601f016020809104026020016040519081016040528092919081815260200182805461129c90613f20565b80156112e95780601f106112be576101008083540402835291602001916112e9565b820191906000526020600020905b8154815290600101906020018083116112cc57829003601f168201915b50505050600183015460029093015491926001600160a01b03908116929081169150600160a01b810461ffff1690600160b01b900463ffffffff1685565b60606001600160a01b0383166113715760405162461bcd60e51b815260206004820152600f60248201526e496e76616c6964206164647265737360881b6044820152606401610860565b6001600160a01b03808416600090815260056020526040902080549091166113d25760405162461bcd60e51b81526020600482015260146024820152735573657220646f6573206e6f742065786973747360601b6044820152606401610860565b600281015483106114335760405162461bcd60e51b815260206004820152602560248201527f4e66742061742074686520676976656e20696e64657820646f6573206e6f7420604482015264195e1a5cdd60da1b6064820152608401610860565b806002018381548110610c7357610c73613f0a565b336001600160a01b038516146114a05760405162461bcd60e51b815260206004820152601d60248201527f43616e2774206c656e6420736f6d656f6e6520656c73652773204e46540000006044820152606401610860565b6001600160a01b03848116600090815260056020526040902054166115075760405162461bcd60e51b815260206004820152601360248201527f5573657220646f6573206e6f74206578697374000000000000000000000000006044820152606401610860565b60006001600160a01b031660018b6040516115229190613e8a565b908152604051908190036020019020600201546001600160a01b0316146115975760405162461bcd60e51b8152602060048201526024808201527f4e465420697320616c726561647920617661696c61626c6520666f722072656e60448201526374696e6760e01b6064820152608401610860565b60006001600160a01b031660038b6040516115b29190613e8a565b908152604051908190036020019020600101546001600160a01b0316146116275760405162461bcd60e51b8152602060048201526024808201527f4e465420697320616c726561647920617661696c61626c6520666f722072656e60448201526374696e6760e01b6064820152608401610860565b836001600160a01b0316896001600160a01b0316146116885760405162461bcd60e51b815260206004820152600d60248201527f4e6f6e204e4654204f776e6572000000000000000000000000000000000000006044820152606401610860565b428363ffffffff16116116cf5760405162461bcd60e51b815260206004820152600f60248201526e4261642074696d6520626f756e647360881b6044820152606401610860565b60006040518060c001604052808c81526020018b6001600160a01b031681526020018a6001600160a01b031681526020018981526020018881526020018781525090508060018c6040516117239190613e8a565b9081526020016040518091039020600082015181600001908051906020019061174d929190613778565b506020828101516001830180546001600160a01b039283166001600160a01b031991821617909155604085015160028501805491909316911617905560608301516003830155608083015180516117aa9260048501920190613778565b5060a082015180516117c6916005840191602090910190613778565b509050506117d78b86868686613350565b5050505050505050505050565b60606002805480602002602001604051908101604052809291908181526020016000905b828210156118b457838290600052602060002001805461182790613f20565b80601f016020809104026020016040519081016040528092919081815260200182805461185390613f20565b80156118a05780601f10611875576101008083540402835291602001916118a0565b820191906000526020600020905b81548152906001019060200180831161188357829003601f168201915b505050505081526020019060010190611808565b50505050905090565b6040805160c081018252606080825260006020830181905292820183905281018290526080810182905260a08101919091526001600160a01b0383166119375760405162461bcd60e51b815260206004820152600f60248201526e496e76616c6964206164647265737360881b6044820152606401610860565b6001600160a01b03808416600090815260056020526040902080549091166119985760405162461bcd60e51b81526020600482015260146024820152735573657220646f6573206e6f742065786973747360601b6044820152606401610860565b60006001600160a01b031681600101846040516119b59190613e8a565b908152604051908190036020019020600101546001600160a01b03161415611a2e5760405162461bcd60e51b815260206004820152602660248201527f5573657220646f6573206e6f74206861766520616e792073756368206c656e6460448201526519590813999d60d21b6064820152608401610860565b8060010183604051611a409190613e8a565b90815260200160405180910390206040518060c0016040529081600082018054611a6990613f20565b80601f0160208091040260200160405190810160405280929190818152602001828054611a9590613f20565b8015611ae25780601f10611ab757610100808354040283529160200191611ae2565b820191906000526020600020905b815481529060010190602001808311611ac557829003601f168201915b505050918352505060018201546001600160a01b03908116602083015260028301549081166040830152600160a01b900463ffffffff1660608201526003820154608082015260049091015460a090910152949350505050565b33600090815260056020526040902080546001600160a01b0316611b995760405162461bcd60e51b81526020600482015260146024820152735573657220646f6573206e6f742065786973747360601b6044820152606401610860565b6000600183604051611bab9190613e8a565b90815260405190819003602001902060028101549091506001600160a01b0316611c0e5760405162461bcd60e51b81526020600482015260146024820152734e4654206973206e6f7420617661696c61626c6560601b6044820152606401610860565b6000600384604051611c209190613e8a565b90815260405190819003602001902060018101549091506001600160a01b0316611c8c5760405162461bcd60e51b815260206004820152601560248201527f4e465420697320616c72656164792072656e74656400000000000000000000006044820152606401610860565b60028101546001600160a01b031615611ce75760405162461bcd60e51b815260206004820152601560248201527f4e465420697320616c72656164792072656e74656400000000000000000000006044820152606401610860565b60018101546001600160a01b03163314611d4e5760405162461bcd60e51b815260206004820152602260248201527f43616e27742073746f70206c656e6420736f6d656f6e6520656c73652773204e604482015261119560f21b6064820152608401610860565b336001600160a01b03168360010185604051611d6a9190613e8a565b908152604051908190036020019020600101546001600160a01b031614611de45760405162461bcd60e51b815260206004820152602860248201527f5573657220646f6573206e6f74206861766520616e792073756368204e46547360448201526708185cc81b195b9960c21b6064820152608401610860565b6000611def8561359e565b9050611dfa8161363e565b600385604051611e0a9190613e8a565b9081526040519081900360200190206000611e25828261373e565b50600181810180546001600160a01b03191690556002820180546001600160c01b0319169055600060038301819055600490920191909155604051611e6b908790613e8a565b9081526040519081900360200190206000611e86828261373e565b6001820180546001600160a01b03199081169091556002830180549091169055600060038301819055611ebd90600484019061373e565b611ecb60058301600061373e565b50506000611ed98686612998565b9050611ee58186612a37565b8460010186604051611ef79190613e8a565b9081526040519081900360200190206000611f12828261373e565b506001810180546001600160a01b03191690556002810180546001600160c01b031916905560006003820181905560049091018190556040517fe0306ce2bcb4de1bd06e23b7f715b3fdf3ab2c75402eb54e99bd333eb89c8f899190a1505050505050565b33600090815260056020526040902080546001600160a01b0316611fdd5760405162461bcd60e51b815260206004820152601560248201527f4c656e64657220646f6573206e6f7420657869737400000000000000000000006044820152606401610860565b6000600183604051611fef9190613e8a565b90815260405190819003602001902060028101549091506001600160a01b03166120525760405162461bcd60e51b81526020600482015260146024820152734e4654206973206e6f7420617661696c61626c6560601b6044820152606401610860565b60006003846040516120649190613e8a565b90815260405190819003602001902060018101549091506001600160a01b0316156120c55760405162461bcd60e51b8152602060048201526011602482015270139195081a5cc81b9bdd081c995b9d1959607a1b6044820152606401610860565b60006004856040516120d79190613e8a565b90815260405190819003602001902060028101549091506001600160a01b03166121375760405162461bcd60e51b8152602060048201526011602482015270139195081a5cc81b9bdd081c995b9d1959607a1b6044820152606401610860565b60028101546001600160a01b03908116600090815260056020526040902080549091166121a65760405162461bcd60e51b815260206004820152601760248201527f426f72726f77657220646f6573206e6f742065786973740000000000000000006044820152606401610860565b600085600101876040516121ba9190613e8a565b90815260405190819003602001902060018101549091506001600160a01b031633146122395760405162461bcd60e51b815260206004820152602860248201527f5573657220646f6573206e6f74206861766520616e792073756368204e46547360448201526708185cc81b195b9960c21b6064820152608401610860565b6002830154600160b01b810463ffffffff1690600160a01b900461ffff1660006122668262015180613f5b565b6122769063ffffffff1684613edb565b90504281106122ed5760405162461bcd60e51b815260206004820152602b60248201527f43616e277420636c61696d20636f6c6c61746572616c2074696c6c2072656e7460448201527f656420656e642074696d650000000000000000000000000000000000000000006064820152608401610860565b60008460040154905060048b6040516123069190613e8a565b9081526040519081900360200190206000612321828261373e565b50600181810180546001600160a01b0319169055600290910180546001600160d01b0319169055604051612356908d90613e8a565b9081526040519081900360200190206000612371828261373e565b6001820180546001600160a01b031990811690915560028301805490911690556000600383018190556123a890600484019061373e565b6123b660058301600061373e565b505060006123c48c8c612998565b90506123d0818c612a37565b8a6001018c6040516123e29190613e8a565b90815260405190819003602001902060006123fd828261373e565b506001810180546001600160a01b03191690556002810180546001600160c01b0319169055600060038201819055600490910181905561243d8d896127e6565b9050612449818961288d565b876003018d60405161245b9190613e8a565b9081526040519081900360200190206000612476828261373e565b506001810180546001600160a01b031916905560020180546001600160d01b03191690558b546040516001600160a01b039091169081906108fc8615029086906000818181858888f193505050501580156124d5573d6000803e3d6000fd5b506040517f19d743eeac3391625f97989fda0986e3b231edcea866ff523edc642b6a9a6e6890600090a15050505050505050505050505050565b33600090815260056020526040902080546001600160a01b031661256c5760405162461bcd60e51b81526020600482015260146024820152735573657220646f6573206e6f742065786973747360601b6044820152606401610860565b600060018360405161257e9190613e8a565b90815260405190819003602001902060028101549091506001600160a01b03166125e15760405162461bcd60e51b81526020600482015260146024820152734e4654206973206e6f7420617661696c61626c6560601b6044820152606401610860565b60006003846040516125f39190613e8a565b90815260405190819003602001902060018101549091506001600160a01b0316156126545760405162461bcd60e51b8152602060048201526011602482015270139195081a5cc81b9bdd081c995b9d1959607a1b6044820152606401610860565b60006004856040516126669190613e8a565b90815260405190819003602001902060028101549091506001600160a01b03166126c65760405162461bcd60e51b8152602060048201526011602482015270139195081a5cc81b9bdd081c995b9d1959607a1b6044820152606401610860565b60018101546001600160a01b03908116600090815260056020526040902080549091166127355760405162461bcd60e51b815260206004820152601560248201527f4c656e64657220646f6573206e6f7420657869737400000000000000000000006044820152606401610860565b600085600301876040516127499190613e8a565b90815260405190819003602001902060028101549091506001600160a01b031633146127dd5760405162461bcd60e51b815260206004820152602860248201527f5573657220646f6573206e6f74206861766520616e792073756368204e46547360448201527f2061732072656e740000000000000000000000000000000000000000000000006064820152608401610860565b50505050505050565b6004810154600090815b818110156128855783600401818154811061280d5761280d613f0a565b906000526020600020016040516020016128279190613f87565b604051602081830303815290604052805190602001208560405160200161284e9190613e8a565b604051602081830303815290604052805190602001201415612873579150610d0a9050565b8061287d81614023565b9150506127f0565b509392505050565b600481015482106128f65760405162461bcd60e51b815260206004820152602d60248201527f4e6674206b6579206e6f7420617661696c61626c6520696e207468652061707060448201526c081c995b9d1a5b99c81b1a5cdd609a1b6064820152608401610860565b600481015460009061290a90600190613ef3565b905081600401818154811061292157612921613f0a565b9060005260206000200182600401848154811061294057612940613f0a565b9060005260206000200190805461295690613f20565b6129619291906137fc565b50816004018054806129755761297561403e565b600190038181906000526020600020016000612991919061373e565b9055505050565b6002810154600090815b81811015612885578360020181815481106129bf576129bf613f0a565b906000526020600020016040516020016129d99190613f87565b6040516020818303038152906040528051906020012085604051602001612a009190613e8a565b604051602081830303815290604052805190602001201415612a25579150610d0a9050565b80612a2f81614023565b9150506129a2565b60028101548210612aa05760405162461bcd60e51b815260206004820152602d60248201527f4e6674206b6579206e6f7420617661696c61626c6520696e207468652061707060448201526c081c995b9d1a5b99c81b1a5cdd609a1b6064820152608401610860565b6002810154600090612ab490600190613ef3565b9050816002018181548110612acb57612acb613f0a565b90600052602060002001826002018481548110612aea57612aea613f0a565b90600052602060002001908054612b0090613f20565b612b0b9291906137fc565b50816002018054806129755761297561403e565b336001600160a01b03841614612b9d5760405162461bcd60e51b815260206004820152602d60248201527f43616e277420626f72726f77204e465420666f7220616e6f7468657220626f7260448201527f726f7765722061646472657373000000000000000000000000000000000000006064820152608401610860565b6001600160a01b0383811660009081526005602052604090205416612c045760405162461bcd60e51b815260206004820152601360248201527f5573657220646f6573206e6f74206578697374000000000000000000000000006044820152606401610860565b6000600185604051612c169190613e8a565b90815260405190819003602001902060028101549091506001600160a01b0316612c825760405162461bcd60e51b815260206004820181905260248201527f4e4654206973206e6f7420617661696c61626c6520666f722072656e74696e676044820152606401610860565b60006001600160a01b0316600386604051612c9d9190613e8a565b908152604051908190036020019020600101546001600160a01b03161415612d075760405162461bcd60e51b815260206004820181905260248201527f4e4654206973206e6f7420617661696c61626c6520666f722072656e74696e676044820152606401610860565b428263ffffffff1610612d4e5760405162461bcd60e51b815260206004820152600f60248201526e4261642074696d6520626f756e647360881b6044820152606401610860565b6000612d6161ffff851662015180613f5b565b612d6b9084614054565b90506000600387604051612d7f9190613e8a565b9081526040519081900360200190206002015463ffffffff600160a01b90910481169150821681116127dd5760405162461bcd60e51b815260206004820152604160248201527f43616e27742072656e74204e465420666f72206d6f7265207468616e20616d6f60448201527f756e74206f662074696d6520617661696c61626c6520666f722072656e74696e6064820152606760f81b608482015260a401610860565b6000600385604051612e359190613e8a565b908152604051908190036020019020600101546001600160a01b0390811691508416811415612ecc5760405162461bcd60e51b815260206004820152603460248201527f426f72726f77657220616464726573732063616e27742062652074686520736160448201527f6d65206173206c656e64657220616464726573730000000000000000000000006064820152608401610860565b6001600160a01b03811660009081526005602052604080822090519091906001830190612efa908990613e8a565b908152604051908190036020019020600201546001600160a01b031614612f6e5760405162461bcd60e51b815260206004820152602260248201527f4e465420616c72656164792072656e74656420627920736f6d656f6e6520656c604482015261736560f01b6064820152608401610860565b848160010187604051612f819190613e8a565b908152604080516020928190038301812060020180546001600160a01b0319166001600160a01b0395861617905560a0810182528981528584168382015292881683820181905261ffff8816606085015263ffffffff871660808501526000908152600590925280822090519091906003830190613000908b90613e8a565b908152604051908190036020019020600201546001600160a01b03161461307c5760405162461bcd60e51b815260206004820152602a60248201527f4e667420697320616c72656164792070726573656e7420696e20757365722072604482015269656e746564204e66747360b01b6064820152608401610860565b81816003018960405161308f9190613e8a565b908152602001604051809103902060008201518160000190805190602001906130b9929190613778565b50602082810151600180840180546001600160a01b039384166001600160a01b0319909116179055604085015160029094018054606087015160809097015163ffffffff16600160b01b0263ffffffff60b01b1961ffff909816600160a01b0275ffffffffffffffffffffffffffffffffffffffffffff199092169690941695909517949094179490941617909155600483018054928301815560009081528190208a5161316e9391909101918b0190613778565b5060006001600160a01b031660048960405161318a9190613e8a565b908152604051908190036020019020600201546001600160a01b0316146132065760405162461bcd60e51b815260206004820152602a60248201527f4e667420697320616c72656164792070726573656e7420696e20757365722072604482015269656e746564204e66747360b01b6064820152608401610860565b816004896040516132179190613e8a565b90815260200160405180910390206000820151816000019080519060200190613241929190613778565b5060208201516001820180546001600160a01b039283166001600160a01b0319909116179055604083015160029092018054606085015160809095015163ffffffff16600160b01b0263ffffffff60b01b1961ffff909616600160a01b0275ffffffffffffffffffffffffffffffffffffffffffff199092169490931693909317929092179290921691909117905560006132db8961359e565b90506132e68161363e565b6003896040516132f69190613e8a565b9081526040519081900360200190206000613311828261373e565b506001810180546001600160a01b03191690556002810180546001600160c01b0319169055600060038201819055600490910155505050505050505050565b6040805160c0810182528681526001600160a01b0386166020808301829052600083850181905263ffffffff881660608501526080840187905260a08401869052918252600590528290209151909190829060018301906133b2908a90613e8a565b908152602001604051809103902060008201518160000190805190602001906133dc929190613778565b50602082810151600180840180546001600160a01b039384166001600160a01b0319909116179055604085015160028086018054606089015163ffffffff16600160a01b026001600160c01b031990911693909516929092179390931790556080850151600385015560a09094015160049093019290925590830180549283018155600090815281902089516134799391909101918a0190613778565b508160038860405161348b9190613e8a565b908152602001604051809103902060008201518160000190805190602001906134b5929190613778565b50602082810151600180840180546001600160a01b039384166001600160a01b0319909116179055604085015160028086018054606089015163ffffffff16600160a01b026001600160c01b031990911693909516929092179390931790556080850151600385015560a09094015160049093019290925581549283018255600091909152885161356b927f405787fa12a823e0f2b7631cc41b3ba8828b3321ca811111fa75cd3aa3bb5ace01918a0190613778565b506040517fdb8317522294099fa9360f57f5f2c8178138bbeb092f99c41ada4fefc39fbe5e90600090a150505050505050565b600254600090815b8181101561363757600281815481106135c1576135c1613f0a565b906000526020600020016040516020016135db9190613f87565b60405160208183030381529060405280519060200120846040516020016136029190613e8a565b604051602081830303815290604052805190602001201415613625579392505050565b8061362f81614023565b9150506135a6565b5092915050565b60025481106136a55760405162461bcd60e51b815260206004820152602d60248201527f4e6674206b6579206e6f7420617661696c61626c6520696e207468652061707060448201526c081c995b9d1a5b99c81b1a5cdd609a1b6064820152608401610860565b6002546000906136b790600190613ef3565b9050600281815481106136cc576136cc613f0a565b90600052602060002001600283815481106136e9576136e9613f0a565b906000526020600020019080546136ff90613f20565b61370a9291906137fc565b50600280548061371c5761371c61403e565b600190038181906000526020600020016000613738919061373e565b90555050565b50805461374a90613f20565b6000825580601f1061375a575050565b601f01602090049060005260206000209081019061096b9190613877565b82805461378490613f20565b90600052602060002090601f0160209004810192826137a657600085556137ec565b82601f106137bf57805160ff19168380011785556137ec565b828001600101855582156137ec579182015b828111156137ec5782518255916020019190600101906137d1565b506137f8929150613877565b5090565b82805461380890613f20565b90600052602060002090601f01602090048101928261382a57600085556137ec565b82601f1061383b57805485556137ec565b828001600101855582156137ec57600052602060002091601f016020900482015b828111156137ec57825482559160010191906001019061385c565b5b808211156137f85760008155600101613878565b6020808252825182820181905260009190848201906040850190845b818110156138cd5783516001600160a01b0316835292840192918401916001016138a8565b50909695505050505050565b634e487b7160e01b600052604160045260246000fd5b600082601f83011261390057600080fd5b813567ffffffffffffffff8082111561391b5761391b6138d9565b604051601f8301601f19908116603f01168101908282118183101715613943576139436138d9565b8160405283815286602085880101111561395c57600080fd5b836020870160208301376000602085830101528094505050505092915050565b60006020828403121561398e57600080fd5b813567ffffffffffffffff8111156139a557600080fd5b6139b1848285016138ef565b949350505050565b80356001600160a01b03811681146139d057600080fd5b919050565b6000602082840312156139e757600080fd5b6139f0826139b9565b9392505050565b803563ffffffff811681146139d057600080fd5b60008060008060808587031215613a2157600080fd5b843567ffffffffffffffff811115613a3857600080fd5b613a44878288016138ef565b945050613a53602086016139b9565b9250604085013561ffff81168114613a6a57600080fd5b9150613a78606086016139f7565b905092959194509250565b60008060408385031215613a9657600080fd5b613a9f836139b9565b946020939093013593505050565b60005b83811015613ac8578181015183820152602001613ab0565b83811115613ad7576000848401525b50505050565b60008151808452613af5816020860160208601613aad565b601f01601f19169290920160200192915050565b6020815260006139f06020830184613add565b60c081526000613b2f60c0830189613add565b6001600160a01b03888116602085015287166040840152606083018690528281036080840152613b5f8186613add565b905082810360a0840152613b738185613add565b9998505050505050505050565b60c081526000613b9360c0830189613add565b6001600160a01b03978816602084015295909616604082015263ffffffff939093166060840152608083019190915260a09091015292915050565b60008060408385031215613be157600080fd5b613bea836139b9565b9150602083013567ffffffffffffffff811115613c0657600080fd5b613c12858286016138ef565b9150509250929050565b602081526000825160a06020840152613c3860c0840182613add565b905060208401516001600160a01b038082166040860152806040870151166060860152505061ffff606085015116608084015263ffffffff60808501511660a08401528091505092915050565b60a081526000613c9860a0830188613add565b6001600160a01b03968716602084015294909516604082015261ffff92909216606083015263ffffffff1660809091015292915050565b6000806000806000806000806000806101408b8d031215613cef57600080fd5b8a3567ffffffffffffffff80821115613d0757600080fd5b613d138e838f016138ef565b9b50613d2160208e016139b9565b9a50613d2f60408e016139b9565b995060608d0135985060808d0135915080821115613d4c57600080fd5b613d588e838f016138ef565b975060a08d0135915080821115613d6e57600080fd5b50613d7b8d828e016138ef565b955050613d8a60c08c016139b9565b9350613d9860e08c016139f7565b92506101008b013591506101208b013590509295989b9194979a5092959850565b6000602080830181845280855180835260408601915060408160051b870101925083870160005b82811015613e0e57603f19888603018452613dfc858351613add565b94509285019290850190600101613de0565b5092979650505050505050565b602081526000825160c06020840152613e3760e0840182613add565b905060208401516001600160a01b038082166040860152806040870151166060860152505063ffffffff6060850151166080840152608084015160a084015260a084015160c08401528091505092915050565b60008251613e9c818460208701613aad565b9190910192915050565b634e487b7160e01b600052601160045260246000fd5b6000816000190483118215151615613ed657613ed6613ea6565b500290565b60008219821115613eee57613eee613ea6565b500190565b600082821015613f0557613f05613ea6565b500390565b634e487b7160e01b600052603260045260246000fd5b600181811c90821680613f3457607f821691505b60208210811415613f5557634e487b7160e01b600052602260045260246000fd5b50919050565b600063ffffffff80831681851681830481118215151615613f7e57613f7e613ea6565b02949350505050565b600080835481600182811c915080831680613fa357607f831692505b6020808410821415613fc357634e487b7160e01b86526022600452602486fd5b818015613fd75760018114613fe857614015565b60ff19861689528489019650614015565b60008a81526020902060005b8681101561400d5781548b820152908501908301613ff4565b505084890196505b509498975050505050505050565b600060001982141561403757614037613ea6565b5060010190565b634e487b7160e01b600052603160045260246000fd5b600063ffffffff80831681851680830382111561407357614073613ea6565b0194935050505056fea164736f6c6343000809000a",
  "linkReferences": {},
  "deployedLinkReferences": {}
}