{
  "_format": "hh-sol-artifact-1",
  "contractName": "NFTRent",
  "sourceName": "contracts/NFTRent.sol",
  "abi": [
    {
      "inputs": [],
      "name": "getContractBalance",
      "outputs": [
        {
          "internalType": "uint256",
          "name": "",
          "type": "uint256"
        }
      ],
      "stateMutability": "view",
      "type": "function"
    },
    {
      "inputs": [],
      "name": "getUserAddressList",
      "outputs": [
        {
          "internalType": "address[]",
          "name": "",
          "type": "address[]"
        }
      ],
      "stateMutability": "view",
      "type": "function"
    },
    {
      "inputs": [
        {
          "internalType": "string",
          "name": "",
          "type": "string"
        }
      ],
      "name": "nftKeyToNftProps",
      "outputs": [
        {
          "internalType": "string",
          "name": "nftKey",
          "type": "string"
        },
        {
          "internalType": "address",
          "name": "nftOwner",
          "type": "address"
        },
        {
          "internalType": "address",
          "name": "nftAddress",
          "type": "address"
        },
        {
          "internalType": "uint256",
          "name": "nftId",
          "type": "uint256"
        },
        {
          "internalType": "string",
          "name": "nftName",
          "type": "string"
        },
        {
          "internalType": "string",
          "name": "nftImageURL",
          "type": "string"
        }
      ],
      "stateMutability": "view",
      "type": "function"
    },
    {
      "inputs": [
        {
          "internalType": "string",
          "name": "",
          "type": "string"
        }
      ],
      "name": "nftKeyToRentedNftDetails",
      "outputs": [
        {
          "internalType": "string",
          "name": "nftKey",
          "type": "string"
        },
        {
          "internalType": "address",
          "name": "lenderAddress",
          "type": "address"
        },
        {
          "internalType": "address",
          "name": "borrowerAddress",
          "type": "address"
        },
        {
          "internalType": "uint16",
          "name": "numberOfDays",
          "type": "uint16"
        },
        {
          "internalType": "uint32",
          "name": "rentalStartTime",
          "type": "uint32"
        }
      ],
      "stateMutability": "view",
      "type": "function"
    }
  ],
  "bytecode": "0x608060405234801561001057600080fd5b50610668806100206000396000f3fe608060405234801561001057600080fd5b506004361061004c5760003560e01c8063213f44ab146100515780635289f68a1461006f5780636f9fb98a146100945780638d2221d9146100a2575b600080fd5b6100596100c6565b6040516100669190610411565b60405180910390f35b61008261007d366004610474565b610128565b60405161006696959493929190610572565b604051478152602001610066565b6100b56100b0366004610474565b610310565b6040516100669594939291906105d6565b6060600080548060200260200160405190810160405280929190818152602001828054801561011e57602002820191906000526020600020905b81546001600160a01b03168152600190910190602001808311610100575b5050505050905090565b805160208183018101805160018252928201919093012091528054819061014e90610620565b80601f016020809104026020016040519081016040528092919081815260200182805461017a90610620565b80156101c75780601f1061019c576101008083540402835291602001916101c7565b820191906000526020600020905b8154815290600101906020018083116101aa57829003601f168201915b5050505060018301546002840154600385015460048601805495966001600160a01b039485169694909316945090926101ff90610620565b80601f016020809104026020016040519081016040528092919081815260200182805461022b90610620565b80156102785780601f1061024d57610100808354040283529160200191610278565b820191906000526020600020905b81548152906001019060200180831161025b57829003601f168201915b50505050509080600501805461028d90610620565b80601f01602080910402602001604051908101604052809291908181526020018280546102b990610620565b80156103065780601f106102db57610100808354040283529160200191610306565b820191906000526020600020905b8154815290600101906020018083116102e957829003601f168201915b5050505050905086565b805160208183018101805160028252928201919093012091528054819061033690610620565b80601f016020809104026020016040519081016040528092919081815260200182805461036290610620565b80156103af5780601f10610384576101008083540402835291602001916103af565b820191906000526020600020905b81548152906001019060200180831161039257829003601f168201915b50505050600183015460029093015491926001600160a01b0390811692908116915074010000000000000000000000000000000000000000810461ffff1690760100000000000000000000000000000000000000000000900463ffffffff1685565b6020808252825182820181905260009190848201906040850190845b818110156104525783516001600160a01b03168352928401929184019160010161042d565b50909695505050505050565b634e487b7160e01b600052604160045260246000fd5b60006020828403121561048657600080fd5b813567ffffffffffffffff8082111561049e57600080fd5b818401915084601f8301126104b257600080fd5b8135818111156104c4576104c461045e565b604051601f8201601f19908116603f011681019083821181831017156104ec576104ec61045e565b8160405282815287602084870101111561050557600080fd5b826020860160208301376000928101602001929092525095945050505050565b6000815180845260005b8181101561054b5760208185018101518683018201520161052f565b8181111561055d576000602083870101525b50601f01601f19169290920160200192915050565b60c08152600061058560c0830189610525565b6001600160a01b038881166020850152871660408401526060830186905282810360808401526105b58186610525565b905082810360a08401526105c98185610525565b9998505050505050505050565b60a0815260006105e960a0830188610525565b6001600160a01b03968716602084015294909516604082015261ffff92909216606083015263ffffffff1660809091015292915050565b600181811c9082168061063457607f821691505b6020821081141561065557634e487b7160e01b600052602260045260246000fd5b5091905056fea164736f6c6343000809000a",
  "linkReferences": {},
  "deployedLinkReferences": {}
}