{
  "_format": "hh-sol-artifact-1",
  "contractName": "NFTRental",
  "sourceName": "contracts/NFTRental.sol",
  "abi": [
    {
      "anonymous": false,
      "inputs": [],
      "name": "NFTCollateralClaimed",
      "type": "event"
    },
    {
      "anonymous": false,
      "inputs": [],
      "name": "NFTLended",
      "type": "event"
    },
    {
      "anonymous": false,
      "inputs": [],
      "name": "NFTRented",
      "type": "event"
    },
    {
      "anonymous": false,
      "inputs": [],
      "name": "NFTReturned",
      "type": "event"
    },
    {
      "anonymous": false,
      "inputs": [],
      "name": "NFTStopLended",
      "type": "event"
    },
    {
      "inputs": [
        {
          "internalType": "string",
          "name": "_nftKey",
          "type": "string"
        },
        {
          "internalType": "address",
          "name": "_nftOwner",
          "type": "address"
        },
        {
          "internalType": "address",
          "name": "_nftAddress",
          "type": "address"
        },
        {
          "internalType": "uint256",
          "name": "_nftId",
          "type": "uint256"
        },
        {
          "internalType": "string",
          "name": "_nftName",
          "type": "string"
        },
        {
          "internalType": "string",
          "name": "_nftImageURL",
          "type": "string"
        },
        {
          "internalType": "address",
          "name": "_lenderAddress",
          "type": "address"
        },
        {
          "internalType": "uint32",
          "name": "_dueDate",
          "type": "uint32"
        },
        {
          "internalType": "uint256",
          "name": "_dailyRent",
          "type": "uint256"
        },
        {
          "internalType": "uint256",
          "name": "_collateral",
          "type": "uint256"
        }
      ],
      "name": "addNFTToLend",
      "outputs": [],
      "stateMutability": "payable",
      "type": "function"
    },
    {
      "inputs": [
        {
          "internalType": "address",
          "name": "_userAddress",
          "type": "address"
        }
      ],
      "name": "addUser",
      "outputs": [],
      "stateMutability": "nonpayable",
      "type": "function"
    },
    {
      "inputs": [
        {
          "internalType": "address",
          "name": "",
          "type": "address"
        }
      ],
      "name": "addressToUser",
      "outputs": [
        {
          "internalType": "address",
          "name": "userAddress",
          "type": "address"
        }
      ],
      "stateMutability": "view",
      "type": "function"
    },
    {
      "inputs": [
        {
          "internalType": "string",
          "name": "_nftKey",
          "type": "string"
        }
      ],
      "name": "claimCollateral",
      "outputs": [],
      "stateMutability": "nonpayable",
      "type": "function"
    },
    {
      "inputs": [],
      "name": "getContractBalance",
      "outputs": [
        {
          "internalType": "uint256",
          "name": "",
          "type": "uint256"
        }
      ],
      "stateMutability": "view",
      "type": "function"
    },
    {
      "inputs": [],
      "name": "getNftKeysListAvaiableForRent",
      "outputs": [
        {
          "internalType": "string[]",
          "name": "",
          "type": "string[]"
        }
      ],
      "stateMutability": "view",
      "type": "function"
    },
    {
      "inputs": [],
      "name": "getUserAddressList",
      "outputs": [
        {
          "internalType": "address[]",
          "name": "",
          "type": "address[]"
        }
      ],
      "stateMutability": "view",
      "type": "function"
    },
    {
      "inputs": [
        {
          "internalType": "address",
          "name": "_userAddress",
          "type": "address"
        },
        {
          "internalType": "string",
          "name": "_nftKey",
          "type": "string"
        }
      ],
      "name": "getUserLendedNFTDetails",
      "outputs": [
        {
          "components": [
            {
              "internalType": "string",
              "name": "nftKey",
              "type": "string"
            },
            {
              "internalType": "address",
              "name": "lenderAddress",
              "type": "address"
            },
            {
              "internalType": "address",
              "name": "borrowerAddress",
              "type": "address"
            },
            {
              "internalType": "uint32",
              "name": "dueDate",
              "type": "uint32"
            },
            {
              "internalType": "uint256",
              "name": "dailyRent",
              "type": "uint256"
            },
            {
              "internalType": "uint256",
              "name": "collateral",
              "type": "uint256"
            }
          ],
          "internalType": "struct NFTRental.lendedNFT",
          "name": "",
          "type": "tuple"
        }
      ],
      "stateMutability": "view",
      "type": "function"
    },
    {
      "inputs": [
        {
          "internalType": "address",
          "name": "_userAddress",
          "type": "address"
        },
        {
          "internalType": "uint256",
          "name": "_index",
          "type": "uint256"
        }
      ],
      "name": "getUserLendedNFTListDetails",
      "outputs": [
        {
          "internalType": "string",
          "name": "",
          "type": "string"
        }
      ],
      "stateMutability": "view",
      "type": "function"
    },
    {
      "inputs": [
        {
          "internalType": "address",
          "name": "_userAddress",
          "type": "address"
        },
        {
          "internalType": "string",
          "name": "_nftKey",
          "type": "string"
        }
      ],
      "name": "getUserRentedNFTDetails",
      "outputs": [
        {
          "components": [
            {
              "internalType": "string",
              "name": "nftKey",
              "type": "string"
            },
            {
              "internalType": "address",
              "name": "lenderAddress",
              "type": "address"
            },
            {
              "internalType": "address",
              "name": "borrowerAddress",
              "type": "address"
            },
            {
              "internalType": "uint16",
              "name": "numberOfDays",
              "type": "uint16"
            },
            {
              "internalType": "uint32",
              "name": "rentalStartTime",
              "type": "uint32"
            }
          ],
          "internalType": "struct NFTRental.rentedNFT",
          "name": "",
          "type": "tuple"
        }
      ],
      "stateMutability": "view",
      "type": "function"
    },
    {
      "inputs": [
        {
          "internalType": "address",
          "name": "_userAddress",
          "type": "address"
        },
        {
          "internalType": "uint256",
          "name": "_index",
          "type": "uint256"
        }
      ],
      "name": "getUserRentedNFTListDetails",
      "outputs": [
        {
          "internalType": "string",
          "name": "",
          "type": "string"
        }
      ],
      "stateMutability": "view",
      "type": "function"
    },
    {
      "inputs": [
        {
          "internalType": "string",
          "name": "",
          "type": "string"
        }
      ],
      "name": "nftKeyToLendedNftDetails",
      "outputs": [
        {
          "internalType": "string",
          "name": "nftKey",
          "type": "string"
        },
        {
          "internalType": "address",
          "name": "lenderAddress",
          "type": "address"
        },
        {
          "internalType": "address",
          "name": "borrowerAddress",
          "type": "address"
        },
        {
          "internalType": "uint32",
          "name": "dueDate",
          "type": "uint32"
        },
        {
          "internalType": "uint256",
          "name": "dailyRent",
          "type": "uint256"
        },
        {
          "internalType": "uint256",
          "name": "collateral",
          "type": "uint256"
        }
      ],
      "stateMutability": "view",
      "type": "function"
    },
    {
      "inputs": [
        {
          "internalType": "string",
          "name": "",
          "type": "string"
        }
      ],
      "name": "nftKeyToNftProps",
      "outputs": [
        {
          "internalType": "string",
          "name": "nftKey",
          "type": "string"
        },
        {
          "internalType": "address",
          "name": "nftOwner",
          "type": "address"
        },
        {
          "internalType": "address",
          "name": "nftAddress",
          "type": "address"
        },
        {
          "internalType": "uint256",
          "name": "nftId",
          "type": "uint256"
        },
        {
          "internalType": "string",
          "name": "nftName",
          "type": "string"
        },
        {
          "internalType": "string",
          "name": "nftImageURL",
          "type": "string"
        }
      ],
      "stateMutability": "view",
      "type": "function"
    },
    {
      "inputs": [
        {
          "internalType": "string",
          "name": "",
          "type": "string"
        }
      ],
      "name": "nftKeyToRentedNftDetails",
      "outputs": [
        {
          "internalType": "string",
          "name": "nftKey",
          "type": "string"
        },
        {
          "internalType": "address",
          "name": "lenderAddress",
          "type": "address"
        },
        {
          "internalType": "address",
          "name": "borrowerAddress",
          "type": "address"
        },
        {
          "internalType": "uint16",
          "name": "numberOfDays",
          "type": "uint16"
        },
        {
          "internalType": "uint32",
          "name": "rentalStartTime",
          "type": "uint32"
        }
      ],
      "stateMutability": "view",
      "type": "function"
    },
    {
      "inputs": [
        {
          "internalType": "address",
          "name": "",
          "type": "address"
        },
        {
          "internalType": "address",
          "name": "",
          "type": "address"
        },
        {
          "internalType": "uint256",
          "name": "",
          "type": "uint256"
        },
        {
          "internalType": "bytes",
          "name": "",
          "type": "bytes"
        }
      ],
      "name": "onERC721Received",
      "outputs": [
        {
          "internalType": "bytes4",
          "name": "",
          "type": "bytes4"
        }
      ],
      "stateMutability": "nonpayable",
      "type": "function"
    },
    {
      "inputs": [
        {
          "internalType": "string",
          "name": "_nftKey",
          "type": "string"
        },
        {
          "internalType": "address",
          "name": "_borrowerAddress",
          "type": "address"
        },
        {
          "internalType": "uint16",
          "name": "_numberOfDays",
          "type": "uint16"
        },
        {
          "internalType": "uint32",
          "name": "_rentalStartTime",
          "type": "uint32"
        }
      ],
      "name": "rentNft",
      "outputs": [],
      "stateMutability": "payable",
      "type": "function"
    },
    {
      "inputs": [
        {
          "internalType": "string",
          "name": "_nftKey",
          "type": "string"
        }
      ],
      "name": "returnNFT",
      "outputs": [],
      "stateMutability": "nonpayable",
      "type": "function"
    },
    {
      "inputs": [
        {
          "internalType": "string",
          "name": "_nftKey",
          "type": "string"
        }
      ],
      "name": "stopLend",
      "outputs": [],
      "stateMutability": "nonpayable",
      "type": "function"
    }
  ],
  "bytecode": "0x608060405234801561001057600080fd5b5061417b806100206000396000f3fe6080604052600436106101295760003560e01c80637f73ef6c116100a5578063dc4ace8c11610074578063e08b573711610059578063e08b573714610392578063e287183a146103b2578063edf53886146103d257600080fd5b8063dc4ace8c14610343578063deb412161461036557600080fd5b80637f73ef6c146102b25780638d2221d9146102df578063a66a89fd14610310578063c81e8d861461033057600080fd5b8063423fdefb116100fc5780635289f68a116100e15780635289f68a14610233578063657ed37d146102655780636f9fb98a1461029757600080fd5b8063423fdefb146101f35780634df3d7b91461020657600080fd5b8063150b7a021461012e578063213f44ab1461018f578063378a243b146101b1578063421b2d8b146101d3575b600080fd5b34801561013a57600080fd5b506101596101493660046139a1565b630a85bd0160e11b949350505050565b6040517fffffffff0000000000000000000000000000000000000000000000000000000090911681526020015b60405180910390f35b34801561019b57600080fd5b506101a4610420565b6040516101869190613a1d565b3480156101bd57600080fd5b506101d16101cc366004613a91565b610482565b005b3480156101df57600080fd5b506101d16101ee366004613ace565b61088c565b6101d1610201366004613afd565b6109dd565b34801561021257600080fd5b50610226610221366004613b75565b610bc1565b6040516101869190613bfb565b34801561023f57600080fd5b5061025361024e366004613a91565b610d7f565b60405161018696959493929190613c0e565b34801561027157600080fd5b50610285610280366004613a91565b610f67565b60405161018696959493929190613c72565b3480156102a357600080fd5b50604051478152602001610186565b3480156102be57600080fd5b506102d26102cd366004613cc0565b611044565b6040516101869190613d0e565b3480156102eb57600080fd5b506102ff6102fa366004613a91565b6112b9565b604051610186959493929190613d77565b34801561031c57600080fd5b5061022661032b366004613b75565b611396565b6101d161033e366004613dc1565b6114b7565b34801561034f57600080fd5b50610358611853565b6040516101869190613eab565b34801561037157600080fd5b50610385610380366004613cc0565b61192c565b6040516101869190613f0d565b34801561039e57600080fd5b506101d16103ad366004613a91565b611bab565b3480156103be57600080fd5b506101d16103cd366004613a91565b611fe3565b3480156103de57600080fd5b506104086103ed366004613ace565b6001602052600090815260409020546001600160a01b031681565b6040516001600160a01b039091168152602001610186565b6060600080548060200260200160405190810160405280929190818152602001828054801561047857602002820191906000526020600020905b81546001600160a01b0316815260019091019060200180831161045a575b5050505050905090565b61048b81612578565b3360009081526001602052604080822090519091906005906104ae908590613f7c565b90815260408051602092819003830181206001808201546001600160a01b031660009081529481905292842090945092918301906104ed908790613f7c565b90815260405190819003602001812060048101548454875492945090926001600160a01b039182169290911690600590610528908a90613f7c565b908152604051908190036020019020600061054382826137ab565b506001810180546001600160a01b031916905560020180546001600160d01b031916905560006105738989612852565b905061057f81896128f9565b87600301896040516105919190613f7c565b90815260405190819003602001902060006105ac82826137ab565b506001810180546001600160a01b0319169055600290810180546001600160d01b0319169055850154600160a01b900463ffffffff1642811115610734576002860180546001600160a01b03191690556040805160c0810182528b81526001600160a01b038616602082015260008183015263ffffffff831660608201526003880154608082015260a081018790529051819060049061064d908e90613f7c565b908152602001604051809103902060008201518160000190805190602001906106779291906137e5565b50602082810151600180840180546001600160a01b039384166001600160a01b0319909116179055604085015160028086018054606089015163ffffffff16600160a01b026001600160c01b031990911693909516929092179390931790556080850151600385015560a090940151600490930192909255815492830182556000919091528c5161072d927f405787fa12a823e0f2b7631cc41b3ba8828b3321ca811111fa75cd3aa3bb5ace01918e01906137e5565b5050610820565b60006107408b89612a04565b905061074c8189612aa3565b876001018b60405161075e9190613f7c565b908152604051908190036020019020600061077982826137ab565b506001810180546001600160a01b03191690556002810180546001600160c01b0319169055600060038083018290556004909201556040516107bc908d90613f7c565b90815260405190819003602001902060006107d782826137ab565b6001820180546001600160a01b0319908116909155600283018054909116905560006003830181905561080e9060048401906137ab565b61081c6005830160006137ab565b5050505b6040516001600160a01b0384169086156108fc029087906000818181858888f19350505050158015610856573d6000803e3d6000fd5b506040517f5762dfb61a8669a649a124998e72cecf9e9bc9d3f30c4c5dbca184ca7a97d6d090600090a150505050505050505050565b6001600160a01b0381166108d95760405162461bcd60e51b815260206004820152600f60248201526e496e76616c6964206164647265737360881b60448201526064015b60405180910390fd5b336001600160a01b038216146109575760405162461bcd60e51b815260206004820152602860248201527f4f6e6c792074686520757365722063616e2061646420686973206163636f756e60448201527f7420746f2061707000000000000000000000000000000000000000000000000060648201526084016108d0565b6001600160a01b03818116600090815260016020526040902054166109da576001600160a01b0381166000818152600160208190526040822080546001600160a01b03199081168517909155825491820183559180527f290decd9548b62a8d60345a988386fc84ba6bc95484008f6362f93160ef3e56301805490911690911790555b50565b6109e984848484612b8b565b60006004856040516109fb9190613f7c565b90815260200160405180910390206003015490506000600486604051610a219190613f7c565b9081526040519081900360200190206004015490506000610a4661ffff861684613fae565b90506000610a548383613fcd565b905080341015610acc5760405162461bcd60e51b815260206004820152602a60248201527f43616e27742072656e74204e465420617320696e73756666696369656e74206160448201527f6d6f756e7420706169640000000000000000000000000000000000000000000060648201526084016108d0565b6000600489604051610ade9190613f7c565b908152604051908190036020019020600101546001600160a01b03169050610b0889898989612e8f565b81341115610b5357876001600160a01b0381166108fc610b288534613fe5565b6040518115909202916000818181858888f19350505050158015610b50573d6000803e3d6000fd5b50505b60405181906001600160a01b0382169085156108fc029086906000818181858888f19350505050158015610b8b573d6000803e3d6000fd5b506040517fe85b6202f15dfae39a54e501b5e65cbcc44a996fb8d14f843c7cb8e16fd49c7490600090a150505050505050505050565b60606001600160a01b038316610c0b5760405162461bcd60e51b815260206004820152600f60248201526e496e76616c6964206164647265737360881b60448201526064016108d0565b6001600160a01b0380841660009081526001602052604090208054909116610c6c5760405162461bcd60e51b81526020600482015260146024820152735573657220646f6573206e6f742065786973747360601b60448201526064016108d0565b60048101548310610ccd5760405162461bcd60e51b815260206004820152602560248201527f4e66742061742074686520676976656e20696e64657820646f6573206e6f7420604482015264195e1a5cdd60da1b60648201526084016108d0565b806004018381548110610ce257610ce2613ffc565b906000526020600020018054610cf790614012565b80601f0160208091040260200160405190810160405280929190818152602001828054610d2390614012565b8015610d705780601f10610d4557610100808354040283529160200191610d70565b820191906000526020600020905b815481529060010190602001808311610d5357829003601f168201915b50505050509150505b92915050565b8051602081830181018051600382529282019190930120915280548190610da590614012565b80601f0160208091040260200160405190810160405280929190818152602001828054610dd190614012565b8015610e1e5780601f10610df357610100808354040283529160200191610e1e565b820191906000526020600020905b815481529060010190602001808311610e0157829003601f168201915b5050505060018301546002840154600385015460048601805495966001600160a01b03948516969490931694509092610e5690614012565b80601f0160208091040260200160405190810160405280929190818152602001828054610e8290614012565b8015610ecf5780601f10610ea457610100808354040283529160200191610ecf565b820191906000526020600020905b815481529060010190602001808311610eb257829003601f168201915b505050505090806005018054610ee490614012565b80601f0160208091040260200160405190810160405280929190818152602001828054610f1090614012565b8015610f5d5780601f10610f3257610100808354040283529160200191610f5d565b820191906000526020600020905b815481529060010190602001808311610f4057829003601f168201915b5050505050905086565b8051602081830181018051600482529282019190930120915280548190610f8d90614012565b80601f0160208091040260200160405190810160405280929190818152602001828054610fb990614012565b80156110065780601f10610fdb57610100808354040283529160200191611006565b820191906000526020600020905b815481529060010190602001808311610fe957829003601f168201915b5050505060018301546002840154600385015460049095015493946001600160a01b03928316949282169350600160a01b90910463ffffffff169186565b6040805160a0810182526060808252600060208301819052928201839052810182905260808101919091526001600160a01b0383166110b75760405162461bcd60e51b815260206004820152600f60248201526e496e76616c6964206164647265737360881b60448201526064016108d0565b6001600160a01b03808416600090815260016020526040902080549091166111185760405162461bcd60e51b81526020600482015260146024820152735573657220646f6573206e6f742065786973747360601b60448201526064016108d0565b60006001600160a01b031681600301846040516111359190613f7c565b908152604051908190036020019020600201546001600160a01b031614156111ae5760405162461bcd60e51b815260206004820152602660248201527f5573657220646f6573206e6f74206861766520616e7920737563682072656e7460448201526519590813999d60d21b60648201526084016108d0565b80600301836040516111c09190613f7c565b90815260200160405180910390206040518060a00160405290816000820180546111e990614012565b80601f016020809104026020016040519081016040528092919081815260200182805461121590614012565b80156112625780601f1061123757610100808354040283529160200191611262565b820191906000526020600020905b81548152906001019060200180831161124557829003601f168201915b505050918352505060018201546001600160a01b0390811660208301526002909201549182166040820152600160a01b820461ffff166060820152600160b01b90910463ffffffff16608090910152949350505050565b80516020818301810180516005825292820191909301209152805481906112df90614012565b80601f016020809104026020016040519081016040528092919081815260200182805461130b90614012565b80156113585780601f1061132d57610100808354040283529160200191611358565b820191906000526020600020905b81548152906001019060200180831161133b57829003601f168201915b50505050600183015460029093015491926001600160a01b03908116929081169150600160a01b810461ffff1690600160b01b900463ffffffff1685565b60606001600160a01b0383166113e05760405162461bcd60e51b815260206004820152600f60248201526e496e76616c6964206164647265737360881b60448201526064016108d0565b6001600160a01b03808416600090815260016020526040902080549091166114415760405162461bcd60e51b81526020600482015260146024820152735573657220646f6573206e6f742065786973747360601b60448201526064016108d0565b600281015483106114a25760405162461bcd60e51b815260206004820152602560248201527f4e66742061742074686520676976656e20696e64657820646f6573206e6f7420604482015264195e1a5cdd60da1b60648201526084016108d0565b806002018381548110610ce257610ce2613ffc565b336001600160a01b0385161461150f5760405162461bcd60e51b815260206004820152601d60248201527f43616e2774206c656e6420736f6d656f6e6520656c73652773204e465400000060448201526064016108d0565b6001600160a01b03848116600090815260016020526040902054166115765760405162461bcd60e51b815260206004820152601360248201527f5573657220646f6573206e6f742065786973740000000000000000000000000060448201526064016108d0565b60006001600160a01b031660038b6040516115919190613f7c565b908152604051908190036020019020600201546001600160a01b0316146116065760405162461bcd60e51b8152602060048201526024808201527f4e465420697320616c726561647920617661696c61626c6520666f722072656e60448201526374696e6760e01b60648201526084016108d0565b60006001600160a01b031660048b6040516116219190613f7c565b908152604051908190036020019020600101546001600160a01b0316146116965760405162461bcd60e51b8152602060048201526024808201527f4e465420697320616c726561647920617661696c61626c6520666f722072656e60448201526374696e6760e01b60648201526084016108d0565b836001600160a01b0316896001600160a01b0316146116f75760405162461bcd60e51b815260206004820152600d60248201527f4e6f6e204e4654204f776e65720000000000000000000000000000000000000060448201526064016108d0565b428363ffffffff161161173e5760405162461bcd60e51b815260206004820152600f60248201526e4261642074696d6520626f756e647360881b60448201526064016108d0565b60006040518060c001604052808c81526020018b6001600160a01b031681526020018a6001600160a01b031681526020018981526020018881526020018781525090508060038c6040516117929190613f7c565b908152602001604051809103902060008201518160000190805190602001906117bc9291906137e5565b506020828101516001830180546001600160a01b039283166001600160a01b0319918216179091556040850151600285018054919093169116179055606083015160038301556080830151805161181992600485019201906137e5565b5060a082015180516118359160058401916020909101906137e5565b509050506118468b868686866133bc565b5050505050505050505050565b60606002805480602002602001604051908101604052809291908181526020016000905b8282101561192357838290600052602060002001805461189690614012565b80601f01602080910402602001604051908101604052809291908181526020018280546118c290614012565b801561190f5780601f106118e45761010080835404028352916020019161190f565b820191906000526020600020905b8154815290600101906020018083116118f257829003601f168201915b505050505081526020019060010190611877565b50505050905090565b6040805160c081018252606080825260006020830181905292820183905281018290526080810182905260a08101919091526001600160a01b0383166119a65760405162461bcd60e51b815260206004820152600f60248201526e496e76616c6964206164647265737360881b60448201526064016108d0565b6001600160a01b0380841660009081526001602052604090208054909116611a075760405162461bcd60e51b81526020600482015260146024820152735573657220646f6573206e6f742065786973747360601b60448201526064016108d0565b60006001600160a01b03168160010184604051611a249190613f7c565b908152604051908190036020019020600101546001600160a01b03161415611a9d5760405162461bcd60e51b815260206004820152602660248201527f5573657220646f6573206e6f74206861766520616e792073756368206c656e6460448201526519590813999d60d21b60648201526084016108d0565b8060010183604051611aaf9190613f7c565b90815260200160405180910390206040518060c0016040529081600082018054611ad890614012565b80601f0160208091040260200160405190810160405280929190818152602001828054611b0490614012565b8015611b515780601f10611b2657610100808354040283529160200191611b51565b820191906000526020600020905b815481529060010190602001808311611b3457829003601f168201915b505050918352505060018201546001600160a01b03908116602083015260028301549081166040830152600160a01b900463ffffffff1660608201526003820154608082015260049091015460a090910152949350505050565b33600090815260016020526040902080546001600160a01b0316611c085760405162461bcd60e51b81526020600482015260146024820152735573657220646f6573206e6f742065786973747360601b60448201526064016108d0565b6000600383604051611c1a9190613f7c565b90815260405190819003602001902060028101549091506001600160a01b0316611c7d5760405162461bcd60e51b81526020600482015260146024820152734e4654206973206e6f7420617661696c61626c6560601b60448201526064016108d0565b6000600484604051611c8f9190613f7c565b90815260405190819003602001902060018101549091506001600160a01b0316611cfb5760405162461bcd60e51b815260206004820152601560248201527f4e465420697320616c72656164792072656e746564000000000000000000000060448201526064016108d0565b60028101546001600160a01b031615611d565760405162461bcd60e51b815260206004820152601560248201527f4e465420697320616c72656164792072656e746564000000000000000000000060448201526064016108d0565b60018101546001600160a01b03163314611dbd5760405162461bcd60e51b815260206004820152602260248201527f43616e27742073746f70206c656e6420736f6d656f6e6520656c73652773204e604482015261119560f21b60648201526084016108d0565b336001600160a01b03168360010185604051611dd99190613f7c565b908152604051908190036020019020600101546001600160a01b031614611e535760405162461bcd60e51b815260206004820152602860248201527f5573657220646f6573206e6f74206861766520616e792073756368204e46547360448201526708185cc81b195b9960c21b60648201526084016108d0565b6000611e5e8561360b565b9050611e69816136ab565b600485604051611e799190613f7c565b9081526040519081900360200190206000611e9482826137ab565b506001810180546001600160a01b03191690556002810180546001600160c01b031916905560006003808301829055600490920155604051611ed7908790613f7c565b9081526040519081900360200190206000611ef282826137ab565b6001820180546001600160a01b03199081169091556002830180549091169055600060038301819055611f299060048401906137ab565b611f376005830160006137ab565b50506000611f458686612a04565b9050611f518186612aa3565b8460010186604051611f639190613f7c565b9081526040519081900360200190206000611f7e82826137ab565b506001810180546001600160a01b03191690556002810180546001600160c01b031916905560006003820181905560049091018190556040517fe0306ce2bcb4de1bd06e23b7f715b3fdf3ab2c75402eb54e99bd333eb89c8f899190a1505050505050565b33600090815260016020526040902080546001600160a01b03166120495760405162461bcd60e51b815260206004820152601560248201527f4c656e64657220646f6573206e6f74206578697374000000000000000000000060448201526064016108d0565b600060038360405161205b9190613f7c565b90815260405190819003602001902060028101549091506001600160a01b03166120be5760405162461bcd60e51b81526020600482015260146024820152734e4654206973206e6f7420617661696c61626c6560601b60448201526064016108d0565b60006004846040516120d09190613f7c565b90815260405190819003602001902060018101549091506001600160a01b0316156121315760405162461bcd60e51b8152602060048201526011602482015270139195081a5cc81b9bdd081c995b9d1959607a1b60448201526064016108d0565b60006005856040516121439190613f7c565b90815260405190819003602001902060028101549091506001600160a01b03166121a35760405162461bcd60e51b8152602060048201526011602482015270139195081a5cc81b9bdd081c995b9d1959607a1b60448201526064016108d0565b60028101546001600160a01b03908116600090815260016020526040902080549091166122125760405162461bcd60e51b815260206004820152601760248201527f426f72726f77657220646f6573206e6f7420657869737400000000000000000060448201526064016108d0565b600085600101876040516122269190613f7c565b90815260405190819003602001902060018101549091506001600160a01b031633146122a55760405162461bcd60e51b815260206004820152602860248201527f5573657220646f6573206e6f74206861766520616e792073756368204e46547360448201526708185cc81b195b9960c21b60648201526084016108d0565b6002830154600160b01b810463ffffffff1690600160a01b900461ffff1660006122d2826201518061404d565b6122e29063ffffffff1684613fcd565b90504281106123595760405162461bcd60e51b815260206004820152602b60248201527f43616e277420636c61696d20636f6c6c61746572616c2074696c6c2072656e7460448201527f656420656e642074696d6500000000000000000000000000000000000000000060648201526084016108d0565b600484015460405160059061236f908d90613f7c565b908152604051908190036020019020600061238a82826137ab565b506001810180546001600160a01b031916905560020180546001600160d01b03191690556040516003906123bf908d90613f7c565b90815260405190819003602001902060006123da82826137ab565b6001820180546001600160a01b031990811690915560028301805490911690556000600383018190556124119060048401906137ab565b61241f6005830160006137ab565b5050600061242d8c8c612a04565b9050612439818c612aa3565b8a6001018c60405161244b9190613f7c565b908152604051908190036020019020600061246682826137ab565b506001810180546001600160a01b03191690556002810180546001600160c01b031916905560006003820181905560049091018190556124a68d89612852565b90506124b281896128f9565b876003018d6040516124c49190613f7c565b90815260405190819003602001902060006124df82826137ab565b506001810180546001600160a01b031916905560020180546001600160d01b03191690558b546040516001600160a01b039091169081906108fc8615029086906000818181858888f1935050505015801561253e573d6000803e3d6000fd5b506040517f19d743eeac3391625f97989fda0986e3b231edcea866ff523edc642b6a9a6e6890600090a15050505050505050505050505050565b33600090815260016020526040902080546001600160a01b03166125d55760405162461bcd60e51b81526020600482015260146024820152735573657220646f6573206e6f742065786973747360601b60448201526064016108d0565b60006003836040516125e79190613f7c565b90815260405190819003602001902060028101549091506001600160a01b031661264a5760405162461bcd60e51b81526020600482015260146024820152734e4654206973206e6f7420617661696c61626c6560601b60448201526064016108d0565b600060048460405161265c9190613f7c565b90815260405190819003602001902060018101549091506001600160a01b0316156126bd5760405162461bcd60e51b8152602060048201526011602482015270139195081a5cc81b9bdd081c995b9d1959607a1b60448201526064016108d0565b60006005856040516126cf9190613f7c565b90815260405190819003602001902060028101549091506001600160a01b031661272f5760405162461bcd60e51b8152602060048201526011602482015270139195081a5cc81b9bdd081c995b9d1959607a1b60448201526064016108d0565b6001818101546001600160a01b039081166000908152602092909252604090912080549091166127a15760405162461bcd60e51b815260206004820152601560248201527f4c656e64657220646f6573206e6f74206578697374000000000000000000000060448201526064016108d0565b600085600301876040516127b59190613f7c565b90815260405190819003602001902060028101549091506001600160a01b031633146128495760405162461bcd60e51b815260206004820152602860248201527f5573657220646f6573206e6f74206861766520616e792073756368204e46547360448201527f2061732072656e7400000000000000000000000000000000000000000000000060648201526084016108d0565b50505050505050565b6004810154600090815b818110156128f15783600401818154811061287957612879613ffc565b906000526020600020016040516020016128939190614079565b60405160208183030381529060405280519060200120856040516020016128ba9190613f7c565b6040516020818303038152906040528051906020012014156128df579150610d799050565b806128e981614115565b91505061285c565b509392505050565b600481015482106129625760405162461bcd60e51b815260206004820152602d60248201527f4e6674206b6579206e6f7420617661696c61626c6520696e207468652061707060448201526c081c995b9d1a5b99c81b1a5cdd609a1b60648201526084016108d0565b600481015460009061297690600190613fe5565b905081600401818154811061298d5761298d613ffc565b906000526020600020018260040184815481106129ac576129ac613ffc565b906000526020600020019080546129c290614012565b6129cd929190613869565b50816004018054806129e1576129e1614130565b6001900381819060005260206000200160006129fd91906137ab565b9055505050565b6002810154600090815b818110156128f157836002018181548110612a2b57612a2b613ffc565b90600052602060002001604051602001612a459190614079565b6040516020818303038152906040528051906020012085604051602001612a6c9190613f7c565b604051602081830303815290604052805190602001201415612a91579150610d799050565b80612a9b81614115565b915050612a0e565b60028101548210612b0c5760405162461bcd60e51b815260206004820152602d60248201527f4e6674206b6579206e6f7420617661696c61626c6520696e207468652061707060448201526c081c995b9d1a5b99c81b1a5cdd609a1b60648201526084016108d0565b6002810154600090612b2090600190613fe5565b9050816002018181548110612b3757612b37613ffc565b90600052602060002001826002018481548110612b5657612b56613ffc565b90600052602060002001908054612b6c90614012565b612b77929190613869565b50816002018054806129e1576129e1614130565b336001600160a01b03841614612c095760405162461bcd60e51b815260206004820152602d60248201527f43616e277420626f72726f77204e465420666f7220616e6f7468657220626f7260448201527f726f77657220616464726573730000000000000000000000000000000000000060648201526084016108d0565b6001600160a01b0383811660009081526001602052604090205416612c705760405162461bcd60e51b815260206004820152601360248201527f5573657220646f6573206e6f742065786973740000000000000000000000000060448201526064016108d0565b6000600385604051612c829190613f7c565b90815260405190819003602001902060028101549091506001600160a01b0316612cee5760405162461bcd60e51b815260206004820181905260248201527f4e4654206973206e6f7420617661696c61626c6520666f722072656e74696e6760448201526064016108d0565b60006001600160a01b0316600486604051612d099190613f7c565b908152604051908190036020019020600101546001600160a01b03161415612d735760405162461bcd60e51b815260206004820181905260248201527f4e4654206973206e6f7420617661696c61626c6520666f722072656e74696e6760448201526064016108d0565b428263ffffffff1610612dba5760405162461bcd60e51b815260206004820152600f60248201526e4261642074696d6520626f756e647360881b60448201526064016108d0565b6000612dcd61ffff85166201518061404d565b612dd79084614146565b90506000600487604051612deb9190613f7c565b9081526040519081900360200190206002015463ffffffff600160a01b90910481169150821681116128495760405162461bcd60e51b815260206004820152604160248201527f43616e27742072656e74204e465420666f72206d6f7265207468616e20616d6f60448201527f756e74206f662074696d6520617661696c61626c6520666f722072656e74696e6064820152606760f81b608482015260a4016108d0565b6000600485604051612ea19190613f7c565b908152604051908190036020019020600101546001600160a01b0390811691508416811415612f385760405162461bcd60e51b815260206004820152603460248201527f426f72726f77657220616464726573732063616e27742062652074686520736160448201527f6d65206173206c656e646572206164647265737300000000000000000000000060648201526084016108d0565b6001600160a01b03811660009081526001602081905260408083209051909291830190612f66908990613f7c565b908152604051908190036020019020600201546001600160a01b031614612fda5760405162461bcd60e51b815260206004820152602260248201527f4e465420616c72656164792072656e74656420627920736f6d656f6e6520656c604482015261736560f01b60648201526084016108d0565b848160010187604051612fed9190613f7c565b908152604080516020928190038301812060020180546001600160a01b0319166001600160a01b0395861617905560a0810182528981528584168382015292881683820181905261ffff8816606085015263ffffffff87166080850152600090815260019092528082209051909190600383019061306c908b90613f7c565b908152604051908190036020019020600201546001600160a01b0316146130e85760405162461bcd60e51b815260206004820152602a60248201527f4e667420697320616c72656164792070726573656e7420696e20757365722072604482015269656e746564204e66747360b01b60648201526084016108d0565b8181600301896040516130fb9190613f7c565b908152602001604051809103902060008201518160000190805190602001906131259291906137e5565b50602082810151600180840180546001600160a01b039384166001600160a01b0319909116179055604085015160029094018054606087015160809097015163ffffffff16600160b01b0263ffffffff60b01b1961ffff909816600160a01b0275ffffffffffffffffffffffffffffffffffffffffffff199092169690941695909517949094179490941617909155600483018054928301815560009081528190208a516131da9391909101918b01906137e5565b5060006001600160a01b03166005896040516131f69190613f7c565b908152604051908190036020019020600201546001600160a01b0316146132725760405162461bcd60e51b815260206004820152602a60248201527f4e667420697320616c72656164792070726573656e7420696e20757365722072604482015269656e746564204e66747360b01b60648201526084016108d0565b816005896040516132839190613f7c565b908152602001604051809103902060008201518160000190805190602001906132ad9291906137e5565b5060208201516001820180546001600160a01b039283166001600160a01b0319909116179055604083015160029092018054606085015160809095015163ffffffff16600160b01b0263ffffffff60b01b1961ffff909616600160a01b0275ffffffffffffffffffffffffffffffffffffffffffff199092169490931693909317929092179290921691909117905560006133478961360b565b9050613352816136ab565b6004896040516133629190613f7c565b908152604051908190036020019020600061337d82826137ab565b506001810180546001600160a01b03191690556002810180546001600160c01b0319169055600060038201819055600490910155505050505050505050565b6040805160c0810182528681526001600160a01b0386166020808301829052600083850181905263ffffffff881660608501526080840187905260a08401869052918252600190819052908390209251919291839183019061341f908a90613f7c565b908152602001604051809103902060008201518160000190805190602001906134499291906137e5565b50602082810151600180840180546001600160a01b039384166001600160a01b0319909116179055604085015160028086018054606089015163ffffffff16600160a01b026001600160c01b031990911693909516929092179390931790556080850151600385015560a09094015160049093019290925590830180549283018155600090815281902089516134e69391909101918a01906137e5565b50816004886040516134f89190613f7c565b908152602001604051809103902060008201518160000190805190602001906135229291906137e5565b50602082810151600180840180546001600160a01b039384166001600160a01b0319909116179055604085015160028086018054606089015163ffffffff16600160a01b026001600160c01b031990911693909516929092179390931790556080850151600385015560a0909401516004909301929092558154928301825560009190915288516135d8927f405787fa12a823e0f2b7631cc41b3ba8828b3321ca811111fa75cd3aa3bb5ace01918a01906137e5565b506040517fdb8317522294099fa9360f57f5f2c8178138bbeb092f99c41ada4fefc39fbe5e90600090a150505050505050565b600254600090815b818110156136a4576002818154811061362e5761362e613ffc565b906000526020600020016040516020016136489190614079565b604051602081830303815290604052805190602001208460405160200161366f9190613f7c565b604051602081830303815290604052805190602001201415613692579392505050565b8061369c81614115565b915050613613565b5092915050565b60025481106137125760405162461bcd60e51b815260206004820152602d60248201527f4e6674206b6579206e6f7420617661696c61626c6520696e207468652061707060448201526c081c995b9d1a5b99c81b1a5cdd609a1b60648201526084016108d0565b60025460009061372490600190613fe5565b90506002818154811061373957613739613ffc565b906000526020600020016002838154811061375657613756613ffc565b9060005260206000200190805461376c90614012565b613777929190613869565b50600280548061378957613789614130565b6001900381819060005260206000200160006137a591906137ab565b90555050565b5080546137b790614012565b6000825580601f106137c7575050565b601f0160209004906000526020600020908101906109da91906138e4565b8280546137f190614012565b90600052602060002090601f0160209004810192826138135760008555613859565b82601f1061382c57805160ff1916838001178555613859565b82800160010185558215613859579182015b8281111561385957825182559160200191906001019061383e565b506138659291506138e4565b5090565b82805461387590614012565b90600052602060002090601f0160209004810192826138975760008555613859565b82601f106138a85780548555613859565b8280016001018555821561385957600052602060002091601f016020900482015b828111156138595782548255916001019190600101906138c9565b5b8082111561386557600081556001016138e5565b80356001600160a01b038116811461391057600080fd5b919050565b634e487b7160e01b600052604160045260246000fd5b600067ffffffffffffffff8084111561394657613946613915565b604051601f8501601f19908116603f0116810190828211818310171561396e5761396e613915565b8160405280935085815286868601111561398757600080fd5b858560208301376000602087830101525050509392505050565b600080600080608085870312156139b757600080fd5b6139c0856138f9565b93506139ce602086016138f9565b925060408501359150606085013567ffffffffffffffff8111156139f157600080fd5b8501601f81018713613a0257600080fd5b613a118782356020840161392b565b91505092959194509250565b6020808252825182820181905260009190848201906040850190845b81811015613a5e5783516001600160a01b031683529284019291840191600101613a39565b50909695505050505050565b600082601f830112613a7b57600080fd5b613a8a8383356020850161392b565b9392505050565b600060208284031215613aa357600080fd5b813567ffffffffffffffff811115613aba57600080fd5b613ac684828501613a6a565b949350505050565b600060208284031215613ae057600080fd5b613a8a826138f9565b803563ffffffff8116811461391057600080fd5b60008060008060808587031215613b1357600080fd5b843567ffffffffffffffff811115613b2a57600080fd5b613b3687828801613a6a565b945050613b45602086016138f9565b9250604085013561ffff81168114613b5c57600080fd5b9150613b6a60608601613ae9565b905092959194509250565b60008060408385031215613b8857600080fd5b613b91836138f9565b946020939093013593505050565b60005b83811015613bba578181015183820152602001613ba2565b83811115613bc9576000848401525b50505050565b60008151808452613be7816020860160208601613b9f565b601f01601f19169290920160200192915050565b602081526000613a8a6020830184613bcf565b60c081526000613c2160c0830189613bcf565b6001600160a01b03888116602085015287166040840152606083018690528281036080840152613c518186613bcf565b905082810360a0840152613c658185613bcf565b9998505050505050505050565b60c081526000613c8560c0830189613bcf565b6001600160a01b03978816602084015295909616604082015263ffffffff939093166060840152608083019190915260a09091015292915050565b60008060408385031215613cd357600080fd5b613cdc836138f9565b9150602083013567ffffffffffffffff811115613cf857600080fd5b613d0485828601613a6a565b9150509250929050565b602081526000825160a06020840152613d2a60c0840182613bcf565b905060208401516001600160a01b038082166040860152806040870151166060860152505061ffff606085015116608084015263ffffffff60808501511660a08401528091505092915050565b60a081526000613d8a60a0830188613bcf565b6001600160a01b03968716602084015294909516604082015261ffff92909216606083015263ffffffff1660809091015292915050565b6000806000806000806000806000806101408b8d031215613de157600080fd5b8a3567ffffffffffffffff80821115613df957600080fd5b613e058e838f01613a6a565b9b50613e1360208e016138f9565b9a50613e2160408e016138f9565b995060608d0135985060808d0135915080821115613e3e57600080fd5b613e4a8e838f01613a6a565b975060a08d0135915080821115613e6057600080fd5b50613e6d8d828e01613a6a565b955050613e7c60c08c016138f9565b9350613e8a60e08c01613ae9565b92506101008b013591506101208b013590509295989b9194979a5092959850565b6000602080830181845280855180835260408601915060408160051b870101925083870160005b82811015613f0057603f19888603018452613eee858351613bcf565b94509285019290850190600101613ed2565b5092979650505050505050565b602081526000825160c06020840152613f2960e0840182613bcf565b905060208401516001600160a01b038082166040860152806040870151166060860152505063ffffffff6060850151166080840152608084015160a084015260a084015160c08401528091505092915050565b60008251613f8e818460208701613b9f565b9190910192915050565b634e487b7160e01b600052601160045260246000fd5b6000816000190483118215151615613fc857613fc8613f98565b500290565b60008219821115613fe057613fe0613f98565b500190565b600082821015613ff757613ff7613f98565b500390565b634e487b7160e01b600052603260045260246000fd5b600181811c9082168061402657607f821691505b6020821081141561404757634e487b7160e01b600052602260045260246000fd5b50919050565b600063ffffffff8083168185168183048111821515161561407057614070613f98565b02949350505050565b600080835481600182811c91508083168061409557607f831692505b60208084108214156140b557634e487b7160e01b86526022600452602486fd5b8180156140c957600181146140da57614107565b60ff19861689528489019650614107565b60008a81526020902060005b868110156140ff5781548b8201529085019083016140e6565b505084890196505b509498975050505050505050565b600060001982141561412957614129613f98565b5060010190565b634e487b7160e01b600052603160045260246000fd5b600063ffffffff80831681851680830382111561416557614165613f98565b0194935050505056fea164736f6c6343000809000a",
  "linkReferences": {},
  "deployedLinkReferences": {}
}