{
  "_format": "hh-sol-artifact-1",
  "contractName": "NFTUser",
  "sourceName": "contracts/NFTUser.sol",
  "abi": [
    {
      "inputs": [
        {
          "internalType": "address",
          "name": "_userAddress",
          "type": "address"
        }
      ],
      "name": "addUser",
      "outputs": [],
      "stateMutability": "nonpayable",
      "type": "function"
    },
    {
      "inputs": [
        {
          "internalType": "address",
          "name": "",
          "type": "address"
        }
      ],
      "name": "addressToUser",
      "outputs": [
        {
          "internalType": "address",
          "name": "userAddress",
          "type": "address"
        }
      ],
      "stateMutability": "view",
      "type": "function"
    },
    {
      "inputs": [],
      "name": "getContractBalance",
      "outputs": [
        {
          "internalType": "uint256",
          "name": "",
          "type": "uint256"
        }
      ],
      "stateMutability": "view",
      "type": "function"
    },
    {
      "inputs": [],
      "name": "getNftKeysListAvaiableForRent",
      "outputs": [
        {
          "internalType": "string[]",
          "name": "",
          "type": "string[]"
        }
      ],
      "stateMutability": "view",
      "type": "function"
    },
    {
      "inputs": [],
      "name": "getUserAddressList",
      "outputs": [
        {
          "internalType": "address[]",
          "name": "",
          "type": "address[]"
        }
      ],
      "stateMutability": "view",
      "type": "function"
    },
    {
      "inputs": [
        {
          "internalType": "address",
          "name": "_userAddress",
          "type": "address"
        },
        {
          "internalType": "string",
          "name": "_nftKey",
          "type": "string"
        }
      ],
      "name": "getUserLendedNFTDetails",
      "outputs": [
        {
          "components": [
            {
              "internalType": "string",
              "name": "nftKey",
              "type": "string"
            },
            {
              "internalType": "address",
              "name": "lenderAddress",
              "type": "address"
            },
            {
              "internalType": "address",
              "name": "borrowerAddress",
              "type": "address"
            },
            {
              "internalType": "uint32",
              "name": "dueDate",
              "type": "uint32"
            },
            {
              "internalType": "uint256",
              "name": "dailyRent",
              "type": "uint256"
            },
            {
              "internalType": "uint256",
              "name": "collateral",
              "type": "uint256"
            }
          ],
          "internalType": "struct NFTLend.lendedNFT",
          "name": "",
          "type": "tuple"
        }
      ],
      "stateMutability": "view",
      "type": "function"
    },
    {
      "inputs": [
        {
          "internalType": "address",
          "name": "_userAddress",
          "type": "address"
        },
        {
          "internalType": "uint256",
          "name": "_index",
          "type": "uint256"
        }
      ],
      "name": "getUserLendedNFTListDetails",
      "outputs": [
        {
          "internalType": "string",
          "name": "",
          "type": "string"
        }
      ],
      "stateMutability": "view",
      "type": "function"
    },
    {
      "inputs": [
        {
          "internalType": "address",
          "name": "_userAddress",
          "type": "address"
        },
        {
          "internalType": "string",
          "name": "_nftKey",
          "type": "string"
        }
      ],
      "name": "getUserRentedNFTDetails",
      "outputs": [
        {
          "components": [
            {
              "internalType": "string",
              "name": "nftKey",
              "type": "string"
            },
            {
              "internalType": "address",
              "name": "lenderAddress",
              "type": "address"
            },
            {
              "internalType": "address",
              "name": "borrowerAddress",
              "type": "address"
            },
            {
              "internalType": "uint16",
              "name": "numberOfDays",
              "type": "uint16"
            },
            {
              "internalType": "uint32",
              "name": "rentalStartTime",
              "type": "uint32"
            }
          ],
          "internalType": "struct NFTRent.rentedNFT",
          "name": "",
          "type": "tuple"
        }
      ],
      "stateMutability": "view",
      "type": "function"
    },
    {
      "inputs": [
        {
          "internalType": "address",
          "name": "_userAddress",
          "type": "address"
        },
        {
          "internalType": "uint256",
          "name": "_index",
          "type": "uint256"
        }
      ],
      "name": "getUserRentedNFTListDetails",
      "outputs": [
        {
          "internalType": "string",
          "name": "",
          "type": "string"
        }
      ],
      "stateMutability": "view",
      "type": "function"
    },
    {
      "inputs": [
        {
          "internalType": "string",
          "name": "",
          "type": "string"
        }
      ],
      "name": "nftKeyToLendedNftDetails",
      "outputs": [
        {
          "internalType": "string",
          "name": "nftKey",
          "type": "string"
        },
        {
          "internalType": "address",
          "name": "lenderAddress",
          "type": "address"
        },
        {
          "internalType": "address",
          "name": "borrowerAddress",
          "type": "address"
        },
        {
          "internalType": "uint32",
          "name": "dueDate",
          "type": "uint32"
        },
        {
          "internalType": "uint256",
          "name": "dailyRent",
          "type": "uint256"
        },
        {
          "internalType": "uint256",
          "name": "collateral",
          "type": "uint256"
        }
      ],
      "stateMutability": "view",
      "type": "function"
    },
    {
      "inputs": [
        {
          "internalType": "string",
          "name": "",
          "type": "string"
        }
      ],
      "name": "nftKeyToNftProps",
      "outputs": [
        {
          "internalType": "string",
          "name": "nftKey",
          "type": "string"
        },
        {
          "internalType": "address",
          "name": "nftOwner",
          "type": "address"
        },
        {
          "internalType": "address",
          "name": "nftAddress",
          "type": "address"
        },
        {
          "internalType": "uint256",
          "name": "nftId",
          "type": "uint256"
        },
        {
          "internalType": "string",
          "name": "nftName",
          "type": "string"
        },
        {
          "internalType": "string",
          "name": "nftImageURL",
          "type": "string"
        }
      ],
      "stateMutability": "view",
      "type": "function"
    },
    {
      "inputs": [
        {
          "internalType": "string",
          "name": "",
          "type": "string"
        }
      ],
      "name": "nftKeyToRentedNftDetails",
      "outputs": [
        {
          "internalType": "string",
          "name": "nftKey",
          "type": "string"
        },
        {
          "internalType": "address",
          "name": "lenderAddress",
          "type": "address"
        },
        {
          "internalType": "address",
          "name": "borrowerAddress",
          "type": "address"
        },
        {
          "internalType": "uint16",
          "name": "numberOfDays",
          "type": "uint16"
        },
        {
          "internalType": "uint32",
          "name": "rentalStartTime",
          "type": "uint32"
        }
      ],
      "stateMutability": "view",
      "type": "function"
    }
  ],
  "bytecode": "0x608060405234801561001057600080fd5b5061156c806100206000396000f3fe608060405234801561001057600080fd5b50600436106100d45760003560e01c80637f73ef6c11610081578063dc4ace8c1161005b578063dc4ace8c146101db578063deb41216146101f0578063edf538861461021057600080fd5b80637f73ef6c146101845780638d2221d9146101a4578063a66a89fd146101c857600080fd5b80635289f68a116100b25780635289f68a1461012c578063657ed37d146101515780636f9fb98a1461017657600080fd5b8063213f44ab146100d9578063421b2d8b146100f75780634df3d7b91461010c575b600080fd5b6100e1610251565b6040516100ee919061106a565b60405180910390f35b61010a6101053660046110d3565b6102b3565b005b61011f61011a3660046110f5565b61041d565b6040516100ee919061117b565b61013f61013a366004611231565b6105da565b6040516100ee9695949392919061126e565b61016461015f366004611231565b6107c2565b6040516100ee969594939291906112d2565b6040514781526020016100ee565b610197610192366004611320565b61089f565b6040516100ee919061136e565b6101b76101b2366004611231565b610b14565b6040516100ee9594939291906113d7565b61011f6101d63660046110f5565b610bf1565b6101e3610d12565b6040516100ee9190611421565b6102036101fe366004611320565b610deb565b6040516100ee9190611483565b61023961021e3660046110d3565b6005602052600090815260409020546001600160a01b031681565b6040516001600160a01b0390911681526020016100ee565b606060008054806020026020016040519081016040528092919081815260200182805480156102a957602002820191906000526020600020905b81546001600160a01b0316815260019091019060200180831161028b575b5050505050905090565b6001600160a01b0381166103005760405162461bcd60e51b815260206004820152600f60248201526e496e76616c6964206164647265737360881b60448201526064015b60405180910390fd5b336001600160a01b0382161461037e5760405162461bcd60e51b815260206004820152602860248201527f4f6e6c792074686520757365722063616e2061646420686973206163636f756e60448201527f7420746f2061707000000000000000000000000000000000000000000000000060648201526084016102f7565b6001600160a01b038181166000908152600560205260409020541661041a576001600160a01b038116600081815260056020526040812080547fffffffffffffffffffffffff0000000000000000000000000000000000000000908116841790915581546001810183559180527f290decd9548b62a8d60345a988386fc84ba6bc95484008f6362f93160ef3e563909101805490911690911790555b50565b60606001600160a01b0383166104675760405162461bcd60e51b815260206004820152600f60248201526e496e76616c6964206164647265737360881b60448201526064016102f7565b6001600160a01b03808416600090815260056020526040902080549091166104c85760405162461bcd60e51b81526020600482015260146024820152735573657220646f6573206e6f742065786973747360601b60448201526064016102f7565b600481015483106105295760405162461bcd60e51b815260206004820152602560248201527f4e66742061742074686520676976656e20696e64657820646f6573206e6f7420604482015264195e1a5cdd60da1b60648201526084016102f7565b80600401838154811061053e5761053e6114f2565b90600052602060002001805461055390611508565b80601f016020809104026020016040519081016040528092919081815260200182805461057f90611508565b80156105cc5780601f106105a1576101008083540402835291602001916105cc565b820191906000526020600020905b8154815290600101906020018083116105af57829003601f168201915b505050505091505092915050565b805160208183018101805160018252928201919093012091528054819061060090611508565b80601f016020809104026020016040519081016040528092919081815260200182805461062c90611508565b80156106795780601f1061064e57610100808354040283529160200191610679565b820191906000526020600020905b81548152906001019060200180831161065c57829003601f168201915b5050505060018301546002840154600385015460048601805495966001600160a01b039485169694909316945090926106b190611508565b80601f01602080910402602001604051908101604052809291908181526020018280546106dd90611508565b801561072a5780601f106106ff5761010080835404028352916020019161072a565b820191906000526020600020905b81548152906001019060200180831161070d57829003601f168201915b50505050509080600501805461073f90611508565b80601f016020809104026020016040519081016040528092919081815260200182805461076b90611508565b80156107b85780601f1061078d576101008083540402835291602001916107b8565b820191906000526020600020905b81548152906001019060200180831161079b57829003601f168201915b5050505050905086565b80516020818301810180516003825292820191909301209152805481906107e890611508565b80601f016020809104026020016040519081016040528092919081815260200182805461081490611508565b80156108615780601f1061083657610100808354040283529160200191610861565b820191906000526020600020905b81548152906001019060200180831161084457829003601f168201915b5050505060018301546002840154600385015460049095015493946001600160a01b03928316949282169350600160a01b90910463ffffffff169186565b6040805160a0810182526060808252600060208301819052928201839052810182905260808101919091526001600160a01b0383166109125760405162461bcd60e51b815260206004820152600f60248201526e496e76616c6964206164647265737360881b60448201526064016102f7565b6001600160a01b03808416600090815260056020526040902080549091166109735760405162461bcd60e51b81526020600482015260146024820152735573657220646f6573206e6f742065786973747360601b60448201526064016102f7565b60006001600160a01b031681600301846040516109909190611543565b908152604051908190036020019020600201546001600160a01b03161415610a095760405162461bcd60e51b815260206004820152602660248201527f5573657220646f6573206e6f74206861766520616e7920737563682072656e7460448201526519590813999d60d21b60648201526084016102f7565b8060030183604051610a1b9190611543565b90815260200160405180910390206040518060a0016040529081600082018054610a4490611508565b80601f0160208091040260200160405190810160405280929190818152602001828054610a7090611508565b8015610abd5780601f10610a9257610100808354040283529160200191610abd565b820191906000526020600020905b815481529060010190602001808311610aa057829003601f168201915b505050918352505060018201546001600160a01b0390811660208301526002909201549182166040820152600160a01b820461ffff166060820152600160b01b90910463ffffffff16608090910152949350505050565b8051602081830181018051600482529282019190930120915280548190610b3a90611508565b80601f0160208091040260200160405190810160405280929190818152602001828054610b6690611508565b8015610bb35780601f10610b8857610100808354040283529160200191610bb3565b820191906000526020600020905b815481529060010190602001808311610b9657829003601f168201915b50505050600183015460029093015491926001600160a01b03908116929081169150600160a01b810461ffff1690600160b01b900463ffffffff1685565b60606001600160a01b038316610c3b5760405162461bcd60e51b815260206004820152600f60248201526e496e76616c6964206164647265737360881b60448201526064016102f7565b6001600160a01b0380841660009081526005602052604090208054909116610c9c5760405162461bcd60e51b81526020600482015260146024820152735573657220646f6573206e6f742065786973747360601b60448201526064016102f7565b60028101548310610cfd5760405162461bcd60e51b815260206004820152602560248201527f4e66742061742074686520676976656e20696e64657820646f6573206e6f7420604482015264195e1a5cdd60da1b60648201526084016102f7565b80600201838154811061053e5761053e6114f2565b60606002805480602002602001604051908101604052809291908181526020016000905b82821015610de2578382906000526020600020018054610d5590611508565b80601f0160208091040260200160405190810160405280929190818152602001828054610d8190611508565b8015610dce5780601f10610da357610100808354040283529160200191610dce565b820191906000526020600020905b815481529060010190602001808311610db157829003601f168201915b505050505081526020019060010190610d36565b50505050905090565b6040805160c081018252606080825260006020830181905292820183905281018290526080810182905260a08101919091526001600160a01b038316610e655760405162461bcd60e51b815260206004820152600f60248201526e496e76616c6964206164647265737360881b60448201526064016102f7565b6001600160a01b0380841660009081526005602052604090208054909116610ec65760405162461bcd60e51b81526020600482015260146024820152735573657220646f6573206e6f742065786973747360601b60448201526064016102f7565b60006001600160a01b03168160010184604051610ee39190611543565b908152604051908190036020019020600101546001600160a01b03161415610f5c5760405162461bcd60e51b815260206004820152602660248201527f5573657220646f6573206e6f74206861766520616e792073756368206c656e6460448201526519590813999d60d21b60648201526084016102f7565b8060010183604051610f6e9190611543565b90815260200160405180910390206040518060c0016040529081600082018054610f9790611508565b80601f0160208091040260200160405190810160405280929190818152602001828054610fc390611508565b80156110105780601f10610fe557610100808354040283529160200191611010565b820191906000526020600020905b815481529060010190602001808311610ff357829003601f168201915b505050918352505060018201546001600160a01b03908116602083015260028301549081166040830152600160a01b900463ffffffff1660608201526003820154608082015260049091015460a090910152949350505050565b6020808252825182820181905260009190848201906040850190845b818110156110ab5783516001600160a01b031683529284019291840191600101611086565b50909695505050505050565b80356001600160a01b03811681146110ce57600080fd5b919050565b6000602082840312156110e557600080fd5b6110ee826110b7565b9392505050565b6000806040838503121561110857600080fd5b611111836110b7565b946020939093013593505050565b60005b8381101561113a578181015183820152602001611122565b83811115611149576000848401525b50505050565b6000815180845261116781602086016020860161111f565b601f01601f19169290920160200192915050565b6020815260006110ee602083018461114f565b634e487b7160e01b600052604160045260246000fd5b600082601f8301126111b557600080fd5b813567ffffffffffffffff808211156111d0576111d061118e565b604051601f8301601f19908116603f011681019082821181831017156111f8576111f861118e565b8160405283815286602085880101111561121157600080fd5b836020870160208301376000602085830101528094505050505092915050565b60006020828403121561124357600080fd5b813567ffffffffffffffff81111561125a57600080fd5b611266848285016111a4565b949350505050565b60c08152600061128160c083018961114f565b6001600160a01b038881166020850152871660408401526060830186905282810360808401526112b1818661114f565b905082810360a08401526112c5818561114f565b9998505050505050505050565b60c0815260006112e560c083018961114f565b6001600160a01b03978816602084015295909616604082015263ffffffff939093166060840152608083019190915260a09091015292915050565b6000806040838503121561133357600080fd5b61133c836110b7565b9150602083013567ffffffffffffffff81111561135857600080fd5b611364858286016111a4565b9150509250929050565b602081526000825160a0602084015261138a60c084018261114f565b905060208401516001600160a01b038082166040860152806040870151166060860152505061ffff606085015116608084015263ffffffff60808501511660a08401528091505092915050565b60a0815260006113ea60a083018861114f565b6001600160a01b03968716602084015294909516604082015261ffff92909216606083015263ffffffff1660809091015292915050565b6000602080830181845280855180835260408601915060408160051b870101925083870160005b8281101561147657603f1988860301845261146485835161114f565b94509285019290850190600101611448565b5092979650505050505050565b602081526000825160c0602084015261149f60e084018261114f565b905060208401516001600160a01b038082166040860152806040870151166060860152505063ffffffff6060850151166080840152608084015160a084015260a084015160c08401528091505092915050565b634e487b7160e01b600052603260045260246000fd5b600181811c9082168061151c57607f821691505b6020821081141561153d57634e487b7160e01b600052602260045260246000fd5b50919050565b6000825161155581846020870161111f565b919091019291505056fea164736f6c6343000809000a",
  "linkReferences": {},
  "deployedLinkReferences": {}
}