{
  "_format": "hh-sol-artifact-1",
  "contractName": "NFTFactory",
  "sourceName": "contracts/NFTFactory.sol",
  "abi": [
    {
      "inputs": [],
      "name": "getContractBalance",
      "outputs": [
        {
          "internalType": "uint256",
          "name": "",
          "type": "uint256"
        }
      ],
      "stateMutability": "view",
      "type": "function"
    },
    {
      "inputs": [],
      "name": "getUserAddressList",
      "outputs": [
        {
          "internalType": "address[]",
          "name": "",
          "type": "address[]"
        }
      ],
      "stateMutability": "view",
      "type": "function"
    },
    {
      "inputs": [
        {
          "internalType": "string",
          "name": "",
          "type": "string"
        }
      ],
      "name": "nftKeyToNftProps",
      "outputs": [
        {
          "internalType": "string",
          "name": "nftKey",
          "type": "string"
        },
        {
          "internalType": "address",
          "name": "nftOwner",
          "type": "address"
        },
        {
          "internalType": "address",
          "name": "nftAddress",
          "type": "address"
        },
        {
          "internalType": "uint256",
          "name": "nftId",
          "type": "uint256"
        },
        {
          "internalType": "string",
          "name": "nftName",
          "type": "string"
        },
        {
          "internalType": "string",
          "name": "nftImageURL",
          "type": "string"
        }
      ],
      "stateMutability": "view",
      "type": "function"
    }
  ],
  "bytecode": "0x608060405234801561001057600080fd5b5061054b806100206000396000f3fe608060405234801561001057600080fd5b50600436106100415760003560e01c8063213f44ab146100465780635289f68a146100645780636f9fb98a14610089575b600080fd5b61004e610097565b60405161005b91906103f9565b60405180910390f35b6100776100723660046102fb565b610106565b60405161005b96959493929190610453565b60405147815260200161005b565b606060008054806020026020016040519081016040528092919081815260200182805480156100fc57602002820191906000526020600020905b815473ffffffffffffffffffffffffffffffffffffffff1681526001909101906020018083116100d1575b5050505050905090565b805160208183018101805160018252928201919093012091528054819061012c906104c4565b80601f0160208091040260200160405190810160405280929190818152602001828054610158906104c4565b80156101a55780601f1061017a576101008083540402835291602001916101a5565b820191906000526020600020905b81548152906001019060200180831161018857829003601f168201915b50505050600183015460028401546003850154600486018054959673ffffffffffffffffffffffffffffffffffffffff9485169694909316945090926101ea906104c4565b80601f0160208091040260200160405190810160405280929190818152602001828054610216906104c4565b80156102635780601f1061023857610100808354040283529160200191610263565b820191906000526020600020905b81548152906001019060200180831161024657829003601f168201915b505050505090806005018054610278906104c4565b80601f01602080910402602001604051908101604052809291908181526020018280546102a4906104c4565b80156102f15780601f106102c6576101008083540402835291602001916102f1565b820191906000526020600020905b8154815290600101906020018083116102d457829003601f168201915b5050505050905086565b60006020828403121561030d57600080fd5b813567ffffffffffffffff8082111561032557600080fd5b818401915084601f83011261033957600080fd5b81358181111561034b5761034b6104ff565b604051601f8201601f19908116603f01168101908382118183101715610373576103736104ff565b8160405282815287602084870101111561038c57600080fd5b826020860160208301376000928101602001929092525095945050505050565b6000815180845260005b818110156103d2576020818501810151868301820152016103b6565b818111156103e4576000602083870101525b50601f01601f19169290920160200192915050565b6020808252825182820181905260009190848201906040850190845b8181101561044757835173ffffffffffffffffffffffffffffffffffffffff1683529284019291840191600101610415565b50909695505050505050565b60c08152600061046660c08301896103ac565b73ffffffffffffffffffffffffffffffffffffffff8881166020850152871660408401526060830186905282810360808401526104a381866103ac565b905082810360a08401526104b781856103ac565b9998505050505050505050565b600181811c908216806104d857607f821691505b602082108114156104f957634e487b7160e01b600052602260045260246000fd5b50919050565b634e487b7160e01b600052604160045260246000fdfea2646970667358221220571d7dd05e6f61f73bd8970d77f7b64c3efe68168e4e5c2cc91498286f62c80f64736f6c63430008050033",
  "linkReferences": {},
  "deployedLinkReferences": {}
}