{
  "_format": "hh-sol-artifact-1",
  "contractName": "NFTRental",
  "sourceName": "contracts/NFTRental.sol",
  "abi": [
    {
      "anonymous": false,
      "inputs": [],
      "name": "NFTLended",
      "type": "event"
    },
    {
      "anonymous": false,
      "inputs": [],
      "name": "NFTRented",
      "type": "event"
    },
    {
      "inputs": [
        {
          "internalType": "string",
          "name": "_nftKey",
          "type": "string"
        },
        {
          "internalType": "address",
          "name": "_nftOwner",
          "type": "address"
        },
        {
          "internalType": "address",
          "name": "_nftAddress",
          "type": "address"
        },
        {
          "internalType": "uint256",
          "name": "_nftId",
          "type": "uint256"
        },
        {
          "internalType": "uint32",
          "name": "_wishlistCount",
          "type": "uint32"
        },
        {
          "internalType": "string",
          "name": "_nftName",
          "type": "string"
        },
        {
          "internalType": "string",
          "name": "_nftImageURL",
          "type": "string"
        },
        {
          "internalType": "address",
          "name": "_lenderAddress",
          "type": "address"
        },
        {
          "internalType": "uint32",
          "name": "_dueDate",
          "type": "uint32"
        },
        {
          "internalType": "uint256",
          "name": "_dailyRent",
          "type": "uint256"
        },
        {
          "internalType": "uint256",
          "name": "_collateral",
          "type": "uint256"
        }
      ],
      "name": "addNFTToLend",
      "outputs": [],
      "stateMutability": "payable",
      "type": "function"
    },
    {
      "inputs": [
        {
          "internalType": "address",
          "name": "_userAddress",
          "type": "address"
        }
      ],
      "name": "addUser",
      "outputs": [],
      "stateMutability": "nonpayable",
      "type": "function"
    },
    {
      "inputs": [
        {
          "internalType": "address",
          "name": "",
          "type": "address"
        }
      ],
      "name": "addressToUser",
      "outputs": [
        {
          "internalType": "address",
          "name": "userAddress",
          "type": "address"
        }
      ],
      "stateMutability": "view",
      "type": "function"
    },
    {
      "inputs": [
        {
          "internalType": "string",
          "name": "_nftKey",
          "type": "string"
        }
      ],
      "name": "claimCollateral",
      "outputs": [],
      "stateMutability": "nonpayable",
      "type": "function"
    },
    {
      "inputs": [],
      "name": "getContractBalance",
      "outputs": [
        {
          "internalType": "uint256",
          "name": "",
          "type": "uint256"
        }
      ],
      "stateMutability": "view",
      "type": "function"
    },
    {
      "inputs": [],
      "name": "getNftKeysListAvaiableForRent",
      "outputs": [
        {
          "internalType": "string[]",
          "name": "",
          "type": "string[]"
        }
      ],
      "stateMutability": "view",
      "type": "function"
    },
    {
      "inputs": [],
      "name": "getUserAddressList",
      "outputs": [
        {
          "internalType": "address[]",
          "name": "",
          "type": "address[]"
        }
      ],
      "stateMutability": "view",
      "type": "function"
    },
    {
      "inputs": [
        {
          "internalType": "address",
          "name": "_userAddress",
          "type": "address"
        },
        {
          "internalType": "string",
          "name": "_nftKey",
          "type": "string"
        }
      ],
      "name": "getUserLendedNFTDetails",
      "outputs": [
        {
          "components": [
            {
              "internalType": "string",
              "name": "nftKey",
              "type": "string"
            },
            {
              "internalType": "address",
              "name": "lenderAddress",
              "type": "address"
            },
            {
              "internalType": "address",
              "name": "borrowerAddress",
              "type": "address"
            },
            {
              "internalType": "uint32",
              "name": "dueDate",
              "type": "uint32"
            },
            {
              "internalType": "uint256",
              "name": "dailyRent",
              "type": "uint256"
            },
            {
              "internalType": "uint256",
              "name": "collateral",
              "type": "uint256"
            }
          ],
          "internalType": "struct NFTRental.lendedNFT",
          "name": "",
          "type": "tuple"
        }
      ],
      "stateMutability": "view",
      "type": "function"
    },
    {
      "inputs": [
        {
          "internalType": "address",
          "name": "_userAddress",
          "type": "address"
        },
        {
          "internalType": "uint256",
          "name": "_index",
          "type": "uint256"
        }
      ],
      "name": "getUserLendedNFTListDetails",
      "outputs": [
        {
          "internalType": "string",
          "name": "",
          "type": "string"
        }
      ],
      "stateMutability": "view",
      "type": "function"
    },
    {
      "inputs": [
        {
          "internalType": "address",
          "name": "_userAddress",
          "type": "address"
        },
        {
          "internalType": "string",
          "name": "_nftKey",
          "type": "string"
        }
      ],
      "name": "getUserRentedNFTDetails",
      "outputs": [
        {
          "components": [
            {
              "internalType": "string",
              "name": "nftKey",
              "type": "string"
            },
            {
              "internalType": "address",
              "name": "lenderAddress",
              "type": "address"
            },
            {
              "internalType": "address",
              "name": "borrowerAddress",
              "type": "address"
            },
            {
              "internalType": "uint16",
              "name": "numberOfDays",
              "type": "uint16"
            },
            {
              "internalType": "uint32",
              "name": "rentalStartTime",
              "type": "uint32"
            }
          ],
          "internalType": "struct NFTRental.rentedNFT",
          "name": "",
          "type": "tuple"
        }
      ],
      "stateMutability": "view",
      "type": "function"
    },
    {
      "inputs": [
        {
          "internalType": "address",
          "name": "_userAddress",
          "type": "address"
        },
        {
          "internalType": "uint256",
          "name": "_index",
          "type": "uint256"
        }
      ],
      "name": "getUserRentedNFTListDetails",
      "outputs": [
        {
          "internalType": "string",
          "name": "",
          "type": "string"
        }
      ],
      "stateMutability": "view",
      "type": "function"
    },
    {
      "inputs": [
        {
          "internalType": "string",
          "name": "",
          "type": "string"
        }
      ],
      "name": "nftKeyToLendedNftDetails",
      "outputs": [
        {
          "internalType": "string",
          "name": "nftKey",
          "type": "string"
        },
        {
          "internalType": "address",
          "name": "lenderAddress",
          "type": "address"
        },
        {
          "internalType": "address",
          "name": "borrowerAddress",
          "type": "address"
        },
        {
          "internalType": "uint32",
          "name": "dueDate",
          "type": "uint32"
        },
        {
          "internalType": "uint256",
          "name": "dailyRent",
          "type": "uint256"
        },
        {
          "internalType": "uint256",
          "name": "collateral",
          "type": "uint256"
        }
      ],
      "stateMutability": "view",
      "type": "function"
    },
    {
      "inputs": [
        {
          "internalType": "string",
          "name": "",
          "type": "string"
        }
      ],
      "name": "nftKeyToNftProps",
      "outputs": [
        {
          "internalType": "string",
          "name": "nftKey",
          "type": "string"
        },
        {
          "internalType": "address",
          "name": "nftOwner",
          "type": "address"
        },
        {
          "internalType": "address",
          "name": "nftAddress",
          "type": "address"
        },
        {
          "internalType": "uint256",
          "name": "nftId",
          "type": "uint256"
        },
        {
          "internalType": "uint32",
          "name": "wishlistCount",
          "type": "uint32"
        },
        {
          "internalType": "string",
          "name": "nftName",
          "type": "string"
        },
        {
          "internalType": "string",
          "name": "nftImageURL",
          "type": "string"
        }
      ],
      "stateMutability": "view",
      "type": "function"
    },
    {
      "inputs": [
        {
          "internalType": "string",
          "name": "",
          "type": "string"
        }
      ],
      "name": "nftKeyToRentedNftDetails",
      "outputs": [
        {
          "internalType": "string",
          "name": "nftKey",
          "type": "string"
        },
        {
          "internalType": "address",
          "name": "lenderAddress",
          "type": "address"
        },
        {
          "internalType": "address",
          "name": "borrowerAddress",
          "type": "address"
        },
        {
          "internalType": "uint16",
          "name": "numberOfDays",
          "type": "uint16"
        },
        {
          "internalType": "uint32",
          "name": "rentalStartTime",
          "type": "uint32"
        }
      ],
      "stateMutability": "view",
      "type": "function"
    },
    {
      "inputs": [
        {
          "internalType": "address",
          "name": "",
          "type": "address"
        },
        {
          "internalType": "address",
          "name": "",
          "type": "address"
        },
        {
          "internalType": "uint256",
          "name": "",
          "type": "uint256"
        },
        {
          "internalType": "bytes",
          "name": "",
          "type": "bytes"
        }
      ],
      "name": "onERC721Received",
      "outputs": [
        {
          "internalType": "bytes4",
          "name": "",
          "type": "bytes4"
        }
      ],
      "stateMutability": "nonpayable",
      "type": "function"
    },
    {
      "inputs": [
        {
          "internalType": "string",
          "name": "_nftKey",
          "type": "string"
        },
        {
          "internalType": "address",
          "name": "_borrowerAddress",
          "type": "address"
        },
        {
          "internalType": "uint16",
          "name": "_numberOfDays",
          "type": "uint16"
        },
        {
          "internalType": "uint32",
          "name": "_rentalStartTime",
          "type": "uint32"
        }
      ],
      "name": "rentNft",
      "outputs": [],
      "stateMutability": "payable",
      "type": "function"
    },
    {
      "inputs": [],
      "name": "returnNFT",
      "outputs": [],
      "stateMutability": "nonpayable",
      "type": "function"
    },
    {
      "inputs": [
        {
          "internalType": "string",
          "name": "_nftKey",
          "type": "string"
        }
      ],
      "name": "stopLend",
      "outputs": [],
      "stateMutability": "nonpayable",
      "type": "function"
    }
  ],
  "bytecode": "0x608060405234801561001057600080fd5b5061630b80620000216000396000f3fe6080604052600436106101095760003560e01c80637f73ef6c11610095578063dc4ace8c11610064578063dc4ace8c14610396578063deb41216146103c1578063e08b5737146103fe578063e287183a14610427578063edf538861461045057610109565b80637f73ef6c146102c45780638d2221d914610301578063a66a89fd14610342578063c6d62d901461037f57610109565b80634df3d7b9116100dc5780634df3d7b9146101bb5780635289f68a146101f857806364afd6741461023b578063657ed37d146102575780636f9fb98a1461029957610109565b8063150b7a021461010e578063213f44ab1461014b578063421b2d8b14610176578063423fdefb1461019f575b600080fd5b34801561011a57600080fd5b50610135600480360381019061013091906145b4565b61048d565b60405161014291906150ef565b60405180910390f35b34801561015757600080fd5b506101606104a1565b60405161016d91906150ab565b60405180910390f35b34801561018257600080fd5b5061019d60048036038101906101989190614587565b61052f565b005b6101b960048036038101906101b49190614864565b610792565b005b3480156101c757600080fd5b506101e260048036038101906101dd9190614693565b610988565b6040516101ef919061510a565b60405180910390f35b34801561020457600080fd5b5061021f600480360381019061021a91906146d3565b610bcc565b6040516102329796959493929190615186565b60405180910390f35b6102556004803603810190610250919061471c565b610e0c565b005b34801561026357600080fd5b5061027e600480360381019061027991906146d3565b611367565b6040516102909695949392919061520a565b60405180910390f35b3480156102a557600080fd5b506102ae611491565b6040516102bb9190615636565b60405180910390f35b3480156102d057600080fd5b506102eb60048036038101906102e69190614637565b611499565b6040516102f89190615614565b60405180910390f35b34801561030d57600080fd5b50610328600480360381019061032391906146d3565b611853565b60405161033995949392919061512c565b60405180910390f35b34801561034e57600080fd5b5061036960048036038101906103649190614693565b611985565b604051610376919061510a565b60405180910390f35b34801561038b57600080fd5b50610394611bc9565b005b3480156103a257600080fd5b506103ab611bcb565b6040516103b891906150cd565b60405180910390f35b3480156103cd57600080fd5b506103e860048036038101906103e39190614637565b611ca4565b6040516103f591906155f2565b60405180910390f35b34801561040a57600080fd5b50610425600480360381019061042091906146d3565b612052565b005b34801561043357600080fd5b5061044e600480360381019061044991906146d3565b6126ad565b005b34801561045c57600080fd5b5061047760048036038101906104729190614587565b612eaf565b6040516104849190615090565b60405180910390f35b600063150b7a0260e01b9050949350505050565b6060600080548060200260200160405190810160405280929190818152602001828054801561052557602002820191906000526020600020905b8160009054906101000a900473ffffffffffffffffffffffffffffffffffffffff1673ffffffffffffffffffffffffffffffffffffffff16815260200190600101908083116104db575b5050505050905090565b600073ffffffffffffffffffffffffffffffffffffffff168173ffffffffffffffffffffffffffffffffffffffff16141561059f576040517f08c379a0000000000000000000000000000000000000000000000000000000008152600401610596906152b2565b60405180910390fd5b8073ffffffffffffffffffffffffffffffffffffffff163373ffffffffffffffffffffffffffffffffffffffff161461060d576040517f08c379a000000000000000000000000000000000000000000000000000000000815260040161060490615512565b60405180910390fd5b600073ffffffffffffffffffffffffffffffffffffffff16600160008373ffffffffffffffffffffffffffffffffffffffff1673ffffffffffffffffffffffffffffffffffffffff16815260200190815260200160002060000160009054906101000a900473ffffffffffffffffffffffffffffffffffffffff1673ffffffffffffffffffffffffffffffffffffffff16141561078f576000600160008373ffffffffffffffffffffffffffffffffffffffff1673ffffffffffffffffffffffffffffffffffffffff1681526020019081526020016000209050818160000160006101000a81548173ffffffffffffffffffffffffffffffffffffffff021916908373ffffffffffffffffffffffffffffffffffffffff1602179055506000829080600181540180825580915050600190039060005260206000200160009091909190916101000a81548173ffffffffffffffffffffffffffffffffffffffff021916908373ffffffffffffffffffffffffffffffffffffffff160217905550505b50565b61079e84848484612eed565b60006004856040516107b09190615062565b908152602001604051809103902060030154905060006004866040516107d69190615062565b908152602001604051809103902060040154905060008461ffff16836107fc9190615827565b90506000828261080c9190615797565b905080341015610851576040517f08c379a0000000000000000000000000000000000000000000000000000000008152600401610848906154b2565b60405180910390fd5b60006004896040516108639190615062565b908152602001604051809103902060010160009054906101000a900473ffffffffffffffffffffffffffffffffffffffff1690506108a38989898961328b565b813411156109045760008890508073ffffffffffffffffffffffffffffffffffffffff166108fc84346108d691906158bf565b9081150290604051600060405180830381858888f19350505050158015610901573d6000803e3d6000fd5b50505b60008190508073ffffffffffffffffffffffffffffffffffffffff166108fc859081150290604051600060405180830381858888f1935050505015801561094f573d6000803e3d6000fd5b507fe85b6202f15dfae39a54e501b5e65cbcc44a996fb8d14f843c7cb8e16fd49c7460405160405180910390a150505050505050505050565b6060600073ffffffffffffffffffffffffffffffffffffffff168373ffffffffffffffffffffffffffffffffffffffff1614156109fa576040517f08c379a00000000000000000000000000000000000000000000000000000000081526004016109f1906152b2565b60405180910390fd5b6000600160008573ffffffffffffffffffffffffffffffffffffffff1673ffffffffffffffffffffffffffffffffffffffff1681526020019081526020016000209050600073ffffffffffffffffffffffffffffffffffffffff168160000160009054906101000a900473ffffffffffffffffffffffffffffffffffffffff1673ffffffffffffffffffffffffffffffffffffffff161415610ad1576040517f08c379a0000000000000000000000000000000000000000000000000000000008152600401610ac890615572565b60405180910390fd5b80600401805490508310610b1a576040517f08c379a0000000000000000000000000000000000000000000000000000000008152600401610b11906152f2565b60405180910390fd5b806004018381548110610b3057610b2f615af4565b5b906000526020600020018054610b45906159bb565b80601f0160208091040260200160405190810160405280929190818152602001828054610b71906159bb565b8015610bbe5780601f10610b9357610100808354040283529160200191610bbe565b820191906000526020600020905b815481529060010190602001808311610ba157829003601f168201915b505050505091505092915050565b600381805160208101820180518482526020830160208501208183528095505050505050600091509050806000018054610c05906159bb565b80601f0160208091040260200160405190810160405280929190818152602001828054610c31906159bb565b8015610c7e5780601f10610c5357610100808354040283529160200191610c7e565b820191906000526020600020905b815481529060010190602001808311610c6157829003601f168201915b5050505050908060010160009054906101000a900473ffffffffffffffffffffffffffffffffffffffff16908060020160009054906101000a900473ffffffffffffffffffffffffffffffffffffffff16908060030154908060040160009054906101000a900463ffffffff1690806005018054610cfb906159bb565b80601f0160208091040260200160405190810160405280929190818152602001828054610d27906159bb565b8015610d745780601f10610d4957610100808354040283529160200191610d74565b820191906000526020600020905b815481529060010190602001808311610d5757829003601f168201915b505050505090806006018054610d89906159bb565b80601f0160208091040260200160405190810160405280929190818152602001828054610db5906159bb565b8015610e025780601f10610dd757610100808354040283529160200191610e02565b820191906000526020600020905b815481529060010190602001808311610de557829003601f168201915b5050505050905087565b8373ffffffffffffffffffffffffffffffffffffffff163373ffffffffffffffffffffffffffffffffffffffff1614610e7a576040517f08c379a0000000000000000000000000000000000000000000000000000000008152600401610e7190615432565b60405180910390fd5b600073ffffffffffffffffffffffffffffffffffffffff16600160008673ffffffffffffffffffffffffffffffffffffffff1673ffffffffffffffffffffffffffffffffffffffff16815260200190815260200160002060000160009054906101000a900473ffffffffffffffffffffffffffffffffffffffff1673ffffffffffffffffffffffffffffffffffffffff161415610f4c576040517f08c379a0000000000000000000000000000000000000000000000000000000008152600401610f4390615492565b60405180910390fd5b600073ffffffffffffffffffffffffffffffffffffffff1660038c604051610f749190615062565b908152602001604051809103902060020160009054906101000a900473ffffffffffffffffffffffffffffffffffffffff1673ffffffffffffffffffffffffffffffffffffffff1614610ffc576040517f08c379a0000000000000000000000000000000000000000000000000000000008152600401610ff390615272565b60405180910390fd5b600073ffffffffffffffffffffffffffffffffffffffff1660048c6040516110249190615062565b908152602001604051809103902060010160009054906101000a900473ffffffffffffffffffffffffffffffffffffffff1673ffffffffffffffffffffffffffffffffffffffff16146110ac576040517f08c379a00000000000000000000000000000000000000000000000000000000081526004016110a390615272565b60405180910390fd5b8373ffffffffffffffffffffffffffffffffffffffff168a73ffffffffffffffffffffffffffffffffffffffff161461111a576040517f08c379a0000000000000000000000000000000000000000000000000000000008152600401611111906152d2565b60405180910390fd5b428363ffffffff1611611162576040517f08c379a0000000000000000000000000000000000000000000000000000000008152600401611159906153b2565b60405180910390fd5b60008763ffffffff16146111ab576040517f08c379a00000000000000000000000000000000000000000000000000000000081526004016111a2906153d2565b60405180910390fd5b60006040518060e001604052808d81526020018c73ffffffffffffffffffffffffffffffffffffffff1681526020018b73ffffffffffffffffffffffffffffffffffffffff1681526020018a81526020018963ffffffff1681526020018881526020018781525090508060038d6040516112259190615062565b9081526020016040518091039020600082015181600001908051906020019061124f929190614216565b5060208201518160010160006101000a81548173ffffffffffffffffffffffffffffffffffffffff021916908373ffffffffffffffffffffffffffffffffffffffff16021790555060408201518160020160006101000a81548173ffffffffffffffffffffffffffffffffffffffff021916908373ffffffffffffffffffffffffffffffffffffffff1602179055506060820151816003015560808201518160040160006101000a81548163ffffffff021916908363ffffffff16021790555060a082015181600501908051906020019061132b929190614216565b5060c0820151816006019080519060200190611348929190614216565b509050506113598c868686866139d2565b505050505050505050505050565b6004818051602081018201805184825260208301602085012081835280955050505050506000915090508060000180546113a0906159bb565b80601f01602080910402602001604051908101604052809291908181526020018280546113cc906159bb565b80156114195780601f106113ee57610100808354040283529160200191611419565b820191906000526020600020905b8154815290600101906020018083116113fc57829003601f168201915b5050505050908060010160009054906101000a900473ffffffffffffffffffffffffffffffffffffffff16908060020160009054906101000a900473ffffffffffffffffffffffffffffffffffffffff16908060020160149054906101000a900463ffffffff16908060030154908060040154905086565b600047905090565b6114a161429c565b600073ffffffffffffffffffffffffffffffffffffffff168373ffffffffffffffffffffffffffffffffffffffff161415611511576040517f08c379a0000000000000000000000000000000000000000000000000000000008152600401611508906152b2565b60405180910390fd5b6000600160008573ffffffffffffffffffffffffffffffffffffffff1673ffffffffffffffffffffffffffffffffffffffff1681526020019081526020016000209050600073ffffffffffffffffffffffffffffffffffffffff168160000160009054906101000a900473ffffffffffffffffffffffffffffffffffffffff1673ffffffffffffffffffffffffffffffffffffffff1614156115e8576040517f08c379a00000000000000000000000000000000000000000000000000000000081526004016115df90615572565b60405180910390fd5b600073ffffffffffffffffffffffffffffffffffffffff1681600301846040516116129190615062565b908152602001604051809103902060020160009054906101000a900473ffffffffffffffffffffffffffffffffffffffff1673ffffffffffffffffffffffffffffffffffffffff16141561169b576040517f08c379a000000000000000000000000000000000000000000000000000000000815260040161169290615412565b60405180910390fd5b80600301836040516116ad9190615062565b90815260200160405180910390206040518060a00160405290816000820180546116d6906159bb565b80601f0160208091040260200160405190810160405280929190818152602001828054611702906159bb565b801561174f5780601f106117245761010080835404028352916020019161174f565b820191906000526020600020905b81548152906001019060200180831161173257829003601f168201915b505050505081526020016001820160009054906101000a900473ffffffffffffffffffffffffffffffffffffffff1673ffffffffffffffffffffffffffffffffffffffff1673ffffffffffffffffffffffffffffffffffffffff1681526020016002820160009054906101000a900473ffffffffffffffffffffffffffffffffffffffff1673ffffffffffffffffffffffffffffffffffffffff1673ffffffffffffffffffffffffffffffffffffffff1681526020016002820160149054906101000a900461ffff1661ffff1661ffff1681526020016002820160169054906101000a900463ffffffff1663ffffffff1663ffffffff168152505091505092915050565b60058180516020810182018051848252602083016020850120818352809550505050505060009150905080600001805461188c906159bb565b80601f01602080910402602001604051908101604052809291908181526020018280546118b8906159bb565b80156119055780601f106118da57610100808354040283529160200191611905565b820191906000526020600020905b8154815290600101906020018083116118e857829003601f168201915b5050505050908060010160009054906101000a900473ffffffffffffffffffffffffffffffffffffffff16908060020160009054906101000a900473ffffffffffffffffffffffffffffffffffffffff16908060020160149054906101000a900461ffff16908060020160169054906101000a900463ffffffff16905085565b6060600073ffffffffffffffffffffffffffffffffffffffff168373ffffffffffffffffffffffffffffffffffffffff1614156119f7576040517f08c379a00000000000000000000000000000000000000000000000000000000081526004016119ee906152b2565b60405180910390fd5b6000600160008573ffffffffffffffffffffffffffffffffffffffff1673ffffffffffffffffffffffffffffffffffffffff1681526020019081526020016000209050600073ffffffffffffffffffffffffffffffffffffffff168160000160009054906101000a900473ffffffffffffffffffffffffffffffffffffffff1673ffffffffffffffffffffffffffffffffffffffff161415611ace576040517f08c379a0000000000000000000000000000000000000000000000000000000008152600401611ac590615572565b60405180910390fd5b80600201805490508310611b17576040517f08c379a0000000000000000000000000000000000000000000000000000000008152600401611b0e906152f2565b60405180910390fd5b806002018381548110611b2d57611b2c615af4565b5b906000526020600020018054611b42906159bb565b80601f0160208091040260200160405190810160405280929190818152602001828054611b6e906159bb565b8015611bbb5780601f10611b9057610100808354040283529160200191611bbb565b820191906000526020600020905b815481529060010190602001808311611b9e57829003601f168201915b505050505091505092915050565b565b60606002805480602002602001604051908101604052809291908181526020016000905b82821015611c9b578382906000526020600020018054611c0e906159bb565b80601f0160208091040260200160405190810160405280929190818152602001828054611c3a906159bb565b8015611c875780601f10611c5c57610100808354040283529160200191611c87565b820191906000526020600020905b815481529060010190602001808311611c6a57829003601f168201915b505050505081526020019060010190611bef565b50505050905090565b611cac614301565b600073ffffffffffffffffffffffffffffffffffffffff168373ffffffffffffffffffffffffffffffffffffffff161415611d1c576040517f08c379a0000000000000000000000000000000000000000000000000000000008152600401611d13906152b2565b60405180910390fd5b6000600160008573ffffffffffffffffffffffffffffffffffffffff1673ffffffffffffffffffffffffffffffffffffffff1681526020019081526020016000209050600073ffffffffffffffffffffffffffffffffffffffff168160000160009054906101000a900473ffffffffffffffffffffffffffffffffffffffff1673ffffffffffffffffffffffffffffffffffffffff161415611df3576040517f08c379a0000000000000000000000000000000000000000000000000000000008152600401611dea90615572565b60405180910390fd5b600073ffffffffffffffffffffffffffffffffffffffff168160010184604051611e1d9190615062565b908152602001604051809103902060010160009054906101000a900473ffffffffffffffffffffffffffffffffffffffff1673ffffffffffffffffffffffffffffffffffffffff161415611ea6576040517f08c379a0000000000000000000000000000000000000000000000000000000008152600401611e9d90615592565b60405180910390fd5b8060010183604051611eb89190615062565b90815260200160405180910390206040518060c0016040529081600082018054611ee1906159bb565b80601f0160208091040260200160405190810160405280929190818152602001828054611f0d906159bb565b8015611f5a5780601f10611f2f57610100808354040283529160200191611f5a565b820191906000526020600020905b815481529060010190602001808311611f3d57829003601f168201915b505050505081526020016001820160009054906101000a900473ffffffffffffffffffffffffffffffffffffffff1673ffffffffffffffffffffffffffffffffffffffff1673ffffffffffffffffffffffffffffffffffffffff1681526020016002820160009054906101000a900473ffffffffffffffffffffffffffffffffffffffff1673ffffffffffffffffffffffffffffffffffffffff1673ffffffffffffffffffffffffffffffffffffffff1681526020016002820160149054906101000a900463ffffffff1663ffffffff1663ffffffff1681526020016003820154815260200160048201548152505091505092915050565b6000600160003373ffffffffffffffffffffffffffffffffffffffff1673ffffffffffffffffffffffffffffffffffffffff1681526020019081526020016000209050600073ffffffffffffffffffffffffffffffffffffffff168160000160009054906101000a900473ffffffffffffffffffffffffffffffffffffffff1673ffffffffffffffffffffffffffffffffffffffff161415612129576040517f08c379a000000000000000000000000000000000000000000000000000000000815260040161212090615572565b60405180910390fd5b600060038360405161213b9190615062565b90815260200160405180910390209050600073ffffffffffffffffffffffffffffffffffffffff168160020160009054906101000a900473ffffffffffffffffffffffffffffffffffffffff1673ffffffffffffffffffffffffffffffffffffffff1614156121df576040517f08c379a00000000000000000000000000000000000000000000000000000000081526004016121d690615332565b60405180910390fd5b60006004846040516121f19190615062565b90815260200160405180910390209050600073ffffffffffffffffffffffffffffffffffffffff168160010160009054906101000a900473ffffffffffffffffffffffffffffffffffffffff1673ffffffffffffffffffffffffffffffffffffffff161415612295576040517f08c379a000000000000000000000000000000000000000000000000000000000815260040161228c90615312565b60405180910390fd5b600073ffffffffffffffffffffffffffffffffffffffff168160020160009054906101000a900473ffffffffffffffffffffffffffffffffffffffff1673ffffffffffffffffffffffffffffffffffffffff1614612328576040517f08c379a000000000000000000000000000000000000000000000000000000000815260040161231f90615312565b60405180910390fd5b3373ffffffffffffffffffffffffffffffffffffffff168160010160009054906101000a900473ffffffffffffffffffffffffffffffffffffffff1673ffffffffffffffffffffffffffffffffffffffff16146123ba576040517f08c379a00000000000000000000000000000000000000000000000000000000081526004016123b190615372565b60405180910390fd5b3373ffffffffffffffffffffffffffffffffffffffff1683600101856040516123e39190615062565b908152602001604051809103902060010160009054906101000a900473ffffffffffffffffffffffffffffffffffffffff1673ffffffffffffffffffffffffffffffffffffffff161461246b576040517f08c379a000000000000000000000000000000000000000000000000000000000815260040161246290615352565b60405180910390fd5b600061247685613d3a565b905061248181613de9565b6004856040516124919190615062565b9081526020016040518091039020600080820160006124b09190614369565b6001820160006101000a81549073ffffffffffffffffffffffffffffffffffffffff02191690556002820160006101000a81549073ffffffffffffffffffffffffffffffffffffffff02191690556002820160146101000a81549063ffffffff02191690556003820160009055600482016000905550506003856040516125379190615062565b9081526020016040518091039020600080820160006125569190614369565b6001820160006101000a81549073ffffffffffffffffffffffffffffffffffffffff02191690556002820160006101000a81549073ffffffffffffffffffffffffffffffffffffffff021916905560038201600090556004820160006101000a81549063ffffffff02191690556005820160006125d39190614369565b6006820160006125e39190614369565b505060006125f18686613ece565b90506125fd8186613f82565b846001018660405161260f9190615062565b90815260200160405180910390206000808201600061262e9190614369565b6001820160006101000a81549073ffffffffffffffffffffffffffffffffffffffff02191690556002820160006101000a81549073ffffffffffffffffffffffffffffffffffffffff02191690556002820160146101000a81549063ffffffff0219169055600382016000905560048201600090555050505050505050565b6000600160003373ffffffffffffffffffffffffffffffffffffffff1673ffffffffffffffffffffffffffffffffffffffff1681526020019081526020016000209050600073ffffffffffffffffffffffffffffffffffffffff168160000160009054906101000a900473ffffffffffffffffffffffffffffffffffffffff1673ffffffffffffffffffffffffffffffffffffffff161415612784576040517f08c379a000000000000000000000000000000000000000000000000000000000815260040161277b90615452565b60405180910390fd5b60006003836040516127969190615062565b90815260200160405180910390209050600073ffffffffffffffffffffffffffffffffffffffff168160020160009054906101000a900473ffffffffffffffffffffffffffffffffffffffff1673ffffffffffffffffffffffffffffffffffffffff16141561283a576040517f08c379a000000000000000000000000000000000000000000000000000000000815260040161283190615332565b60405180910390fd5b600060048460405161284c9190615062565b90815260200160405180910390209050600073ffffffffffffffffffffffffffffffffffffffff168160010160009054906101000a900473ffffffffffffffffffffffffffffffffffffffff1673ffffffffffffffffffffffffffffffffffffffff16146128ef576040517f08c379a00000000000000000000000000000000000000000000000000000000081526004016128e6906154f2565b60405180910390fd5b60006005856040516129019190615062565b90815260200160405180910390209050600073ffffffffffffffffffffffffffffffffffffffff168160020160009054906101000a900473ffffffffffffffffffffffffffffffffffffffff1673ffffffffffffffffffffffffffffffffffffffff1614156129a5576040517f08c379a000000000000000000000000000000000000000000000000000000000815260040161299c906154f2565b60405180910390fd5b6000600160008360020160009054906101000a900473ffffffffffffffffffffffffffffffffffffffff1673ffffffffffffffffffffffffffffffffffffffff1673ffffffffffffffffffffffffffffffffffffffff1681526020019081526020016000209050600073ffffffffffffffffffffffffffffffffffffffff168160000160009054906101000a900473ffffffffffffffffffffffffffffffffffffffff1673ffffffffffffffffffffffffffffffffffffffff161415612aa0576040517f08c379a0000000000000000000000000000000000000000000000000000000008152600401612a97906155b2565b60405180910390fd5b60008560010187604051612ab49190615062565b908152602001604051809103902090503373ffffffffffffffffffffffffffffffffffffffff168160010160009054906101000a900473ffffffffffffffffffffffffffffffffffffffff1673ffffffffffffffffffffffffffffffffffffffff1614612b56576040517f08c379a0000000000000000000000000000000000000000000000000000000008152600401612b4d90615352565b60405180910390fd5b60008360020160169054906101000a900463ffffffff1663ffffffff16905060008460020160149054906101000a900461ffff1661ffff16905060006201518082612ba19190615881565b63ffffffff1683612bb29190615797565b9050428110612bf6576040517f08c379a0000000000000000000000000000000000000000000000000000000008152600401612bed90615552565b60405180910390fd5b60008460040154905060058b604051612c0f9190615062565b908152602001604051809103902060008082016000612c2e9190614369565b6001820160006101000a81549073ffffffffffffffffffffffffffffffffffffffff02191690556002820160006101000a81549073ffffffffffffffffffffffffffffffffffffffff02191690556002820160146101000a81549061ffff02191690556002820160166101000a81549063ffffffff021916905550506000612cb68c8c613ece565b9050612cc2818c613f82565b8a6001018c604051612cd49190615062565b908152602001604051809103902060008082016000612cf39190614369565b6001820160006101000a81549073ffffffffffffffffffffffffffffffffffffffff02191690556002820160006101000a81549073ffffffffffffffffffffffffffffffffffffffff02191690556002820160146101000a81549063ffffffff02191690556003820160009055600482016000905550506000612d768d89614072565b9050612d828189614126565b876003018d604051612d949190615062565b908152602001604051809103902060008082016000612db39190614369565b6001820160006101000a81549073ffffffffffffffffffffffffffffffffffffffff02191690556002820160006101000a81549073ffffffffffffffffffffffffffffffffffffffff02191690556002820160146101000a81549061ffff02191690556002820160166101000a81549063ffffffff0219169055505060008c60000160009054906101000a900473ffffffffffffffffffffffffffffffffffffffff1690508073ffffffffffffffffffffffffffffffffffffffff166108fc859081150290604051600060405180830381858888f19350505050158015612e9e573d6000803e3d6000fd5b505050505050505050505050505050565b60016020528060005260406000206000915090508060000160009054906101000a900473ffffffffffffffffffffffffffffffffffffffff16905081565b8273ffffffffffffffffffffffffffffffffffffffff163373ffffffffffffffffffffffffffffffffffffffff1614612f5b576040517f08c379a0000000000000000000000000000000000000000000000000000000008152600401612f52906154d2565b60405180910390fd5b600073ffffffffffffffffffffffffffffffffffffffff16600160008573ffffffffffffffffffffffffffffffffffffffff1673ffffffffffffffffffffffffffffffffffffffff16815260200190815260200160002060000160009054906101000a900473ffffffffffffffffffffffffffffffffffffffff1673ffffffffffffffffffffffffffffffffffffffff16141561302d576040517f08c379a000000000000000000000000000000000000000000000000000000000815260040161302490615492565b60405180910390fd5b600060038560405161303f9190615062565b90815260200160405180910390209050600073ffffffffffffffffffffffffffffffffffffffff168160020160009054906101000a900473ffffffffffffffffffffffffffffffffffffffff1673ffffffffffffffffffffffffffffffffffffffff1614156130e3576040517f08c379a00000000000000000000000000000000000000000000000000000000081526004016130da906153f2565b60405180910390fd5b600073ffffffffffffffffffffffffffffffffffffffff1660048660405161310b9190615062565b908152602001604051809103902060010160009054906101000a900473ffffffffffffffffffffffffffffffffffffffff1673ffffffffffffffffffffffffffffffffffffffff161415613194576040517f08c379a000000000000000000000000000000000000000000000000000000000815260040161318b906153f2565b60405180910390fd5b428263ffffffff16106131dc576040517f08c379a00000000000000000000000000000000000000000000000000000000081526004016131d3906153b2565b60405180910390fd5b6000620151808461ffff166131f19190615881565b836131fc91906157ed565b905060006004876040516132109190615062565b908152602001604051809103902060020160149054906101000a900463ffffffff1690508063ffffffff168263ffffffff1610613282576040517f08c379a000000000000000000000000000000000000000000000000000000000815260040161327990615472565b60405180910390fd5b50505050505050565b600060048560405161329d9190615062565b908152602001604051809103902060010160009054906101000a900473ffffffffffffffffffffffffffffffffffffffff1690508373ffffffffffffffffffffffffffffffffffffffff168173ffffffffffffffffffffffffffffffffffffffff161415613340576040517f08c379a000000000000000000000000000000000000000000000000000000000815260040161333790615292565b60405180910390fd5b6000600160008373ffffffffffffffffffffffffffffffffffffffff1673ffffffffffffffffffffffffffffffffffffffff1681526020019081526020016000209050600073ffffffffffffffffffffffffffffffffffffffff1681600101876040516133ad9190615062565b908152602001604051809103902060020160009054906101000a900473ffffffffffffffffffffffffffffffffffffffff1673ffffffffffffffffffffffffffffffffffffffff1614613435576040517f08c379a000000000000000000000000000000000000000000000000000000000815260040161342c90615392565b60405180910390fd5b8481600101876040516134489190615062565b908152602001604051809103902060020160006101000a81548173ffffffffffffffffffffffffffffffffffffffff021916908373ffffffffffffffffffffffffffffffffffffffff16021790555060006040518060a001604052808881526020018473ffffffffffffffffffffffffffffffffffffffff1681526020018773ffffffffffffffffffffffffffffffffffffffff1681526020018661ffff1681526020018563ffffffff1681525090506000600160008873ffffffffffffffffffffffffffffffffffffffff1673ffffffffffffffffffffffffffffffffffffffff1681526020019081526020016000209050600073ffffffffffffffffffffffffffffffffffffffff1681600301896040516135659190615062565b908152602001604051809103902060020160009054906101000a900473ffffffffffffffffffffffffffffffffffffffff1673ffffffffffffffffffffffffffffffffffffffff16146135ed576040517f08c379a00000000000000000000000000000000000000000000000000000000081526004016135e4906155d2565b60405180910390fd5b8181600301896040516136009190615062565b9081526020016040518091039020600082015181600001908051906020019061362a929190614216565b5060208201518160010160006101000a81548173ffffffffffffffffffffffffffffffffffffffff021916908373ffffffffffffffffffffffffffffffffffffffff16021790555060408201518160020160006101000a81548173ffffffffffffffffffffffffffffffffffffffff021916908373ffffffffffffffffffffffffffffffffffffffff16021790555060608201518160020160146101000a81548161ffff021916908361ffff16021790555060808201518160020160166101000a81548163ffffffff021916908363ffffffff1602179055509050508060040188908060018154018082558091505060019003906000526020600020016000909190919091509080519060200190613743929190614216565b50600073ffffffffffffffffffffffffffffffffffffffff1660058960405161376c9190615062565b908152602001604051809103902060020160009054906101000a900473ffffffffffffffffffffffffffffffffffffffff1673ffffffffffffffffffffffffffffffffffffffff16146137f4576040517f08c379a00000000000000000000000000000000000000000000000000000000081526004016137eb906155d2565b60405180910390fd5b816005896040516138059190615062565b9081526020016040518091039020600082015181600001908051906020019061382f929190614216565b5060208201518160010160006101000a81548173ffffffffffffffffffffffffffffffffffffffff021916908373ffffffffffffffffffffffffffffffffffffffff16021790555060408201518160020160006101000a81548173ffffffffffffffffffffffffffffffffffffffff021916908373ffffffffffffffffffffffffffffffffffffffff16021790555060608201518160020160146101000a81548161ffff021916908361ffff16021790555060808201518160020160166101000a81548163ffffffff021916908363ffffffff160217905550905050600061391689613d3a565b905061392181613de9565b6004896040516139319190615062565b9081526020016040518091039020600080820160006139509190614369565b6001820160006101000a81549073ffffffffffffffffffffffffffffffffffffffff02191690556002820160006101000a81549073ffffffffffffffffffffffffffffffffffffffff02191690556002820160146101000a81549063ffffffff0219169055600382016000905560048201600090555050505050505050505050565b60006040518060c001604052808781526020018673ffffffffffffffffffffffffffffffffffffffff168152602001600073ffffffffffffffffffffffffffffffffffffffff1681526020018563ffffffff1681526020018481526020018381525090506000600160008773ffffffffffffffffffffffffffffffffffffffff1673ffffffffffffffffffffffffffffffffffffffff1681526020019081526020016000209050818160010188604051613a8c9190615062565b90815260200160405180910390206000820151816000019080519060200190613ab6929190614216565b5060208201518160010160006101000a81548173ffffffffffffffffffffffffffffffffffffffff021916908373ffffffffffffffffffffffffffffffffffffffff16021790555060408201518160020160006101000a81548173ffffffffffffffffffffffffffffffffffffffff021916908373ffffffffffffffffffffffffffffffffffffffff16021790555060608201518160020160146101000a81548163ffffffff021916908363ffffffff1602179055506080820151816003015560a082015181600401559050508060020187908060018154018082558091505060019003906000526020600020016000909190919091509080519060200190613bc0929190614216565b5081600488604051613bd29190615062565b90815260200160405180910390206000820151816000019080519060200190613bfc929190614216565b5060208201518160010160006101000a81548173ffffffffffffffffffffffffffffffffffffffff021916908373ffffffffffffffffffffffffffffffffffffffff16021790555060408201518160020160006101000a81548173ffffffffffffffffffffffffffffffffffffffff021916908373ffffffffffffffffffffffffffffffffffffffff16021790555060608201518160020160146101000a81548163ffffffff021916908363ffffffff1602179055506080820151816003015560a08201518160040155905050600287908060018154018082558091505060019003906000526020600020016000909190919091509080519060200190613d04929190614216565b507fdb8317522294099fa9360f57f5f2c8178138bbeb092f99c41ada4fefc39fbe5e60405160405180910390a150505050505050565b600080600280549050905060005b81811015613dde5760028181548110613d6457613d63615af4565b5b90600052602060002001604051602001613d7e9190615079565b6040516020818303038152906040528051906020012084604051602001613da59190615062565b604051602081830303815290604052805190602001201415613dcb578092505050613de4565b8080613dd690615a1e565b915050613d48565b50809150505b919050565b6002805490508110613e30576040517f08c379a0000000000000000000000000000000000000000000000000000000008152600401613e2790615532565b60405180910390fd5b60006001600280549050613e4491906158bf565b905060028181548110613e5a57613e59615af4565b5b9060005260206000200160028381548110613e7857613e77615af4565b5b90600052602060002001908054613e8e906159bb565b613e999291906143a9565b506002805480613eac57613eab615ac5565b5b600190038181906000526020600020016000613ec89190614369565b90555050565b6000808260020180549050905060005b81811015613f7657836002018181548110613efc57613efb615af4565b5b90600052602060002001604051602001613f169190615079565b6040516020818303038152906040528051906020012085604051602001613f3d9190615062565b604051602081830303815290604052805190602001201415613f63578092505050613f7c565b8080613f6e90615a1e565b915050613ede565b50809150505b92915050565b80600201805490508210613fcb576040517f08c379a0000000000000000000000000000000000000000000000000000000008152600401613fc290615532565b60405180910390fd5b600060018260020180549050613fe191906158bf565b9050816002018181548110613ff957613ff8615af4565b5b9060005260206000200182600201848154811061401957614018615af4565b5b9060005260206000200190805461402f906159bb565b61403a9291906143a9565b508160020180548061404f5761404e615ac5565b5b60019003818190600052602060002001600061406b9190614369565b9055505050565b6000808260040180549050905060005b8181101561411a578360040181815481106140a05761409f615af4565b5b906000526020600020016040516020016140ba9190615079565b60405160208183030381529060405280519060200120856040516020016140e19190615062565b604051602081830303815290604052805190602001201415614107578092505050614120565b808061411290615a1e565b915050614082565b50809150505b92915050565b8060040180549050821061416f576040517f08c379a000000000000000000000000000000000000000000000000000000000815260040161416690615532565b60405180910390fd5b60006001826004018054905061418591906158bf565b905081600401818154811061419d5761419c615af4565b5b906000526020600020018260040184815481106141bd576141bc615af4565b5b906000526020600020019080546141d3906159bb565b6141de9291906143a9565b50816004018054806141f3576141f2615ac5565b5b60019003818190600052602060002001600061420f9190614369565b9055505050565b828054614222906159bb565b90600052602060002090601f016020900481019282614244576000855561428b565b82601f1061425d57805160ff191683800117855561428b565b8280016001018555821561428b579182015b8281111561428a57825182559160200191906001019061426f565b5b5090506142989190614436565b5090565b6040518060a0016040528060608152602001600073ffffffffffffffffffffffffffffffffffffffff168152602001600073ffffffffffffffffffffffffffffffffffffffff168152602001600061ffff168152602001600063ffffffff1681525090565b6040518060c0016040528060608152602001600073ffffffffffffffffffffffffffffffffffffffff168152602001600073ffffffffffffffffffffffffffffffffffffffff168152602001600063ffffffff16815260200160008152602001600081525090565b508054614375906159bb565b6000825580601f1061438757506143a6565b601f0160209004906000526020600020908101906143a59190614436565b5b50565b8280546143b5906159bb565b90600052602060002090601f0160209004810192826143d75760008555614425565b82601f106143e85780548555614425565b8280016001018555821561442557600052602060002091601f016020900482015b82811115614424578254825591600101919060010190614409565b5b5090506144329190614436565b5090565b5b8082111561444f576000816000905550600101614437565b5090565b600061446661446184615676565b615651565b90508281526020810184848401111561448257614481615b57565b5b61448d848285615979565b509392505050565b60006144a86144a3846156a7565b615651565b9050828152602081018484840111156144c4576144c3615b57565b5b6144cf848285615979565b509392505050565b6000813590506144e681616279565b92915050565b600082601f83011261450157614500615b52565b5b8135614511848260208601614453565b91505092915050565b600082601f83011261452f5761452e615b52565b5b813561453f848260208601614495565b91505092915050565b60008135905061455781616290565b92915050565b60008135905061456c816162a7565b92915050565b600081359050614581816162be565b92915050565b60006020828403121561459d5761459c615b61565b5b60006145ab848285016144d7565b91505092915050565b600080600080608085870312156145ce576145cd615b61565b5b60006145dc878288016144d7565b94505060206145ed878288016144d7565b93505060406145fe8782880161455d565b925050606085013567ffffffffffffffff81111561461f5761461e615b5c565b5b61462b878288016144ec565b91505092959194509250565b6000806040838503121561464e5761464d615b61565b5b600061465c858286016144d7565b925050602083013567ffffffffffffffff81111561467d5761467c615b5c565b5b6146898582860161451a565b9150509250929050565b600080604083850312156146aa576146a9615b61565b5b60006146b8858286016144d7565b92505060206146c98582860161455d565b9150509250929050565b6000602082840312156146e9576146e8615b61565b5b600082013567ffffffffffffffff81111561470757614706615b5c565b5b6147138482850161451a565b91505092915050565b60008060008060008060008060008060006101608c8e03121561474257614741615b61565b5b60008c013567ffffffffffffffff8111156147605761475f615b5c565b5b61476c8e828f0161451a565b9b5050602061477d8e828f016144d7565b9a5050604061478e8e828f016144d7565b995050606061479f8e828f0161455d565b98505060806147b08e828f01614572565b97505060a08c013567ffffffffffffffff8111156147d1576147d0615b5c565b5b6147dd8e828f0161451a565b96505060c08c013567ffffffffffffffff8111156147fe576147fd615b5c565b5b61480a8e828f0161451a565b95505060e061481b8e828f016144d7565b94505061010061482d8e828f01614572565b93505061012061483f8e828f0161455d565b9250506101406148518e828f0161455d565b9150509295989b509295989b9093969950565b6000806000806080858703121561487e5761487d615b61565b5b600085013567ffffffffffffffff81111561489c5761489b615b5c565b5b6148a88782880161451a565b94505060206148b9878288016144d7565b93505060406148ca87828801614548565b92505060606148db87828801614572565b91505092959194509250565b60006148f38383614913565b60208301905092915050565b600061490b8383614a13565b905092915050565b61491c816158f3565b82525050565b61492b816158f3565b82525050565b600061493c8261570d565b6149468185615748565b9350614951836156d8565b8060005b8381101561498257815161496988826148e7565b97506149748361572e565b925050600181019050614955565b5085935050505092915050565b600061499a82615718565b6149a48185615759565b9350836020820285016149b6856156e8565b8060005b858110156149f257848403895281516149d385826148ff565b94506149de8361573b565b925060208a019950506001810190506149ba565b50829750879550505050505092915050565b614a0d81615905565b82525050565b6000614a1e82615723565b614a28818561576a565b9350614a38818560208601615988565b614a4181615b66565b840191505092915050565b6000614a5782615723565b614a61818561577b565b9350614a71818560208601615988565b614a7a81615b66565b840191505092915050565b6000614a9082615723565b614a9a818561578c565b9350614aaa818560208601615988565b80840191505092915050565b60008154614ac3816159bb565b614acd818661578c565b94506001821660008114614ae85760018114614af957614b2c565b60ff19831686528186019350614b2c565b614b02856156f8565b60005b83811015614b2457815481890152600182019150602081019050614b05565b838801955050505b50505092915050565b6000614b4260248361577b565b9150614b4d82615b77565b604082019050919050565b6000614b6560348361577b565b9150614b7082615bc6565b604082019050919050565b6000614b88600f8361577b565b9150614b9382615c15565b602082019050919050565b6000614bab600d8361577b565b9150614bb682615c3e565b602082019050919050565b6000614bce60258361577b565b9150614bd982615c67565b604082019050919050565b6000614bf160158361577b565b9150614bfc82615cb6565b602082019050919050565b6000614c1460148361577b565b9150614c1f82615cdf565b602082019050919050565b6000614c3760288361577b565b9150614c4282615d08565b604082019050919050565b6000614c5a60228361577b565b9150614c6582615d57565b604082019050919050565b6000614c7d60228361577b565b9150614c8882615da6565b604082019050919050565b6000614ca0600f8361577b565b9150614cab82615df5565b602082019050919050565b6000614cc3602a8361577b565b9150614cce82615e1e565b604082019050919050565b6000614ce660208361577b565b9150614cf182615e6d565b602082019050919050565b6000614d0960268361577b565b9150614d1482615e96565b604082019050919050565b6000614d2c601d8361577b565b9150614d3782615ee5565b602082019050919050565b6000614d4f60158361577b565b9150614d5a82615f0e565b602082019050919050565b6000614d7260418361577b565b9150614d7d82615f37565b606082019050919050565b6000614d9560138361577b565b9150614da082615fac565b602082019050919050565b6000614db8602a8361577b565b9150614dc382615fd5565b604082019050919050565b6000614ddb602d8361577b565b9150614de682616024565b604082019050919050565b6000614dfe60118361577b565b9150614e0982616073565b602082019050919050565b6000614e2160288361577b565b9150614e2c8261609c565b604082019050919050565b6000614e44602d8361577b565b9150614e4f826160eb565b604082019050919050565b6000614e67602b8361577b565b9150614e728261613a565b604082019050919050565b6000614e8a60148361577b565b9150614e9582616189565b602082019050919050565b6000614ead60268361577b565b9150614eb8826161b2565b604082019050919050565b6000614ed060178361577b565b9150614edb82616201565b602082019050919050565b6000614ef3602a8361577b565b9150614efe8261622a565b604082019050919050565b600060c0830160008301518482036000860152614f268282614a13565b9150506020830151614f3b6020860182614913565b506040830151614f4e6040860182614913565b506060830151614f616060860182615044565b506080830151614f746080860182615026565b5060a0830151614f8760a0860182615026565b508091505092915050565b600060a0830160008301518482036000860152614faf8282614a13565b9150506020830151614fc46020860182614913565b506040830151614fd76040860182614913565b506060830151614fea6060860182615008565b506080830151614ffd6080860182615044565b508091505092915050565b61501181615931565b82525050565b61502081615931565b82525050565b61502f8161595f565b82525050565b61503e8161595f565b82525050565b61504d81615969565b82525050565b61505c81615969565b82525050565b600061506e8284614a85565b915081905092915050565b60006150858284614ab6565b915081905092915050565b60006020820190506150a56000830184614922565b92915050565b600060208201905081810360008301526150c58184614931565b905092915050565b600060208201905081810360008301526150e7818461498f565b905092915050565b60006020820190506151046000830184614a04565b92915050565b600060208201905081810360008301526151248184614a4c565b905092915050565b600060a08201905081810360008301526151468188614a4c565b90506151556020830187614922565b6151626040830186614922565b61516f6060830185615017565b61517c6080830184615053565b9695505050505050565b600060e08201905081810360008301526151a0818a614a4c565b90506151af6020830189614922565b6151bc6040830188614922565b6151c96060830187615035565b6151d66080830186615053565b81810360a08301526151e88185614a4c565b905081810360c08301526151fc8184614a4c565b905098975050505050505050565b600060c08201905081810360008301526152248189614a4c565b90506152336020830188614922565b6152406040830187614922565b61524d6060830186615053565b61525a6080830185615035565b61526760a0830184615035565b979650505050505050565b6000602082019050818103600083015261528b81614b35565b9050919050565b600060208201905081810360008301526152ab81614b58565b9050919050565b600060208201905081810360008301526152cb81614b7b565b9050919050565b600060208201905081810360008301526152eb81614b9e565b9050919050565b6000602082019050818103600083015261530b81614bc1565b9050919050565b6000602082019050818103600083015261532b81614be4565b9050919050565b6000602082019050818103600083015261534b81614c07565b9050919050565b6000602082019050818103600083015261536b81614c2a565b9050919050565b6000602082019050818103600083015261538b81614c4d565b9050919050565b600060208201905081810360008301526153ab81614c70565b9050919050565b600060208201905081810360008301526153cb81614c93565b9050919050565b600060208201905081810360008301526153eb81614cb6565b9050919050565b6000602082019050818103600083015261540b81614cd9565b9050919050565b6000602082019050818103600083015261542b81614cfc565b9050919050565b6000602082019050818103600083015261544b81614d1f565b9050919050565b6000602082019050818103600083015261546b81614d42565b9050919050565b6000602082019050818103600083015261548b81614d65565b9050919050565b600060208201905081810360008301526154ab81614d88565b9050919050565b600060208201905081810360008301526154cb81614dab565b9050919050565b600060208201905081810360008301526154eb81614dce565b9050919050565b6000602082019050818103600083015261550b81614df1565b9050919050565b6000602082019050818103600083015261552b81614e14565b9050919050565b6000602082019050818103600083015261554b81614e37565b9050919050565b6000602082019050818103600083015261556b81614e5a565b9050919050565b6000602082019050818103600083015261558b81614e7d565b9050919050565b600060208201905081810360008301526155ab81614ea0565b9050919050565b600060208201905081810360008301526155cb81614ec3565b9050919050565b600060208201905081810360008301526155eb81614ee6565b9050919050565b6000602082019050818103600083015261560c8184614f09565b905092915050565b6000602082019050818103600083015261562e8184614f92565b905092915050565b600060208201905061564b6000830184615035565b92915050565b600061565b61566c565b905061566782826159ed565b919050565b6000604051905090565b600067ffffffffffffffff82111561569157615690615b23565b5b61569a82615b66565b9050602081019050919050565b600067ffffffffffffffff8211156156c2576156c1615b23565b5b6156cb82615b66565b9050602081019050919050565b6000819050602082019050919050565b6000819050602082019050919050565b60008190508160005260206000209050919050565b600081519050919050565b600081519050919050565b600081519050919050565b6000602082019050919050565b6000602082019050919050565b600082825260208201905092915050565b600082825260208201905092915050565b600082825260208201905092915050565b600082825260208201905092915050565b600081905092915050565b60006157a28261595f565b91506157ad8361595f565b9250827fffffffffffffffffffffffffffffffffffffffffffffffffffffffffffffffff038211156157e2576157e1615a67565b5b828201905092915050565b60006157f882615969565b915061580383615969565b92508263ffffffff0382111561581c5761581b615a67565b5b828201905092915050565b60006158328261595f565b915061583d8361595f565b9250817fffffffffffffffffffffffffffffffffffffffffffffffffffffffffffffffff048311821515161561587657615875615a67565b5b828202905092915050565b600061588c82615969565b915061589783615969565b92508163ffffffff04831182151516156158b4576158b3615a67565b5b828202905092915050565b60006158ca8261595f565b91506158d58361595f565b9250828210156158e8576158e7615a67565b5b828203905092915050565b60006158fe8261593f565b9050919050565b60007fffffffff0000000000000000000000000000000000000000000000000000000082169050919050565b600061ffff82169050919050565b600073ffffffffffffffffffffffffffffffffffffffff82169050919050565b6000819050919050565b600063ffffffff82169050919050565b82818337600083830152505050565b60005b838110156159a657808201518184015260208101905061598b565b838111156159b5576000848401525b50505050565b600060028204905060018216806159d357607f821691505b602082108114156159e7576159e6615a96565b5b50919050565b6159f682615b66565b810181811067ffffffffffffffff82111715615a1557615a14615b23565b5b80604052505050565b6000615a298261595f565b91507fffffffffffffffffffffffffffffffffffffffffffffffffffffffffffffffff821415615a5c57615a5b615a67565b5b600182019050919050565b7f4e487b7100000000000000000000000000000000000000000000000000000000600052601160045260246000fd5b7f4e487b7100000000000000000000000000000000000000000000000000000000600052602260045260246000fd5b7f4e487b7100000000000000000000000000000000000000000000000000000000600052603160045260246000fd5b7f4e487b7100000000000000000000000000000000000000000000000000000000600052603260045260246000fd5b7f4e487b7100000000000000000000000000000000000000000000000000000000600052604160045260246000fd5b600080fd5b600080fd5b600080fd5b600080fd5b6000601f19601f8301169050919050565b7f4e465420697320616c726561647920617661696c61626c6520666f722072656e60008201527f74696e6700000000000000000000000000000000000000000000000000000000602082015250565b7f426f72726f77657220616464726573732063616e27742062652074686520736160008201527f6d65206173206c656e6465722061646472657373000000000000000000000000602082015250565b7f496e76616c696420616464726573730000000000000000000000000000000000600082015250565b7f4e6f6e204e4654204f776e657200000000000000000000000000000000000000600082015250565b7f4e66742061742074686520676976656e20696e64657820646f6573206e6f742060008201527f6578697374000000000000000000000000000000000000000000000000000000602082015250565b7f4e465420697320616c72656164792072656e7465640000000000000000000000600082015250565b7f4e4654206973206e6f7420617661696c61626c65000000000000000000000000600082015250565b7f5573657220646f6573206e6f74206861766520616e792073756368204e46547360008201527f206173206c656e64000000000000000000000000000000000000000000000000602082015250565b7f43616e27742073746f70206c656e6420736f6d656f6e6520656c73652773204e60008201527f4654000000000000000000000000000000000000000000000000000000000000602082015250565b7f4e465420616c72656164792072656e74656420627920736f6d656f6e6520656c60008201527f7365000000000000000000000000000000000000000000000000000000000000602082015250565b7f4261642074696d6520626f756e64730000000000000000000000000000000000600082015250565b7f4e6577204e46542063616e277420626520696e20616e7920757365727320776960008201527f73686c6973742079657400000000000000000000000000000000000000000000602082015250565b7f4e4654206973206e6f7420617661696c61626c6520666f722072656e74696e67600082015250565b7f5573657220646f6573206e6f74206861766520616e7920737563682072656e7460008201527f6564204e66740000000000000000000000000000000000000000000000000000602082015250565b7f43616e2774206c656e6420736f6d656f6e6520656c73652773204e4654000000600082015250565b7f4c656e64657220646f6573206e6f742065786973740000000000000000000000600082015250565b7f43616e27742072656e74204e465420666f72206d6f7265207468616e20616d6f60008201527f756e74206f662074696d6520617661696c61626c6520666f722072656e74696e60208201527f6700000000000000000000000000000000000000000000000000000000000000604082015250565b7f5573657220646f6573206e6f7420657869737400000000000000000000000000600082015250565b7f43616e27742072656e74204e465420617320696e73756666696369656e74206160008201527f6d6f756e74207061696400000000000000000000000000000000000000000000602082015250565b7f43616e277420626f72726f77204e465420666f7220616e6f7468657220626f7260008201527f726f776572206164647265737300000000000000000000000000000000000000602082015250565b7f4e4654206973206e6f742072656e746564000000000000000000000000000000600082015250565b7f4f6e6c792074686520757365722063616e2061646420686973206163636f756e60008201527f7420746f20617070000000000000000000000000000000000000000000000000602082015250565b7f4e6674206b6579206e6f7420617661696c61626c6520696e207468652061707060008201527f2072656e74696e67206c69737400000000000000000000000000000000000000602082015250565b7f43616e277420636c61696d20636f6c6c61746572616c2074696c6c2072656e7460008201527f656420656e642074696d65000000000000000000000000000000000000000000602082015250565b7f5573657220646f6573206e6f7420657869737473000000000000000000000000600082015250565b7f5573657220646f6573206e6f74206861766520616e792073756368206c656e6460008201527f6564204e66740000000000000000000000000000000000000000000000000000602082015250565b7f426f72726f77657220646f6573206e6f74206578697374000000000000000000600082015250565b7f4e667420697320616c72656164792070726573656e7420696e2075736572207260008201527f656e746564204e66747300000000000000000000000000000000000000000000602082015250565b616282816158f3565b811461628d57600080fd5b50565b61629981615931565b81146162a457600080fd5b50565b6162b08161595f565b81146162bb57600080fd5b50565b6162c781615969565b81146162d257600080fd5b5056fea264697066735822122099f3daaab4092e1da8e0441e02e466f7e9ff8c5d861e3d72d3d7422acfaaa3f464736f6c63430008050033",
  "linkReferences": {},
  "deployedLinkReferences": {}
}