{
  "_format": "hh-sol-artifact-1",
  "contractName": "NFTRental",
  "sourceName": "contracts/NFTRental.sol",
  "abi": [
    {
      "anonymous": false,
      "inputs": [],
      "name": "NFTLended",
      "type": "event"
    },
    {
      "inputs": [
        {
          "internalType": "string",
          "name": "_nftKey",
          "type": "string"
        },
        {
          "internalType": "address",
          "name": "_nftOwner",
          "type": "address"
        },
        {
          "internalType": "address",
          "name": "_nftAddress",
          "type": "address"
        },
        {
          "internalType": "uint256",
          "name": "_nftId",
          "type": "uint256"
        },
        {
          "internalType": "uint32",
          "name": "_wishlistCount",
          "type": "uint32"
        },
        {
          "internalType": "string",
          "name": "_nftName",
          "type": "string"
        },
        {
          "internalType": "string",
          "name": "_nftImageURL",
          "type": "string"
        },
        {
          "internalType": "address",
          "name": "_lenderAddress",
          "type": "address"
        },
        {
          "internalType": "uint32",
          "name": "_dueDate",
          "type": "uint32"
        },
        {
          "internalType": "uint256",
          "name": "_dailyRent",
          "type": "uint256"
        },
        {
          "internalType": "uint256",
          "name": "_collateral",
          "type": "uint256"
        }
      ],
      "name": "addNFTToLend",
      "outputs": [],
      "stateMutability": "nonpayable",
      "type": "function"
    },
    {
      "inputs": [
        {
          "internalType": "address",
          "name": "_userAddress",
          "type": "address"
        }
      ],
      "name": "addUser",
      "outputs": [],
      "stateMutability": "nonpayable",
      "type": "function"
    },
    {
      "inputs": [
        {
          "internalType": "address",
          "name": "",
          "type": "address"
        }
      ],
      "name": "addressToUser",
      "outputs": [
        {
          "internalType": "address",
          "name": "userAddress",
          "type": "address"
        },
        {
          "internalType": "uint32",
          "name": "userLendedNftsSize",
          "type": "uint32"
        },
        {
          "internalType": "uint32",
          "name": "userRentedNftsSize",
          "type": "uint32"
        },
        {
          "internalType": "uint32",
          "name": "userWishlistSize",
          "type": "uint32"
        }
      ],
      "stateMutability": "view",
      "type": "function"
    },
    {
      "inputs": [],
      "name": "getNftKeysListAvaiableForRent",
      "outputs": [
        {
          "internalType": "string[]",
          "name": "",
          "type": "string[]"
        }
      ],
      "stateMutability": "view",
      "type": "function"
    },
    {
      "inputs": [],
      "name": "getUserAddressList",
      "outputs": [
        {
          "internalType": "address[]",
          "name": "",
          "type": "address[]"
        }
      ],
      "stateMutability": "view",
      "type": "function"
    },
    {
      "inputs": [
        {
          "internalType": "address",
          "name": "_userAddress",
          "type": "address"
        },
        {
          "internalType": "uint32",
          "name": "_index",
          "type": "uint32"
        }
      ],
      "name": "getUserLendedNFTDetails",
      "outputs": [
        {
          "components": [
            {
              "internalType": "string",
              "name": "nftKey",
              "type": "string"
            },
            {
              "internalType": "address",
              "name": "lenderAddress",
              "type": "address"
            },
            {
              "internalType": "uint32",
              "name": "dueDate",
              "type": "uint32"
            },
            {
              "internalType": "uint256",
              "name": "dailyRent",
              "type": "uint256"
            },
            {
              "internalType": "uint256",
              "name": "collateral",
              "type": "uint256"
            }
          ],
          "internalType": "struct NFTRental.lendedNFT",
          "name": "",
          "type": "tuple"
        }
      ],
      "stateMutability": "view",
      "type": "function"
    },
    {
      "inputs": [
        {
          "internalType": "string",
          "name": "",
          "type": "string"
        }
      ],
      "name": "nftKeyToNftProps",
      "outputs": [
        {
          "internalType": "string",
          "name": "nftKey",
          "type": "string"
        },
        {
          "internalType": "address",
          "name": "nftOwner",
          "type": "address"
        },
        {
          "internalType": "address",
          "name": "nftAddress",
          "type": "address"
        },
        {
          "internalType": "uint256",
          "name": "nftId",
          "type": "uint256"
        },
        {
          "internalType": "uint32",
          "name": "wishlistCount",
          "type": "uint32"
        },
        {
          "internalType": "string",
          "name": "nftName",
          "type": "string"
        },
        {
          "internalType": "string",
          "name": "nftImageURL",
          "type": "string"
        }
      ],
      "stateMutability": "view",
      "type": "function"
    }
  ],
  "bytecode": "0x608060405234801561001057600080fd5b50611e9c806100206000396000f3fe608060405234801561001057600080fd5b506004361061007d5760003560e01c806364afd6741161005b57806364afd674146100f2578063dc4ace8c1461010e578063eb3439cc1461012c578063edf538861461015c5761007d565b8063213f44ab14610082578063421b2d8b146100a05780635289f68a146100bc575b600080fd5b61008a61018f565b60405161009791906117f6565b60405180910390f35b6100ba60048036038101906100b59190611235565b61021d565b005b6100d660048036038101906100d191906112a2565b61040e565b6040516100e9979695949392919061183a565b60405180910390f35b61010c600480360381019061010791906112eb565b61064e565b005b610116610a8b565b6040516101239190611818565b60405180910390f35b61014660048036038101906101419190611262565b610b64565b604051610153919061199e565b60405180910390f35b61017660048036038101906101719190611235565b610dfc565b60405161018694939291906117b1565b60405180910390f35b6060600280548060200260200160405190810160405280929190818152602001828054801561021357602002820191906000526020600020905b8160009054906101000a900473ffffffffffffffffffffffffffffffffffffffff1673ffffffffffffffffffffffffffffffffffffffff16815260200190600101908083116101c9575b5050505050905090565b600073ffffffffffffffffffffffffffffffffffffffff16600360008373ffffffffffffffffffffffffffffffffffffffff1673ffffffffffffffffffffffffffffffffffffffff16815260200190815260200160002060000160009054906101000a900473ffffffffffffffffffffffffffffffffffffffff1673ffffffffffffffffffffffffffffffffffffffff16141561040b576000600360008373ffffffffffffffffffffffffffffffffffffffff1673ffffffffffffffffffffffffffffffffffffffff1681526020019081526020016000209050818160000160006101000a81548173ffffffffffffffffffffffffffffffffffffffff021916908373ffffffffffffffffffffffffffffffffffffffff16021790555060008160020160006101000a81548163ffffffff021916908363ffffffff16021790555060008160040160006101000a81548163ffffffff021916908363ffffffff16021790555060008160060160006101000a81548163ffffffff021916908363ffffffff1602179055506002829080600181540180825580915050600190039060005260206000200160009091909190916101000a81548173ffffffffffffffffffffffffffffffffffffffff021916908373ffffffffffffffffffffffffffffffffffffffff160217905550505b50565b60018180516020810182018051848252602083016020850120818352809550505050505060009150905080600001805461044790611b4e565b80601f016020809104026020016040519081016040528092919081815260200182805461047390611b4e565b80156104c05780601f10610495576101008083540402835291602001916104c0565b820191906000526020600020905b8154815290600101906020018083116104a357829003601f168201915b5050505050908060010160009054906101000a900473ffffffffffffffffffffffffffffffffffffffff16908060020160009054906101000a900473ffffffffffffffffffffffffffffffffffffffff16908060030154908060040160009054906101000a900463ffffffff169080600501805461053d90611b4e565b80601f016020809104026020016040519081016040528092919081815260200182805461056990611b4e565b80156105b65780601f1061058b576101008083540402835291602001916105b6565b820191906000526020600020905b81548152906001019060200180831161059957829003601f168201915b5050505050908060060180546105cb90611b4e565b80601f01602080910402602001604051908101604052809291908181526020018280546105f790611b4e565b80156106445780601f1061061957610100808354040283529160200191610644565b820191906000526020600020905b81548152906001019060200180831161062757829003601f168201915b5050505050905087565b600073ffffffffffffffffffffffffffffffffffffffff16600360008673ffffffffffffffffffffffffffffffffffffffff1673ffffffffffffffffffffffffffffffffffffffff16815260200190815260200160002060000160009054906101000a900473ffffffffffffffffffffffffffffffffffffffff1673ffffffffffffffffffffffffffffffffffffffff161415610720576040517f08c379a00000000000000000000000000000000000000000000000000000000081526004016107179061195e565b60405180910390fd5b600073ffffffffffffffffffffffffffffffffffffffff1660018c604051610748919061179a565b908152602001604051809103902060020160009054906101000a900473ffffffffffffffffffffffffffffffffffffffff1673ffffffffffffffffffffffffffffffffffffffff16146107d0576040517f08c379a00000000000000000000000000000000000000000000000000000000081526004016107c7906118be565b60405180910390fd5b8373ffffffffffffffffffffffffffffffffffffffff168a73ffffffffffffffffffffffffffffffffffffffff161461083e576040517f08c379a0000000000000000000000000000000000000000000000000000000008152600401610835906118de565b60405180910390fd5b428363ffffffff1611610886576040517f08c379a000000000000000000000000000000000000000000000000000000000815260040161087d9061191e565b60405180910390fd5b60008763ffffffff16146108cf576040517f08c379a00000000000000000000000000000000000000000000000000000000081526004016108c69061193e565b60405180910390fd5b60006040518060e001604052808d81526020018c73ffffffffffffffffffffffffffffffffffffffff1681526020018b73ffffffffffffffffffffffffffffffffffffffff1681526020018a81526020018963ffffffff1681526020018881526020018781525090508060018d604051610949919061179a565b90815260200160405180910390206000820151816000019080519060200190610973929190611098565b5060208201518160010160006101000a81548173ffffffffffffffffffffffffffffffffffffffff021916908373ffffffffffffffffffffffffffffffffffffffff16021790555060408201518160020160006101000a81548173ffffffffffffffffffffffffffffffffffffffff021916908373ffffffffffffffffffffffffffffffffffffffff1602179055506060820151816003015560808201518160040160006101000a81548163ffffffff021916908363ffffffff16021790555060a0820151816005019080519060200190610a4f929190611098565b5060c0820151816006019080519060200190610a6c929190611098565b50905050610a7d8c86868686610e7c565b505050505050505050505050565b60606000805480602002602001604051908101604052809291908181526020016000905b82821015610b5b578382906000526020600020018054610ace90611b4e565b80601f0160208091040260200160405190810160405280929190818152602001828054610afa90611b4e565b8015610b475780601f10610b1c57610100808354040283529160200191610b47565b820191906000526020600020905b815481529060010190602001808311610b2a57829003601f168201915b505050505081526020019060010190610aaf565b50505050905090565b610b6c61111e565b6000600360008573ffffffffffffffffffffffffffffffffffffffff1673ffffffffffffffffffffffffffffffffffffffff1681526020019081526020016000209050600073ffffffffffffffffffffffffffffffffffffffff168160000160009054906101000a900473ffffffffffffffffffffffffffffffffffffffff1673ffffffffffffffffffffffffffffffffffffffff161415610c43576040517f08c379a0000000000000000000000000000000000000000000000000000000008152600401610c3a9061197e565b60405180910390fd5b8060020160009054906101000a900463ffffffff1663ffffffff168363ffffffff1610610ca5576040517f08c379a0000000000000000000000000000000000000000000000000000000008152600401610c9c906118fe565b60405180910390fd5b8060010160008463ffffffff1663ffffffff1681526020019081526020016000206040518060a0016040529081600082018054610ce190611b4e565b80601f0160208091040260200160405190810160405280929190818152602001828054610d0d90611b4e565b8015610d5a5780601f10610d2f57610100808354040283529160200191610d5a565b820191906000526020600020905b815481529060010190602001808311610d3d57829003601f168201915b505050505081526020016001820160009054906101000a900473ffffffffffffffffffffffffffffffffffffffff1673ffffffffffffffffffffffffffffffffffffffff1673ffffffffffffffffffffffffffffffffffffffff1681526020016001820160149054906101000a900463ffffffff1663ffffffff1663ffffffff1681526020016002820154815260200160038201548152505091505092915050565b60036020528060005260406000206000915090508060000160009054906101000a900473ffffffffffffffffffffffffffffffffffffffff16908060020160009054906101000a900463ffffffff16908060040160009054906101000a900463ffffffff16908060060160009054906101000a900463ffffffff16905084565b60006040518060a001604052808781526020018673ffffffffffffffffffffffffffffffffffffffff1681526020018563ffffffff1681526020018481526020018381525090506000600360008773ffffffffffffffffffffffffffffffffffffffff1673ffffffffffffffffffffffffffffffffffffffff168152602001908152602001600020905060008160020160009054906101000a900463ffffffff169050828260010160008363ffffffff1663ffffffff1681526020019081526020016000206000820151816000019080519060200190610f5d929190611098565b5060208201518160010160006101000a81548173ffffffffffffffffffffffffffffffffffffffff021916908373ffffffffffffffffffffffffffffffffffffffff16021790555060408201518160010160146101000a81548163ffffffff021916908363ffffffff160217905550606082015181600201556080820151816003015590505081600201600081819054906101000a900463ffffffff168092919061100790611bb1565b91906101000a81548163ffffffff021916908363ffffffff16021790555050600088908060018154018082558091505060019003906000526020600020016000909190919091509080519060200190611061929190611098565b507fdb8317522294099fa9360f57f5f2c8178138bbeb092f99c41ada4fefc39fbe5e60405160405180910390a15050505050505050565b8280546110a490611b4e565b90600052602060002090601f0160209004810192826110c6576000855561110d565b82601f106110df57805160ff191683800117855561110d565b8280016001018555821561110d579182015b8281111561110c5782518255916020019190600101906110f1565b5b50905061111a9190611169565b5090565b6040518060a0016040528060608152602001600073ffffffffffffffffffffffffffffffffffffffff168152602001600063ffffffff16815260200160008152602001600081525090565b5b8082111561118257600081600090555060010161116a565b5090565b6000611199611194846119e5565b6119c0565b9050828152602081018484840111156111b5576111b4611c70565b5b6111c0848285611b0c565b509392505050565b6000813590506111d781611e21565b92915050565b600082601f8301126111f2576111f1611c6b565b5b8135611202848260208601611186565b91505092915050565b60008135905061121a81611e38565b92915050565b60008135905061122f81611e4f565b92915050565b60006020828403121561124b5761124a611c7a565b5b6000611259848285016111c8565b91505092915050565b6000806040838503121561127957611278611c7a565b5b6000611287858286016111c8565b925050602061129885828601611220565b9150509250929050565b6000602082840312156112b8576112b7611c7a565b5b600082013567ffffffffffffffff8111156112d6576112d5611c75565b5b6112e2848285016111dd565b91505092915050565b60008060008060008060008060008060006101608c8e03121561131157611310611c7a565b5b60008c013567ffffffffffffffff81111561132f5761132e611c75565b5b61133b8e828f016111dd565b9b5050602061134c8e828f016111c8565b9a5050604061135d8e828f016111c8565b995050606061136e8e828f0161120b565b985050608061137f8e828f01611220565b97505060a08c013567ffffffffffffffff8111156113a05761139f611c75565b5b6113ac8e828f016111dd565b96505060c08c013567ffffffffffffffff8111156113cd576113cc611c75565b5b6113d98e828f016111dd565b95505060e06113ea8e828f016111c8565b9450506101006113fc8e828f01611220565b93505061012061140e8e828f0161120b565b9250506101406114208e828f0161120b565b9150509295989b509295989b9093969950565b600061143f838361145f565b60208301905092915050565b60006114578383611550565b905092915050565b61146881611ac0565b82525050565b61147781611ac0565b82525050565b600061148882611a36565b6114928185611a71565b935061149d83611a16565b8060005b838110156114ce5781516114b58882611433565b97506114c083611a57565b9250506001810190506114a1565b5085935050505092915050565b60006114e682611a41565b6114f08185611a82565b93508360208202850161150285611a26565b8060005b8581101561153e578484038952815161151f858261144b565b945061152a83611a64565b925060208a01995050600181019050611506565b50829750879550505050505092915050565b600061155b82611a4c565b6115658185611a93565b9350611575818560208601611b1b565b61157e81611c7f565b840191505092915050565b600061159482611a4c565b61159e8185611aa4565b93506115ae818560208601611b1b565b6115b781611c7f565b840191505092915050565b60006115cd82611a4c565b6115d78185611ab5565b93506115e7818560208601611b1b565b80840191505092915050565b6000611600602483611aa4565b915061160b82611c90565b604082019050919050565b6000611623600d83611aa4565b915061162e82611cdf565b602082019050919050565b6000611646602583611aa4565b915061165182611d08565b604082019050919050565b6000611669600f83611aa4565b915061167482611d57565b602082019050919050565b600061168c602a83611aa4565b915061169782611d80565b604082019050919050565b60006116af601383611aa4565b91506116ba82611dcf565b602082019050919050565b60006116d2601483611aa4565b91506116dd82611df8565b602082019050919050565b600060a08301600083015184820360008601526117058282611550565b915050602083015161171a602086018261145f565b50604083015161172d604086018261177c565b506060830151611740606086018261175e565b506080830151611753608086018261175e565b508091505092915050565b61176781611af2565b82525050565b61177681611af2565b82525050565b61178581611afc565b82525050565b61179481611afc565b82525050565b60006117a682846115c2565b915081905092915050565b60006080820190506117c6600083018761146e565b6117d3602083018661178b565b6117e0604083018561178b565b6117ed606083018461178b565b95945050505050565b60006020820190508181036000830152611810818461147d565b905092915050565b6000602082019050818103600083015261183281846114db565b905092915050565b600060e0820190508181036000830152611854818a611589565b9050611863602083018961146e565b611870604083018861146e565b61187d606083018761176d565b61188a608083018661178b565b81810360a083015261189c8185611589565b905081810360c08301526118b08184611589565b905098975050505050505050565b600060208201905081810360008301526118d7816115f3565b9050919050565b600060208201905081810360008301526118f781611616565b9050919050565b6000602082019050818103600083015261191781611639565b9050919050565b600060208201905081810360008301526119378161165c565b9050919050565b600060208201905081810360008301526119578161167f565b9050919050565b60006020820190508181036000830152611977816116a2565b9050919050565b60006020820190508181036000830152611997816116c5565b9050919050565b600060208201905081810360008301526119b881846116e8565b905092915050565b60006119ca6119db565b90506119d68282611b80565b919050565b6000604051905090565b600067ffffffffffffffff821115611a00576119ff611c3c565b5b611a0982611c7f565b9050602081019050919050565b6000819050602082019050919050565b6000819050602082019050919050565b600081519050919050565b600081519050919050565b600081519050919050565b6000602082019050919050565b6000602082019050919050565b600082825260208201905092915050565b600082825260208201905092915050565b600082825260208201905092915050565b600082825260208201905092915050565b600081905092915050565b6000611acb82611ad2565b9050919050565b600073ffffffffffffffffffffffffffffffffffffffff82169050919050565b6000819050919050565b600063ffffffff82169050919050565b82818337600083830152505050565b60005b83811015611b39578082015181840152602081019050611b1e565b83811115611b48576000848401525b50505050565b60006002820490506001821680611b6657607f821691505b60208210811415611b7a57611b79611c0d565b5b50919050565b611b8982611c7f565b810181811067ffffffffffffffff82111715611ba857611ba7611c3c565b5b80604052505050565b6000611bbc82611afc565b915063ffffffff821415611bd357611bd2611bde565b5b600182019050919050565b7f4e487b7100000000000000000000000000000000000000000000000000000000600052601160045260246000fd5b7f4e487b7100000000000000000000000000000000000000000000000000000000600052602260045260246000fd5b7f4e487b7100000000000000000000000000000000000000000000000000000000600052604160045260246000fd5b600080fd5b600080fd5b600080fd5b600080fd5b6000601f19601f8301169050919050565b7f4e465420697320616c726561647920617661696c61626c6520666f722072656e60008201527f74696e6700000000000000000000000000000000000000000000000000000000602082015250565b7f4e6f6e204e4654204f776e657200000000000000000000000000000000000000600082015250565b7f4e66742061742074686520676976656e20696e64657820646f6573206e6f742060008201527f6578697374000000000000000000000000000000000000000000000000000000602082015250565b7f4261642074696d6520626f756e64730000000000000000000000000000000000600082015250565b7f4e6577204e46542063616e277420626520696e20616e7920757365727320776960008201527f73686c6973742079657400000000000000000000000000000000000000000000602082015250565b7f5573657220646f6573206e6f7420657869737400000000000000000000000000600082015250565b7f5573657220646f6573206e6f7420657869737473000000000000000000000000600082015250565b611e2a81611ac0565b8114611e3557600080fd5b50565b611e4181611af2565b8114611e4c57600080fd5b50565b611e5881611afc565b8114611e6357600080fd5b5056fea264697066735822122010cd0cfb6ade180268f4aaf459c40fa920cfc8b15f28cade5f1e7efefcd5018f64736f6c63430008050033",
  "linkReferences": {},
  "deployedLinkReferences": {}
}