{
  "_format": "hh-sol-artifact-1",
  "contractName": "NFTRental",
  "sourceName": "contracts/NFTRental.sol",
  "abi": [
    {
      "anonymous": false,
      "inputs": [],
      "name": "NFTLended",
      "type": "event"
    },
    {
      "anonymous": false,
      "inputs": [],
      "name": "NFTRented",
      "type": "event"
    },
    {
      "inputs": [
        {
          "internalType": "string",
          "name": "_nftKey",
          "type": "string"
        },
        {
          "internalType": "address",
          "name": "_nftOwner",
          "type": "address"
        },
        {
          "internalType": "address",
          "name": "_nftAddress",
          "type": "address"
        },
        {
          "internalType": "uint256",
          "name": "_nftId",
          "type": "uint256"
        },
        {
          "internalType": "uint32",
          "name": "_wishlistCount",
          "type": "uint32"
        },
        {
          "internalType": "string",
          "name": "_nftName",
          "type": "string"
        },
        {
          "internalType": "string",
          "name": "_nftImageURL",
          "type": "string"
        },
        {
          "internalType": "address",
          "name": "_lenderAddress",
          "type": "address"
        },
        {
          "internalType": "uint32",
          "name": "_dueDate",
          "type": "uint32"
        },
        {
          "internalType": "uint256",
          "name": "_dailyRent",
          "type": "uint256"
        },
        {
          "internalType": "uint256",
          "name": "_collateral",
          "type": "uint256"
        }
      ],
      "name": "addNFTToLend",
      "outputs": [],
      "stateMutability": "payable",
      "type": "function"
    },
    {
      "inputs": [
        {
          "internalType": "address",
          "name": "_userAddress",
          "type": "address"
        }
      ],
      "name": "addUser",
      "outputs": [],
      "stateMutability": "nonpayable",
      "type": "function"
    },
    {
      "inputs": [
        {
          "internalType": "address",
          "name": "",
          "type": "address"
        }
      ],
      "name": "addressToUser",
      "outputs": [
        {
          "internalType": "address",
          "name": "userAddress",
          "type": "address"
        }
      ],
      "stateMutability": "view",
      "type": "function"
    },
    {
      "inputs": [],
      "name": "getNftKeysListAvaiableForRent",
      "outputs": [
        {
          "internalType": "string[]",
          "name": "",
          "type": "string[]"
        }
      ],
      "stateMutability": "view",
      "type": "function"
    },
    {
      "inputs": [],
      "name": "getUserAddressList",
      "outputs": [
        {
          "internalType": "address[]",
          "name": "",
          "type": "address[]"
        }
      ],
      "stateMutability": "view",
      "type": "function"
    },
    {
      "inputs": [
        {
          "internalType": "address",
          "name": "_userAddress",
          "type": "address"
        },
        {
          "internalType": "string",
          "name": "_nftKey",
          "type": "string"
        }
      ],
      "name": "getUserLendedNFTDetails",
      "outputs": [
        {
          "components": [
            {
              "internalType": "string",
              "name": "nftKey",
              "type": "string"
            },
            {
              "internalType": "address",
              "name": "lenderAddress",
              "type": "address"
            },
            {
              "internalType": "address",
              "name": "borrowerAddress",
              "type": "address"
            },
            {
              "internalType": "uint32",
              "name": "dueDate",
              "type": "uint32"
            },
            {
              "internalType": "uint256",
              "name": "dailyRent",
              "type": "uint256"
            },
            {
              "internalType": "uint256",
              "name": "collateral",
              "type": "uint256"
            }
          ],
          "internalType": "struct NFTRental.lendedNFT",
          "name": "",
          "type": "tuple"
        }
      ],
      "stateMutability": "view",
      "type": "function"
    },
    {
      "inputs": [
        {
          "internalType": "address",
          "name": "_userAddress",
          "type": "address"
        },
        {
          "internalType": "string",
          "name": "_nftKey",
          "type": "string"
        }
      ],
      "name": "getUserRentedNFTDetails",
      "outputs": [
        {
          "components": [
            {
              "internalType": "string",
              "name": "nftKey",
              "type": "string"
            },
            {
              "internalType": "address",
              "name": "lenderAddress",
              "type": "address"
            },
            {
              "internalType": "address",
              "name": "borrowerAddress",
              "type": "address"
            },
            {
              "internalType": "uint16",
              "name": "numberOfDays",
              "type": "uint16"
            },
            {
              "internalType": "uint32",
              "name": "rentalStartTime",
              "type": "uint32"
            }
          ],
          "internalType": "struct NFTRental.rentedNFT",
          "name": "",
          "type": "tuple"
        }
      ],
      "stateMutability": "view",
      "type": "function"
    },
    {
      "inputs": [
        {
          "internalType": "string",
          "name": "",
          "type": "string"
        }
      ],
      "name": "nftKeyToLendedNftDetails",
      "outputs": [
        {
          "internalType": "string",
          "name": "nftKey",
          "type": "string"
        },
        {
          "internalType": "address",
          "name": "lenderAddress",
          "type": "address"
        },
        {
          "internalType": "address",
          "name": "borrowerAddress",
          "type": "address"
        },
        {
          "internalType": "uint32",
          "name": "dueDate",
          "type": "uint32"
        },
        {
          "internalType": "uint256",
          "name": "dailyRent",
          "type": "uint256"
        },
        {
          "internalType": "uint256",
          "name": "collateral",
          "type": "uint256"
        }
      ],
      "stateMutability": "view",
      "type": "function"
    },
    {
      "inputs": [
        {
          "internalType": "string",
          "name": "",
          "type": "string"
        }
      ],
      "name": "nftKeyToNftProps",
      "outputs": [
        {
          "internalType": "string",
          "name": "nftKey",
          "type": "string"
        },
        {
          "internalType": "address",
          "name": "nftOwner",
          "type": "address"
        },
        {
          "internalType": "address",
          "name": "nftAddress",
          "type": "address"
        },
        {
          "internalType": "uint256",
          "name": "nftId",
          "type": "uint256"
        },
        {
          "internalType": "uint32",
          "name": "wishlistCount",
          "type": "uint32"
        },
        {
          "internalType": "string",
          "name": "nftName",
          "type": "string"
        },
        {
          "internalType": "string",
          "name": "nftImageURL",
          "type": "string"
        }
      ],
      "stateMutability": "view",
      "type": "function"
    },
    {
      "inputs": [
        {
          "internalType": "string",
          "name": "",
          "type": "string"
        }
      ],
      "name": "nftKeyToRentedNftDetails",
      "outputs": [
        {
          "internalType": "string",
          "name": "nftKey",
          "type": "string"
        },
        {
          "internalType": "address",
          "name": "lenderAddress",
          "type": "address"
        },
        {
          "internalType": "address",
          "name": "borrowerAddress",
          "type": "address"
        },
        {
          "internalType": "uint16",
          "name": "numberOfDays",
          "type": "uint16"
        },
        {
          "internalType": "uint32",
          "name": "rentalStartTime",
          "type": "uint32"
        }
      ],
      "stateMutability": "view",
      "type": "function"
    },
    {
      "inputs": [
        {
          "internalType": "string",
          "name": "_nftKey",
          "type": "string"
        },
        {
          "internalType": "address",
          "name": "_borrowerAddress",
          "type": "address"
        },
        {
          "internalType": "uint16",
          "name": "_numberOfDays",
          "type": "uint16"
        },
        {
          "internalType": "uint32",
          "name": "_rentalStartTime",
          "type": "uint32"
        }
      ],
      "name": "rentNft",
      "outputs": [],
      "stateMutability": "payable",
      "type": "function"
    }
  ],
  "bytecode": "0x608060405234801561001057600080fd5b506143c0806100206000396000f3fe60806040526004361061009c5760003560e01c8063657ed37d11610064578063657ed37d146101705780637f73ef6c146101b25780638d2221d9146101ef578063dc4ace8c14610230578063deb412161461025b578063edf53886146102985761009c565b8063213f44ab146100a1578063421b2d8b146100cc578063423fdefb146100f55780635289f68a1461011157806364afd67414610154575b600080fd5b3480156100ad57600080fd5b506100b66102d5565b6040516100c3919061353e565b60405180910390f35b3480156100d857600080fd5b506100f360048036038101906100ee9190612c27565b610363565b005b61010f600480360381019061010a9190612e41565b6105c6565b005b34801561011d57600080fd5b5061013860048036038101906101339190612cb0565b6111f2565b60405161014b97969594939291906135dc565b60405180910390f35b61016e60048036038101906101699190612cf9565b611432565b005b34801561017c57600080fd5b5061019760048036038101906101929190612cb0565b61198d565b6040516101a996959493929190613660565b60405180910390f35b3480156101be57600080fd5b506101d960048036038101906101d49190612c54565b611ab7565b6040516101e6919061394a565b60405180910390f35b3480156101fb57600080fd5b5061021660048036038101906102119190612cb0565b611e71565b604051610227959493929190613582565b60405180910390f35b34801561023c57600080fd5b50610245611fa3565b6040516102529190613560565b60405180910390f35b34801561026757600080fd5b50610282600480360381019061027d9190612c54565b61207c565b60405161028f9190613928565b60405180910390f35b3480156102a457600080fd5b506102bf60048036038101906102ba9190612c27565b61242a565b6040516102cc9190613523565b60405180910390f35b6060600080548060200260200160405190810160405280929190818152602001828054801561035957602002820191906000526020600020905b8160009054906101000a900473ffffffffffffffffffffffffffffffffffffffff1673ffffffffffffffffffffffffffffffffffffffff168152602001906001019080831161030f575b5050505050905090565b600073ffffffffffffffffffffffffffffffffffffffff168173ffffffffffffffffffffffffffffffffffffffff1614156103d3576040517f08c379a00000000000000000000000000000000000000000000000000000000081526004016103ca90613708565b60405180910390fd5b8073ffffffffffffffffffffffffffffffffffffffff163373ffffffffffffffffffffffffffffffffffffffff1614610441576040517f08c379a000000000000000000000000000000000000000000000000000000000815260040161043890613888565b60405180910390fd5b600073ffffffffffffffffffffffffffffffffffffffff16600160008373ffffffffffffffffffffffffffffffffffffffff1673ffffffffffffffffffffffffffffffffffffffff16815260200190815260200160002060000160009054906101000a900473ffffffffffffffffffffffffffffffffffffffff1673ffffffffffffffffffffffffffffffffffffffff1614156105c3576000600160008373ffffffffffffffffffffffffffffffffffffffff1673ffffffffffffffffffffffffffffffffffffffff1681526020019081526020016000209050818160000160006101000a81548173ffffffffffffffffffffffffffffffffffffffff021916908373ffffffffffffffffffffffffffffffffffffffff1602179055506000829080600181540180825580915050600190039060005260206000200160009091909190916101000a81548173ffffffffffffffffffffffffffffffffffffffff021916908373ffffffffffffffffffffffffffffffffffffffff160217905550505b50565b8273ffffffffffffffffffffffffffffffffffffffff163373ffffffffffffffffffffffffffffffffffffffff1614610634576040517f08c379a000000000000000000000000000000000000000000000000000000000815260040161062b90613868565b60405180910390fd5b600073ffffffffffffffffffffffffffffffffffffffff16600160008573ffffffffffffffffffffffffffffffffffffffff1673ffffffffffffffffffffffffffffffffffffffff16815260200190815260200160002060000160009054906101000a900473ffffffffffffffffffffffffffffffffffffffff1673ffffffffffffffffffffffffffffffffffffffff161415610706576040517f08c379a00000000000000000000000000000000000000000000000000000000081526004016106fd90613828565b60405180910390fd5b600073ffffffffffffffffffffffffffffffffffffffff1660038560405161072e91906134f5565b908152602001604051809103902060020160009054906101000a900473ffffffffffffffffffffffffffffffffffffffff1673ffffffffffffffffffffffffffffffffffffffff1614156107b7576040517f08c379a00000000000000000000000000000000000000000000000000000000081526004016107ae906137a8565b60405180910390fd5b600073ffffffffffffffffffffffffffffffffffffffff166004856040516107df91906134f5565b908152602001604051809103902060010160009054906101000a900473ffffffffffffffffffffffffffffffffffffffff1673ffffffffffffffffffffffffffffffffffffffff161415610868576040517f08c379a000000000000000000000000000000000000000000000000000000000815260040161085f906137a8565b60405180910390fd5b428163ffffffff16106108b0576040517f08c379a00000000000000000000000000000000000000000000000000000000081526004016108a790613768565b60405180910390fd5b6000620151808361ffff166108c59190613b6b565b826108d09190613ad7565b905060006004866040516108e491906134f5565b908152602001604051809103902060020160149054906101000a900463ffffffff1690508063ffffffff168263ffffffff1610610956576040517f08c379a000000000000000000000000000000000000000000000000000000000815260040161094d90613808565b60405180910390fd5b600060048760405161096891906134f5565b9081526020016040518091039020600301549050600060048860405161098e91906134f5565b908152602001604051809103902060040154905060008661ffff16836109b49190613b11565b9050600082826109c49190613a81565b905080341015610a09576040517f08c379a0000000000000000000000000000000000000000000000000000000008152600401610a0090613848565b60405180910390fd5b600060048b604051610a1b91906134f5565b908152602001604051809103902060010160009054906101000a900473ffffffffffffffffffffffffffffffffffffffff1690508973ffffffffffffffffffffffffffffffffffffffff168173ffffffffffffffffffffffffffffffffffffffff161415610abe576040517f08c379a0000000000000000000000000000000000000000000000000000000008152600401610ab5906136e8565b60405180910390fd5b6000600160008373ffffffffffffffffffffffffffffffffffffffff1673ffffffffffffffffffffffffffffffffffffffff1681526020019081526020016000209050600073ffffffffffffffffffffffffffffffffffffffff16816001018d604051610b2b91906134f5565b908152602001604051809103902060020160009054906101000a900473ffffffffffffffffffffffffffffffffffffffff1673ffffffffffffffffffffffffffffffffffffffff1614610bb3576040517f08c379a0000000000000000000000000000000000000000000000000000000008152600401610baa90613748565b60405180910390fd5b8a816001018d604051610bc691906134f5565b908152602001604051809103902060020160006101000a81548173ffffffffffffffffffffffffffffffffffffffff021916908373ffffffffffffffffffffffffffffffffffffffff16021790555060006040518060a001604052808e81526020018473ffffffffffffffffffffffffffffffffffffffff1681526020018d73ffffffffffffffffffffffffffffffffffffffff1681526020018c61ffff1681526020018b63ffffffff1681525090506000600160008e73ffffffffffffffffffffffffffffffffffffffff1673ffffffffffffffffffffffffffffffffffffffff1681526020019081526020016000209050600073ffffffffffffffffffffffffffffffffffffffff16816002018f604051610ce391906134f5565b908152602001604051809103902060020160009054906101000a900473ffffffffffffffffffffffffffffffffffffffff1673ffffffffffffffffffffffffffffffffffffffff1614610d6b576040517f08c379a0000000000000000000000000000000000000000000000000000000008152600401610d6290613908565b60405180910390fd5b81816002018f604051610d7e91906134f5565b90815260200160405180910390206000820151816000019080519060200190610da8929190612926565b5060208201518160010160006101000a81548173ffffffffffffffffffffffffffffffffffffffff021916908373ffffffffffffffffffffffffffffffffffffffff16021790555060408201518160020160006101000a81548173ffffffffffffffffffffffffffffffffffffffff021916908373ffffffffffffffffffffffffffffffffffffffff16021790555060608201518160020160146101000a81548161ffff021916908361ffff16021790555060808201518160020160166101000a81548163ffffffff021916908363ffffffff160217905550905050600073ffffffffffffffffffffffffffffffffffffffff1660058f604051610eac91906134f5565b908152602001604051809103902060020160009054906101000a900473ffffffffffffffffffffffffffffffffffffffff1673ffffffffffffffffffffffffffffffffffffffff1614610f34576040517f08c379a0000000000000000000000000000000000000000000000000000000008152600401610f2b90613908565b60405180910390fd5b8160058f604051610f4591906134f5565b90815260200160405180910390206000820151816000019080519060200190610f6f929190612926565b5060208201518160010160006101000a81548173ffffffffffffffffffffffffffffffffffffffff021916908373ffffffffffffffffffffffffffffffffffffffff16021790555060408201518160020160006101000a81548173ffffffffffffffffffffffffffffffffffffffff021916908373ffffffffffffffffffffffffffffffffffffffff16021790555060608201518160020160146101000a81548161ffff021916908361ffff16021790555060808201518160020160166101000a81548163ffffffff021916908363ffffffff16021790555090505060006110568f612468565b905061106181612517565b60048f60405161107191906134f5565b90815260200160405180910390206000808201600061109091906129ac565b6001820160006101000a81549073ffffffffffffffffffffffffffffffffffffffff02191690556002820160006101000a81549073ffffffffffffffffffffffffffffffffffffffff02191690556002820160146101000a81549063ffffffff0219169055600382016000905560048201600090555050853411156111685760008e90508073ffffffffffffffffffffffffffffffffffffffff166108fc883461113a9190613ba9565b9081150290604051600060405180830381858888f19350505050158015611165573d6000803e3d6000fd5b50505b60008590508073ffffffffffffffffffffffffffffffffffffffff166108fc899081150290604051600060405180830381858888f193505050501580156111b3573d6000803e3d6000fd5b507fe85b6202f15dfae39a54e501b5e65cbcc44a996fb8d14f843c7cb8e16fd49c7460405160405180910390a150505050505050505050505050505050565b60038180516020810182018051848252602083016020850120818352809550505050505060009150905080600001805461122b90613c79565b80601f016020809104026020016040519081016040528092919081815260200182805461125790613c79565b80156112a45780601f10611279576101008083540402835291602001916112a4565b820191906000526020600020905b81548152906001019060200180831161128757829003601f168201915b5050505050908060010160009054906101000a900473ffffffffffffffffffffffffffffffffffffffff16908060020160009054906101000a900473ffffffffffffffffffffffffffffffffffffffff16908060030154908060040160009054906101000a900463ffffffff169080600501805461132190613c79565b80601f016020809104026020016040519081016040528092919081815260200182805461134d90613c79565b801561139a5780601f1061136f5761010080835404028352916020019161139a565b820191906000526020600020905b81548152906001019060200180831161137d57829003601f168201915b5050505050908060060180546113af90613c79565b80601f01602080910402602001604051908101604052809291908181526020018280546113db90613c79565b80156114285780601f106113fd57610100808354040283529160200191611428565b820191906000526020600020905b81548152906001019060200180831161140b57829003601f168201915b5050505050905087565b8373ffffffffffffffffffffffffffffffffffffffff163373ffffffffffffffffffffffffffffffffffffffff16146114a0576040517f08c379a0000000000000000000000000000000000000000000000000000000008152600401611497906137e8565b60405180910390fd5b600073ffffffffffffffffffffffffffffffffffffffff16600160008673ffffffffffffffffffffffffffffffffffffffff1673ffffffffffffffffffffffffffffffffffffffff16815260200190815260200160002060000160009054906101000a900473ffffffffffffffffffffffffffffffffffffffff1673ffffffffffffffffffffffffffffffffffffffff161415611572576040517f08c379a000000000000000000000000000000000000000000000000000000000815260040161156990613828565b60405180910390fd5b600073ffffffffffffffffffffffffffffffffffffffff1660038c60405161159a91906134f5565b908152602001604051809103902060020160009054906101000a900473ffffffffffffffffffffffffffffffffffffffff1673ffffffffffffffffffffffffffffffffffffffff1614611622576040517f08c379a0000000000000000000000000000000000000000000000000000000008152600401611619906136c8565b60405180910390fd5b600073ffffffffffffffffffffffffffffffffffffffff1660048c60405161164a91906134f5565b908152602001604051809103902060010160009054906101000a900473ffffffffffffffffffffffffffffffffffffffff1673ffffffffffffffffffffffffffffffffffffffff16146116d2576040517f08c379a00000000000000000000000000000000000000000000000000000000081526004016116c9906136c8565b60405180910390fd5b8373ffffffffffffffffffffffffffffffffffffffff168a73ffffffffffffffffffffffffffffffffffffffff1614611740576040517f08c379a000000000000000000000000000000000000000000000000000000000815260040161173790613728565b60405180910390fd5b428363ffffffff1611611788576040517f08c379a000000000000000000000000000000000000000000000000000000000815260040161177f90613768565b60405180910390fd5b60008763ffffffff16146117d1576040517f08c379a00000000000000000000000000000000000000000000000000000000081526004016117c890613788565b60405180910390fd5b60006040518060e001604052808d81526020018c73ffffffffffffffffffffffffffffffffffffffff1681526020018b73ffffffffffffffffffffffffffffffffffffffff1681526020018a81526020018963ffffffff1681526020018881526020018781525090508060038d60405161184b91906134f5565b90815260200160405180910390206000820151816000019080519060200190611875929190612926565b5060208201518160010160006101000a81548173ffffffffffffffffffffffffffffffffffffffff021916908373ffffffffffffffffffffffffffffffffffffffff16021790555060408201518160020160006101000a81548173ffffffffffffffffffffffffffffffffffffffff021916908373ffffffffffffffffffffffffffffffffffffffff1602179055506060820151816003015560808201518160040160006101000a81548163ffffffff021916908363ffffffff16021790555060a0820151816005019080519060200190611951929190612926565b5060c082015181600601908051906020019061196e929190612926565b5090505061197f8c868686866125fc565b505050505050505050505050565b6004818051602081018201805184825260208301602085012081835280955050505050506000915090508060000180546119c690613c79565b80601f01602080910402602001604051908101604052809291908181526020018280546119f290613c79565b8015611a3f5780601f10611a1457610100808354040283529160200191611a3f565b820191906000526020600020905b815481529060010190602001808311611a2257829003601f168201915b5050505050908060010160009054906101000a900473ffffffffffffffffffffffffffffffffffffffff16908060020160009054906101000a900473ffffffffffffffffffffffffffffffffffffffff16908060020160149054906101000a900463ffffffff16908060030154908060040154905086565b611abf6129ec565b600073ffffffffffffffffffffffffffffffffffffffff168373ffffffffffffffffffffffffffffffffffffffff161415611b2f576040517f08c379a0000000000000000000000000000000000000000000000000000000008152600401611b2690613708565b60405180910390fd5b6000600160008573ffffffffffffffffffffffffffffffffffffffff1673ffffffffffffffffffffffffffffffffffffffff1681526020019081526020016000209050600073ffffffffffffffffffffffffffffffffffffffff168160000160009054906101000a900473ffffffffffffffffffffffffffffffffffffffff1673ffffffffffffffffffffffffffffffffffffffff161415611c06576040517f08c379a0000000000000000000000000000000000000000000000000000000008152600401611bfd906138c8565b60405180910390fd5b600073ffffffffffffffffffffffffffffffffffffffff168160020184604051611c3091906134f5565b908152602001604051809103902060020160009054906101000a900473ffffffffffffffffffffffffffffffffffffffff1673ffffffffffffffffffffffffffffffffffffffff161415611cb9576040517f08c379a0000000000000000000000000000000000000000000000000000000008152600401611cb0906137c8565b60405180910390fd5b8060020183604051611ccb91906134f5565b90815260200160405180910390206040518060a0016040529081600082018054611cf490613c79565b80601f0160208091040260200160405190810160405280929190818152602001828054611d2090613c79565b8015611d6d5780601f10611d4257610100808354040283529160200191611d6d565b820191906000526020600020905b815481529060010190602001808311611d5057829003601f168201915b505050505081526020016001820160009054906101000a900473ffffffffffffffffffffffffffffffffffffffff1673ffffffffffffffffffffffffffffffffffffffff1673ffffffffffffffffffffffffffffffffffffffff1681526020016002820160009054906101000a900473ffffffffffffffffffffffffffffffffffffffff1673ffffffffffffffffffffffffffffffffffffffff1673ffffffffffffffffffffffffffffffffffffffff1681526020016002820160149054906101000a900461ffff1661ffff1661ffff1681526020016002820160169054906101000a900463ffffffff1663ffffffff1663ffffffff168152505091505092915050565b600581805160208101820180518482526020830160208501208183528095505050505050600091509050806000018054611eaa90613c79565b80601f0160208091040260200160405190810160405280929190818152602001828054611ed690613c79565b8015611f235780601f10611ef857610100808354040283529160200191611f23565b820191906000526020600020905b815481529060010190602001808311611f0657829003601f168201915b5050505050908060010160009054906101000a900473ffffffffffffffffffffffffffffffffffffffff16908060020160009054906101000a900473ffffffffffffffffffffffffffffffffffffffff16908060020160149054906101000a900461ffff16908060020160169054906101000a900463ffffffff16905085565b60606002805480602002602001604051908101604052809291908181526020016000905b82821015612073578382906000526020600020018054611fe690613c79565b80601f016020809104026020016040519081016040528092919081815260200182805461201290613c79565b801561205f5780601f106120345761010080835404028352916020019161205f565b820191906000526020600020905b81548152906001019060200180831161204257829003601f168201915b505050505081526020019060010190611fc7565b50505050905090565b612084612a51565b600073ffffffffffffffffffffffffffffffffffffffff168373ffffffffffffffffffffffffffffffffffffffff1614156120f4576040517f08c379a00000000000000000000000000000000000000000000000000000000081526004016120eb90613708565b60405180910390fd5b6000600160008573ffffffffffffffffffffffffffffffffffffffff1673ffffffffffffffffffffffffffffffffffffffff1681526020019081526020016000209050600073ffffffffffffffffffffffffffffffffffffffff168160000160009054906101000a900473ffffffffffffffffffffffffffffffffffffffff1673ffffffffffffffffffffffffffffffffffffffff1614156121cb576040517f08c379a00000000000000000000000000000000000000000000000000000000081526004016121c2906138c8565b60405180910390fd5b600073ffffffffffffffffffffffffffffffffffffffff1681600101846040516121f591906134f5565b908152602001604051809103902060010160009054906101000a900473ffffffffffffffffffffffffffffffffffffffff1673ffffffffffffffffffffffffffffffffffffffff16141561227e576040517f08c379a0000000000000000000000000000000000000000000000000000000008152600401612275906138e8565b60405180910390fd5b806001018360405161229091906134f5565b90815260200160405180910390206040518060c00160405290816000820180546122b990613c79565b80601f01602080910402602001604051908101604052809291908181526020018280546122e590613c79565b80156123325780601f1061230757610100808354040283529160200191612332565b820191906000526020600020905b81548152906001019060200180831161231557829003601f168201915b505050505081526020016001820160009054906101000a900473ffffffffffffffffffffffffffffffffffffffff1673ffffffffffffffffffffffffffffffffffffffff1673ffffffffffffffffffffffffffffffffffffffff1681526020016002820160009054906101000a900473ffffffffffffffffffffffffffffffffffffffff1673ffffffffffffffffffffffffffffffffffffffff1673ffffffffffffffffffffffffffffffffffffffff1681526020016002820160149054906101000a900463ffffffff1663ffffffff1663ffffffff1681526020016003820154815260200160048201548152505091505092915050565b60016020528060005260406000206000915090508060000160009054906101000a900473ffffffffffffffffffffffffffffffffffffffff16905081565b600080600280549050905060005b8181101561250c576002818154811061249257612491613db2565b5b906000526020600020016040516020016124ac919061350c565b60405160208183030381529060405280519060200120846040516020016124d391906134f5565b6040516020818303038152906040528051906020012014156124f9578092505050612512565b808061250490613cdc565b915050612476565b50809150505b919050565b600280549050811061255e576040517f08c379a0000000000000000000000000000000000000000000000000000000008152600401612555906138a8565b60405180910390fd5b600060016002805490506125729190613ba9565b90506002818154811061258857612587613db2565b5b90600052602060002001600283815481106125a6576125a5613db2565b5b906000526020600020019080546125bc90613c79565b6125c7929190612ab9565b5060028054806125da576125d9613d83565b5b6001900381819060005260206000200160006125f691906129ac565b90555050565b60006040518060c001604052808781526020018673ffffffffffffffffffffffffffffffffffffffff168152602001600073ffffffffffffffffffffffffffffffffffffffff1681526020018563ffffffff1681526020018481526020018381525090506000600160008773ffffffffffffffffffffffffffffffffffffffff1673ffffffffffffffffffffffffffffffffffffffff16815260200190815260200160002090508181600101886040516126b691906134f5565b908152602001604051809103902060008201518160000190805190602001906126e0929190612926565b5060208201518160010160006101000a81548173ffffffffffffffffffffffffffffffffffffffff021916908373ffffffffffffffffffffffffffffffffffffffff16021790555060408201518160020160006101000a81548173ffffffffffffffffffffffffffffffffffffffff021916908373ffffffffffffffffffffffffffffffffffffffff16021790555060608201518160020160146101000a81548163ffffffff021916908363ffffffff1602179055506080820151816003015560a08201518160040155905050816004886040516127be91906134f5565b908152602001604051809103902060008201518160000190805190602001906127e8929190612926565b5060208201518160010160006101000a81548173ffffffffffffffffffffffffffffffffffffffff021916908373ffffffffffffffffffffffffffffffffffffffff16021790555060408201518160020160006101000a81548173ffffffffffffffffffffffffffffffffffffffff021916908373ffffffffffffffffffffffffffffffffffffffff16021790555060608201518160020160146101000a81548163ffffffff021916908363ffffffff1602179055506080820151816003015560a082015181600401559050506002879080600181540180825580915050600190039060005260206000200160009091909190915090805190602001906128f0929190612926565b507fdb8317522294099fa9360f57f5f2c8178138bbeb092f99c41ada4fefc39fbe5e60405160405180910390a150505050505050565b82805461293290613c79565b90600052602060002090601f016020900481019282612954576000855561299b565b82601f1061296d57805160ff191683800117855561299b565b8280016001018555821561299b579182015b8281111561299a57825182559160200191906001019061297f565b5b5090506129a89190612b46565b5090565b5080546129b890613c79565b6000825580601f106129ca57506129e9565b601f0160209004906000526020600020908101906129e89190612b46565b5b50565b6040518060a0016040528060608152602001600073ffffffffffffffffffffffffffffffffffffffff168152602001600073ffffffffffffffffffffffffffffffffffffffff168152602001600061ffff168152602001600063ffffffff1681525090565b6040518060c0016040528060608152602001600073ffffffffffffffffffffffffffffffffffffffff168152602001600073ffffffffffffffffffffffffffffffffffffffff168152602001600063ffffffff16815260200160008152602001600081525090565b828054612ac590613c79565b90600052602060002090601f016020900481019282612ae75760008555612b35565b82601f10612af85780548555612b35565b82800160010185558215612b3557600052602060002091601f016020900482015b82811115612b34578254825591600101919060010190612b19565b5b509050612b429190612b46565b5090565b5b80821115612b5f576000816000905550600101612b47565b5090565b6000612b76612b7184613991565b61396c565b905082815260208101848484011115612b9257612b91613e15565b5b612b9d848285613c37565b509392505050565b600081359050612bb48161432e565b92915050565b600082601f830112612bcf57612bce613e10565b5b8135612bdf848260208601612b63565b91505092915050565b600081359050612bf781614345565b92915050565b600081359050612c0c8161435c565b92915050565b600081359050612c2181614373565b92915050565b600060208284031215612c3d57612c3c613e1f565b5b6000612c4b84828501612ba5565b91505092915050565b60008060408385031215612c6b57612c6a613e1f565b5b6000612c7985828601612ba5565b925050602083013567ffffffffffffffff811115612c9a57612c99613e1a565b5b612ca685828601612bba565b9150509250929050565b600060208284031215612cc657612cc5613e1f565b5b600082013567ffffffffffffffff811115612ce457612ce3613e1a565b5b612cf084828501612bba565b91505092915050565b60008060008060008060008060008060006101608c8e031215612d1f57612d1e613e1f565b5b60008c013567ffffffffffffffff811115612d3d57612d3c613e1a565b5b612d498e828f01612bba565b9b50506020612d5a8e828f01612ba5565b9a50506040612d6b8e828f01612ba5565b9950506060612d7c8e828f01612bfd565b9850506080612d8d8e828f01612c12565b97505060a08c013567ffffffffffffffff811115612dae57612dad613e1a565b5b612dba8e828f01612bba565b96505060c08c013567ffffffffffffffff811115612ddb57612dda613e1a565b5b612de78e828f01612bba565b95505060e0612df88e828f01612ba5565b945050610100612e0a8e828f01612c12565b935050610120612e1c8e828f01612bfd565b925050610140612e2e8e828f01612bfd565b9150509295989b509295989b9093969950565b60008060008060808587031215612e5b57612e5a613e1f565b5b600085013567ffffffffffffffff811115612e7957612e78613e1a565b5b612e8587828801612bba565b9450506020612e9687828801612ba5565b9350506040612ea787828801612be8565b9250506060612eb887828801612c12565b91505092959194509250565b6000612ed08383612ef0565b60208301905092915050565b6000612ee88383612fe1565b905092915050565b612ef981613bdd565b82525050565b612f0881613bdd565b82525050565b6000612f19826139f7565b612f238185613a32565b9350612f2e836139c2565b8060005b83811015612f5f578151612f468882612ec4565b9750612f5183613a18565b925050600181019050612f32565b5085935050505092915050565b6000612f7782613a02565b612f818185613a43565b935083602082028501612f93856139d2565b8060005b85811015612fcf5784840389528151612fb08582612edc565b9450612fbb83613a25565b925060208a01995050600181019050612f97565b50829750879550505050505092915050565b6000612fec82613a0d565b612ff68185613a54565b9350613006818560208601613c46565b61300f81613e24565b840191505092915050565b600061302582613a0d565b61302f8185613a65565b935061303f818560208601613c46565b61304881613e24565b840191505092915050565b600061305e82613a0d565b6130688185613a76565b9350613078818560208601613c46565b80840191505092915050565b6000815461309181613c79565b61309b8186613a76565b945060018216600081146130b657600181146130c7576130fa565b60ff198316865281860193506130fa565b6130d0856139e2565b60005b838110156130f2578154818901526001820191506020810190506130d3565b838801955050505b50505092915050565b6000613110602483613a65565b915061311b82613e35565b604082019050919050565b6000613133603483613a65565b915061313e82613e84565b604082019050919050565b6000613156600f83613a65565b915061316182613ed3565b602082019050919050565b6000613179600d83613a65565b915061318482613efc565b602082019050919050565b600061319c602283613a65565b91506131a782613f25565b604082019050919050565b60006131bf600f83613a65565b91506131ca82613f74565b602082019050919050565b60006131e2602a83613a65565b91506131ed82613f9d565b604082019050919050565b6000613205602083613a65565b915061321082613fec565b602082019050919050565b6000613228602683613a65565b915061323382614015565b604082019050919050565b600061324b601d83613a65565b915061325682614064565b602082019050919050565b600061326e604183613a65565b91506132798261408d565b606082019050919050565b6000613291601383613a65565b915061329c82614102565b602082019050919050565b60006132b4602a83613a65565b91506132bf8261412b565b604082019050919050565b60006132d7602d83613a65565b91506132e28261417a565b604082019050919050565b60006132fa602883613a65565b9150613305826141c9565b604082019050919050565b600061331d602d83613a65565b915061332882614218565b604082019050919050565b6000613340601483613a65565b915061334b82614267565b602082019050919050565b6000613363602683613a65565b915061336e82614290565b604082019050919050565b6000613386602a83613a65565b9150613391826142df565b604082019050919050565b600060c08301600083015184820360008601526133b98282612fe1565b91505060208301516133ce6020860182612ef0565b5060408301516133e16040860182612ef0565b5060608301516133f460608601826134d7565b50608083015161340760808601826134b9565b5060a083015161341a60a08601826134b9565b508091505092915050565b600060a08301600083015184820360008601526134428282612fe1565b91505060208301516134576020860182612ef0565b50604083015161346a6040860182612ef0565b50606083015161347d606086018261349b565b50608083015161349060808601826134d7565b508091505092915050565b6134a481613bef565b82525050565b6134b381613bef565b82525050565b6134c281613c1d565b82525050565b6134d181613c1d565b82525050565b6134e081613c27565b82525050565b6134ef81613c27565b82525050565b60006135018284613053565b915081905092915050565b60006135188284613084565b915081905092915050565b60006020820190506135386000830184612eff565b92915050565b600060208201905081810360008301526135588184612f0e565b905092915050565b6000602082019050818103600083015261357a8184612f6c565b905092915050565b600060a082019050818103600083015261359c818861301a565b90506135ab6020830187612eff565b6135b86040830186612eff565b6135c560608301856134aa565b6135d260808301846134e6565b9695505050505050565b600060e08201905081810360008301526135f6818a61301a565b90506136056020830189612eff565b6136126040830188612eff565b61361f60608301876134c8565b61362c60808301866134e6565b81810360a083015261363e818561301a565b905081810360c0830152613652818461301a565b905098975050505050505050565b600060c082019050818103600083015261367a818961301a565b90506136896020830188612eff565b6136966040830187612eff565b6136a360608301866134e6565b6136b060808301856134c8565b6136bd60a08301846134c8565b979650505050505050565b600060208201905081810360008301526136e181613103565b9050919050565b6000602082019050818103600083015261370181613126565b9050919050565b6000602082019050818103600083015261372181613149565b9050919050565b600060208201905081810360008301526137418161316c565b9050919050565b600060208201905081810360008301526137618161318f565b9050919050565b60006020820190508181036000830152613781816131b2565b9050919050565b600060208201905081810360008301526137a1816131d5565b9050919050565b600060208201905081810360008301526137c1816131f8565b9050919050565b600060208201905081810360008301526137e18161321b565b9050919050565b600060208201905081810360008301526138018161323e565b9050919050565b6000602082019050818103600083015261382181613261565b9050919050565b6000602082019050818103600083015261384181613284565b9050919050565b60006020820190508181036000830152613861816132a7565b9050919050565b60006020820190508181036000830152613881816132ca565b9050919050565b600060208201905081810360008301526138a1816132ed565b9050919050565b600060208201905081810360008301526138c181613310565b9050919050565b600060208201905081810360008301526138e181613333565b9050919050565b6000602082019050818103600083015261390181613356565b9050919050565b6000602082019050818103600083015261392181613379565b9050919050565b60006020820190508181036000830152613942818461339c565b905092915050565b600060208201905081810360008301526139648184613425565b905092915050565b6000613976613987565b90506139828282613cab565b919050565b6000604051905090565b600067ffffffffffffffff8211156139ac576139ab613de1565b5b6139b582613e24565b9050602081019050919050565b6000819050602082019050919050565b6000819050602082019050919050565b60008190508160005260206000209050919050565b600081519050919050565b600081519050919050565b600081519050919050565b6000602082019050919050565b6000602082019050919050565b600082825260208201905092915050565b600082825260208201905092915050565b600082825260208201905092915050565b600082825260208201905092915050565b600081905092915050565b6000613a8c82613c1d565b9150613a9783613c1d565b9250827fffffffffffffffffffffffffffffffffffffffffffffffffffffffffffffffff03821115613acc57613acb613d25565b5b828201905092915050565b6000613ae282613c27565b9150613aed83613c27565b92508263ffffffff03821115613b0657613b05613d25565b5b828201905092915050565b6000613b1c82613c1d565b9150613b2783613c1d565b9250817fffffffffffffffffffffffffffffffffffffffffffffffffffffffffffffffff0483118215151615613b6057613b5f613d25565b5b828202905092915050565b6000613b7682613c27565b9150613b8183613c27565b92508163ffffffff0483118215151615613b9e57613b9d613d25565b5b828202905092915050565b6000613bb482613c1d565b9150613bbf83613c1d565b925082821015613bd257613bd1613d25565b5b828203905092915050565b6000613be882613bfd565b9050919050565b600061ffff82169050919050565b600073ffffffffffffffffffffffffffffffffffffffff82169050919050565b6000819050919050565b600063ffffffff82169050919050565b82818337600083830152505050565b60005b83811015613c64578082015181840152602081019050613c49565b83811115613c73576000848401525b50505050565b60006002820490506001821680613c9157607f821691505b60208210811415613ca557613ca4613d54565b5b50919050565b613cb482613e24565b810181811067ffffffffffffffff82111715613cd357613cd2613de1565b5b80604052505050565b6000613ce782613c1d565b91507fffffffffffffffffffffffffffffffffffffffffffffffffffffffffffffffff821415613d1a57613d19613d25565b5b600182019050919050565b7f4e487b7100000000000000000000000000000000000000000000000000000000600052601160045260246000fd5b7f4e487b7100000000000000000000000000000000000000000000000000000000600052602260045260246000fd5b7f4e487b7100000000000000000000000000000000000000000000000000000000600052603160045260246000fd5b7f4e487b7100000000000000000000000000000000000000000000000000000000600052603260045260246000fd5b7f4e487b7100000000000000000000000000000000000000000000000000000000600052604160045260246000fd5b600080fd5b600080fd5b600080fd5b600080fd5b6000601f19601f8301169050919050565b7f4e465420697320616c726561647920617661696c61626c6520666f722072656e60008201527f74696e6700000000000000000000000000000000000000000000000000000000602082015250565b7f426f72726f77657220616464726573732063616e27742062652074686520736160008201527f6d65206173206c656e6465722061646472657373000000000000000000000000602082015250565b7f496e76616c696420616464726573730000000000000000000000000000000000600082015250565b7f4e6f6e204e4654204f776e657200000000000000000000000000000000000000600082015250565b7f4e465420616c72656164792072656e74656420627920736f6d656f6e6520656c60008201527f7365000000000000000000000000000000000000000000000000000000000000602082015250565b7f4261642074696d6520626f756e64730000000000000000000000000000000000600082015250565b7f4e6577204e46542063616e277420626520696e20616e7920757365727320776960008201527f73686c6973742079657400000000000000000000000000000000000000000000602082015250565b7f4e4654206973206e6f7420617661696c61626c6520666f722072656e74696e67600082015250565b7f5573657220646f6573206e6f74206861766520616e7920737563682072656e7460008201527f6564204e66740000000000000000000000000000000000000000000000000000602082015250565b7f43616e2774206c656e6420736f6d656f6e6520656c73652773204e4654000000600082015250565b7f43616e27742072656e74204e465420666f72206d6f7265207468616e20616d6f60008201527f756e74206f662074696d6520617661696c61626c6520666f722072656e74696e60208201527f6700000000000000000000000000000000000000000000000000000000000000604082015250565b7f5573657220646f6573206e6f7420657869737400000000000000000000000000600082015250565b7f43616e27742072656e74204e465420617320696e73756666696369656e74206160008201527f6d6f756e74207061696400000000000000000000000000000000000000000000602082015250565b7f43616e277420626f72726f77204e465420666f7220616e6f7468657220626f7260008201527f726f776572206164647265737300000000000000000000000000000000000000602082015250565b7f4f6e6c792074686520757365722063616e2061646420686973206163636f756e60008201527f7420746f20617070000000000000000000000000000000000000000000000000602082015250565b7f4e6674206b6579206e6f7420617661696c61626c6520696e207468652061707060008201527f2072656e74696e67206c69737400000000000000000000000000000000000000602082015250565b7f5573657220646f6573206e6f7420657869737473000000000000000000000000600082015250565b7f5573657220646f6573206e6f74206861766520616e792073756368206c656e6460008201527f6564204e66740000000000000000000000000000000000000000000000000000602082015250565b7f4e667420697320616c72656164792070726573656e7420696e2075736572207260008201527f656e746564204e66747300000000000000000000000000000000000000000000602082015250565b61433781613bdd565b811461434257600080fd5b50565b61434e81613bef565b811461435957600080fd5b50565b61436581613c1d565b811461437057600080fd5b50565b61437c81613c27565b811461438757600080fd5b5056fea264697066735822122060b334daba905486fed5b0773bd533ad420216a47dd24f5a9dc30f4147df9ab064736f6c63430008050033",
  "linkReferences": {},
  "deployedLinkReferences": {}
}