{
  "_format": "hh-sol-artifact-1",
  "contractName": "NFTRental",
  "sourceName": "contracts/NFTRental.sol",
  "abi": [
    {
      "anonymous": false,
      "inputs": [],
      "name": "NFTCollateralClaimed",
      "type": "event"
    },
    {
      "anonymous": false,
      "inputs": [],
      "name": "NFTLended",
      "type": "event"
    },
    {
      "anonymous": false,
      "inputs": [],
      "name": "NFTRented",
      "type": "event"
    },
    {
      "anonymous": false,
      "inputs": [],
      "name": "NFTReturned",
      "type": "event"
    },
    {
      "anonymous": false,
      "inputs": [],
      "name": "NFTStopLended",
      "type": "event"
    },
    {
      "inputs": [
        {
          "internalType": "string",
          "name": "_nftKey",
          "type": "string"
        },
        {
          "internalType": "address",
          "name": "_nftOwner",
          "type": "address"
        },
        {
          "internalType": "address",
          "name": "_nftAddress",
          "type": "address"
        },
        {
          "internalType": "uint256",
          "name": "_nftId",
          "type": "uint256"
        },
        {
          "internalType": "string",
          "name": "_nftName",
          "type": "string"
        },
        {
          "internalType": "string",
          "name": "_nftImageURL",
          "type": "string"
        },
        {
          "internalType": "address",
          "name": "_lenderAddress",
          "type": "address"
        },
        {
          "internalType": "uint32",
          "name": "_dueDate",
          "type": "uint32"
        },
        {
          "internalType": "uint256",
          "name": "_dailyRent",
          "type": "uint256"
        },
        {
          "internalType": "uint256",
          "name": "_collateral",
          "type": "uint256"
        }
      ],
      "name": "addNFTToLend",
      "outputs": [],
      "stateMutability": "payable",
      "type": "function"
    },
    {
      "inputs": [
        {
          "internalType": "address",
          "name": "_userAddress",
          "type": "address"
        }
      ],
      "name": "addUser",
      "outputs": [],
      "stateMutability": "nonpayable",
      "type": "function"
    },
    {
      "inputs": [
        {
          "internalType": "address",
          "name": "",
          "type": "address"
        }
      ],
      "name": "addressToUser",
      "outputs": [
        {
          "internalType": "address",
          "name": "userAddress",
          "type": "address"
        }
      ],
      "stateMutability": "view",
      "type": "function"
    },
    {
      "inputs": [
        {
          "internalType": "string",
          "name": "_nftKey",
          "type": "string"
        }
      ],
      "name": "claimCollateral",
      "outputs": [],
      "stateMutability": "nonpayable",
      "type": "function"
    },
    {
      "inputs": [],
      "name": "getContractBalance",
      "outputs": [
        {
          "internalType": "uint256",
          "name": "",
          "type": "uint256"
        }
      ],
      "stateMutability": "view",
      "type": "function"
    },
    {
      "inputs": [],
      "name": "getNftKeysListAvaiableForRent",
      "outputs": [
        {
          "internalType": "string[]",
          "name": "",
          "type": "string[]"
        }
      ],
      "stateMutability": "view",
      "type": "function"
    },
    {
      "inputs": [],
      "name": "getUserAddressList",
      "outputs": [
        {
          "internalType": "address[]",
          "name": "",
          "type": "address[]"
        }
      ],
      "stateMutability": "view",
      "type": "function"
    },
    {
      "inputs": [
        {
          "internalType": "address",
          "name": "_userAddress",
          "type": "address"
        },
        {
          "internalType": "string",
          "name": "_nftKey",
          "type": "string"
        }
      ],
      "name": "getUserLendedNFTDetails",
      "outputs": [
        {
          "components": [
            {
              "internalType": "string",
              "name": "nftKey",
              "type": "string"
            },
            {
              "internalType": "address",
              "name": "lenderAddress",
              "type": "address"
            },
            {
              "internalType": "address",
              "name": "borrowerAddress",
              "type": "address"
            },
            {
              "internalType": "uint32",
              "name": "dueDate",
              "type": "uint32"
            },
            {
              "internalType": "uint256",
              "name": "dailyRent",
              "type": "uint256"
            },
            {
              "internalType": "uint256",
              "name": "collateral",
              "type": "uint256"
            }
          ],
          "internalType": "struct NFTRental.lendedNFT",
          "name": "",
          "type": "tuple"
        }
      ],
      "stateMutability": "view",
      "type": "function"
    },
    {
      "inputs": [
        {
          "internalType": "address",
          "name": "_userAddress",
          "type": "address"
        },
        {
          "internalType": "uint256",
          "name": "_index",
          "type": "uint256"
        }
      ],
      "name": "getUserLendedNFTListDetails",
      "outputs": [
        {
          "internalType": "string",
          "name": "",
          "type": "string"
        }
      ],
      "stateMutability": "view",
      "type": "function"
    },
    {
      "inputs": [
        {
          "internalType": "address",
          "name": "_userAddress",
          "type": "address"
        },
        {
          "internalType": "string",
          "name": "_nftKey",
          "type": "string"
        }
      ],
      "name": "getUserRentedNFTDetails",
      "outputs": [
        {
          "components": [
            {
              "internalType": "string",
              "name": "nftKey",
              "type": "string"
            },
            {
              "internalType": "address",
              "name": "lenderAddress",
              "type": "address"
            },
            {
              "internalType": "address",
              "name": "borrowerAddress",
              "type": "address"
            },
            {
              "internalType": "uint16",
              "name": "numberOfDays",
              "type": "uint16"
            },
            {
              "internalType": "uint32",
              "name": "rentalStartTime",
              "type": "uint32"
            }
          ],
          "internalType": "struct NFTRental.rentedNFT",
          "name": "",
          "type": "tuple"
        }
      ],
      "stateMutability": "view",
      "type": "function"
    },
    {
      "inputs": [
        {
          "internalType": "address",
          "name": "_userAddress",
          "type": "address"
        },
        {
          "internalType": "uint256",
          "name": "_index",
          "type": "uint256"
        }
      ],
      "name": "getUserRentedNFTListDetails",
      "outputs": [
        {
          "internalType": "string",
          "name": "",
          "type": "string"
        }
      ],
      "stateMutability": "view",
      "type": "function"
    },
    {
      "inputs": [
        {
          "internalType": "string",
          "name": "",
          "type": "string"
        }
      ],
      "name": "nftKeyToLendedNftDetails",
      "outputs": [
        {
          "internalType": "string",
          "name": "nftKey",
          "type": "string"
        },
        {
          "internalType": "address",
          "name": "lenderAddress",
          "type": "address"
        },
        {
          "internalType": "address",
          "name": "borrowerAddress",
          "type": "address"
        },
        {
          "internalType": "uint32",
          "name": "dueDate",
          "type": "uint32"
        },
        {
          "internalType": "uint256",
          "name": "dailyRent",
          "type": "uint256"
        },
        {
          "internalType": "uint256",
          "name": "collateral",
          "type": "uint256"
        }
      ],
      "stateMutability": "view",
      "type": "function"
    },
    {
      "inputs": [
        {
          "internalType": "string",
          "name": "",
          "type": "string"
        }
      ],
      "name": "nftKeyToNftProps",
      "outputs": [
        {
          "internalType": "string",
          "name": "nftKey",
          "type": "string"
        },
        {
          "internalType": "address",
          "name": "nftOwner",
          "type": "address"
        },
        {
          "internalType": "address",
          "name": "nftAddress",
          "type": "address"
        },
        {
          "internalType": "uint256",
          "name": "nftId",
          "type": "uint256"
        },
        {
          "internalType": "string",
          "name": "nftName",
          "type": "string"
        },
        {
          "internalType": "string",
          "name": "nftImageURL",
          "type": "string"
        }
      ],
      "stateMutability": "view",
      "type": "function"
    },
    {
      "inputs": [
        {
          "internalType": "string",
          "name": "",
          "type": "string"
        }
      ],
      "name": "nftKeyToRentedNftDetails",
      "outputs": [
        {
          "internalType": "string",
          "name": "nftKey",
          "type": "string"
        },
        {
          "internalType": "address",
          "name": "lenderAddress",
          "type": "address"
        },
        {
          "internalType": "address",
          "name": "borrowerAddress",
          "type": "address"
        },
        {
          "internalType": "uint16",
          "name": "numberOfDays",
          "type": "uint16"
        },
        {
          "internalType": "uint32",
          "name": "rentalStartTime",
          "type": "uint32"
        }
      ],
      "stateMutability": "view",
      "type": "function"
    },
    {
      "inputs": [
        {
          "internalType": "address",
          "name": "",
          "type": "address"
        },
        {
          "internalType": "address",
          "name": "",
          "type": "address"
        },
        {
          "internalType": "uint256",
          "name": "",
          "type": "uint256"
        },
        {
          "internalType": "bytes",
          "name": "",
          "type": "bytes"
        }
      ],
      "name": "onERC721Received",
      "outputs": [
        {
          "internalType": "bytes4",
          "name": "",
          "type": "bytes4"
        }
      ],
      "stateMutability": "nonpayable",
      "type": "function"
    },
    {
      "inputs": [
        {
          "internalType": "string",
          "name": "_nftKey",
          "type": "string"
        },
        {
          "internalType": "address",
          "name": "_borrowerAddress",
          "type": "address"
        },
        {
          "internalType": "uint16",
          "name": "_numberOfDays",
          "type": "uint16"
        },
        {
          "internalType": "uint32",
          "name": "_rentalStartTime",
          "type": "uint32"
        }
      ],
      "name": "rentNft",
      "outputs": [],
      "stateMutability": "payable",
      "type": "function"
    },
    {
      "inputs": [
        {
          "internalType": "string",
          "name": "_nftKey",
          "type": "string"
        }
      ],
      "name": "returnNFT",
      "outputs": [],
      "stateMutability": "nonpayable",
      "type": "function"
    },
    {
      "inputs": [
        {
          "internalType": "string",
          "name": "_nftKey",
          "type": "string"
        }
      ],
      "name": "stopLend",
      "outputs": [],
      "stateMutability": "nonpayable",
      "type": "function"
    }
  ],
  "bytecode": "0x608060405234801561001057600080fd5b50616ec780620000216000396000f3fe6080604052600436106101095760003560e01c80637f73ef6c11610095578063dc4ace8c11610064578063dc4ace8c146103a7578063deb41216146103d2578063e08b57371461040f578063e287183a14610438578063edf538861461046157610109565b80637f73ef6c146102d05780638d2221d91461030d578063a66a89fd1461034e578063c81e8d861461038b57610109565b8063423fdefb116100dc578063423fdefb146101c85780634df3d7b9146101e45780635289f68a14610221578063657ed37d146102635780636f9fb98a146102a557610109565b8063150b7a021461010e578063213f44ab1461014b578063378a243b14610176578063421b2d8b1461019f575b600080fd5b34801561011a57600080fd5b5061013560048036038101906101309190615193565b61049e565b6040516101429190615cb9565b60405180910390f35b34801561015757600080fd5b506101606104b2565b60405161016d9190615c75565b60405180910390f35b34801561018257600080fd5b5061019d600480360381019061019891906152b2565b610540565b005b3480156101ab57600080fd5b506101c660048036038101906101c19190615166565b610c09565b005b6101e260048036038101906101dd919061542e565b610e6c565b005b3480156101f057600080fd5b5061020b60048036038101906102069190615272565b611062565b6040516102189190615cd4565b60405180910390f35b34801561022d57600080fd5b50610248600480360381019061024391906152b2565b6112a6565b60405161025a96959493929190615d50565b60405180910390f35b34801561026f57600080fd5b5061028a600480360381019061028591906152b2565b6114d0565b60405161029c96959493929190615dc6565b60405180910390f35b3480156102b157600080fd5b506102ba6115fa565b6040516102c791906161f2565b60405180910390f35b3480156102dc57600080fd5b506102f760048036038101906102f29190615216565b611602565b60405161030491906161d0565b60405180910390f35b34801561031957600080fd5b50610334600480360381019061032f91906152b2565b6119bc565b604051610345959493929190615cf6565b60405180910390f35b34801561035a57600080fd5b5061037560048036038101906103709190615272565b611aee565b6040516103829190615cd4565b60405180910390f35b6103a560048036038101906103a091906152fb565b611d32565b005b3480156103b357600080fd5b506103bc612210565b6040516103c99190615c97565b60405180910390f35b3480156103de57600080fd5b506103f960048036038101906103f49190615216565b6122e9565b60405161040691906161ae565b60405180910390f35b34801561041b57600080fd5b50610436600480360381019061043191906152b2565b612697565b005b34801561044457600080fd5b5061045f600480360381019061045a91906152b2565b612d07565b005b34801561046d57600080fd5b5061048860048036038101906104839190615166565b6135dc565b6040516104959190615c5a565b60405180910390f35b600063150b7a0260e01b9050949350505050565b6060600080548060200260200160405190810160405280929190818152602001828054801561053657602002820191906000526020600020905b8160009054906101000a900473ffffffffffffffffffffffffffffffffffffffff1673ffffffffffffffffffffffffffffffffffffffff16815260200190600101908083116104ec575b5050505050905090565b6105498161361a565b6000600160003373ffffffffffffffffffffffffffffffffffffffff1673ffffffffffffffffffffffffffffffffffffffff1681526020019081526020016000209050600060058360405161059e9190615c2c565b908152602001604051809103902090506000600160008360010160009054906101000a900473ffffffffffffffffffffffffffffffffffffffff1673ffffffffffffffffffffffffffffffffffffffff1673ffffffffffffffffffffffffffffffffffffffff1681526020019081526020016000209050600081600101856040516106299190615c2c565b9081526020016040518091039020905060008160040154905060008360000160009054906101000a900473ffffffffffffffffffffffffffffffffffffffff16905060008660000160009054906101000a900473ffffffffffffffffffffffffffffffffffffffff1690506005886040516106a49190615c2c565b9081526020016040518091039020600080820160006106c39190614df5565b6001820160006101000a81549073ffffffffffffffffffffffffffffffffffffffff02191690556002820160006101000a81549073ffffffffffffffffffffffffffffffffffffffff02191690556002820160146101000a81549061ffff02191690556002820160166101000a81549063ffffffff02191690555050600061074b8989613acc565b90506107578189613b80565b87600301896040516107699190615c2c565b9081526020016040518091039020600080820160006107889190614df5565b6001820160006101000a81549073ffffffffffffffffffffffffffffffffffffffff02191690556002820160006101000a81549073ffffffffffffffffffffffffffffffffffffffff02191690556002820160146101000a81549061ffff02191690556002820160166101000a81549063ffffffff0219169055505060008560020160149054906101000a900463ffffffff1690508063ffffffff16421015610a215760008660020160006101000a81548173ffffffffffffffffffffffffffffffffffffffff021916908373ffffffffffffffffffffffffffffffffffffffff16021790555060006040518060c001604052808c81526020018673ffffffffffffffffffffffffffffffffffffffff168152602001600073ffffffffffffffffffffffffffffffffffffffff1681526020018363ffffffff168152602001886003015481526020018781525090508060048c6040516108e89190615c2c565b90815260200160405180910390206000820151816000019080519060200190610912929190614e35565b5060208201518160010160006101000a81548173ffffffffffffffffffffffffffffffffffffffff021916908373ffffffffffffffffffffffffffffffffffffffff16021790555060408201518160020160006101000a81548173ffffffffffffffffffffffffffffffffffffffff021916908373ffffffffffffffffffffffffffffffffffffffff16021790555060608201518160020160146101000a81548163ffffffff021916908363ffffffff1602179055506080820151816003015560a0820151816004015590505060028b908060018154018082558091505060019003906000526020600020016000909190919091509080519060200190610a1a929190614e35565b5050610b8a565b6000610a2d8b89613c70565b9050610a398189613d24565b876001018b604051610a4b9190615c2c565b908152602001604051809103902060008082016000610a6a9190614df5565b6001820160006101000a81549073ffffffffffffffffffffffffffffffffffffffff02191690556002820160006101000a81549073ffffffffffffffffffffffffffffffffffffffff02191690556002820160146101000a81549063ffffffff021916905560038201600090556004820160009055505060038b604051610af19190615c2c565b908152602001604051809103902060008082016000610b109190614df5565b6001820160006101000a81549073ffffffffffffffffffffffffffffffffffffffff02191690556002820160006101000a81549073ffffffffffffffffffffffffffffffffffffffff02191690556003820160009055600482016000610b769190614df5565b600582016000610b869190614df5565b5050505b8273ffffffffffffffffffffffffffffffffffffffff166108fc869081150290604051600060405180830381858888f19350505050158015610bd0573d6000803e3d6000fd5b507f5762dfb61a8669a649a124998e72cecf9e9bc9d3f30c4c5dbca184ca7a97d6d060405160405180910390a150505050505050505050565b600073ffffffffffffffffffffffffffffffffffffffff168173ffffffffffffffffffffffffffffffffffffffff161415610c79576040517f08c379a0000000000000000000000000000000000000000000000000000000008152600401610c7090615e6e565b60405180910390fd5b8073ffffffffffffffffffffffffffffffffffffffff163373ffffffffffffffffffffffffffffffffffffffff1614610ce7576040517f08c379a0000000000000000000000000000000000000000000000000000000008152600401610cde906160ae565b60405180910390fd5b600073ffffffffffffffffffffffffffffffffffffffff16600160008373ffffffffffffffffffffffffffffffffffffffff1673ffffffffffffffffffffffffffffffffffffffff16815260200190815260200160002060000160009054906101000a900473ffffffffffffffffffffffffffffffffffffffff1673ffffffffffffffffffffffffffffffffffffffff161415610e69576000600160008373ffffffffffffffffffffffffffffffffffffffff1673ffffffffffffffffffffffffffffffffffffffff1681526020019081526020016000209050818160000160006101000a81548173ffffffffffffffffffffffffffffffffffffffff021916908373ffffffffffffffffffffffffffffffffffffffff1602179055506000829080600181540180825580915050600190039060005260206000200160009091909190916101000a81548173ffffffffffffffffffffffffffffffffffffffff021916908373ffffffffffffffffffffffffffffffffffffffff160217905550505b50565b610e7884848484613e14565b6000600485604051610e8a9190615c2c565b90815260200160405180910390206003015490506000600486604051610eb09190615c2c565b908152602001604051809103902060040154905060008461ffff1683610ed691906163e3565b905060008282610ee69190616353565b905080341015610f2b576040517f08c379a0000000000000000000000000000000000000000000000000000000008152600401610f229061604e565b60405180910390fd5b6000600489604051610f3d9190615c2c565b908152602001604051809103902060010160009054906101000a900473ffffffffffffffffffffffffffffffffffffffff169050610f7d898989896141b2565b81341115610fde5760008890508073ffffffffffffffffffffffffffffffffffffffff166108fc8434610fb0919061647b565b9081150290604051600060405180830381858888f19350505050158015610fdb573d6000803e3d6000fd5b50505b60008190508073ffffffffffffffffffffffffffffffffffffffff166108fc859081150290604051600060405180830381858888f19350505050158015611029573d6000803e3d6000fd5b507fe85b6202f15dfae39a54e501b5e65cbcc44a996fb8d14f843c7cb8e16fd49c7460405160405180910390a150505050505050505050565b6060600073ffffffffffffffffffffffffffffffffffffffff168373ffffffffffffffffffffffffffffffffffffffff1614156110d4576040517f08c379a00000000000000000000000000000000000000000000000000000000081526004016110cb90615e6e565b60405180910390fd5b6000600160008573ffffffffffffffffffffffffffffffffffffffff1673ffffffffffffffffffffffffffffffffffffffff1681526020019081526020016000209050600073ffffffffffffffffffffffffffffffffffffffff168160000160009054906101000a900473ffffffffffffffffffffffffffffffffffffffff1673ffffffffffffffffffffffffffffffffffffffff1614156111ab576040517f08c379a00000000000000000000000000000000000000000000000000000000081526004016111a29061612e565b60405180910390fd5b806004018054905083106111f4576040517f08c379a00000000000000000000000000000000000000000000000000000000081526004016111eb90615eae565b60405180910390fd5b80600401838154811061120a576112096166b0565b5b90600052602060002001805461121f90616577565b80601f016020809104026020016040519081016040528092919081815260200182805461124b90616577565b80156112985780601f1061126d57610100808354040283529160200191611298565b820191906000526020600020905b81548152906001019060200180831161127b57829003601f168201915b505050505091505092915050565b6003818051602081018201805184825260208301602085012081835280955050505050506000915090508060000180546112df90616577565b80601f016020809104026020016040519081016040528092919081815260200182805461130b90616577565b80156113585780601f1061132d57610100808354040283529160200191611358565b820191906000526020600020905b81548152906001019060200180831161133b57829003601f168201915b5050505050908060010160009054906101000a900473ffffffffffffffffffffffffffffffffffffffff16908060020160009054906101000a900473ffffffffffffffffffffffffffffffffffffffff16908060030154908060040180546113bf90616577565b80601f01602080910402602001604051908101604052809291908181526020018280546113eb90616577565b80156114385780601f1061140d57610100808354040283529160200191611438565b820191906000526020600020905b81548152906001019060200180831161141b57829003601f168201915b50505050509080600501805461144d90616577565b80601f016020809104026020016040519081016040528092919081815260200182805461147990616577565b80156114c65780601f1061149b576101008083540402835291602001916114c6565b820191906000526020600020905b8154815290600101906020018083116114a957829003601f168201915b5050505050905086565b60048180516020810182018051848252602083016020850120818352809550505050505060009150905080600001805461150990616577565b80601f016020809104026020016040519081016040528092919081815260200182805461153590616577565b80156115825780601f1061155757610100808354040283529160200191611582565b820191906000526020600020905b81548152906001019060200180831161156557829003601f168201915b5050505050908060010160009054906101000a900473ffffffffffffffffffffffffffffffffffffffff16908060020160009054906101000a900473ffffffffffffffffffffffffffffffffffffffff16908060020160149054906101000a900463ffffffff16908060030154908060040154905086565b600047905090565b61160a614ebb565b600073ffffffffffffffffffffffffffffffffffffffff168373ffffffffffffffffffffffffffffffffffffffff16141561167a576040517f08c379a000000000000000000000000000000000000000000000000000000000815260040161167190615e6e565b60405180910390fd5b6000600160008573ffffffffffffffffffffffffffffffffffffffff1673ffffffffffffffffffffffffffffffffffffffff1681526020019081526020016000209050600073ffffffffffffffffffffffffffffffffffffffff168160000160009054906101000a900473ffffffffffffffffffffffffffffffffffffffff1673ffffffffffffffffffffffffffffffffffffffff161415611751576040517f08c379a00000000000000000000000000000000000000000000000000000000081526004016117489061612e565b60405180910390fd5b600073ffffffffffffffffffffffffffffffffffffffff16816003018460405161177b9190615c2c565b908152602001604051809103902060020160009054906101000a900473ffffffffffffffffffffffffffffffffffffffff1673ffffffffffffffffffffffffffffffffffffffff161415611804576040517f08c379a00000000000000000000000000000000000000000000000000000000081526004016117fb90615fae565b60405180910390fd5b80600301836040516118169190615c2c565b90815260200160405180910390206040518060a001604052908160008201805461183f90616577565b80601f016020809104026020016040519081016040528092919081815260200182805461186b90616577565b80156118b85780601f1061188d576101008083540402835291602001916118b8565b820191906000526020600020905b81548152906001019060200180831161189b57829003601f168201915b505050505081526020016001820160009054906101000a900473ffffffffffffffffffffffffffffffffffffffff1673ffffffffffffffffffffffffffffffffffffffff1673ffffffffffffffffffffffffffffffffffffffff1681526020016002820160009054906101000a900473ffffffffffffffffffffffffffffffffffffffff1673ffffffffffffffffffffffffffffffffffffffff1673ffffffffffffffffffffffffffffffffffffffff1681526020016002820160149054906101000a900461ffff1661ffff1661ffff1681526020016002820160169054906101000a900463ffffffff1663ffffffff1663ffffffff168152505091505092915050565b6005818051602081018201805184825260208301602085012081835280955050505050506000915090508060000180546119f590616577565b80601f0160208091040260200160405190810160405280929190818152602001828054611a2190616577565b8015611a6e5780601f10611a4357610100808354040283529160200191611a6e565b820191906000526020600020905b815481529060010190602001808311611a5157829003601f168201915b5050505050908060010160009054906101000a900473ffffffffffffffffffffffffffffffffffffffff16908060020160009054906101000a900473ffffffffffffffffffffffffffffffffffffffff16908060020160149054906101000a900461ffff16908060020160169054906101000a900463ffffffff16905085565b6060600073ffffffffffffffffffffffffffffffffffffffff168373ffffffffffffffffffffffffffffffffffffffff161415611b60576040517f08c379a0000000000000000000000000000000000000000000000000000000008152600401611b5790615e6e565b60405180910390fd5b6000600160008573ffffffffffffffffffffffffffffffffffffffff1673ffffffffffffffffffffffffffffffffffffffff1681526020019081526020016000209050600073ffffffffffffffffffffffffffffffffffffffff168160000160009054906101000a900473ffffffffffffffffffffffffffffffffffffffff1673ffffffffffffffffffffffffffffffffffffffff161415611c37576040517f08c379a0000000000000000000000000000000000000000000000000000000008152600401611c2e9061612e565b60405180910390fd5b80600201805490508310611c80576040517f08c379a0000000000000000000000000000000000000000000000000000000008152600401611c7790615eae565b60405180910390fd5b806002018381548110611c9657611c956166b0565b5b906000526020600020018054611cab90616577565b80601f0160208091040260200160405190810160405280929190818152602001828054611cd790616577565b8015611d245780601f10611cf957610100808354040283529160200191611d24565b820191906000526020600020905b815481529060010190602001808311611d0757829003601f168201915b505050505091505092915050565b8373ffffffffffffffffffffffffffffffffffffffff163373ffffffffffffffffffffffffffffffffffffffff1614611da0576040517f08c379a0000000000000000000000000000000000000000000000000000000008152600401611d9790615fce565b60405180910390fd5b600073ffffffffffffffffffffffffffffffffffffffff16600160008673ffffffffffffffffffffffffffffffffffffffff1673ffffffffffffffffffffffffffffffffffffffff16815260200190815260200160002060000160009054906101000a900473ffffffffffffffffffffffffffffffffffffffff1673ffffffffffffffffffffffffffffffffffffffff161415611e72576040517f08c379a0000000000000000000000000000000000000000000000000000000008152600401611e699061602e565b60405180910390fd5b600073ffffffffffffffffffffffffffffffffffffffff1660038b604051611e9a9190615c2c565b908152602001604051809103902060020160009054906101000a900473ffffffffffffffffffffffffffffffffffffffff1673ffffffffffffffffffffffffffffffffffffffff1614611f22576040517f08c379a0000000000000000000000000000000000000000000000000000000008152600401611f1990615e2e565b60405180910390fd5b600073ffffffffffffffffffffffffffffffffffffffff1660048b604051611f4a9190615c2c565b908152602001604051809103902060010160009054906101000a900473ffffffffffffffffffffffffffffffffffffffff1673ffffffffffffffffffffffffffffffffffffffff1614611fd2576040517f08c379a0000000000000000000000000000000000000000000000000000000008152600401611fc990615e2e565b60405180910390fd5b8373ffffffffffffffffffffffffffffffffffffffff168973ffffffffffffffffffffffffffffffffffffffff1614612040576040517f08c379a000000000000000000000000000000000000000000000000000000000815260040161203790615e8e565b60405180910390fd5b428363ffffffff1611612088576040517f08c379a000000000000000000000000000000000000000000000000000000000815260040161207f90615f6e565b60405180910390fd5b60006040518060c001604052808c81526020018b73ffffffffffffffffffffffffffffffffffffffff1681526020018a73ffffffffffffffffffffffffffffffffffffffff1681526020018981526020018881526020018781525090508060038c6040516120f69190615c2c565b90815260200160405180910390206000820151816000019080519060200190612120929190614e35565b5060208201518160010160006101000a81548173ffffffffffffffffffffffffffffffffffffffff021916908373ffffffffffffffffffffffffffffffffffffffff16021790555060408201518160020160006101000a81548173ffffffffffffffffffffffffffffffffffffffff021916908373ffffffffffffffffffffffffffffffffffffffff1602179055506060820151816003015560808201518160040190805190602001906121d5929190614e35565b5060a08201518160050190805190602001906121f2929190614e35565b509050506122038b868686866148f9565b5050505050505050505050565b60606002805480602002602001604051908101604052809291908181526020016000905b828210156122e057838290600052602060002001805461225390616577565b80601f016020809104026020016040519081016040528092919081815260200182805461227f90616577565b80156122cc5780601f106122a1576101008083540402835291602001916122cc565b820191906000526020600020905b8154815290600101906020018083116122af57829003601f168201915b505050505081526020019060010190612234565b50505050905090565b6122f1614f20565b600073ffffffffffffffffffffffffffffffffffffffff168373ffffffffffffffffffffffffffffffffffffffff161415612361576040517f08c379a000000000000000000000000000000000000000000000000000000000815260040161235890615e6e565b60405180910390fd5b6000600160008573ffffffffffffffffffffffffffffffffffffffff1673ffffffffffffffffffffffffffffffffffffffff1681526020019081526020016000209050600073ffffffffffffffffffffffffffffffffffffffff168160000160009054906101000a900473ffffffffffffffffffffffffffffffffffffffff1673ffffffffffffffffffffffffffffffffffffffff161415612438576040517f08c379a000000000000000000000000000000000000000000000000000000000815260040161242f9061612e565b60405180910390fd5b600073ffffffffffffffffffffffffffffffffffffffff1681600101846040516124629190615c2c565b908152602001604051809103902060010160009054906101000a900473ffffffffffffffffffffffffffffffffffffffff1673ffffffffffffffffffffffffffffffffffffffff1614156124eb576040517f08c379a00000000000000000000000000000000000000000000000000000000081526004016124e29061614e565b60405180910390fd5b80600101836040516124fd9190615c2c565b90815260200160405180910390206040518060c001604052908160008201805461252690616577565b80601f016020809104026020016040519081016040528092919081815260200182805461255290616577565b801561259f5780601f106125745761010080835404028352916020019161259f565b820191906000526020600020905b81548152906001019060200180831161258257829003601f168201915b505050505081526020016001820160009054906101000a900473ffffffffffffffffffffffffffffffffffffffff1673ffffffffffffffffffffffffffffffffffffffff1673ffffffffffffffffffffffffffffffffffffffff1681526020016002820160009054906101000a900473ffffffffffffffffffffffffffffffffffffffff1673ffffffffffffffffffffffffffffffffffffffff1673ffffffffffffffffffffffffffffffffffffffff1681526020016002820160149054906101000a900463ffffffff1663ffffffff1663ffffffff1681526020016003820154815260200160048201548152505091505092915050565b6000600160003373ffffffffffffffffffffffffffffffffffffffff1673ffffffffffffffffffffffffffffffffffffffff1681526020019081526020016000209050600073ffffffffffffffffffffffffffffffffffffffff168160000160009054906101000a900473ffffffffffffffffffffffffffffffffffffffff1673ffffffffffffffffffffffffffffffffffffffff16141561276e576040517f08c379a00000000000000000000000000000000000000000000000000000000081526004016127659061612e565b60405180910390fd5b60006003836040516127809190615c2c565b90815260200160405180910390209050600073ffffffffffffffffffffffffffffffffffffffff168160020160009054906101000a900473ffffffffffffffffffffffffffffffffffffffff1673ffffffffffffffffffffffffffffffffffffffff161415612824576040517f08c379a000000000000000000000000000000000000000000000000000000000815260040161281b90615eee565b60405180910390fd5b60006004846040516128369190615c2c565b90815260200160405180910390209050600073ffffffffffffffffffffffffffffffffffffffff168160010160009054906101000a900473ffffffffffffffffffffffffffffffffffffffff1673ffffffffffffffffffffffffffffffffffffffff1614156128da576040517f08c379a00000000000000000000000000000000000000000000000000000000081526004016128d190615ece565b60405180910390fd5b600073ffffffffffffffffffffffffffffffffffffffff168160020160009054906101000a900473ffffffffffffffffffffffffffffffffffffffff1673ffffffffffffffffffffffffffffffffffffffff161461296d576040517f08c379a000000000000000000000000000000000000000000000000000000000815260040161296490615ece565b60405180910390fd5b3373ffffffffffffffffffffffffffffffffffffffff168160010160009054906101000a900473ffffffffffffffffffffffffffffffffffffffff1673ffffffffffffffffffffffffffffffffffffffff16146129ff576040517f08c379a00000000000000000000000000000000000000000000000000000000081526004016129f690615f2e565b60405180910390fd5b3373ffffffffffffffffffffffffffffffffffffffff168360010185604051612a289190615c2c565b908152602001604051809103902060010160009054906101000a900473ffffffffffffffffffffffffffffffffffffffff1673ffffffffffffffffffffffffffffffffffffffff1614612ab0576040517f08c379a0000000000000000000000000000000000000000000000000000000008152600401612aa790615f0e565b60405180910390fd5b6000612abb85614c61565b9050612ac681614d10565b600485604051612ad69190615c2c565b908152602001604051809103902060008082016000612af59190614df5565b6001820160006101000a81549073ffffffffffffffffffffffffffffffffffffffff02191690556002820160006101000a81549073ffffffffffffffffffffffffffffffffffffffff02191690556002820160146101000a81549063ffffffff0219169055600382016000905560048201600090555050600385604051612b7c9190615c2c565b908152602001604051809103902060008082016000612b9b9190614df5565b6001820160006101000a81549073ffffffffffffffffffffffffffffffffffffffff02191690556002820160006101000a81549073ffffffffffffffffffffffffffffffffffffffff02191690556003820160009055600482016000612c019190614df5565b600582016000612c119190614df5565b50506000612c1f8686613c70565b9050612c2b8186613d24565b8460010186604051612c3d9190615c2c565b908152602001604051809103902060008082016000612c5c9190614df5565b6001820160006101000a81549073ffffffffffffffffffffffffffffffffffffffff02191690556002820160006101000a81549073ffffffffffffffffffffffffffffffffffffffff02191690556002820160146101000a81549063ffffffff02191690556003820160009055600482016000905550507fe0306ce2bcb4de1bd06e23b7f715b3fdf3ab2c75402eb54e99bd333eb89c8f8960405160405180910390a1505050505050565b6000600160003373ffffffffffffffffffffffffffffffffffffffff1673ffffffffffffffffffffffffffffffffffffffff1681526020019081526020016000209050600073ffffffffffffffffffffffffffffffffffffffff168160000160009054906101000a900473ffffffffffffffffffffffffffffffffffffffff1673ffffffffffffffffffffffffffffffffffffffff161415612dde576040517f08c379a0000000000000000000000000000000000000000000000000000000008152600401612dd590615fee565b60405180910390fd5b6000600383604051612df09190615c2c565b90815260200160405180910390209050600073ffffffffffffffffffffffffffffffffffffffff168160020160009054906101000a900473ffffffffffffffffffffffffffffffffffffffff1673ffffffffffffffffffffffffffffffffffffffff161415612e94576040517f08c379a0000000000000000000000000000000000000000000000000000000008152600401612e8b90615eee565b60405180910390fd5b6000600484604051612ea69190615c2c565b90815260200160405180910390209050600073ffffffffffffffffffffffffffffffffffffffff168160010160009054906101000a900473ffffffffffffffffffffffffffffffffffffffff1673ffffffffffffffffffffffffffffffffffffffff1614612f49576040517f08c379a0000000000000000000000000000000000000000000000000000000008152600401612f409061608e565b60405180910390fd5b6000600585604051612f5b9190615c2c565b90815260200160405180910390209050600073ffffffffffffffffffffffffffffffffffffffff168160020160009054906101000a900473ffffffffffffffffffffffffffffffffffffffff1673ffffffffffffffffffffffffffffffffffffffff161415612fff576040517f08c379a0000000000000000000000000000000000000000000000000000000008152600401612ff69061608e565b60405180910390fd5b6000600160008360020160009054906101000a900473ffffffffffffffffffffffffffffffffffffffff1673ffffffffffffffffffffffffffffffffffffffff1673ffffffffffffffffffffffffffffffffffffffff1681526020019081526020016000209050600073ffffffffffffffffffffffffffffffffffffffff168160000160009054906101000a900473ffffffffffffffffffffffffffffffffffffffff1673ffffffffffffffffffffffffffffffffffffffff1614156130fa576040517f08c379a00000000000000000000000000000000000000000000000000000000081526004016130f19061616e565b60405180910390fd5b6000856001018760405161310e9190615c2c565b908152602001604051809103902090503373ffffffffffffffffffffffffffffffffffffffff168160010160009054906101000a900473ffffffffffffffffffffffffffffffffffffffff1673ffffffffffffffffffffffffffffffffffffffff16146131b0576040517f08c379a00000000000000000000000000000000000000000000000000000000081526004016131a790615f0e565b60405180910390fd5b60008360020160169054906101000a900463ffffffff1663ffffffff16905060008460020160149054906101000a900461ffff1661ffff169050600062015180826131fb919061643d565b63ffffffff168361320c9190616353565b9050428110613250576040517f08c379a0000000000000000000000000000000000000000000000000000000008152600401613247906160ee565b60405180910390fd5b60008460040154905060058b6040516132699190615c2c565b9081526020016040518091039020600080820160006132889190614df5565b6001820160006101000a81549073ffffffffffffffffffffffffffffffffffffffff02191690556002820160006101000a81549073ffffffffffffffffffffffffffffffffffffffff02191690556002820160146101000a81549061ffff02191690556002820160166101000a81549063ffffffff0219169055505060038b6040516133149190615c2c565b9081526020016040518091039020600080820160006133339190614df5565b6001820160006101000a81549073ffffffffffffffffffffffffffffffffffffffff02191690556002820160006101000a81549073ffffffffffffffffffffffffffffffffffffffff021916905560038201600090556004820160006133999190614df5565b6005820160006133a99190614df5565b505060006133b78c8c613c70565b90506133c3818c613d24565b8a6001018c6040516133d59190615c2c565b9081526020016040518091039020600080820160006133f49190614df5565b6001820160006101000a81549073ffffffffffffffffffffffffffffffffffffffff02191690556002820160006101000a81549073ffffffffffffffffffffffffffffffffffffffff02191690556002820160146101000a81549063ffffffff021916905560038201600090556004820160009055505060006134778d89613acc565b90506134838189613b80565b876003018d6040516134959190615c2c565b9081526020016040518091039020600080820160006134b49190614df5565b6001820160006101000a81549073ffffffffffffffffffffffffffffffffffffffff02191690556002820160006101000a81549073ffffffffffffffffffffffffffffffffffffffff02191690556002820160146101000a81549061ffff02191690556002820160166101000a81549063ffffffff0219169055505060008c60000160009054906101000a900473ffffffffffffffffffffffffffffffffffffffff1690508073ffffffffffffffffffffffffffffffffffffffff166108fc859081150290604051600060405180830381858888f1935050505015801561359f573d6000803e3d6000fd5b507f19d743eeac3391625f97989fda0986e3b231edcea866ff523edc642b6a9a6e6860405160405180910390a15050505050505050505050505050565b60016020528060005260406000206000915090508060000160009054906101000a900473ffffffffffffffffffffffffffffffffffffffff16905081565b6000600160003373ffffffffffffffffffffffffffffffffffffffff1673ffffffffffffffffffffffffffffffffffffffff1681526020019081526020016000209050600073ffffffffffffffffffffffffffffffffffffffff168160000160009054906101000a900473ffffffffffffffffffffffffffffffffffffffff1673ffffffffffffffffffffffffffffffffffffffff1614156136f1576040517f08c379a00000000000000000000000000000000000000000000000000000000081526004016136e89061612e565b60405180910390fd5b60006003836040516137039190615c2c565b90815260200160405180910390209050600073ffffffffffffffffffffffffffffffffffffffff168160020160009054906101000a900473ffffffffffffffffffffffffffffffffffffffff1673ffffffffffffffffffffffffffffffffffffffff1614156137a7576040517f08c379a000000000000000000000000000000000000000000000000000000000815260040161379e90615eee565b60405180910390fd5b60006004846040516137b99190615c2c565b90815260200160405180910390209050600073ffffffffffffffffffffffffffffffffffffffff168160010160009054906101000a900473ffffffffffffffffffffffffffffffffffffffff1673ffffffffffffffffffffffffffffffffffffffff161461385c576040517f08c379a00000000000000000000000000000000000000000000000000000000081526004016138539061608e565b60405180910390fd5b600060058560405161386e9190615c2c565b90815260200160405180910390209050600073ffffffffffffffffffffffffffffffffffffffff168160020160009054906101000a900473ffffffffffffffffffffffffffffffffffffffff1673ffffffffffffffffffffffffffffffffffffffff161415613912576040517f08c379a00000000000000000000000000000000000000000000000000000000081526004016139099061608e565b60405180910390fd5b6000600160008360010160009054906101000a900473ffffffffffffffffffffffffffffffffffffffff1673ffffffffffffffffffffffffffffffffffffffff1673ffffffffffffffffffffffffffffffffffffffff1681526020019081526020016000209050600073ffffffffffffffffffffffffffffffffffffffff168160000160009054906101000a900473ffffffffffffffffffffffffffffffffffffffff1673ffffffffffffffffffffffffffffffffffffffff161415613a0d576040517f08c379a0000000000000000000000000000000000000000000000000000000008152600401613a0490615fee565b60405180910390fd5b60008560030187604051613a219190615c2c565b908152602001604051809103902090503373ffffffffffffffffffffffffffffffffffffffff168160020160009054906101000a900473ffffffffffffffffffffffffffffffffffffffff1673ffffffffffffffffffffffffffffffffffffffff1614613ac3576040517f08c379a0000000000000000000000000000000000000000000000000000000008152600401613aba9061610e565b60405180910390fd5b50505050505050565b6000808260040180549050905060005b81811015613b7457836004018181548110613afa57613af96166b0565b5b90600052602060002001604051602001613b149190615c43565b6040516020818303038152906040528051906020012085604051602001613b3b9190615c2c565b604051602081830303815290604052805190602001201415613b61578092505050613b7a565b8080613b6c906165da565b915050613adc565b50809150505b92915050565b80600401805490508210613bc9576040517f08c379a0000000000000000000000000000000000000000000000000000000008152600401613bc0906160ce565b60405180910390fd5b600060018260040180549050613bdf919061647b565b9050816004018181548110613bf757613bf66166b0565b5b90600052602060002001826004018481548110613c1757613c166166b0565b5b90600052602060002001908054613c2d90616577565b613c38929190614f88565b5081600401805480613c4d57613c4c616681565b5b600190038181906000526020600020016000613c699190614df5565b9055505050565b6000808260020180549050905060005b81811015613d1857836002018181548110613c9e57613c9d6166b0565b5b90600052602060002001604051602001613cb89190615c43565b6040516020818303038152906040528051906020012085604051602001613cdf9190615c2c565b604051602081830303815290604052805190602001201415613d05578092505050613d1e565b8080613d10906165da565b915050613c80565b50809150505b92915050565b80600201805490508210613d6d576040517f08c379a0000000000000000000000000000000000000000000000000000000008152600401613d64906160ce565b60405180910390fd5b600060018260020180549050613d83919061647b565b9050816002018181548110613d9b57613d9a6166b0565b5b90600052602060002001826002018481548110613dbb57613dba6166b0565b5b90600052602060002001908054613dd190616577565b613ddc929190614f88565b5081600201805480613df157613df0616681565b5b600190038181906000526020600020016000613e0d9190614df5565b9055505050565b8273ffffffffffffffffffffffffffffffffffffffff163373ffffffffffffffffffffffffffffffffffffffff1614613e82576040517f08c379a0000000000000000000000000000000000000000000000000000000008152600401613e799061606e565b60405180910390fd5b600073ffffffffffffffffffffffffffffffffffffffff16600160008573ffffffffffffffffffffffffffffffffffffffff1673ffffffffffffffffffffffffffffffffffffffff16815260200190815260200160002060000160009054906101000a900473ffffffffffffffffffffffffffffffffffffffff1673ffffffffffffffffffffffffffffffffffffffff161415613f54576040517f08c379a0000000000000000000000000000000000000000000000000000000008152600401613f4b9061602e565b60405180910390fd5b6000600385604051613f669190615c2c565b90815260200160405180910390209050600073ffffffffffffffffffffffffffffffffffffffff168160020160009054906101000a900473ffffffffffffffffffffffffffffffffffffffff1673ffffffffffffffffffffffffffffffffffffffff16141561400a576040517f08c379a000000000000000000000000000000000000000000000000000000000815260040161400190615f8e565b60405180910390fd5b600073ffffffffffffffffffffffffffffffffffffffff166004866040516140329190615c2c565b908152602001604051809103902060010160009054906101000a900473ffffffffffffffffffffffffffffffffffffffff1673ffffffffffffffffffffffffffffffffffffffff1614156140bb576040517f08c379a00000000000000000000000000000000000000000000000000000000081526004016140b290615f8e565b60405180910390fd5b428263ffffffff1610614103576040517f08c379a00000000000000000000000000000000000000000000000000000000081526004016140fa90615f6e565b60405180910390fd5b6000620151808461ffff16614118919061643d565b8361412391906163a9565b905060006004876040516141379190615c2c565b908152602001604051809103902060020160149054906101000a900463ffffffff1690508063ffffffff168263ffffffff16106141a9576040517f08c379a00000000000000000000000000000000000000000000000000000000081526004016141a09061600e565b60405180910390fd5b50505050505050565b60006004856040516141c49190615c2c565b908152602001604051809103902060010160009054906101000a900473ffffffffffffffffffffffffffffffffffffffff1690508373ffffffffffffffffffffffffffffffffffffffff168173ffffffffffffffffffffffffffffffffffffffff161415614267576040517f08c379a000000000000000000000000000000000000000000000000000000000815260040161425e90615e4e565b60405180910390fd5b6000600160008373ffffffffffffffffffffffffffffffffffffffff1673ffffffffffffffffffffffffffffffffffffffff1681526020019081526020016000209050600073ffffffffffffffffffffffffffffffffffffffff1681600101876040516142d49190615c2c565b908152602001604051809103902060020160009054906101000a900473ffffffffffffffffffffffffffffffffffffffff1673ffffffffffffffffffffffffffffffffffffffff161461435c576040517f08c379a000000000000000000000000000000000000000000000000000000000815260040161435390615f4e565b60405180910390fd5b84816001018760405161436f9190615c2c565b908152602001604051809103902060020160006101000a81548173ffffffffffffffffffffffffffffffffffffffff021916908373ffffffffffffffffffffffffffffffffffffffff16021790555060006040518060a001604052808881526020018473ffffffffffffffffffffffffffffffffffffffff1681526020018773ffffffffffffffffffffffffffffffffffffffff1681526020018661ffff1681526020018563ffffffff1681525090506000600160008873ffffffffffffffffffffffffffffffffffffffff1673ffffffffffffffffffffffffffffffffffffffff1681526020019081526020016000209050600073ffffffffffffffffffffffffffffffffffffffff16816003018960405161448c9190615c2c565b908152602001604051809103902060020160009054906101000a900473ffffffffffffffffffffffffffffffffffffffff1673ffffffffffffffffffffffffffffffffffffffff1614614514576040517f08c379a000000000000000000000000000000000000000000000000000000000815260040161450b9061618e565b60405180910390fd5b8181600301896040516145279190615c2c565b90815260200160405180910390206000820151816000019080519060200190614551929190614e35565b5060208201518160010160006101000a81548173ffffffffffffffffffffffffffffffffffffffff021916908373ffffffffffffffffffffffffffffffffffffffff16021790555060408201518160020160006101000a81548173ffffffffffffffffffffffffffffffffffffffff021916908373ffffffffffffffffffffffffffffffffffffffff16021790555060608201518160020160146101000a81548161ffff021916908361ffff16021790555060808201518160020160166101000a81548163ffffffff021916908363ffffffff160217905550905050806004018890806001815401808255809150506001900390600052602060002001600090919091909150908051906020019061466a929190614e35565b50600073ffffffffffffffffffffffffffffffffffffffff166005896040516146939190615c2c565b908152602001604051809103902060020160009054906101000a900473ffffffffffffffffffffffffffffffffffffffff1673ffffffffffffffffffffffffffffffffffffffff161461471b576040517f08c379a00000000000000000000000000000000000000000000000000000000081526004016147129061618e565b60405180910390fd5b8160058960405161472c9190615c2c565b90815260200160405180910390206000820151816000019080519060200190614756929190614e35565b5060208201518160010160006101000a81548173ffffffffffffffffffffffffffffffffffffffff021916908373ffffffffffffffffffffffffffffffffffffffff16021790555060408201518160020160006101000a81548173ffffffffffffffffffffffffffffffffffffffff021916908373ffffffffffffffffffffffffffffffffffffffff16021790555060608201518160020160146101000a81548161ffff021916908361ffff16021790555060808201518160020160166101000a81548163ffffffff021916908363ffffffff160217905550905050600061483d89614c61565b905061484881614d10565b6004896040516148589190615c2c565b9081526020016040518091039020600080820160006148779190614df5565b6001820160006101000a81549073ffffffffffffffffffffffffffffffffffffffff02191690556002820160006101000a81549073ffffffffffffffffffffffffffffffffffffffff02191690556002820160146101000a81549063ffffffff0219169055600382016000905560048201600090555050505050505050505050565b60006040518060c001604052808781526020018673ffffffffffffffffffffffffffffffffffffffff168152602001600073ffffffffffffffffffffffffffffffffffffffff1681526020018563ffffffff1681526020018481526020018381525090506000600160008773ffffffffffffffffffffffffffffffffffffffff1673ffffffffffffffffffffffffffffffffffffffff16815260200190815260200160002090508181600101886040516149b39190615c2c565b908152602001604051809103902060008201518160000190805190602001906149dd929190614e35565b5060208201518160010160006101000a81548173ffffffffffffffffffffffffffffffffffffffff021916908373ffffffffffffffffffffffffffffffffffffffff16021790555060408201518160020160006101000a81548173ffffffffffffffffffffffffffffffffffffffff021916908373ffffffffffffffffffffffffffffffffffffffff16021790555060608201518160020160146101000a81548163ffffffff021916908363ffffffff1602179055506080820151816003015560a082015181600401559050508060020187908060018154018082558091505060019003906000526020600020016000909190919091509080519060200190614ae7929190614e35565b5081600488604051614af99190615c2c565b90815260200160405180910390206000820151816000019080519060200190614b23929190614e35565b5060208201518160010160006101000a81548173ffffffffffffffffffffffffffffffffffffffff021916908373ffffffffffffffffffffffffffffffffffffffff16021790555060408201518160020160006101000a81548173ffffffffffffffffffffffffffffffffffffffff021916908373ffffffffffffffffffffffffffffffffffffffff16021790555060608201518160020160146101000a81548163ffffffff021916908363ffffffff1602179055506080820151816003015560a08201518160040155905050600287908060018154018082558091505060019003906000526020600020016000909190919091509080519060200190614c2b929190614e35565b507fdb8317522294099fa9360f57f5f2c8178138bbeb092f99c41ada4fefc39fbe5e60405160405180910390a150505050505050565b600080600280549050905060005b81811015614d055760028181548110614c8b57614c8a6166b0565b5b90600052602060002001604051602001614ca59190615c43565b6040516020818303038152906040528051906020012084604051602001614ccc9190615c2c565b604051602081830303815290604052805190602001201415614cf2578092505050614d0b565b8080614cfd906165da565b915050614c6f565b50809150505b919050565b6002805490508110614d57576040517f08c379a0000000000000000000000000000000000000000000000000000000008152600401614d4e906160ce565b60405180910390fd5b60006001600280549050614d6b919061647b565b905060028181548110614d8157614d806166b0565b5b9060005260206000200160028381548110614d9f57614d9e6166b0565b5b90600052602060002001908054614db590616577565b614dc0929190614f88565b506002805480614dd357614dd2616681565b5b600190038181906000526020600020016000614def9190614df5565b90555050565b508054614e0190616577565b6000825580601f10614e135750614e32565b601f016020900490600052602060002090810190614e319190615015565b5b50565b828054614e4190616577565b90600052602060002090601f016020900481019282614e635760008555614eaa565b82601f10614e7c57805160ff1916838001178555614eaa565b82800160010185558215614eaa579182015b82811115614ea9578251825591602001919060010190614e8e565b5b509050614eb79190615015565b5090565b6040518060a0016040528060608152602001600073ffffffffffffffffffffffffffffffffffffffff168152602001600073ffffffffffffffffffffffffffffffffffffffff168152602001600061ffff168152602001600063ffffffff1681525090565b6040518060c0016040528060608152602001600073ffffffffffffffffffffffffffffffffffffffff168152602001600073ffffffffffffffffffffffffffffffffffffffff168152602001600063ffffffff16815260200160008152602001600081525090565b828054614f9490616577565b90600052602060002090601f016020900481019282614fb65760008555615004565b82601f10614fc75780548555615004565b8280016001018555821561500457600052602060002091601f016020900482015b82811115615003578254825591600101919060010190614fe8565b5b5090506150119190615015565b5090565b5b8082111561502e576000816000905550600101615016565b5090565b600061504561504084616232565b61620d565b90508281526020810184848401111561506157615060616713565b5b61506c848285616535565b509392505050565b600061508761508284616263565b61620d565b9050828152602081018484840111156150a3576150a2616713565b5b6150ae848285616535565b509392505050565b6000813590506150c581616e35565b92915050565b600082601f8301126150e0576150df61670e565b5b81356150f0848260208601615032565b91505092915050565b600082601f83011261510e5761510d61670e565b5b813561511e848260208601615074565b91505092915050565b60008135905061513681616e4c565b92915050565b60008135905061514b81616e63565b92915050565b60008135905061516081616e7a565b92915050565b60006020828403121561517c5761517b61671d565b5b600061518a848285016150b6565b91505092915050565b600080600080608085870312156151ad576151ac61671d565b5b60006151bb878288016150b6565b94505060206151cc878288016150b6565b93505060406151dd8782880161513c565b925050606085013567ffffffffffffffff8111156151fe576151fd616718565b5b61520a878288016150cb565b91505092959194509250565b6000806040838503121561522d5761522c61671d565b5b600061523b858286016150b6565b925050602083013567ffffffffffffffff81111561525c5761525b616718565b5b615268858286016150f9565b9150509250929050565b600080604083850312156152895761528861671d565b5b6000615297858286016150b6565b92505060206152a88582860161513c565b9150509250929050565b6000602082840312156152c8576152c761671d565b5b600082013567ffffffffffffffff8111156152e6576152e5616718565b5b6152f2848285016150f9565b91505092915050565b6000806000806000806000806000806101408b8d03121561531f5761531e61671d565b5b60008b013567ffffffffffffffff81111561533d5761533c616718565b5b6153498d828e016150f9565b9a5050602061535a8d828e016150b6565b995050604061536b8d828e016150b6565b985050606061537c8d828e0161513c565b97505060808b013567ffffffffffffffff81111561539d5761539c616718565b5b6153a98d828e016150f9565b96505060a08b013567ffffffffffffffff8111156153ca576153c9616718565b5b6153d68d828e016150f9565b95505060c06153e78d828e016150b6565b94505060e06153f88d828e01615151565b93505061010061540a8d828e0161513c565b92505061012061541c8d828e0161513c565b9150509295989b9194979a5092959850565b600080600080608085870312156154485761544761671d565b5b600085013567ffffffffffffffff81111561546657615465616718565b5b615472878288016150f9565b9450506020615483878288016150b6565b935050604061549487828801615127565b92505060606154a587828801615151565b91505092959194509250565b60006154bd83836154dd565b60208301905092915050565b60006154d583836155dd565b905092915050565b6154e6816164af565b82525050565b6154f5816164af565b82525050565b6000615506826162c9565b6155108185616304565b935061551b83616294565b8060005b8381101561554c57815161553388826154b1565b975061553e836162ea565b92505060018101905061551f565b5085935050505092915050565b6000615564826162d4565b61556e8185616315565b935083602082028501615580856162a4565b8060005b858110156155bc578484038952815161559d85826154c9565b94506155a8836162f7565b925060208a01995050600181019050615584565b50829750879550505050505092915050565b6155d7816164c1565b82525050565b60006155e8826162df565b6155f28185616326565b9350615602818560208601616544565b61560b81616722565b840191505092915050565b6000615621826162df565b61562b8185616337565b935061563b818560208601616544565b61564481616722565b840191505092915050565b600061565a826162df565b6156648185616348565b9350615674818560208601616544565b80840191505092915050565b6000815461568d81616577565b6156978186616348565b945060018216600081146156b257600181146156c3576156f6565b60ff198316865281860193506156f6565b6156cc856162b4565b60005b838110156156ee578154818901526001820191506020810190506156cf565b838801955050505b50505092915050565b600061570c602483616337565b915061571782616733565b604082019050919050565b600061572f603483616337565b915061573a82616782565b604082019050919050565b6000615752600f83616337565b915061575d826167d1565b602082019050919050565b6000615775600d83616337565b9150615780826167fa565b602082019050919050565b6000615798602583616337565b91506157a382616823565b604082019050919050565b60006157bb601583616337565b91506157c682616872565b602082019050919050565b60006157de601483616337565b91506157e98261689b565b602082019050919050565b6000615801602883616337565b915061580c826168c4565b604082019050919050565b6000615824602283616337565b915061582f82616913565b604082019050919050565b6000615847602283616337565b915061585282616962565b604082019050919050565b600061586a600f83616337565b9150615875826169b1565b602082019050919050565b600061588d602083616337565b9150615898826169da565b602082019050919050565b60006158b0602683616337565b91506158bb82616a03565b604082019050919050565b60006158d3601d83616337565b91506158de82616a52565b602082019050919050565b60006158f6601583616337565b915061590182616a7b565b602082019050919050565b6000615919604183616337565b915061592482616aa4565b606082019050919050565b600061593c601383616337565b915061594782616b19565b602082019050919050565b600061595f602a83616337565b915061596a82616b42565b604082019050919050565b6000615982602d83616337565b915061598d82616b91565b604082019050919050565b60006159a5601183616337565b91506159b082616be0565b602082019050919050565b60006159c8602883616337565b91506159d382616c09565b604082019050919050565b60006159eb602d83616337565b91506159f682616c58565b604082019050919050565b6000615a0e602b83616337565b9150615a1982616ca7565b604082019050919050565b6000615a31602883616337565b9150615a3c82616cf6565b604082019050919050565b6000615a54601483616337565b9150615a5f82616d45565b602082019050919050565b6000615a77602683616337565b9150615a8282616d6e565b604082019050919050565b6000615a9a601783616337565b9150615aa582616dbd565b602082019050919050565b6000615abd602a83616337565b9150615ac882616de6565b604082019050919050565b600060c0830160008301518482036000860152615af082826155dd565b9150506020830151615b0560208601826154dd565b506040830151615b1860408601826154dd565b506060830151615b2b6060860182615c0e565b506080830151615b3e6080860182615bf0565b5060a0830151615b5160a0860182615bf0565b508091505092915050565b600060a0830160008301518482036000860152615b7982826155dd565b9150506020830151615b8e60208601826154dd565b506040830151615ba160408601826154dd565b506060830151615bb46060860182615bd2565b506080830151615bc76080860182615c0e565b508091505092915050565b615bdb816164ed565b82525050565b615bea816164ed565b82525050565b615bf98161651b565b82525050565b615c088161651b565b82525050565b615c1781616525565b82525050565b615c2681616525565b82525050565b6000615c38828461564f565b915081905092915050565b6000615c4f8284615680565b915081905092915050565b6000602082019050615c6f60008301846154ec565b92915050565b60006020820190508181036000830152615c8f81846154fb565b905092915050565b60006020820190508181036000830152615cb18184615559565b905092915050565b6000602082019050615cce60008301846155ce565b92915050565b60006020820190508181036000830152615cee8184615616565b905092915050565b600060a0820190508181036000830152615d108188615616565b9050615d1f60208301876154ec565b615d2c60408301866154ec565b615d396060830185615be1565b615d466080830184615c1d565b9695505050505050565b600060c0820190508181036000830152615d6a8189615616565b9050615d7960208301886154ec565b615d8660408301876154ec565b615d936060830186615bff565b8181036080830152615da58185615616565b905081810360a0830152615db98184615616565b9050979650505050505050565b600060c0820190508181036000830152615de08189615616565b9050615def60208301886154ec565b615dfc60408301876154ec565b615e096060830186615c1d565b615e166080830185615bff565b615e2360a0830184615bff565b979650505050505050565b60006020820190508181036000830152615e47816156ff565b9050919050565b60006020820190508181036000830152615e6781615722565b9050919050565b60006020820190508181036000830152615e8781615745565b9050919050565b60006020820190508181036000830152615ea781615768565b9050919050565b60006020820190508181036000830152615ec78161578b565b9050919050565b60006020820190508181036000830152615ee7816157ae565b9050919050565b60006020820190508181036000830152615f07816157d1565b9050919050565b60006020820190508181036000830152615f27816157f4565b9050919050565b60006020820190508181036000830152615f4781615817565b9050919050565b60006020820190508181036000830152615f678161583a565b9050919050565b60006020820190508181036000830152615f878161585d565b9050919050565b60006020820190508181036000830152615fa781615880565b9050919050565b60006020820190508181036000830152615fc7816158a3565b9050919050565b60006020820190508181036000830152615fe7816158c6565b9050919050565b60006020820190508181036000830152616007816158e9565b9050919050565b600060208201905081810360008301526160278161590c565b9050919050565b600060208201905081810360008301526160478161592f565b9050919050565b6000602082019050818103600083015261606781615952565b9050919050565b6000602082019050818103600083015261608781615975565b9050919050565b600060208201905081810360008301526160a781615998565b9050919050565b600060208201905081810360008301526160c7816159bb565b9050919050565b600060208201905081810360008301526160e7816159de565b9050919050565b6000602082019050818103600083015261610781615a01565b9050919050565b6000602082019050818103600083015261612781615a24565b9050919050565b6000602082019050818103600083015261614781615a47565b9050919050565b6000602082019050818103600083015261616781615a6a565b9050919050565b6000602082019050818103600083015261618781615a8d565b9050919050565b600060208201905081810360008301526161a781615ab0565b9050919050565b600060208201905081810360008301526161c88184615ad3565b905092915050565b600060208201905081810360008301526161ea8184615b5c565b905092915050565b60006020820190506162076000830184615bff565b92915050565b6000616217616228565b905061622382826165a9565b919050565b6000604051905090565b600067ffffffffffffffff82111561624d5761624c6166df565b5b61625682616722565b9050602081019050919050565b600067ffffffffffffffff82111561627e5761627d6166df565b5b61628782616722565b9050602081019050919050565b6000819050602082019050919050565b6000819050602082019050919050565b60008190508160005260206000209050919050565b600081519050919050565b600081519050919050565b600081519050919050565b6000602082019050919050565b6000602082019050919050565b600082825260208201905092915050565b600082825260208201905092915050565b600082825260208201905092915050565b600082825260208201905092915050565b600081905092915050565b600061635e8261651b565b91506163698361651b565b9250827fffffffffffffffffffffffffffffffffffffffffffffffffffffffffffffffff0382111561639e5761639d616623565b5b828201905092915050565b60006163b482616525565b91506163bf83616525565b92508263ffffffff038211156163d8576163d7616623565b5b828201905092915050565b60006163ee8261651b565b91506163f98361651b565b9250817fffffffffffffffffffffffffffffffffffffffffffffffffffffffffffffffff048311821515161561643257616431616623565b5b828202905092915050565b600061644882616525565b915061645383616525565b92508163ffffffff04831182151516156164705761646f616623565b5b828202905092915050565b60006164868261651b565b91506164918361651b565b9250828210156164a4576164a3616623565b5b828203905092915050565b60006164ba826164fb565b9050919050565b60007fffffffff0000000000000000000000000000000000000000000000000000000082169050919050565b600061ffff82169050919050565b600073ffffffffffffffffffffffffffffffffffffffff82169050919050565b6000819050919050565b600063ffffffff82169050919050565b82818337600083830152505050565b60005b83811015616562578082015181840152602081019050616547565b83811115616571576000848401525b50505050565b6000600282049050600182168061658f57607f821691505b602082108114156165a3576165a2616652565b5b50919050565b6165b282616722565b810181811067ffffffffffffffff821117156165d1576165d06166df565b5b80604052505050565b60006165e58261651b565b91507fffffffffffffffffffffffffffffffffffffffffffffffffffffffffffffffff82141561661857616617616623565b5b600182019050919050565b7f4e487b7100000000000000000000000000000000000000000000000000000000600052601160045260246000fd5b7f4e487b7100000000000000000000000000000000000000000000000000000000600052602260045260246000fd5b7f4e487b7100000000000000000000000000000000000000000000000000000000600052603160045260246000fd5b7f4e487b7100000000000000000000000000000000000000000000000000000000600052603260045260246000fd5b7f4e487b7100000000000000000000000000000000000000000000000000000000600052604160045260246000fd5b600080fd5b600080fd5b600080fd5b600080fd5b6000601f19601f8301169050919050565b7f4e465420697320616c726561647920617661696c61626c6520666f722072656e60008201527f74696e6700000000000000000000000000000000000000000000000000000000602082015250565b7f426f72726f77657220616464726573732063616e27742062652074686520736160008201527f6d65206173206c656e6465722061646472657373000000000000000000000000602082015250565b7f496e76616c696420616464726573730000000000000000000000000000000000600082015250565b7f4e6f6e204e4654204f776e657200000000000000000000000000000000000000600082015250565b7f4e66742061742074686520676976656e20696e64657820646f6573206e6f742060008201527f6578697374000000000000000000000000000000000000000000000000000000602082015250565b7f4e465420697320616c72656164792072656e7465640000000000000000000000600082015250565b7f4e4654206973206e6f7420617661696c61626c65000000000000000000000000600082015250565b7f5573657220646f6573206e6f74206861766520616e792073756368204e46547360008201527f206173206c656e64000000000000000000000000000000000000000000000000602082015250565b7f43616e27742073746f70206c656e6420736f6d656f6e6520656c73652773204e60008201527f4654000000000000000000000000000000000000000000000000000000000000602082015250565b7f4e465420616c72656164792072656e74656420627920736f6d656f6e6520656c60008201527f7365000000000000000000000000000000000000000000000000000000000000602082015250565b7f4261642074696d6520626f756e64730000000000000000000000000000000000600082015250565b7f4e4654206973206e6f7420617661696c61626c6520666f722072656e74696e67600082015250565b7f5573657220646f6573206e6f74206861766520616e7920737563682072656e7460008201527f6564204e66740000000000000000000000000000000000000000000000000000602082015250565b7f43616e2774206c656e6420736f6d656f6e6520656c73652773204e4654000000600082015250565b7f4c656e64657220646f6573206e6f742065786973740000000000000000000000600082015250565b7f43616e27742072656e74204e465420666f72206d6f7265207468616e20616d6f60008201527f756e74206f662074696d6520617661696c61626c6520666f722072656e74696e60208201527f6700000000000000000000000000000000000000000000000000000000000000604082015250565b7f5573657220646f6573206e6f7420657869737400000000000000000000000000600082015250565b7f43616e27742072656e74204e465420617320696e73756666696369656e74206160008201527f6d6f756e74207061696400000000000000000000000000000000000000000000602082015250565b7f43616e277420626f72726f77204e465420666f7220616e6f7468657220626f7260008201527f726f776572206164647265737300000000000000000000000000000000000000602082015250565b7f4e4654206973206e6f742072656e746564000000000000000000000000000000600082015250565b7f4f6e6c792074686520757365722063616e2061646420686973206163636f756e60008201527f7420746f20617070000000000000000000000000000000000000000000000000602082015250565b7f4e6674206b6579206e6f7420617661696c61626c6520696e207468652061707060008201527f2072656e74696e67206c69737400000000000000000000000000000000000000602082015250565b7f43616e277420636c61696d20636f6c6c61746572616c2074696c6c2072656e7460008201527f656420656e642074696d65000000000000000000000000000000000000000000602082015250565b7f5573657220646f6573206e6f74206861766520616e792073756368204e46547360008201527f2061732072656e74000000000000000000000000000000000000000000000000602082015250565b7f5573657220646f6573206e6f7420657869737473000000000000000000000000600082015250565b7f5573657220646f6573206e6f74206861766520616e792073756368206c656e6460008201527f6564204e66740000000000000000000000000000000000000000000000000000602082015250565b7f426f72726f77657220646f6573206e6f74206578697374000000000000000000600082015250565b7f4e667420697320616c72656164792070726573656e7420696e2075736572207260008201527f656e746564204e66747300000000000000000000000000000000000000000000602082015250565b616e3e816164af565b8114616e4957600080fd5b50565b616e55816164ed565b8114616e6057600080fd5b50565b616e6c8161651b565b8114616e7757600080fd5b50565b616e8381616525565b8114616e8e57600080fd5b5056fea2646970667358221220783a1928121fff5efcfb3541632bb7a320413547870b47fd1f543faae0870e5364736f6c63430008050033",
  "linkReferences": {},
  "deployedLinkReferences": {}
}