{
  "_format": "hh-sol-artifact-1",
  "contractName": "NFTRental",
  "sourceName": "contracts/NFTRental.sol",
  "abi": [
    {
      "anonymous": false,
      "inputs": [],
      "name": "NFTLended",
      "type": "event"
    },
    {
      "inputs": [
        {
          "internalType": "string",
          "name": "_nftKey",
          "type": "string"
        },
        {
          "internalType": "address",
          "name": "_nftOwner",
          "type": "address"
        },
        {
          "internalType": "address",
          "name": "_nftAddress",
          "type": "address"
        },
        {
          "internalType": "uint256",
          "name": "_nftId",
          "type": "uint256"
        },
        {
          "internalType": "uint32",
          "name": "_wishlistCount",
          "type": "uint32"
        },
        {
          "internalType": "string",
          "name": "_nftName",
          "type": "string"
        },
        {
          "internalType": "string",
          "name": "_nftImageURL",
          "type": "string"
        },
        {
          "internalType": "address",
          "name": "_lenderAddress",
          "type": "address"
        },
        {
          "internalType": "uint32",
          "name": "_dueDate",
          "type": "uint32"
        },
        {
          "internalType": "uint256",
          "name": "_dailyRent",
          "type": "uint256"
        },
        {
          "internalType": "uint256",
          "name": "_collateral",
          "type": "uint256"
        }
      ],
      "name": "addNFTToLend",
      "outputs": [],
      "stateMutability": "nonpayable",
      "type": "function"
    },
    {
      "inputs": [
        {
          "internalType": "address",
          "name": "_userAddress",
          "type": "address"
        }
      ],
      "name": "addUser",
      "outputs": [],
      "stateMutability": "nonpayable",
      "type": "function"
    },
    {
      "inputs": [
        {
          "internalType": "address",
          "name": "",
          "type": "address"
        }
      ],
      "name": "addressToUser",
      "outputs": [
        {
          "internalType": "address",
          "name": "userAddress",
          "type": "address"
        },
        {
          "internalType": "uint32",
          "name": "userLendedNftsSize",
          "type": "uint32"
        },
        {
          "internalType": "uint32",
          "name": "userRentedNftsSize",
          "type": "uint32"
        },
        {
          "internalType": "uint32",
          "name": "userWishListSize",
          "type": "uint32"
        }
      ],
      "stateMutability": "view",
      "type": "function"
    },
    {
      "inputs": [],
      "name": "getUserAddressList",
      "outputs": [
        {
          "internalType": "address[]",
          "name": "",
          "type": "address[]"
        }
      ],
      "stateMutability": "view",
      "type": "function"
    }
  ],
  "bytecode": "0x608060405234801561001057600080fd5b506111de806100206000396000f3fe608060405234801561001057600080fd5b506004361061004c5760003560e01c8063213f44ab14610051578063421b2d8b1461006f57806364afd6741461008b578063edf53886146100a7575b600080fd5b6100596100da565b6040516100669190610d4b565b60405180910390f35b61008960048036038101906100849190610a1a565b610168565b005b6100a560048036038101906100a09190610a47565b6102c1565b005b6100c160048036038101906100bc9190610a1a565b61062c565b6040516100d19493929190610d06565b60405180910390f35b6060600280548060200260200160405190810160405280929190818152602001828054801561015e57602002820191906000526020600020905b8160009054906101000a900473ffffffffffffffffffffffffffffffffffffffff1673ffffffffffffffffffffffffffffffffffffffff1681526020019060010190808311610114575b5050505050905090565b6000600360008373ffffffffffffffffffffffffffffffffffffffff1673ffffffffffffffffffffffffffffffffffffffff1681526020019081526020016000209050818160000160006101000a81548173ffffffffffffffffffffffffffffffffffffffff021916908373ffffffffffffffffffffffffffffffffffffffff16021790555060008160020160006101000a81548163ffffffff021916908363ffffffff16021790555060008160040160006101000a81548163ffffffff021916908363ffffffff16021790555060008160060160006101000a81548163ffffffff021916908363ffffffff1602179055506002829080600181540180825580915050600190039060005260206000200160009091909190916101000a81548173ffffffffffffffffffffffffffffffffffffffff021916908373ffffffffffffffffffffffffffffffffffffffff1602179055505050565b600073ffffffffffffffffffffffffffffffffffffffff1660018c6040516102e99190610cef565b908152602001604051809103902060020160009054906101000a900473ffffffffffffffffffffffffffffffffffffffff1673ffffffffffffffffffffffffffffffffffffffff1614610371576040517f08c379a000000000000000000000000000000000000000000000000000000000815260040161036890610d6d565b60405180910390fd5b8373ffffffffffffffffffffffffffffffffffffffff168a73ffffffffffffffffffffffffffffffffffffffff16146103df576040517f08c379a00000000000000000000000000000000000000000000000000000000081526004016103d690610d8d565b60405180910390fd5b428363ffffffff1611610427576040517f08c379a000000000000000000000000000000000000000000000000000000000815260040161041e90610dad565b60405180910390fd5b60008763ffffffff1614610470576040517f08c379a000000000000000000000000000000000000000000000000000000000815260040161046790610dcd565b60405180910390fd5b60006040518060e001604052808d81526020018c73ffffffffffffffffffffffffffffffffffffffff1681526020018b73ffffffffffffffffffffffffffffffffffffffff1681526020018a81526020018963ffffffff1681526020018881526020018781525090508060018d6040516104ea9190610cef565b908152602001604051809103902060008201518160000190805190602001906105149291906108c8565b5060208201518160010160006101000a81548173ffffffffffffffffffffffffffffffffffffffff021916908373ffffffffffffffffffffffffffffffffffffffff16021790555060408201518160020160006101000a81548173ffffffffffffffffffffffffffffffffffffffff021916908373ffffffffffffffffffffffffffffffffffffffff1602179055506060820151816003015560808201518160040160006101000a81548163ffffffff021916908363ffffffff16021790555060a08201518160050190805190602001906105f09291906108c8565b5060c082015181600601908051906020019061060d9291906108c8565b5090505061061e8c868686866106ac565b505050505050505050505050565b60036020528060005260406000206000915090508060000160009054906101000a900473ffffffffffffffffffffffffffffffffffffffff16908060020160009054906101000a900463ffffffff16908060040160009054906101000a900463ffffffff16908060060160009054906101000a900463ffffffff16905084565b60006040518060a001604052808781526020018673ffffffffffffffffffffffffffffffffffffffff1681526020018563ffffffff1681526020018481526020018381525090506000600360008773ffffffffffffffffffffffffffffffffffffffff1673ffffffffffffffffffffffffffffffffffffffff168152602001908152602001600020905060008160020160009054906101000a900463ffffffff169050828260010160008363ffffffff1663ffffffff168152602001908152602001600020600082015181600001908051906020019061078d9291906108c8565b5060208201518160010160006101000a81548173ffffffffffffffffffffffffffffffffffffffff021916908373ffffffffffffffffffffffffffffffffffffffff16021790555060408201518160010160146101000a81548163ffffffff021916908363ffffffff160217905550606082015181600201556080820151816003015590505081600201600081819054906101000a900463ffffffff168092919061083790610f94565b91906101000a81548163ffffffff021916908363ffffffff160217905550506000889080600181540180825580915050600190039060005260206000200160009091909190915090805190602001906108919291906108c8565b507fdb8317522294099fa9360f57f5f2c8178138bbeb092f99c41ada4fefc39fbe5e60405160405180910390a15050505050505050565b8280546108d490610f31565b90600052602060002090601f0160209004810192826108f6576000855561093d565b82601f1061090f57805160ff191683800117855561093d565b8280016001018555821561093d579182015b8281111561093c578251825591602001919060010190610921565b5b50905061094a919061094e565b5090565b5b8082111561096757600081600090555060010161094f565b5090565b600061097e61097984610e12565b610ded565b90508281526020810184848401111561099a57610999611053565b5b6109a5848285610eef565b509392505050565b6000813590506109bc81611163565b92915050565b600082601f8301126109d7576109d661104e565b5b81356109e784826020860161096b565b91505092915050565b6000813590506109ff8161117a565b92915050565b600081359050610a1481611191565b92915050565b600060208284031215610a3057610a2f61105d565b5b6000610a3e848285016109ad565b91505092915050565b60008060008060008060008060008060006101608c8e031215610a6d57610a6c61105d565b5b60008c013567ffffffffffffffff811115610a8b57610a8a611058565b5b610a978e828f016109c2565b9b50506020610aa88e828f016109ad565b9a50506040610ab98e828f016109ad565b9950506060610aca8e828f016109f0565b9850506080610adb8e828f01610a05565b97505060a08c013567ffffffffffffffff811115610afc57610afb611058565b5b610b088e828f016109c2565b96505060c08c013567ffffffffffffffff811115610b2957610b28611058565b5b610b358e828f016109c2565b95505060e0610b468e828f016109ad565b945050610100610b588e828f01610a05565b935050610120610b6a8e828f016109f0565b925050610140610b7c8e828f016109f0565b9150509295989b509295989b9093969950565b6000610b9b8383610ba7565b60208301905092915050565b610bb081610ea3565b82525050565b610bbf81610ea3565b82525050565b6000610bd082610e53565b610bda8185610e76565b9350610be583610e43565b8060005b83811015610c16578151610bfd8882610b8f565b9750610c0883610e69565b925050600181019050610be9565b5085935050505092915050565b6000610c2e82610e5e565b610c388185610e98565b9350610c48818560208601610efe565b80840191505092915050565b6000610c61602483610e87565b9150610c6c82611073565b604082019050919050565b6000610c84600d83610e87565b9150610c8f826110c2565b602082019050919050565b6000610ca7600f83610e87565b9150610cb2826110eb565b602082019050919050565b6000610cca602a83610e87565b9150610cd582611114565b604082019050919050565b610ce981610edf565b82525050565b6000610cfb8284610c23565b915081905092915050565b6000608082019050610d1b6000830187610bb6565b610d286020830186610ce0565b610d356040830185610ce0565b610d426060830184610ce0565b95945050505050565b60006020820190508181036000830152610d658184610bc5565b905092915050565b60006020820190508181036000830152610d8681610c54565b9050919050565b60006020820190508181036000830152610da681610c77565b9050919050565b60006020820190508181036000830152610dc681610c9a565b9050919050565b60006020820190508181036000830152610de681610cbd565b9050919050565b6000610df7610e08565b9050610e038282610f63565b919050565b6000604051905090565b600067ffffffffffffffff821115610e2d57610e2c61101f565b5b610e3682611062565b9050602081019050919050565b6000819050602082019050919050565b600081519050919050565b600081519050919050565b6000602082019050919050565b600082825260208201905092915050565b600082825260208201905092915050565b600081905092915050565b6000610eae82610eb5565b9050919050565b600073ffffffffffffffffffffffffffffffffffffffff82169050919050565b6000819050919050565b600063ffffffff82169050919050565b82818337600083830152505050565b60005b83811015610f1c578082015181840152602081019050610f01565b83811115610f2b576000848401525b50505050565b60006002820490506001821680610f4957607f821691505b60208210811415610f5d57610f5c610ff0565b5b50919050565b610f6c82611062565b810181811067ffffffffffffffff82111715610f8b57610f8a61101f565b5b80604052505050565b6000610f9f82610edf565b915063ffffffff821415610fb657610fb5610fc1565b5b600182019050919050565b7f4e487b7100000000000000000000000000000000000000000000000000000000600052601160045260246000fd5b7f4e487b7100000000000000000000000000000000000000000000000000000000600052602260045260246000fd5b7f4e487b7100000000000000000000000000000000000000000000000000000000600052604160045260246000fd5b600080fd5b600080fd5b600080fd5b600080fd5b6000601f19601f8301169050919050565b7f4e465420697320616c726561647920617661696c61626c6520666f722072656e60008201527f74696e6700000000000000000000000000000000000000000000000000000000602082015250565b7f4e6f6e204e4654204f776e657200000000000000000000000000000000000000600082015250565b7f4261642074696d6520626f756e64730000000000000000000000000000000000600082015250565b7f4e6577204e46542063616e277420626520696e20616e7920757365727320776960008201527f73686c6973742079657400000000000000000000000000000000000000000000602082015250565b61116c81610ea3565b811461117757600080fd5b50565b61118381610ed5565b811461118e57600080fd5b50565b61119a81610edf565b81146111a557600080fd5b5056fea2646970667358221220d5e7214d884324e367588b4b424ec7a8c46b287fca2ec227f1da5b8d47dff65e64736f6c63430008050033",
  "linkReferences": {},
  "deployedLinkReferences": {}
}