{
  "_format": "hh-sol-artifact-1",
  "contractName": "NFTRental",
  "sourceName": "contracts/NFTRental.sol",
  "abi": [
    {
      "anonymous": false,
      "inputs": [],
      "name": "NFTLended",
      "type": "event"
    },
    {
      "anonymous": false,
      "inputs": [],
      "name": "NFTRented",
      "type": "event"
    },
    {
      "inputs": [
        {
          "internalType": "string",
          "name": "_nftKey",
          "type": "string"
        },
        {
          "internalType": "address",
          "name": "_nftOwner",
          "type": "address"
        },
        {
          "internalType": "address",
          "name": "_nftAddress",
          "type": "address"
        },
        {
          "internalType": "uint256",
          "name": "_nftId",
          "type": "uint256"
        },
        {
          "internalType": "uint32",
          "name": "_wishlistCount",
          "type": "uint32"
        },
        {
          "internalType": "string",
          "name": "_nftName",
          "type": "string"
        },
        {
          "internalType": "string",
          "name": "_nftImageURL",
          "type": "string"
        },
        {
          "internalType": "address",
          "name": "_lenderAddress",
          "type": "address"
        },
        {
          "internalType": "uint32",
          "name": "_dueDate",
          "type": "uint32"
        },
        {
          "internalType": "uint256",
          "name": "_dailyRent",
          "type": "uint256"
        },
        {
          "internalType": "uint256",
          "name": "_collateral",
          "type": "uint256"
        }
      ],
      "name": "addNFTToLend",
      "outputs": [],
      "stateMutability": "payable",
      "type": "function"
    },
    {
      "inputs": [
        {
          "internalType": "address",
          "name": "_userAddress",
          "type": "address"
        }
      ],
      "name": "addUser",
      "outputs": [],
      "stateMutability": "nonpayable",
      "type": "function"
    },
    {
      "inputs": [
        {
          "internalType": "address",
          "name": "",
          "type": "address"
        }
      ],
      "name": "addressToUser",
      "outputs": [
        {
          "internalType": "address",
          "name": "userAddress",
          "type": "address"
        },
        {
          "internalType": "uint32",
          "name": "userLendedNftsSize",
          "type": "uint32"
        },
        {
          "internalType": "uint32",
          "name": "userRentedNftsSize",
          "type": "uint32"
        },
        {
          "internalType": "uint32",
          "name": "userWishlistSize",
          "type": "uint32"
        }
      ],
      "stateMutability": "view",
      "type": "function"
    },
    {
      "inputs": [],
      "name": "getNftKeysListAvaiableForRent",
      "outputs": [
        {
          "internalType": "string[]",
          "name": "",
          "type": "string[]"
        }
      ],
      "stateMutability": "view",
      "type": "function"
    },
    {
      "inputs": [],
      "name": "getUserAddressList",
      "outputs": [
        {
          "internalType": "address[]",
          "name": "",
          "type": "address[]"
        }
      ],
      "stateMutability": "view",
      "type": "function"
    },
    {
      "inputs": [
        {
          "internalType": "address",
          "name": "_userAddress",
          "type": "address"
        },
        {
          "internalType": "uint32",
          "name": "_index",
          "type": "uint32"
        }
      ],
      "name": "getUserLendedNFTDetails",
      "outputs": [
        {
          "components": [
            {
              "internalType": "string",
              "name": "nftKey",
              "type": "string"
            },
            {
              "internalType": "address",
              "name": "lenderAddress",
              "type": "address"
            },
            {
              "internalType": "address",
              "name": "borrowerAddress",
              "type": "address"
            },
            {
              "internalType": "uint32",
              "name": "dueDate",
              "type": "uint32"
            },
            {
              "internalType": "uint256",
              "name": "dailyRent",
              "type": "uint256"
            },
            {
              "internalType": "uint256",
              "name": "collateral",
              "type": "uint256"
            }
          ],
          "internalType": "struct NFTRental.lendedNFT",
          "name": "",
          "type": "tuple"
        }
      ],
      "stateMutability": "view",
      "type": "function"
    },
    {
      "inputs": [
        {
          "internalType": "string",
          "name": "",
          "type": "string"
        }
      ],
      "name": "nftKeyToLendedNftDetails",
      "outputs": [
        {
          "internalType": "string",
          "name": "nftKey",
          "type": "string"
        },
        {
          "internalType": "address",
          "name": "lenderAddress",
          "type": "address"
        },
        {
          "internalType": "address",
          "name": "borrowerAddress",
          "type": "address"
        },
        {
          "internalType": "uint32",
          "name": "dueDate",
          "type": "uint32"
        },
        {
          "internalType": "uint256",
          "name": "dailyRent",
          "type": "uint256"
        },
        {
          "internalType": "uint256",
          "name": "collateral",
          "type": "uint256"
        }
      ],
      "stateMutability": "view",
      "type": "function"
    },
    {
      "inputs": [
        {
          "internalType": "string",
          "name": "",
          "type": "string"
        }
      ],
      "name": "nftKeyToNftProps",
      "outputs": [
        {
          "internalType": "string",
          "name": "nftKey",
          "type": "string"
        },
        {
          "internalType": "address",
          "name": "nftOwner",
          "type": "address"
        },
        {
          "internalType": "address",
          "name": "nftAddress",
          "type": "address"
        },
        {
          "internalType": "uint256",
          "name": "nftId",
          "type": "uint256"
        },
        {
          "internalType": "uint32",
          "name": "wishlistCount",
          "type": "uint32"
        },
        {
          "internalType": "string",
          "name": "nftName",
          "type": "string"
        },
        {
          "internalType": "string",
          "name": "nftImageURL",
          "type": "string"
        }
      ],
      "stateMutability": "view",
      "type": "function"
    },
    {
      "inputs": [
        {
          "internalType": "string",
          "name": "_nftKey",
          "type": "string"
        },
        {
          "internalType": "address",
          "name": "_borrowerAddress",
          "type": "address"
        },
        {
          "internalType": "uint16",
          "name": "_numberOfDays",
          "type": "uint16"
        },
        {
          "internalType": "uint32",
          "name": "_rentalStartTime",
          "type": "uint32"
        }
      ],
      "name": "rentNft",
      "outputs": [],
      "stateMutability": "payable",
      "type": "function"
    }
  ],
  "bytecode": "0x608060405234801561001057600080fd5b50613089806100206000396000f3fe6080604052600436106100865760003560e01c806364afd6741161005957806364afd6741461013e578063657ed37d1461015a578063dc4ace8c1461019c578063eb3439cc146101c7578063edf538861461020457610086565b8063213f44ab1461008b578063421b2d8b146100b6578063423fdefb146100df5780635289f68a146100fb575b600080fd5b34801561009757600080fd5b506100a0610244565b6040516100ad919061252f565b60405180910390f35b3480156100c257600080fd5b506100dd60048036038101906100d89190611de3565b6102d2565b005b6100f960048036038101906100f49190611fe1565b6105a1565b005b34801561010757600080fd5b50610122600480360381019061011d9190611e50565b610b10565b6040516101359796959493929190612573565b60405180910390f35b61015860048036038101906101539190611e99565b610d50565b005b34801561016657600080fd5b50610181600480360381019061017c9190611e50565b6112ab565b604051610193969594939291906125f7565b60405180910390f35b3480156101a857600080fd5b506101b16113d5565b6040516101be9190612551565b60405180910390f35b3480156101d357600080fd5b506101ee60048036038101906101e99190611e10565b6114ae565b6040516101fb919061281f565b60405180910390f35b34801561021057600080fd5b5061022b60048036038101906102269190611de3565b61180c565b60405161023b94939291906124ea565b60405180910390f35b606060008054806020026020016040519081016040528092919081815260200182805480156102c857602002820191906000526020600020905b8160009054906101000a900473ffffffffffffffffffffffffffffffffffffffff1673ffffffffffffffffffffffffffffffffffffffff168152602001906001019080831161027e575b5050505050905090565b600073ffffffffffffffffffffffffffffffffffffffff168173ffffffffffffffffffffffffffffffffffffffff161415610342576040517f08c379a00000000000000000000000000000000000000000000000000000000081526004016103399061267f565b60405180910390fd5b8073ffffffffffffffffffffffffffffffffffffffff163373ffffffffffffffffffffffffffffffffffffffff16146103b0576040517f08c379a00000000000000000000000000000000000000000000000000000000081526004016103a7906127df565b60405180910390fd5b600073ffffffffffffffffffffffffffffffffffffffff16600160008373ffffffffffffffffffffffffffffffffffffffff1673ffffffffffffffffffffffffffffffffffffffff16815260200190815260200160002060000160009054906101000a900473ffffffffffffffffffffffffffffffffffffffff1673ffffffffffffffffffffffffffffffffffffffff16141561059e576000600160008373ffffffffffffffffffffffffffffffffffffffff1673ffffffffffffffffffffffffffffffffffffffff1681526020019081526020016000209050818160000160006101000a81548173ffffffffffffffffffffffffffffffffffffffff021916908373ffffffffffffffffffffffffffffffffffffffff16021790555060008160020160006101000a81548163ffffffff021916908363ffffffff16021790555060008160040160006101000a81548163ffffffff021916908363ffffffff16021790555060008160060160006101000a81548163ffffffff021916908363ffffffff1602179055506000829080600181540180825580915050600190039060005260206000200160009091909190916101000a81548173ffffffffffffffffffffffffffffffffffffffff021916908373ffffffffffffffffffffffffffffffffffffffff160217905550505b50565b8273ffffffffffffffffffffffffffffffffffffffff163373ffffffffffffffffffffffffffffffffffffffff161461060f576040517f08c379a0000000000000000000000000000000000000000000000000000000008152600401610606906127bf565b60405180910390fd5b600073ffffffffffffffffffffffffffffffffffffffff16600160008573ffffffffffffffffffffffffffffffffffffffff1673ffffffffffffffffffffffffffffffffffffffff16815260200190815260200160002060000160009054906101000a900473ffffffffffffffffffffffffffffffffffffffff1673ffffffffffffffffffffffffffffffffffffffff1614156106e1576040517f08c379a00000000000000000000000000000000000000000000000000000000081526004016106d89061277f565b60405180910390fd5b600073ffffffffffffffffffffffffffffffffffffffff1660038560405161070991906124d3565b908152602001604051809103902060020160009054906101000a900473ffffffffffffffffffffffffffffffffffffffff1673ffffffffffffffffffffffffffffffffffffffff161415610792576040517f08c379a00000000000000000000000000000000000000000000000000000000081526004016107899061271f565b60405180910390fd5b600073ffffffffffffffffffffffffffffffffffffffff166004856040516107ba91906124d3565b908152602001604051809103902060010160009054906101000a900473ffffffffffffffffffffffffffffffffffffffff1673ffffffffffffffffffffffffffffffffffffffff161415610843576040517f08c379a000000000000000000000000000000000000000000000000000000000815260040161083a9061271f565b60405180910390fd5b428163ffffffff161061088b576040517f08c379a0000000000000000000000000000000000000000000000000000000008152600401610882906126df565b60405180910390fd5b6000620151808361ffff166108a091906129d1565b62ffffff16826108b09190612997565b905060006004866040516108c491906124d3565b908152602001604051809103902060020160149054906101000a900463ffffffff1690508063ffffffff168263ffffffff1610610936576040517f08c379a000000000000000000000000000000000000000000000000000000000815260040161092d9061275f565b60405180910390fd5b600060048760405161094891906124d3565b9081526020016040518091039020600301549050600060048860405161096e91906124d3565b908152602001604051809103902060040154905060008661ffff16836109949190612a0e565b9050600082826109a49190612941565b9050803410156109e9576040517f08c379a00000000000000000000000000000000000000000000000000000000081526004016109e09061279f565b60405180910390fd5b80341115610a4a5760008990508073ffffffffffffffffffffffffffffffffffffffff166108fc8334610a1c9190612a68565b9081150290604051600060405180830381858888f19350505050158015610a47573d6000803e3d6000fd5b50505b600060048b604051610a5c91906124d3565b908152602001604051809103902060010160009054906101000a900473ffffffffffffffffffffffffffffffffffffffff1690508073ffffffffffffffffffffffffffffffffffffffff166108fc849081150290604051600060405180830381858888f19350505050158015610ad6573d6000803e3d6000fd5b507fe85b6202f15dfae39a54e501b5e65cbcc44a996fb8d14f843c7cb8e16fd49c7460405160405180910390a15050505050505050505050565b600381805160208101820180518482526020830160208501208183528095505050505050600091509050806000018054610b4990612b47565b80601f0160208091040260200160405190810160405280929190818152602001828054610b7590612b47565b8015610bc25780601f10610b9757610100808354040283529160200191610bc2565b820191906000526020600020905b815481529060010190602001808311610ba557829003601f168201915b5050505050908060010160009054906101000a900473ffffffffffffffffffffffffffffffffffffffff16908060020160009054906101000a900473ffffffffffffffffffffffffffffffffffffffff16908060030154908060040160009054906101000a900463ffffffff1690806005018054610c3f90612b47565b80601f0160208091040260200160405190810160405280929190818152602001828054610c6b90612b47565b8015610cb85780601f10610c8d57610100808354040283529160200191610cb8565b820191906000526020600020905b815481529060010190602001808311610c9b57829003601f168201915b505050505090806006018054610ccd90612b47565b80601f0160208091040260200160405190810160405280929190818152602001828054610cf990612b47565b8015610d465780601f10610d1b57610100808354040283529160200191610d46565b820191906000526020600020905b815481529060010190602001808311610d2957829003601f168201915b5050505050905087565b8373ffffffffffffffffffffffffffffffffffffffff163373ffffffffffffffffffffffffffffffffffffffff1614610dbe576040517f08c379a0000000000000000000000000000000000000000000000000000000008152600401610db59061273f565b60405180910390fd5b600073ffffffffffffffffffffffffffffffffffffffff16600160008673ffffffffffffffffffffffffffffffffffffffff1673ffffffffffffffffffffffffffffffffffffffff16815260200190815260200160002060000160009054906101000a900473ffffffffffffffffffffffffffffffffffffffff1673ffffffffffffffffffffffffffffffffffffffff161415610e90576040517f08c379a0000000000000000000000000000000000000000000000000000000008152600401610e879061277f565b60405180910390fd5b600073ffffffffffffffffffffffffffffffffffffffff1660038c604051610eb891906124d3565b908152602001604051809103902060020160009054906101000a900473ffffffffffffffffffffffffffffffffffffffff1673ffffffffffffffffffffffffffffffffffffffff1614610f40576040517f08c379a0000000000000000000000000000000000000000000000000000000008152600401610f379061265f565b60405180910390fd5b600073ffffffffffffffffffffffffffffffffffffffff1660048c604051610f6891906124d3565b908152602001604051809103902060010160009054906101000a900473ffffffffffffffffffffffffffffffffffffffff1673ffffffffffffffffffffffffffffffffffffffff1614610ff0576040517f08c379a0000000000000000000000000000000000000000000000000000000008152600401610fe79061265f565b60405180910390fd5b8373ffffffffffffffffffffffffffffffffffffffff168a73ffffffffffffffffffffffffffffffffffffffff161461105e576040517f08c379a00000000000000000000000000000000000000000000000000000000081526004016110559061269f565b60405180910390fd5b428363ffffffff16116110a6576040517f08c379a000000000000000000000000000000000000000000000000000000000815260040161109d906126df565b60405180910390fd5b60008763ffffffff16146110ef576040517f08c379a00000000000000000000000000000000000000000000000000000000081526004016110e6906126ff565b60405180910390fd5b60006040518060e001604052808d81526020018c73ffffffffffffffffffffffffffffffffffffffff1681526020018b73ffffffffffffffffffffffffffffffffffffffff1681526020018a81526020018963ffffffff1681526020018881526020018781525090508060038d60405161116991906124d3565b90815260200160405180910390206000820151816000019080519060200190611193929190611c14565b5060208201518160010160006101000a81548173ffffffffffffffffffffffffffffffffffffffff021916908373ffffffffffffffffffffffffffffffffffffffff16021790555060408201518160020160006101000a81548173ffffffffffffffffffffffffffffffffffffffff021916908373ffffffffffffffffffffffffffffffffffffffff1602179055506060820151816003015560808201518160040160006101000a81548163ffffffff021916908363ffffffff16021790555060a082015181600501908051906020019061126f929190611c14565b5060c082015181600601908051906020019061128c929190611c14565b5090505061129d8c8686868661188c565b505050505050505050505050565b6004818051602081018201805184825260208301602085012081835280955050505050506000915090508060000180546112e490612b47565b80601f016020809104026020016040519081016040528092919081815260200182805461131090612b47565b801561135d5780601f106113325761010080835404028352916020019161135d565b820191906000526020600020905b81548152906001019060200180831161134057829003601f168201915b5050505050908060010160009054906101000a900473ffffffffffffffffffffffffffffffffffffffff16908060020160009054906101000a900473ffffffffffffffffffffffffffffffffffffffff16908060020160149054906101000a900463ffffffff16908060030154908060040154905086565b60606002805480602002602001604051908101604052809291908181526020016000905b828210156114a557838290600052602060002001805461141890612b47565b80601f016020809104026020016040519081016040528092919081815260200182805461144490612b47565b80156114915780601f1061146657610100808354040283529160200191611491565b820191906000526020600020905b81548152906001019060200180831161147457829003601f168201915b5050505050815260200190600101906113f9565b50505050905090565b6114b6611c9a565b600073ffffffffffffffffffffffffffffffffffffffff168373ffffffffffffffffffffffffffffffffffffffff161415611526576040517f08c379a000000000000000000000000000000000000000000000000000000000815260040161151d9061267f565b60405180910390fd5b6000600160008573ffffffffffffffffffffffffffffffffffffffff1673ffffffffffffffffffffffffffffffffffffffff1681526020019081526020016000209050600073ffffffffffffffffffffffffffffffffffffffff168160000160009054906101000a900473ffffffffffffffffffffffffffffffffffffffff1673ffffffffffffffffffffffffffffffffffffffff1614156115fd576040517f08c379a00000000000000000000000000000000000000000000000000000000081526004016115f4906127ff565b60405180910390fd5b8060020160009054906101000a900463ffffffff1663ffffffff168363ffffffff161061165f576040517f08c379a0000000000000000000000000000000000000000000000000000000008152600401611656906126bf565b60405180910390fd5b8060010160008463ffffffff1663ffffffff1681526020019081526020016000206040518060c001604052908160008201805461169b90612b47565b80601f01602080910402602001604051908101604052809291908181526020018280546116c790612b47565b80156117145780601f106116e957610100808354040283529160200191611714565b820191906000526020600020905b8154815290600101906020018083116116f757829003601f168201915b505050505081526020016001820160009054906101000a900473ffffffffffffffffffffffffffffffffffffffff1673ffffffffffffffffffffffffffffffffffffffff1673ffffffffffffffffffffffffffffffffffffffff1681526020016002820160009054906101000a900473ffffffffffffffffffffffffffffffffffffffff1673ffffffffffffffffffffffffffffffffffffffff1673ffffffffffffffffffffffffffffffffffffffff1681526020016002820160149054906101000a900463ffffffff1663ffffffff1663ffffffff1681526020016003820154815260200160048201548152505091505092915050565b60016020528060005260406000206000915090508060000160009054906101000a900473ffffffffffffffffffffffffffffffffffffffff16908060020160009054906101000a900463ffffffff16908060040160009054906101000a900463ffffffff16908060060160009054906101000a900463ffffffff16905084565b60006040518060c001604052808781526020018673ffffffffffffffffffffffffffffffffffffffff168152602001600073ffffffffffffffffffffffffffffffffffffffff1681526020018563ffffffff1681526020018481526020018381525090506000600160008773ffffffffffffffffffffffffffffffffffffffff1673ffffffffffffffffffffffffffffffffffffffff168152602001908152602001600020905060008160020160009054906101000a900463ffffffff169050828260010160008363ffffffff1663ffffffff168152602001908152602001600020600082015181600001908051906020019061198a929190611c14565b5060208201518160010160006101000a81548173ffffffffffffffffffffffffffffffffffffffff021916908373ffffffffffffffffffffffffffffffffffffffff16021790555060408201518160020160006101000a81548173ffffffffffffffffffffffffffffffffffffffff021916908373ffffffffffffffffffffffffffffffffffffffff16021790555060608201518160020160146101000a81548163ffffffff021916908363ffffffff1602179055506080820151816003015560a0820151816004015590505081600201600081819054906101000a900463ffffffff1680929190611a7b90612baa565b91906101000a81548163ffffffff021916908363ffffffff1602179055505082600489604051611aab91906124d3565b90815260200160405180910390206000820151816000019080519060200190611ad5929190611c14565b5060208201518160010160006101000a81548173ffffffffffffffffffffffffffffffffffffffff021916908373ffffffffffffffffffffffffffffffffffffffff16021790555060408201518160020160006101000a81548173ffffffffffffffffffffffffffffffffffffffff021916908373ffffffffffffffffffffffffffffffffffffffff16021790555060608201518160020160146101000a81548163ffffffff021916908363ffffffff1602179055506080820151816003015560a08201518160040155905050600288908060018154018082558091505060019003906000526020600020016000909190919091509080519060200190611bdd929190611c14565b507fdb8317522294099fa9360f57f5f2c8178138bbeb092f99c41ada4fefc39fbe5e60405160405180910390a15050505050505050565b828054611c2090612b47565b90600052602060002090601f016020900481019282611c425760008555611c89565b82601f10611c5b57805160ff1916838001178555611c89565b82800160010185558215611c89579182015b82811115611c88578251825591602001919060010190611c6d565b5b509050611c969190611d02565b5090565b6040518060c0016040528060608152602001600073ffffffffffffffffffffffffffffffffffffffff168152602001600073ffffffffffffffffffffffffffffffffffffffff168152602001600063ffffffff16815260200160008152602001600081525090565b5b80821115611d1b576000816000905550600101611d03565b5090565b6000611d32611d2d84612866565b612841565b905082815260208101848484011115611d4e57611d4d612c69565b5b611d59848285612b05565b509392505050565b600081359050611d7081612ff7565b92915050565b600082601f830112611d8b57611d8a612c64565b5b8135611d9b848260208601611d1f565b91505092915050565b600081359050611db38161300e565b92915050565b600081359050611dc881613025565b92915050565b600081359050611ddd8161303c565b92915050565b600060208284031215611df957611df8612c73565b5b6000611e0784828501611d61565b91505092915050565b60008060408385031215611e2757611e26612c73565b5b6000611e3585828601611d61565b9250506020611e4685828601611dce565b9150509250929050565b600060208284031215611e6657611e65612c73565b5b600082013567ffffffffffffffff811115611e8457611e83612c6e565b5b611e9084828501611d76565b91505092915050565b60008060008060008060008060008060006101608c8e031215611ebf57611ebe612c73565b5b60008c013567ffffffffffffffff811115611edd57611edc612c6e565b5b611ee98e828f01611d76565b9b50506020611efa8e828f01611d61565b9a50506040611f0b8e828f01611d61565b9950506060611f1c8e828f01611db9565b9850506080611f2d8e828f01611dce565b97505060a08c013567ffffffffffffffff811115611f4e57611f4d612c6e565b5b611f5a8e828f01611d76565b96505060c08c013567ffffffffffffffff811115611f7b57611f7a612c6e565b5b611f878e828f01611d76565b95505060e0611f988e828f01611d61565b945050610100611faa8e828f01611dce565b935050610120611fbc8e828f01611db9565b925050610140611fce8e828f01611db9565b9150509295989b509295989b9093969950565b60008060008060808587031215611ffb57611ffa612c73565b5b600085013567ffffffffffffffff81111561201957612018612c6e565b5b61202587828801611d76565b945050602061203687828801611d61565b935050604061204787828801611da4565b925050606061205887828801611dce565b91505092959194509250565b60006120708383612090565b60208301905092915050565b60006120888383612181565b905092915050565b61209981612a9c565b82525050565b6120a881612a9c565b82525050565b60006120b9826128b7565b6120c381856128f2565b93506120ce83612897565b8060005b838110156120ff5781516120e68882612064565b97506120f1836128d8565b9250506001810190506120d2565b5085935050505092915050565b6000612117826128c2565b6121218185612903565b935083602082028501612133856128a7565b8060005b8581101561216f5784840389528151612150858261207c565b945061215b836128e5565b925060208a01995050600181019050612137565b50829750879550505050505092915050565b600061218c826128cd565b6121968185612914565b93506121a6818560208601612b14565b6121af81612c78565b840191505092915050565b60006121c5826128cd565b6121cf8185612925565b93506121df818560208601612b14565b6121e881612c78565b840191505092915050565b60006121fe826128cd565b6122088185612936565b9350612218818560208601612b14565b80840191505092915050565b6000612231602483612925565b915061223c82612c89565b604082019050919050565b6000612254600f83612925565b915061225f82612cd8565b602082019050919050565b6000612277600d83612925565b915061228282612d01565b602082019050919050565b600061229a602583612925565b91506122a582612d2a565b604082019050919050565b60006122bd600f83612925565b91506122c882612d79565b602082019050919050565b60006122e0602a83612925565b91506122eb82612da2565b604082019050919050565b6000612303602083612925565b915061230e82612df1565b602082019050919050565b6000612326601d83612925565b915061233182612e1a565b602082019050919050565b6000612349604183612925565b915061235482612e43565b606082019050919050565b600061236c601383612925565b915061237782612eb8565b602082019050919050565b600061238f602a83612925565b915061239a82612ee1565b604082019050919050565b60006123b2602d83612925565b91506123bd82612f30565b604082019050919050565b60006123d5602883612925565b91506123e082612f7f565b604082019050919050565b60006123f8601483612925565b915061240382612fce565b602082019050919050565b600060c083016000830151848203600086015261242b8282612181565b91505060208301516124406020860182612090565b5060408301516124536040860182612090565b50606083015161246660608601826124b5565b5060808301516124796080860182612497565b5060a083015161248c60a0860182612497565b508091505092915050565b6124a081612aeb565b82525050565b6124af81612aeb565b82525050565b6124be81612af5565b82525050565b6124cd81612af5565b82525050565b60006124df82846121f3565b915081905092915050565b60006080820190506124ff600083018761209f565b61250c60208301866124c4565b61251960408301856124c4565b61252660608301846124c4565b95945050505050565b6000602082019050818103600083015261254981846120ae565b905092915050565b6000602082019050818103600083015261256b818461210c565b905092915050565b600060e082019050818103600083015261258d818a6121ba565b905061259c602083018961209f565b6125a9604083018861209f565b6125b660608301876124a6565b6125c360808301866124c4565b81810360a08301526125d581856121ba565b905081810360c08301526125e981846121ba565b905098975050505050505050565b600060c082019050818103600083015261261181896121ba565b9050612620602083018861209f565b61262d604083018761209f565b61263a60608301866124c4565b61264760808301856124a6565b61265460a08301846124a6565b979650505050505050565b6000602082019050818103600083015261267881612224565b9050919050565b6000602082019050818103600083015261269881612247565b9050919050565b600060208201905081810360008301526126b88161226a565b9050919050565b600060208201905081810360008301526126d88161228d565b9050919050565b600060208201905081810360008301526126f8816122b0565b9050919050565b60006020820190508181036000830152612718816122d3565b9050919050565b60006020820190508181036000830152612738816122f6565b9050919050565b6000602082019050818103600083015261275881612319565b9050919050565b600060208201905081810360008301526127788161233c565b9050919050565b600060208201905081810360008301526127988161235f565b9050919050565b600060208201905081810360008301526127b881612382565b9050919050565b600060208201905081810360008301526127d8816123a5565b9050919050565b600060208201905081810360008301526127f8816123c8565b9050919050565b60006020820190508181036000830152612818816123eb565b9050919050565b60006020820190508181036000830152612839818461240e565b905092915050565b600061284b61285c565b90506128578282612b79565b919050565b6000604051905090565b600067ffffffffffffffff82111561288157612880612c35565b5b61288a82612c78565b9050602081019050919050565b6000819050602082019050919050565b6000819050602082019050919050565b600081519050919050565b600081519050919050565b600081519050919050565b6000602082019050919050565b6000602082019050919050565b600082825260208201905092915050565b600082825260208201905092915050565b600082825260208201905092915050565b600082825260208201905092915050565b600081905092915050565b600061294c82612aeb565b915061295783612aeb565b9250827fffffffffffffffffffffffffffffffffffffffffffffffffffffffffffffffff0382111561298c5761298b612bd7565b5b828201905092915050565b60006129a282612af5565b91506129ad83612af5565b92508263ffffffff038211156129c6576129c5612bd7565b5b828201905092915050565b60006129dc82612adc565b91506129e783612adc565b92508162ffffff0483118215151615612a0357612a02612bd7565b5b828202905092915050565b6000612a1982612aeb565b9150612a2483612aeb565b9250817fffffffffffffffffffffffffffffffffffffffffffffffffffffffffffffffff0483118215151615612a5d57612a5c612bd7565b5b828202905092915050565b6000612a7382612aeb565b9150612a7e83612aeb565b925082821015612a9157612a90612bd7565b5b828203905092915050565b6000612aa782612abc565b9050919050565b600061ffff82169050919050565b600073ffffffffffffffffffffffffffffffffffffffff82169050919050565b600062ffffff82169050919050565b6000819050919050565b600063ffffffff82169050919050565b82818337600083830152505050565b60005b83811015612b32578082015181840152602081019050612b17565b83811115612b41576000848401525b50505050565b60006002820490506001821680612b5f57607f821691505b60208210811415612b7357612b72612c06565b5b50919050565b612b8282612c78565b810181811067ffffffffffffffff82111715612ba157612ba0612c35565b5b80604052505050565b6000612bb582612af5565b915063ffffffff821415612bcc57612bcb612bd7565b5b600182019050919050565b7f4e487b7100000000000000000000000000000000000000000000000000000000600052601160045260246000fd5b7f4e487b7100000000000000000000000000000000000000000000000000000000600052602260045260246000fd5b7f4e487b7100000000000000000000000000000000000000000000000000000000600052604160045260246000fd5b600080fd5b600080fd5b600080fd5b600080fd5b6000601f19601f8301169050919050565b7f4e465420697320616c726561647920617661696c61626c6520666f722072656e60008201527f74696e6700000000000000000000000000000000000000000000000000000000602082015250565b7f496e76616c696420616464726573730000000000000000000000000000000000600082015250565b7f4e6f6e204e4654204f776e657200000000000000000000000000000000000000600082015250565b7f4e66742061742074686520676976656e20696e64657820646f6573206e6f742060008201527f6578697374000000000000000000000000000000000000000000000000000000602082015250565b7f4261642074696d6520626f756e64730000000000000000000000000000000000600082015250565b7f4e6577204e46542063616e277420626520696e20616e7920757365727320776960008201527f73686c6973742079657400000000000000000000000000000000000000000000602082015250565b7f4e4654206973206e6f7420617661696c61626c6520666f722072656e74696e67600082015250565b7f43616e2774206c656e6420736f6d656f6e6520656c73652773204e4654000000600082015250565b7f43616e27742072656e74204e465420666f72206d6f7265207468616e20616d6f60008201527f756e74206f662074696d6520617661696c61626c6520666f722072656e74696e60208201527f6700000000000000000000000000000000000000000000000000000000000000604082015250565b7f5573657220646f6573206e6f7420657869737400000000000000000000000000600082015250565b7f43616e27742072656e74204e465420617320696e73756666696369656e74206160008201527f6d6f756e74207061696400000000000000000000000000000000000000000000602082015250565b7f43616e277420626f72726f77204e465420666f7220616e6f7468657220626f7260008201527f726f776572206164647265737300000000000000000000000000000000000000602082015250565b7f4f6e6c792074686520757365722063616e2061646420686973206163636f756e60008201527f7420746f20617070000000000000000000000000000000000000000000000000602082015250565b7f5573657220646f6573206e6f7420657869737473000000000000000000000000600082015250565b61300081612a9c565b811461300b57600080fd5b50565b61301781612aae565b811461302257600080fd5b50565b61302e81612aeb565b811461303957600080fd5b50565b61304581612af5565b811461305057600080fd5b5056fea264697066735822122059a284cd5750c0f4a08c1e3c9857c9b2a3e80bd763f4d7d6881e7a44dd9b7d0864736f6c63430008050033",
  "linkReferences": {},
  "deployedLinkReferences": {}
}