{
  "_format": "hh-sol-artifact-1",
  "contractName": "NFTRental",
  "sourceName": "contracts/NFTRental.sol",
  "abi": [
    {
      "anonymous": false,
      "inputs": [],
      "name": "NFTLended",
      "type": "event"
    },
    {
      "anonymous": false,
      "inputs": [],
      "name": "NFTRented",
      "type": "event"
    },
    {
      "inputs": [
        {
          "internalType": "string",
          "name": "_nftKey",
          "type": "string"
        },
        {
          "internalType": "address",
          "name": "_nftOwner",
          "type": "address"
        },
        {
          "internalType": "address",
          "name": "_nftAddress",
          "type": "address"
        },
        {
          "internalType": "uint256",
          "name": "_nftId",
          "type": "uint256"
        },
        {
          "internalType": "uint32",
          "name": "_wishlistCount",
          "type": "uint32"
        },
        {
          "internalType": "string",
          "name": "_nftName",
          "type": "string"
        },
        {
          "internalType": "string",
          "name": "_nftImageURL",
          "type": "string"
        },
        {
          "internalType": "address",
          "name": "_lenderAddress",
          "type": "address"
        },
        {
          "internalType": "uint32",
          "name": "_dueDate",
          "type": "uint32"
        },
        {
          "internalType": "uint256",
          "name": "_dailyRent",
          "type": "uint256"
        },
        {
          "internalType": "uint256",
          "name": "_collateral",
          "type": "uint256"
        }
      ],
      "name": "addNFTToLend",
      "outputs": [],
      "stateMutability": "payable",
      "type": "function"
    },
    {
      "inputs": [
        {
          "internalType": "address",
          "name": "_userAddress",
          "type": "address"
        }
      ],
      "name": "addUser",
      "outputs": [],
      "stateMutability": "nonpayable",
      "type": "function"
    },
    {
      "inputs": [
        {
          "internalType": "address",
          "name": "",
          "type": "address"
        }
      ],
      "name": "addressToUser",
      "outputs": [
        {
          "internalType": "address",
          "name": "userAddress",
          "type": "address"
        }
      ],
      "stateMutability": "view",
      "type": "function"
    },
    {
      "inputs": [],
      "name": "getNftKeysListAvaiableForRent",
      "outputs": [
        {
          "internalType": "string[]",
          "name": "",
          "type": "string[]"
        }
      ],
      "stateMutability": "view",
      "type": "function"
    },
    {
      "inputs": [],
      "name": "getUserAddressList",
      "outputs": [
        {
          "internalType": "address[]",
          "name": "",
          "type": "address[]"
        }
      ],
      "stateMutability": "view",
      "type": "function"
    },
    {
      "inputs": [
        {
          "internalType": "address",
          "name": "_userAddress",
          "type": "address"
        },
        {
          "internalType": "string",
          "name": "_nftKey",
          "type": "string"
        }
      ],
      "name": "getUserLendedNFTDetails",
      "outputs": [
        {
          "components": [
            {
              "internalType": "string",
              "name": "nftKey",
              "type": "string"
            },
            {
              "internalType": "address",
              "name": "lenderAddress",
              "type": "address"
            },
            {
              "internalType": "address",
              "name": "borrowerAddress",
              "type": "address"
            },
            {
              "internalType": "uint32",
              "name": "dueDate",
              "type": "uint32"
            },
            {
              "internalType": "uint256",
              "name": "dailyRent",
              "type": "uint256"
            },
            {
              "internalType": "uint256",
              "name": "collateral",
              "type": "uint256"
            }
          ],
          "internalType": "struct NFTRental.lendedNFT",
          "name": "",
          "type": "tuple"
        }
      ],
      "stateMutability": "view",
      "type": "function"
    },
    {
      "inputs": [
        {
          "internalType": "string",
          "name": "",
          "type": "string"
        }
      ],
      "name": "nftKeyToLendedNftDetails",
      "outputs": [
        {
          "internalType": "string",
          "name": "nftKey",
          "type": "string"
        },
        {
          "internalType": "address",
          "name": "lenderAddress",
          "type": "address"
        },
        {
          "internalType": "address",
          "name": "borrowerAddress",
          "type": "address"
        },
        {
          "internalType": "uint32",
          "name": "dueDate",
          "type": "uint32"
        },
        {
          "internalType": "uint256",
          "name": "dailyRent",
          "type": "uint256"
        },
        {
          "internalType": "uint256",
          "name": "collateral",
          "type": "uint256"
        }
      ],
      "stateMutability": "view",
      "type": "function"
    },
    {
      "inputs": [
        {
          "internalType": "string",
          "name": "",
          "type": "string"
        }
      ],
      "name": "nftKeyToNftProps",
      "outputs": [
        {
          "internalType": "string",
          "name": "nftKey",
          "type": "string"
        },
        {
          "internalType": "address",
          "name": "nftOwner",
          "type": "address"
        },
        {
          "internalType": "address",
          "name": "nftAddress",
          "type": "address"
        },
        {
          "internalType": "uint256",
          "name": "nftId",
          "type": "uint256"
        },
        {
          "internalType": "uint32",
          "name": "wishlistCount",
          "type": "uint32"
        },
        {
          "internalType": "string",
          "name": "nftName",
          "type": "string"
        },
        {
          "internalType": "string",
          "name": "nftImageURL",
          "type": "string"
        }
      ],
      "stateMutability": "view",
      "type": "function"
    },
    {
      "inputs": [
        {
          "internalType": "string",
          "name": "",
          "type": "string"
        }
      ],
      "name": "nftKeyToRentedNftDetails",
      "outputs": [
        {
          "internalType": "string",
          "name": "nftKey",
          "type": "string"
        },
        {
          "internalType": "address",
          "name": "lenderAddress",
          "type": "address"
        },
        {
          "internalType": "address",
          "name": "borrowerAddress",
          "type": "address"
        },
        {
          "internalType": "uint16",
          "name": "numberOfDays",
          "type": "uint16"
        },
        {
          "internalType": "uint32",
          "name": "rentalStartTime",
          "type": "uint32"
        }
      ],
      "stateMutability": "view",
      "type": "function"
    },
    {
      "inputs": [
        {
          "internalType": "string",
          "name": "_nftKey",
          "type": "string"
        },
        {
          "internalType": "address",
          "name": "_borrowerAddress",
          "type": "address"
        },
        {
          "internalType": "uint16",
          "name": "_numberOfDays",
          "type": "uint16"
        },
        {
          "internalType": "uint32",
          "name": "_rentalStartTime",
          "type": "uint32"
        }
      ],
      "name": "rentNft",
      "outputs": [],
      "stateMutability": "payable",
      "type": "function"
    }
  ],
  "bytecode": "0x608060405234801561001057600080fd5b50613176806100206000396000f3fe6080604052600436106100915760003560e01c8063657ed37d11610059578063657ed37d146101655780638d2221d9146101a7578063dc4ace8c146101e8578063deb4121614610213578063edf538861461025057610091565b8063213f44ab14610096578063421b2d8b146100c1578063423fdefb146100ea5780635289f68a1461010657806364afd67414610149575b600080fd5b3480156100a257600080fd5b506100ab61028d565b6040516100b891906125ef565b60405180910390f35b3480156100cd57600080fd5b506100e860048036038101906100e39190611ea2565b61031b565b005b61010460048036038101906100ff91906120bc565b61057e565b005b34801561011257600080fd5b5061012d60048036038101906101289190611f2b565b610aed565b604051610140979695949392919061268d565b60405180910390f35b610163600480360381019061015e9190611f74565b610d2d565b005b34801561017157600080fd5b5061018c60048036038101906101879190611f2b565b611288565b60405161019e96959493929190612711565b60405180910390f35b3480156101b357600080fd5b506101ce60048036038101906101c99190611f2b565b6113b2565b6040516101df959493929190612633565b60405180910390f35b3480156101f457600080fd5b506101fd6114e4565b60405161020a9190612611565b60405180910390f35b34801561021f57600080fd5b5061023a60048036038101906102359190611ecf565b6115bd565b6040516102479190612939565b60405180910390f35b34801561025c57600080fd5b5061027760048036038101906102729190611ea2565b61196b565b60405161028491906125d4565b60405180910390f35b6060600080548060200260200160405190810160405280929190818152602001828054801561031157602002820191906000526020600020905b8160009054906101000a900473ffffffffffffffffffffffffffffffffffffffff1673ffffffffffffffffffffffffffffffffffffffff16815260200190600101908083116102c7575b5050505050905090565b600073ffffffffffffffffffffffffffffffffffffffff168173ffffffffffffffffffffffffffffffffffffffff16141561038b576040517f08c379a000000000000000000000000000000000000000000000000000000000815260040161038290612799565b60405180910390fd5b8073ffffffffffffffffffffffffffffffffffffffff163373ffffffffffffffffffffffffffffffffffffffff16146103f9576040517f08c379a00000000000000000000000000000000000000000000000000000000081526004016103f0906128d9565b60405180910390fd5b600073ffffffffffffffffffffffffffffffffffffffff16600160008373ffffffffffffffffffffffffffffffffffffffff1673ffffffffffffffffffffffffffffffffffffffff16815260200190815260200160002060000160009054906101000a900473ffffffffffffffffffffffffffffffffffffffff1673ffffffffffffffffffffffffffffffffffffffff16141561057b576000600160008373ffffffffffffffffffffffffffffffffffffffff1673ffffffffffffffffffffffffffffffffffffffff1681526020019081526020016000209050818160000160006101000a81548173ffffffffffffffffffffffffffffffffffffffff021916908373ffffffffffffffffffffffffffffffffffffffff1602179055506000829080600181540180825580915050600190039060005260206000200160009091909190916101000a81548173ffffffffffffffffffffffffffffffffffffffff021916908373ffffffffffffffffffffffffffffffffffffffff160217905550505b50565b8273ffffffffffffffffffffffffffffffffffffffff163373ffffffffffffffffffffffffffffffffffffffff16146105ec576040517f08c379a00000000000000000000000000000000000000000000000000000000081526004016105e3906128b9565b60405180910390fd5b600073ffffffffffffffffffffffffffffffffffffffff16600160008573ffffffffffffffffffffffffffffffffffffffff1673ffffffffffffffffffffffffffffffffffffffff16815260200190815260200160002060000160009054906101000a900473ffffffffffffffffffffffffffffffffffffffff1673ffffffffffffffffffffffffffffffffffffffff1614156106be576040517f08c379a00000000000000000000000000000000000000000000000000000000081526004016106b590612879565b60405180910390fd5b600073ffffffffffffffffffffffffffffffffffffffff166003856040516106e691906125bd565b908152602001604051809103902060020160009054906101000a900473ffffffffffffffffffffffffffffffffffffffff1673ffffffffffffffffffffffffffffffffffffffff16141561076f576040517f08c379a000000000000000000000000000000000000000000000000000000000815260040161076690612819565b60405180910390fd5b600073ffffffffffffffffffffffffffffffffffffffff1660048560405161079791906125bd565b908152602001604051809103902060010160009054906101000a900473ffffffffffffffffffffffffffffffffffffffff1673ffffffffffffffffffffffffffffffffffffffff161415610820576040517f08c379a000000000000000000000000000000000000000000000000000000000815260040161081790612819565b60405180910390fd5b428163ffffffff1610610868576040517f08c379a000000000000000000000000000000000000000000000000000000000815260040161085f906127d9565b60405180910390fd5b6000620151808361ffff1661087d9190612aeb565b62ffffff168261088d9190612ab1565b905060006004866040516108a191906125bd565b908152602001604051809103902060020160149054906101000a900463ffffffff1690508063ffffffff168263ffffffff1610610913576040517f08c379a000000000000000000000000000000000000000000000000000000000815260040161090a90612859565b60405180910390fd5b600060048760405161092591906125bd565b9081526020016040518091039020600301549050600060048860405161094b91906125bd565b908152602001604051809103902060040154905060008661ffff16836109719190612b28565b9050600082826109819190612a5b565b9050803410156109c6576040517f08c379a00000000000000000000000000000000000000000000000000000000081526004016109bd90612899565b60405180910390fd5b80341115610a275760008990508073ffffffffffffffffffffffffffffffffffffffff166108fc83346109f99190612b82565b9081150290604051600060405180830381858888f19350505050158015610a24573d6000803e3d6000fd5b50505b600060048b604051610a3991906125bd565b908152602001604051809103902060010160009054906101000a900473ffffffffffffffffffffffffffffffffffffffff1690508073ffffffffffffffffffffffffffffffffffffffff166108fc849081150290604051600060405180830381858888f19350505050158015610ab3573d6000803e3d6000fd5b507fe85b6202f15dfae39a54e501b5e65cbcc44a996fb8d14f843c7cb8e16fd49c7460405160405180910390a15050505050505050505050565b600381805160208101820180518482526020830160208501208183528095505050505050600091509050806000018054610b2690612c61565b80601f0160208091040260200160405190810160405280929190818152602001828054610b5290612c61565b8015610b9f5780601f10610b7457610100808354040283529160200191610b9f565b820191906000526020600020905b815481529060010190602001808311610b8257829003601f168201915b5050505050908060010160009054906101000a900473ffffffffffffffffffffffffffffffffffffffff16908060020160009054906101000a900473ffffffffffffffffffffffffffffffffffffffff16908060030154908060040160009054906101000a900463ffffffff1690806005018054610c1c90612c61565b80601f0160208091040260200160405190810160405280929190818152602001828054610c4890612c61565b8015610c955780601f10610c6a57610100808354040283529160200191610c95565b820191906000526020600020905b815481529060010190602001808311610c7857829003601f168201915b505050505090806006018054610caa90612c61565b80601f0160208091040260200160405190810160405280929190818152602001828054610cd690612c61565b8015610d235780601f10610cf857610100808354040283529160200191610d23565b820191906000526020600020905b815481529060010190602001808311610d0657829003601f168201915b5050505050905087565b8373ffffffffffffffffffffffffffffffffffffffff163373ffffffffffffffffffffffffffffffffffffffff1614610d9b576040517f08c379a0000000000000000000000000000000000000000000000000000000008152600401610d9290612839565b60405180910390fd5b600073ffffffffffffffffffffffffffffffffffffffff16600160008673ffffffffffffffffffffffffffffffffffffffff1673ffffffffffffffffffffffffffffffffffffffff16815260200190815260200160002060000160009054906101000a900473ffffffffffffffffffffffffffffffffffffffff1673ffffffffffffffffffffffffffffffffffffffff161415610e6d576040517f08c379a0000000000000000000000000000000000000000000000000000000008152600401610e6490612879565b60405180910390fd5b600073ffffffffffffffffffffffffffffffffffffffff1660038c604051610e9591906125bd565b908152602001604051809103902060020160009054906101000a900473ffffffffffffffffffffffffffffffffffffffff1673ffffffffffffffffffffffffffffffffffffffff1614610f1d576040517f08c379a0000000000000000000000000000000000000000000000000000000008152600401610f1490612779565b60405180910390fd5b600073ffffffffffffffffffffffffffffffffffffffff1660048c604051610f4591906125bd565b908152602001604051809103902060010160009054906101000a900473ffffffffffffffffffffffffffffffffffffffff1673ffffffffffffffffffffffffffffffffffffffff1614610fcd576040517f08c379a0000000000000000000000000000000000000000000000000000000008152600401610fc490612779565b60405180910390fd5b8373ffffffffffffffffffffffffffffffffffffffff168a73ffffffffffffffffffffffffffffffffffffffff161461103b576040517f08c379a0000000000000000000000000000000000000000000000000000000008152600401611032906127b9565b60405180910390fd5b428363ffffffff1611611083576040517f08c379a000000000000000000000000000000000000000000000000000000000815260040161107a906127d9565b60405180910390fd5b60008763ffffffff16146110cc576040517f08c379a00000000000000000000000000000000000000000000000000000000081526004016110c3906127f9565b60405180910390fd5b60006040518060e001604052808d81526020018c73ffffffffffffffffffffffffffffffffffffffff1681526020018b73ffffffffffffffffffffffffffffffffffffffff1681526020018a81526020018963ffffffff1681526020018881526020018781525090508060038d60405161114691906125bd565b90815260200160405180910390206000820151816000019080519060200190611170929190611cd3565b5060208201518160010160006101000a81548173ffffffffffffffffffffffffffffffffffffffff021916908373ffffffffffffffffffffffffffffffffffffffff16021790555060408201518160020160006101000a81548173ffffffffffffffffffffffffffffffffffffffff021916908373ffffffffffffffffffffffffffffffffffffffff1602179055506060820151816003015560808201518160040160006101000a81548163ffffffff021916908363ffffffff16021790555060a082015181600501908051906020019061124c929190611cd3565b5060c0820151816006019080519060200190611269929190611cd3565b5090505061127a8c868686866119a9565b505050505050505050505050565b6004818051602081018201805184825260208301602085012081835280955050505050506000915090508060000180546112c190612c61565b80601f01602080910402602001604051908101604052809291908181526020018280546112ed90612c61565b801561133a5780601f1061130f5761010080835404028352916020019161133a565b820191906000526020600020905b81548152906001019060200180831161131d57829003601f168201915b5050505050908060010160009054906101000a900473ffffffffffffffffffffffffffffffffffffffff16908060020160009054906101000a900473ffffffffffffffffffffffffffffffffffffffff16908060020160149054906101000a900463ffffffff16908060030154908060040154905086565b6005818051602081018201805184825260208301602085012081835280955050505050506000915090508060000180546113eb90612c61565b80601f016020809104026020016040519081016040528092919081815260200182805461141790612c61565b80156114645780601f1061143957610100808354040283529160200191611464565b820191906000526020600020905b81548152906001019060200180831161144757829003601f168201915b5050505050908060010160009054906101000a900473ffffffffffffffffffffffffffffffffffffffff16908060020160009054906101000a900473ffffffffffffffffffffffffffffffffffffffff16908060020160149054906101000a900461ffff16908060020160169054906101000a900463ffffffff16905085565b60606002805480602002602001604051908101604052809291908181526020016000905b828210156115b457838290600052602060002001805461152790612c61565b80601f016020809104026020016040519081016040528092919081815260200182805461155390612c61565b80156115a05780601f10611575576101008083540402835291602001916115a0565b820191906000526020600020905b81548152906001019060200180831161158357829003601f168201915b505050505081526020019060010190611508565b50505050905090565b6115c5611d59565b600073ffffffffffffffffffffffffffffffffffffffff168373ffffffffffffffffffffffffffffffffffffffff161415611635576040517f08c379a000000000000000000000000000000000000000000000000000000000815260040161162c90612799565b60405180910390fd5b6000600160008573ffffffffffffffffffffffffffffffffffffffff1673ffffffffffffffffffffffffffffffffffffffff1681526020019081526020016000209050600073ffffffffffffffffffffffffffffffffffffffff168160000160009054906101000a900473ffffffffffffffffffffffffffffffffffffffff1673ffffffffffffffffffffffffffffffffffffffff16141561170c576040517f08c379a0000000000000000000000000000000000000000000000000000000008152600401611703906128f9565b60405180910390fd5b600073ffffffffffffffffffffffffffffffffffffffff16816001018460405161173691906125bd565b908152602001604051809103902060010160009054906101000a900473ffffffffffffffffffffffffffffffffffffffff1673ffffffffffffffffffffffffffffffffffffffff1614156117bf576040517f08c379a00000000000000000000000000000000000000000000000000000000081526004016117b690612919565b60405180910390fd5b80600101836040516117d191906125bd565b90815260200160405180910390206040518060c00160405290816000820180546117fa90612c61565b80601f016020809104026020016040519081016040528092919081815260200182805461182690612c61565b80156118735780601f1061184857610100808354040283529160200191611873565b820191906000526020600020905b81548152906001019060200180831161185657829003601f168201915b505050505081526020016001820160009054906101000a900473ffffffffffffffffffffffffffffffffffffffff1673ffffffffffffffffffffffffffffffffffffffff1673ffffffffffffffffffffffffffffffffffffffff1681526020016002820160009054906101000a900473ffffffffffffffffffffffffffffffffffffffff1673ffffffffffffffffffffffffffffffffffffffff1673ffffffffffffffffffffffffffffffffffffffff1681526020016002820160149054906101000a900463ffffffff1663ffffffff1663ffffffff1681526020016003820154815260200160048201548152505091505092915050565b60016020528060005260406000206000915090508060000160009054906101000a900473ffffffffffffffffffffffffffffffffffffffff16905081565b60006040518060c001604052808781526020018673ffffffffffffffffffffffffffffffffffffffff168152602001600073ffffffffffffffffffffffffffffffffffffffff1681526020018563ffffffff1681526020018481526020018381525090506000600160008773ffffffffffffffffffffffffffffffffffffffff1673ffffffffffffffffffffffffffffffffffffffff1681526020019081526020016000209050818160010188604051611a6391906125bd565b90815260200160405180910390206000820151816000019080519060200190611a8d929190611cd3565b5060208201518160010160006101000a81548173ffffffffffffffffffffffffffffffffffffffff021916908373ffffffffffffffffffffffffffffffffffffffff16021790555060408201518160020160006101000a81548173ffffffffffffffffffffffffffffffffffffffff021916908373ffffffffffffffffffffffffffffffffffffffff16021790555060608201518160020160146101000a81548163ffffffff021916908363ffffffff1602179055506080820151816003015560a0820151816004015590505081600488604051611b6b91906125bd565b90815260200160405180910390206000820151816000019080519060200190611b95929190611cd3565b5060208201518160010160006101000a81548173ffffffffffffffffffffffffffffffffffffffff021916908373ffffffffffffffffffffffffffffffffffffffff16021790555060408201518160020160006101000a81548173ffffffffffffffffffffffffffffffffffffffff021916908373ffffffffffffffffffffffffffffffffffffffff16021790555060608201518160020160146101000a81548163ffffffff021916908363ffffffff1602179055506080820151816003015560a08201518160040155905050600287908060018154018082558091505060019003906000526020600020016000909190919091509080519060200190611c9d929190611cd3565b507fdb8317522294099fa9360f57f5f2c8178138bbeb092f99c41ada4fefc39fbe5e60405160405180910390a150505050505050565b828054611cdf90612c61565b90600052602060002090601f016020900481019282611d015760008555611d48565b82601f10611d1a57805160ff1916838001178555611d48565b82800160010185558215611d48579182015b82811115611d47578251825591602001919060010190611d2c565b5b509050611d559190611dc1565b5090565b6040518060c0016040528060608152602001600073ffffffffffffffffffffffffffffffffffffffff168152602001600073ffffffffffffffffffffffffffffffffffffffff168152602001600063ffffffff16815260200160008152602001600081525090565b5b80821115611dda576000816000905550600101611dc2565b5090565b6000611df1611dec84612980565b61295b565b905082815260208101848484011115611e0d57611e0c612d56565b5b611e18848285612c1f565b509392505050565b600081359050611e2f816130e4565b92915050565b600082601f830112611e4a57611e49612d51565b5b8135611e5a848260208601611dde565b91505092915050565b600081359050611e72816130fb565b92915050565b600081359050611e8781613112565b92915050565b600081359050611e9c81613129565b92915050565b600060208284031215611eb857611eb7612d60565b5b6000611ec684828501611e20565b91505092915050565b60008060408385031215611ee657611ee5612d60565b5b6000611ef485828601611e20565b925050602083013567ffffffffffffffff811115611f1557611f14612d5b565b5b611f2185828601611e35565b9150509250929050565b600060208284031215611f4157611f40612d60565b5b600082013567ffffffffffffffff811115611f5f57611f5e612d5b565b5b611f6b84828501611e35565b91505092915050565b60008060008060008060008060008060006101608c8e031215611f9a57611f99612d60565b5b60008c013567ffffffffffffffff811115611fb857611fb7612d5b565b5b611fc48e828f01611e35565b9b50506020611fd58e828f01611e20565b9a50506040611fe68e828f01611e20565b9950506060611ff78e828f01611e78565b98505060806120088e828f01611e8d565b97505060a08c013567ffffffffffffffff81111561202957612028612d5b565b5b6120358e828f01611e35565b96505060c08c013567ffffffffffffffff81111561205657612055612d5b565b5b6120628e828f01611e35565b95505060e06120738e828f01611e20565b9450506101006120858e828f01611e8d565b9350506101206120978e828f01611e78565b9250506101406120a98e828f01611e78565b9150509295989b509295989b9093969950565b600080600080608085870312156120d6576120d5612d60565b5b600085013567ffffffffffffffff8111156120f4576120f3612d5b565b5b61210087828801611e35565b945050602061211187828801611e20565b935050604061212287828801611e63565b925050606061213387828801611e8d565b91505092959194509250565b600061214b838361216b565b60208301905092915050565b6000612163838361225c565b905092915050565b61217481612bb6565b82525050565b61218381612bb6565b82525050565b6000612194826129d1565b61219e8185612a0c565b93506121a9836129b1565b8060005b838110156121da5781516121c1888261213f565b97506121cc836129f2565b9250506001810190506121ad565b5085935050505092915050565b60006121f2826129dc565b6121fc8185612a1d565b93508360208202850161220e856129c1565b8060005b8581101561224a578484038952815161222b8582612157565b9450612236836129ff565b925060208a01995050600181019050612212565b50829750879550505050505092915050565b6000612267826129e7565b6122718185612a2e565b9350612281818560208601612c2e565b61228a81612d65565b840191505092915050565b60006122a0826129e7565b6122aa8185612a3f565b93506122ba818560208601612c2e565b6122c381612d65565b840191505092915050565b60006122d9826129e7565b6122e38185612a50565b93506122f3818560208601612c2e565b80840191505092915050565b600061230c602483612a3f565b915061231782612d76565b604082019050919050565b600061232f600f83612a3f565b915061233a82612dc5565b602082019050919050565b6000612352600d83612a3f565b915061235d82612dee565b602082019050919050565b6000612375600f83612a3f565b915061238082612e17565b602082019050919050565b6000612398602a83612a3f565b91506123a382612e40565b604082019050919050565b60006123bb602083612a3f565b91506123c682612e8f565b602082019050919050565b60006123de601d83612a3f565b91506123e982612eb8565b602082019050919050565b6000612401604183612a3f565b915061240c82612ee1565b606082019050919050565b6000612424601383612a3f565b915061242f82612f56565b602082019050919050565b6000612447602a83612a3f565b915061245282612f7f565b604082019050919050565b600061246a602d83612a3f565b915061247582612fce565b604082019050919050565b600061248d602883612a3f565b91506124988261301d565b604082019050919050565b60006124b0601483612a3f565b91506124bb8261306c565b602082019050919050565b60006124d3602683612a3f565b91506124de82613095565b604082019050919050565b600060c0830160008301518482036000860152612506828261225c565b915050602083015161251b602086018261216b565b50604083015161252e604086018261216b565b506060830151612541606086018261259f565b5060808301516125546080860182612581565b5060a083015161256760a0860182612581565b508091505092915050565b61257b81612bc8565b82525050565b61258a81612c05565b82525050565b61259981612c05565b82525050565b6125a881612c0f565b82525050565b6125b781612c0f565b82525050565b60006125c982846122ce565b915081905092915050565b60006020820190506125e9600083018461217a565b92915050565b600060208201905081810360008301526126098184612189565b905092915050565b6000602082019050818103600083015261262b81846121e7565b905092915050565b600060a082019050818103600083015261264d8188612295565b905061265c602083018761217a565b612669604083018661217a565b6126766060830185612572565b61268360808301846125ae565b9695505050505050565b600060e08201905081810360008301526126a7818a612295565b90506126b6602083018961217a565b6126c3604083018861217a565b6126d06060830187612590565b6126dd60808301866125ae565b81810360a08301526126ef8185612295565b905081810360c08301526127038184612295565b905098975050505050505050565b600060c082019050818103600083015261272b8189612295565b905061273a602083018861217a565b612747604083018761217a565b61275460608301866125ae565b6127616080830185612590565b61276e60a0830184612590565b979650505050505050565b60006020820190508181036000830152612792816122ff565b9050919050565b600060208201905081810360008301526127b281612322565b9050919050565b600060208201905081810360008301526127d281612345565b9050919050565b600060208201905081810360008301526127f281612368565b9050919050565b600060208201905081810360008301526128128161238b565b9050919050565b60006020820190508181036000830152612832816123ae565b9050919050565b60006020820190508181036000830152612852816123d1565b9050919050565b60006020820190508181036000830152612872816123f4565b9050919050565b6000602082019050818103600083015261289281612417565b9050919050565b600060208201905081810360008301526128b28161243a565b9050919050565b600060208201905081810360008301526128d28161245d565b9050919050565b600060208201905081810360008301526128f281612480565b9050919050565b60006020820190508181036000830152612912816124a3565b9050919050565b60006020820190508181036000830152612932816124c6565b9050919050565b6000602082019050818103600083015261295381846124e9565b905092915050565b6000612965612976565b90506129718282612c93565b919050565b6000604051905090565b600067ffffffffffffffff82111561299b5761299a612d22565b5b6129a482612d65565b9050602081019050919050565b6000819050602082019050919050565b6000819050602082019050919050565b600081519050919050565b600081519050919050565b600081519050919050565b6000602082019050919050565b6000602082019050919050565b600082825260208201905092915050565b600082825260208201905092915050565b600082825260208201905092915050565b600082825260208201905092915050565b600081905092915050565b6000612a6682612c05565b9150612a7183612c05565b9250827fffffffffffffffffffffffffffffffffffffffffffffffffffffffffffffffff03821115612aa657612aa5612cc4565b5b828201905092915050565b6000612abc82612c0f565b9150612ac783612c0f565b92508263ffffffff03821115612ae057612adf612cc4565b5b828201905092915050565b6000612af682612bf6565b9150612b0183612bf6565b92508162ffffff0483118215151615612b1d57612b1c612cc4565b5b828202905092915050565b6000612b3382612c05565b9150612b3e83612c05565b9250817fffffffffffffffffffffffffffffffffffffffffffffffffffffffffffffffff0483118215151615612b7757612b76612cc4565b5b828202905092915050565b6000612b8d82612c05565b9150612b9883612c05565b925082821015612bab57612baa612cc4565b5b828203905092915050565b6000612bc182612bd6565b9050919050565b600061ffff82169050919050565b600073ffffffffffffffffffffffffffffffffffffffff82169050919050565b600062ffffff82169050919050565b6000819050919050565b600063ffffffff82169050919050565b82818337600083830152505050565b60005b83811015612c4c578082015181840152602081019050612c31565b83811115612c5b576000848401525b50505050565b60006002820490506001821680612c7957607f821691505b60208210811415612c8d57612c8c612cf3565b5b50919050565b612c9c82612d65565b810181811067ffffffffffffffff82111715612cbb57612cba612d22565b5b80604052505050565b7f4e487b7100000000000000000000000000000000000000000000000000000000600052601160045260246000fd5b7f4e487b7100000000000000000000000000000000000000000000000000000000600052602260045260246000fd5b7f4e487b7100000000000000000000000000000000000000000000000000000000600052604160045260246000fd5b600080fd5b600080fd5b600080fd5b600080fd5b6000601f19601f8301169050919050565b7f4e465420697320616c726561647920617661696c61626c6520666f722072656e60008201527f74696e6700000000000000000000000000000000000000000000000000000000602082015250565b7f496e76616c696420616464726573730000000000000000000000000000000000600082015250565b7f4e6f6e204e4654204f776e657200000000000000000000000000000000000000600082015250565b7f4261642074696d6520626f756e64730000000000000000000000000000000000600082015250565b7f4e6577204e46542063616e277420626520696e20616e7920757365727320776960008201527f73686c6973742079657400000000000000000000000000000000000000000000602082015250565b7f4e4654206973206e6f7420617661696c61626c6520666f722072656e74696e67600082015250565b7f43616e2774206c656e6420736f6d656f6e6520656c73652773204e4654000000600082015250565b7f43616e27742072656e74204e465420666f72206d6f7265207468616e20616d6f60008201527f756e74206f662074696d6520617661696c61626c6520666f722072656e74696e60208201527f6700000000000000000000000000000000000000000000000000000000000000604082015250565b7f5573657220646f6573206e6f7420657869737400000000000000000000000000600082015250565b7f43616e27742072656e74204e465420617320696e73756666696369656e74206160008201527f6d6f756e74207061696400000000000000000000000000000000000000000000602082015250565b7f43616e277420626f72726f77204e465420666f7220616e6f7468657220626f7260008201527f726f776572206164647265737300000000000000000000000000000000000000602082015250565b7f4f6e6c792074686520757365722063616e2061646420686973206163636f756e60008201527f7420746f20617070000000000000000000000000000000000000000000000000602082015250565b7f5573657220646f6573206e6f7420657869737473000000000000000000000000600082015250565b7f5573657220646f6573206e6f74206861766520616e792073756368206c656e6460008201527f6564204e66740000000000000000000000000000000000000000000000000000602082015250565b6130ed81612bb6565b81146130f857600080fd5b50565b61310481612bc8565b811461310f57600080fd5b50565b61311b81612c05565b811461312657600080fd5b50565b61313281612c0f565b811461313d57600080fd5b5056fea264697066735822122070f8695c5ba60f9531c3b99f299be8570f4d18c871a83181734e46185717465e64736f6c63430008050033",
  "linkReferences": {},
  "deployedLinkReferences": {}
}