{
  "_format": "hh-sol-artifact-1",
  "contractName": "NFTRental",
  "sourceName": "contracts/NFTRental.sol",
  "abi": [
    {
      "anonymous": false,
      "inputs": [],
      "name": "NFTLended",
      "type": "event"
    },
    {
      "anonymous": false,
      "inputs": [],
      "name": "NFTRented",
      "type": "event"
    },
    {
      "inputs": [
        {
          "internalType": "string",
          "name": "_nftKey",
          "type": "string"
        },
        {
          "internalType": "address",
          "name": "_nftOwner",
          "type": "address"
        },
        {
          "internalType": "address",
          "name": "_nftAddress",
          "type": "address"
        },
        {
          "internalType": "uint256",
          "name": "_nftId",
          "type": "uint256"
        },
        {
          "internalType": "uint32",
          "name": "_wishlistCount",
          "type": "uint32"
        },
        {
          "internalType": "string",
          "name": "_nftName",
          "type": "string"
        },
        {
          "internalType": "string",
          "name": "_nftImageURL",
          "type": "string"
        },
        {
          "internalType": "address",
          "name": "_lenderAddress",
          "type": "address"
        },
        {
          "internalType": "uint32",
          "name": "_dueDate",
          "type": "uint32"
        },
        {
          "internalType": "uint256",
          "name": "_dailyRent",
          "type": "uint256"
        },
        {
          "internalType": "uint256",
          "name": "_collateral",
          "type": "uint256"
        }
      ],
      "name": "addNFTToLend",
      "outputs": [],
      "stateMutability": "payable",
      "type": "function"
    },
    {
      "inputs": [
        {
          "internalType": "address",
          "name": "_userAddress",
          "type": "address"
        }
      ],
      "name": "addUser",
      "outputs": [],
      "stateMutability": "nonpayable",
      "type": "function"
    },
    {
      "inputs": [
        {
          "internalType": "address",
          "name": "",
          "type": "address"
        }
      ],
      "name": "addressToUser",
      "outputs": [
        {
          "internalType": "address",
          "name": "userAddress",
          "type": "address"
        }
      ],
      "stateMutability": "view",
      "type": "function"
    },
    {
      "inputs": [
        {
          "internalType": "string",
          "name": "_nftKey",
          "type": "string"
        }
      ],
      "name": "claimCollateral",
      "outputs": [],
      "stateMutability": "nonpayable",
      "type": "function"
    },
    {
      "inputs": [],
      "name": "getContractBalance",
      "outputs": [
        {
          "internalType": "uint256",
          "name": "",
          "type": "uint256"
        }
      ],
      "stateMutability": "view",
      "type": "function"
    },
    {
      "inputs": [],
      "name": "getNftKeysListAvaiableForRent",
      "outputs": [
        {
          "internalType": "string[]",
          "name": "",
          "type": "string[]"
        }
      ],
      "stateMutability": "view",
      "type": "function"
    },
    {
      "inputs": [],
      "name": "getUserAddressList",
      "outputs": [
        {
          "internalType": "address[]",
          "name": "",
          "type": "address[]"
        }
      ],
      "stateMutability": "view",
      "type": "function"
    },
    {
      "inputs": [
        {
          "internalType": "address",
          "name": "_userAddress",
          "type": "address"
        },
        {
          "internalType": "string",
          "name": "_nftKey",
          "type": "string"
        }
      ],
      "name": "getUserLendedNFTDetails",
      "outputs": [
        {
          "components": [
            {
              "internalType": "string",
              "name": "nftKey",
              "type": "string"
            },
            {
              "internalType": "address",
              "name": "lenderAddress",
              "type": "address"
            },
            {
              "internalType": "address",
              "name": "borrowerAddress",
              "type": "address"
            },
            {
              "internalType": "uint32",
              "name": "dueDate",
              "type": "uint32"
            },
            {
              "internalType": "uint256",
              "name": "dailyRent",
              "type": "uint256"
            },
            {
              "internalType": "uint256",
              "name": "collateral",
              "type": "uint256"
            }
          ],
          "internalType": "struct NFTRental.lendedNFT",
          "name": "",
          "type": "tuple"
        }
      ],
      "stateMutability": "view",
      "type": "function"
    },
    {
      "inputs": [
        {
          "internalType": "address",
          "name": "_userAddress",
          "type": "address"
        },
        {
          "internalType": "string",
          "name": "_nftKey",
          "type": "string"
        }
      ],
      "name": "getUserRentedNFTDetails",
      "outputs": [
        {
          "components": [
            {
              "internalType": "string",
              "name": "nftKey",
              "type": "string"
            },
            {
              "internalType": "address",
              "name": "lenderAddress",
              "type": "address"
            },
            {
              "internalType": "address",
              "name": "borrowerAddress",
              "type": "address"
            },
            {
              "internalType": "uint16",
              "name": "numberOfDays",
              "type": "uint16"
            },
            {
              "internalType": "uint32",
              "name": "rentalStartTime",
              "type": "uint32"
            }
          ],
          "internalType": "struct NFTRental.rentedNFT",
          "name": "",
          "type": "tuple"
        }
      ],
      "stateMutability": "view",
      "type": "function"
    },
    {
      "inputs": [
        {
          "internalType": "string",
          "name": "",
          "type": "string"
        }
      ],
      "name": "nftKeyToLendedNftDetails",
      "outputs": [
        {
          "internalType": "string",
          "name": "nftKey",
          "type": "string"
        },
        {
          "internalType": "address",
          "name": "lenderAddress",
          "type": "address"
        },
        {
          "internalType": "address",
          "name": "borrowerAddress",
          "type": "address"
        },
        {
          "internalType": "uint32",
          "name": "dueDate",
          "type": "uint32"
        },
        {
          "internalType": "uint256",
          "name": "dailyRent",
          "type": "uint256"
        },
        {
          "internalType": "uint256",
          "name": "collateral",
          "type": "uint256"
        }
      ],
      "stateMutability": "view",
      "type": "function"
    },
    {
      "inputs": [
        {
          "internalType": "string",
          "name": "",
          "type": "string"
        }
      ],
      "name": "nftKeyToNftProps",
      "outputs": [
        {
          "internalType": "string",
          "name": "nftKey",
          "type": "string"
        },
        {
          "internalType": "address",
          "name": "nftOwner",
          "type": "address"
        },
        {
          "internalType": "address",
          "name": "nftAddress",
          "type": "address"
        },
        {
          "internalType": "uint256",
          "name": "nftId",
          "type": "uint256"
        },
        {
          "internalType": "uint32",
          "name": "wishlistCount",
          "type": "uint32"
        },
        {
          "internalType": "string",
          "name": "nftName",
          "type": "string"
        },
        {
          "internalType": "string",
          "name": "nftImageURL",
          "type": "string"
        }
      ],
      "stateMutability": "view",
      "type": "function"
    },
    {
      "inputs": [
        {
          "internalType": "string",
          "name": "",
          "type": "string"
        }
      ],
      "name": "nftKeyToRentedNftDetails",
      "outputs": [
        {
          "internalType": "string",
          "name": "nftKey",
          "type": "string"
        },
        {
          "internalType": "address",
          "name": "lenderAddress",
          "type": "address"
        },
        {
          "internalType": "address",
          "name": "borrowerAddress",
          "type": "address"
        },
        {
          "internalType": "uint16",
          "name": "numberOfDays",
          "type": "uint16"
        },
        {
          "internalType": "uint32",
          "name": "rentalStartTime",
          "type": "uint32"
        }
      ],
      "stateMutability": "view",
      "type": "function"
    },
    {
      "inputs": [
        {
          "internalType": "address",
          "name": "",
          "type": "address"
        },
        {
          "internalType": "address",
          "name": "",
          "type": "address"
        },
        {
          "internalType": "uint256",
          "name": "",
          "type": "uint256"
        },
        {
          "internalType": "bytes",
          "name": "",
          "type": "bytes"
        }
      ],
      "name": "onERC721Received",
      "outputs": [
        {
          "internalType": "bytes4",
          "name": "",
          "type": "bytes4"
        }
      ],
      "stateMutability": "nonpayable",
      "type": "function"
    },
    {
      "inputs": [
        {
          "internalType": "string",
          "name": "_nftKey",
          "type": "string"
        },
        {
          "internalType": "address",
          "name": "_borrowerAddress",
          "type": "address"
        },
        {
          "internalType": "uint16",
          "name": "_numberOfDays",
          "type": "uint16"
        },
        {
          "internalType": "uint32",
          "name": "_rentalStartTime",
          "type": "uint32"
        }
      ],
      "name": "rentNft",
      "outputs": [],
      "stateMutability": "payable",
      "type": "function"
    },
    {
      "inputs": [
        {
          "internalType": "string",
          "name": "_nftKey",
          "type": "string"
        }
      ],
      "name": "stopLend",
      "outputs": [],
      "stateMutability": "nonpayable",
      "type": "function"
    }
  ],
  "bytecode": "0x608060405234801561001057600080fd5b5061564280620000216000396000f3fe6080604052600436106100e85760003560e01c80636f9fb98a1161008a578063deb4121611610059578063deb412161461030f578063e08b57371461034c578063e287183a14610375578063edf538861461039e576100e8565b80636f9fb98a1461023b5780637f73ef6c146102665780638d2221d9146102a3578063dc4ace8c146102e4576100e8565b8063423fdefb116100c6578063423fdefb1461017e5780635289f68a1461019a57806364afd674146101dd578063657ed37d146101f9576100e8565b8063150b7a02146100ed578063213f44ab1461012a578063421b2d8b14610155575b600080fd5b3480156100f957600080fd5b50610114600480360381019061010f9190613b03565b6103db565b6040516101219190614595565b60405180910390f35b34801561013657600080fd5b5061013f6103ef565b60405161014c9190614551565b60405180910390f35b34801561016157600080fd5b5061017c60048036038101906101779190613ad6565b61047d565b005b61019860048036038101906101939190613d73565b6106e0565b005b3480156101a657600080fd5b506101c160048036038101906101bc9190613be2565b6108d6565b6040516101d4979695949392919061460a565b60405180910390f35b6101f760048036038101906101f29190613c2b565b610b16565b005b34801561020557600080fd5b50610220600480360381019061021b9190613be2565b611071565b6040516102329695949392919061468e565b60405180910390f35b34801561024757600080fd5b5061025061119b565b60405161025d9190614a5a565b60405180910390f35b34801561027257600080fd5b5061028d60048036038101906102889190613b86565b6111a3565b60405161029a9190614a38565b60405180910390f35b3480156102af57600080fd5b506102ca60048036038101906102c59190613be2565b6114aa565b6040516102db9594939291906145b0565b60405180910390f35b3480156102f057600080fd5b506102f96115dc565b6040516103069190614573565b60405180910390f35b34801561031b57600080fd5b5061033660048036038101906103319190613b86565b6116b5565b6040516103439190614a16565b60405180910390f35b34801561035857600080fd5b50610373600480360381019061036e9190613be2565b6119b0565b005b34801561038157600080fd5b5061039c60048036038101906103979190613be2565b611ff2565b005b3480156103aa57600080fd5b506103c560048036038101906103c09190613ad6565b6127c2565b6040516103d29190614536565b60405180910390f35b600063150b7a0260e01b9050949350505050565b6060600080548060200260200160405190810160405280929190818152602001828054801561047357602002820191906000526020600020905b8160009054906101000a900473ffffffffffffffffffffffffffffffffffffffff1673ffffffffffffffffffffffffffffffffffffffff1681526020019060010190808311610429575b5050505050905090565b600073ffffffffffffffffffffffffffffffffffffffff168173ffffffffffffffffffffffffffffffffffffffff1614156104ed576040517f08c379a00000000000000000000000000000000000000000000000000000000081526004016104e490614736565b60405180910390fd5b8073ffffffffffffffffffffffffffffffffffffffff163373ffffffffffffffffffffffffffffffffffffffff161461055b576040517f08c379a000000000000000000000000000000000000000000000000000000000815260040161055290614956565b60405180910390fd5b600073ffffffffffffffffffffffffffffffffffffffff16600160008373ffffffffffffffffffffffffffffffffffffffff1673ffffffffffffffffffffffffffffffffffffffff16815260200190815260200160002060000160009054906101000a900473ffffffffffffffffffffffffffffffffffffffff1673ffffffffffffffffffffffffffffffffffffffff1614156106dd576000600160008373ffffffffffffffffffffffffffffffffffffffff1673ffffffffffffffffffffffffffffffffffffffff1681526020019081526020016000209050818160000160006101000a81548173ffffffffffffffffffffffffffffffffffffffff021916908373ffffffffffffffffffffffffffffffffffffffff1602179055506000829080600181540180825580915050600190039060005260206000200160009091909190916101000a81548173ffffffffffffffffffffffffffffffffffffffff021916908373ffffffffffffffffffffffffffffffffffffffff160217905550505b50565b6106ec84848484612800565b60006004856040516106fe9190614508565b908152602001604051809103902060030154905060006004866040516107249190614508565b908152602001604051809103902060040154905060008461ffff168361074a9190614c4b565b90506000828261075a9190614bbb565b90508034101561079f576040517f08c379a0000000000000000000000000000000000000000000000000000000008152600401610796906148f6565b60405180910390fd5b6107ab88888888612b9e565b8034111561080c5760008790508073ffffffffffffffffffffffffffffffffffffffff166108fc83346107de9190614ce3565b9081150290604051600060405180830381858888f19350505050158015610809573d6000803e3d6000fd5b50505b600060048960405161081e9190614508565b908152602001604051809103902060010160009054906101000a900473ffffffffffffffffffffffffffffffffffffffff16905060008190508073ffffffffffffffffffffffffffffffffffffffff166108fc859081150290604051600060405180830381858888f1935050505015801561089d573d6000803e3d6000fd5b507fe85b6202f15dfae39a54e501b5e65cbcc44a996fb8d14f843c7cb8e16fd49c7460405160405180910390a150505050505050505050565b60038180516020810182018051848252602083016020850120818352809550505050505060009150905080600001805461090f90614ddf565b80601f016020809104026020016040519081016040528092919081815260200182805461093b90614ddf565b80156109885780601f1061095d57610100808354040283529160200191610988565b820191906000526020600020905b81548152906001019060200180831161096b57829003601f168201915b5050505050908060010160009054906101000a900473ffffffffffffffffffffffffffffffffffffffff16908060020160009054906101000a900473ffffffffffffffffffffffffffffffffffffffff16908060030154908060040160009054906101000a900463ffffffff1690806005018054610a0590614ddf565b80601f0160208091040260200160405190810160405280929190818152602001828054610a3190614ddf565b8015610a7e5780601f10610a5357610100808354040283529160200191610a7e565b820191906000526020600020905b815481529060010190602001808311610a6157829003601f168201915b505050505090806006018054610a9390614ddf565b80601f0160208091040260200160405190810160405280929190818152602001828054610abf90614ddf565b8015610b0c5780601f10610ae157610100808354040283529160200191610b0c565b820191906000526020600020905b815481529060010190602001808311610aef57829003601f168201915b5050505050905087565b8373ffffffffffffffffffffffffffffffffffffffff163373ffffffffffffffffffffffffffffffffffffffff1614610b84576040517f08c379a0000000000000000000000000000000000000000000000000000000008152600401610b7b90614876565b60405180910390fd5b600073ffffffffffffffffffffffffffffffffffffffff16600160008673ffffffffffffffffffffffffffffffffffffffff1673ffffffffffffffffffffffffffffffffffffffff16815260200190815260200160002060000160009054906101000a900473ffffffffffffffffffffffffffffffffffffffff1673ffffffffffffffffffffffffffffffffffffffff161415610c56576040517f08c379a0000000000000000000000000000000000000000000000000000000008152600401610c4d906148d6565b60405180910390fd5b600073ffffffffffffffffffffffffffffffffffffffff1660038c604051610c7e9190614508565b908152602001604051809103902060020160009054906101000a900473ffffffffffffffffffffffffffffffffffffffff1673ffffffffffffffffffffffffffffffffffffffff1614610d06576040517f08c379a0000000000000000000000000000000000000000000000000000000008152600401610cfd906146f6565b60405180910390fd5b600073ffffffffffffffffffffffffffffffffffffffff1660048c604051610d2e9190614508565b908152602001604051809103902060010160009054906101000a900473ffffffffffffffffffffffffffffffffffffffff1673ffffffffffffffffffffffffffffffffffffffff1614610db6576040517f08c379a0000000000000000000000000000000000000000000000000000000008152600401610dad906146f6565b60405180910390fd5b8373ffffffffffffffffffffffffffffffffffffffff168a73ffffffffffffffffffffffffffffffffffffffff1614610e24576040517f08c379a0000000000000000000000000000000000000000000000000000000008152600401610e1b90614756565b60405180910390fd5b428363ffffffff1611610e6c576040517f08c379a0000000000000000000000000000000000000000000000000000000008152600401610e6390614816565b60405180910390fd5b60008763ffffffff1614610eb5576040517f08c379a0000000000000000000000000000000000000000000000000000000008152600401610eac90614836565b60405180910390fd5b60006040518060e001604052808d81526020018c73ffffffffffffffffffffffffffffffffffffffff1681526020018b73ffffffffffffffffffffffffffffffffffffffff1681526020018a81526020018963ffffffff1681526020018881526020018781525090508060038d604051610f2f9190614508565b90815260200160405180910390206000820151816000019080519060200190610f59929190613765565b5060208201518160010160006101000a81548173ffffffffffffffffffffffffffffffffffffffff021916908373ffffffffffffffffffffffffffffffffffffffff16021790555060408201518160020160006101000a81548173ffffffffffffffffffffffffffffffffffffffff021916908373ffffffffffffffffffffffffffffffffffffffff1602179055506060820151816003015560808201518160040160006101000a81548163ffffffff021916908363ffffffff16021790555060a0820151816005019080519060200190611035929190613765565b5060c0820151816006019080519060200190611052929190613765565b509050506110638c868686866132a7565b505050505050505050505050565b6004818051602081018201805184825260208301602085012081835280955050505050506000915090508060000180546110aa90614ddf565b80601f01602080910402602001604051908101604052809291908181526020018280546110d690614ddf565b80156111235780601f106110f857610100808354040283529160200191611123565b820191906000526020600020905b81548152906001019060200180831161110657829003601f168201915b5050505050908060010160009054906101000a900473ffffffffffffffffffffffffffffffffffffffff16908060020160009054906101000a900473ffffffffffffffffffffffffffffffffffffffff16908060020160149054906101000a900463ffffffff16908060030154908060040154905086565b600047905090565b6111ab6137eb565b600073ffffffffffffffffffffffffffffffffffffffff168373ffffffffffffffffffffffffffffffffffffffff16141561121b576040517f08c379a000000000000000000000000000000000000000000000000000000000815260040161121290614736565b60405180910390fd5b6000600160008573ffffffffffffffffffffffffffffffffffffffff1673ffffffffffffffffffffffffffffffffffffffff1681526020019081526020016000209050600073ffffffffffffffffffffffffffffffffffffffff168160000160009054906101000a900473ffffffffffffffffffffffffffffffffffffffff1673ffffffffffffffffffffffffffffffffffffffff1614156112f2576040517f08c379a00000000000000000000000000000000000000000000000000000000081526004016112e9906149b6565b60405180910390fd5b80600201836040516113049190614508565b90815260200160405180910390206040518060a001604052908160008201805461132d90614ddf565b80601f016020809104026020016040519081016040528092919081815260200182805461135990614ddf565b80156113a65780601f1061137b576101008083540402835291602001916113a6565b820191906000526020600020905b81548152906001019060200180831161138957829003601f168201915b505050505081526020016001820160009054906101000a900473ffffffffffffffffffffffffffffffffffffffff1673ffffffffffffffffffffffffffffffffffffffff1673ffffffffffffffffffffffffffffffffffffffff1681526020016002820160009054906101000a900473ffffffffffffffffffffffffffffffffffffffff1673ffffffffffffffffffffffffffffffffffffffff1673ffffffffffffffffffffffffffffffffffffffff1681526020016002820160149054906101000a900461ffff1661ffff1661ffff1681526020016002820160169054906101000a900463ffffffff1663ffffffff1663ffffffff168152505091505092915050565b6005818051602081018201805184825260208301602085012081835280955050505050506000915090508060000180546114e390614ddf565b80601f016020809104026020016040519081016040528092919081815260200182805461150f90614ddf565b801561155c5780601f106115315761010080835404028352916020019161155c565b820191906000526020600020905b81548152906001019060200180831161153f57829003601f168201915b5050505050908060010160009054906101000a900473ffffffffffffffffffffffffffffffffffffffff16908060020160009054906101000a900473ffffffffffffffffffffffffffffffffffffffff16908060020160149054906101000a900461ffff16908060020160169054906101000a900463ffffffff16905085565b60606002805480602002602001604051908101604052809291908181526020016000905b828210156116ac57838290600052602060002001805461161f90614ddf565b80601f016020809104026020016040519081016040528092919081815260200182805461164b90614ddf565b80156116985780601f1061166d57610100808354040283529160200191611698565b820191906000526020600020905b81548152906001019060200180831161167b57829003601f168201915b505050505081526020019060010190611600565b50505050905090565b6116bd613850565b600073ffffffffffffffffffffffffffffffffffffffff168373ffffffffffffffffffffffffffffffffffffffff16141561172d576040517f08c379a000000000000000000000000000000000000000000000000000000000815260040161172490614736565b60405180910390fd5b6000600160008573ffffffffffffffffffffffffffffffffffffffff1673ffffffffffffffffffffffffffffffffffffffff1681526020019081526020016000209050600073ffffffffffffffffffffffffffffffffffffffff168160000160009054906101000a900473ffffffffffffffffffffffffffffffffffffffff1673ffffffffffffffffffffffffffffffffffffffff161415611804576040517f08c379a00000000000000000000000000000000000000000000000000000000081526004016117fb906149b6565b60405180910390fd5b80600101836040516118169190614508565b90815260200160405180910390206040518060c001604052908160008201805461183f90614ddf565b80601f016020809104026020016040519081016040528092919081815260200182805461186b90614ddf565b80156118b85780601f1061188d576101008083540402835291602001916118b8565b820191906000526020600020905b81548152906001019060200180831161189b57829003601f168201915b505050505081526020016001820160009054906101000a900473ffffffffffffffffffffffffffffffffffffffff1673ffffffffffffffffffffffffffffffffffffffff1673ffffffffffffffffffffffffffffffffffffffff1681526020016002820160009054906101000a900473ffffffffffffffffffffffffffffffffffffffff1673ffffffffffffffffffffffffffffffffffffffff1673ffffffffffffffffffffffffffffffffffffffff1681526020016002820160149054906101000a900463ffffffff1663ffffffff1663ffffffff1681526020016003820154815260200160048201548152505091505092915050565b6000600160003373ffffffffffffffffffffffffffffffffffffffff1673ffffffffffffffffffffffffffffffffffffffff1681526020019081526020016000209050600073ffffffffffffffffffffffffffffffffffffffff168160000160009054906101000a900473ffffffffffffffffffffffffffffffffffffffff1673ffffffffffffffffffffffffffffffffffffffff161415611a87576040517f08c379a0000000000000000000000000000000000000000000000000000000008152600401611a7e906149b6565b60405180910390fd5b6000600383604051611a999190614508565b90815260200160405180910390209050600073ffffffffffffffffffffffffffffffffffffffff168160020160009054906101000a900473ffffffffffffffffffffffffffffffffffffffff1673ffffffffffffffffffffffffffffffffffffffff161415611b3d576040517f08c379a0000000000000000000000000000000000000000000000000000000008152600401611b3490614796565b60405180910390fd5b6000600484604051611b4f9190614508565b90815260200160405180910390209050600073ffffffffffffffffffffffffffffffffffffffff168160010160009054906101000a900473ffffffffffffffffffffffffffffffffffffffff1673ffffffffffffffffffffffffffffffffffffffff161415611bf3576040517f08c379a0000000000000000000000000000000000000000000000000000000008152600401611bea90614776565b60405180910390fd5b600073ffffffffffffffffffffffffffffffffffffffff168160020160009054906101000a900473ffffffffffffffffffffffffffffffffffffffff1673ffffffffffffffffffffffffffffffffffffffff1614611c86576040517f08c379a0000000000000000000000000000000000000000000000000000000008152600401611c7d90614776565b60405180910390fd5b3373ffffffffffffffffffffffffffffffffffffffff168160010160009054906101000a900473ffffffffffffffffffffffffffffffffffffffff1673ffffffffffffffffffffffffffffffffffffffff1614611d18576040517f08c379a0000000000000000000000000000000000000000000000000000000008152600401611d0f906147d6565b60405180910390fd5b3373ffffffffffffffffffffffffffffffffffffffff168360010185604051611d419190614508565b908152602001604051809103902060010160009054906101000a900473ffffffffffffffffffffffffffffffffffffffff1673ffffffffffffffffffffffffffffffffffffffff1614611dc9576040517f08c379a0000000000000000000000000000000000000000000000000000000008152600401611dc0906147b6565b60405180910390fd5b6000611dd4856135d1565b9050611ddf81613680565b600485604051611def9190614508565b908152602001604051809103902060008082016000611e0e91906138b8565b6001820160006101000a81549073ffffffffffffffffffffffffffffffffffffffff02191690556002820160006101000a81549073ffffffffffffffffffffffffffffffffffffffff02191690556002820160146101000a81549063ffffffff0219169055600382016000905560048201600090555050600385604051611e959190614508565b908152602001604051809103902060008082016000611eb491906138b8565b6001820160006101000a81549073ffffffffffffffffffffffffffffffffffffffff02191690556002820160006101000a81549073ffffffffffffffffffffffffffffffffffffffff021916905560038201600090556004820160006101000a81549063ffffffff0219169055600582016000611f3191906138b8565b600682016000611f4191906138b8565b50508360010185604051611f559190614508565b908152602001604051809103902060008082016000611f7491906138b8565b6001820160006101000a81549073ffffffffffffffffffffffffffffffffffffffff02191690556002820160006101000a81549073ffffffffffffffffffffffffffffffffffffffff02191690556002820160146101000a81549063ffffffff02191690556003820160009055600482016000905550505050505050565b6000600160003373ffffffffffffffffffffffffffffffffffffffff1673ffffffffffffffffffffffffffffffffffffffff1681526020019081526020016000209050600073ffffffffffffffffffffffffffffffffffffffff168160000160009054906101000a900473ffffffffffffffffffffffffffffffffffffffff1673ffffffffffffffffffffffffffffffffffffffff1614156120c9576040517f08c379a00000000000000000000000000000000000000000000000000000000081526004016120c090614896565b60405180910390fd5b60006003836040516120db9190614508565b90815260200160405180910390209050600073ffffffffffffffffffffffffffffffffffffffff168160020160009054906101000a900473ffffffffffffffffffffffffffffffffffffffff1673ffffffffffffffffffffffffffffffffffffffff16141561217f576040517f08c379a000000000000000000000000000000000000000000000000000000000815260040161217690614796565b60405180910390fd5b60006004846040516121919190614508565b90815260200160405180910390209050600073ffffffffffffffffffffffffffffffffffffffff168160010160009054906101000a900473ffffffffffffffffffffffffffffffffffffffff1673ffffffffffffffffffffffffffffffffffffffff1614612234576040517f08c379a000000000000000000000000000000000000000000000000000000000815260040161222b90614936565b60405180910390fd5b60006005856040516122469190614508565b90815260200160405180910390209050600073ffffffffffffffffffffffffffffffffffffffff168160020160009054906101000a900473ffffffffffffffffffffffffffffffffffffffff1673ffffffffffffffffffffffffffffffffffffffff1614156122ea576040517f08c379a00000000000000000000000000000000000000000000000000000000081526004016122e190614936565b60405180910390fd5b6000600160008360020160009054906101000a900473ffffffffffffffffffffffffffffffffffffffff1673ffffffffffffffffffffffffffffffffffffffff1673ffffffffffffffffffffffffffffffffffffffff1681526020019081526020016000209050600073ffffffffffffffffffffffffffffffffffffffff168160000160009054906101000a900473ffffffffffffffffffffffffffffffffffffffff1673ffffffffffffffffffffffffffffffffffffffff1614156123e5576040517f08c379a00000000000000000000000000000000000000000000000000000000081526004016123dc906149d6565b60405180910390fd5b600085600101876040516123f99190614508565b908152602001604051809103902090503373ffffffffffffffffffffffffffffffffffffffff168160010160009054906101000a900473ffffffffffffffffffffffffffffffffffffffff1673ffffffffffffffffffffffffffffffffffffffff161461249b576040517f08c379a0000000000000000000000000000000000000000000000000000000008152600401612492906147b6565b60405180910390fd5b60008360020160169054906101000a900463ffffffff1663ffffffff16905060008460020160149054906101000a900461ffff1661ffff169050600062015180826124e69190614ca5565b63ffffffff16836124f79190614bbb565b905042811061253b576040517f08c379a000000000000000000000000000000000000000000000000000000000815260040161253290614996565b60405180910390fd5b60008460040154905060058b6040516125549190614508565b90815260200160405180910390206000808201600061257391906138b8565b6001820160006101000a81549073ffffffffffffffffffffffffffffffffffffffff02191690556002820160006101000a81549073ffffffffffffffffffffffffffffffffffffffff02191690556002820160146101000a81549061ffff02191690556002820160166101000a81549063ffffffff02191690555050896001018b6040516126019190614508565b90815260200160405180910390206000808201600061262091906138b8565b6001820160006101000a81549073ffffffffffffffffffffffffffffffffffffffff02191690556002820160006101000a81549073ffffffffffffffffffffffffffffffffffffffff02191690556002820160146101000a81549063ffffffff0219169055600382016000905560048201600090555050856002018b6040516126a99190614508565b9081526020016040518091039020600080820160006126c891906138b8565b6001820160006101000a81549073ffffffffffffffffffffffffffffffffffffffff02191690556002820160006101000a81549073ffffffffffffffffffffffffffffffffffffffff02191690556002820160146101000a81549061ffff02191690556002820160166101000a81549063ffffffff0219169055505060008a60000160009054906101000a900473ffffffffffffffffffffffffffffffffffffffff1690508073ffffffffffffffffffffffffffffffffffffffff166108fc839081150290604051600060405180830381858888f193505050501580156127b3573d6000803e3d6000fd5b50505050505050505050505050565b60016020528060005260406000206000915090508060000160009054906101000a900473ffffffffffffffffffffffffffffffffffffffff16905081565b8273ffffffffffffffffffffffffffffffffffffffff163373ffffffffffffffffffffffffffffffffffffffff161461286e576040517f08c379a000000000000000000000000000000000000000000000000000000000815260040161286590614916565b60405180910390fd5b600073ffffffffffffffffffffffffffffffffffffffff16600160008573ffffffffffffffffffffffffffffffffffffffff1673ffffffffffffffffffffffffffffffffffffffff16815260200190815260200160002060000160009054906101000a900473ffffffffffffffffffffffffffffffffffffffff1673ffffffffffffffffffffffffffffffffffffffff161415612940576040517f08c379a0000000000000000000000000000000000000000000000000000000008152600401612937906148d6565b60405180910390fd5b60006003856040516129529190614508565b90815260200160405180910390209050600073ffffffffffffffffffffffffffffffffffffffff168160020160009054906101000a900473ffffffffffffffffffffffffffffffffffffffff1673ffffffffffffffffffffffffffffffffffffffff1614156129f6576040517f08c379a00000000000000000000000000000000000000000000000000000000081526004016129ed90614856565b60405180910390fd5b600073ffffffffffffffffffffffffffffffffffffffff16600486604051612a1e9190614508565b908152602001604051809103902060010160009054906101000a900473ffffffffffffffffffffffffffffffffffffffff1673ffffffffffffffffffffffffffffffffffffffff161415612aa7576040517f08c379a0000000000000000000000000000000000000000000000000000000008152600401612a9e90614856565b60405180910390fd5b428263ffffffff1610612aef576040517f08c379a0000000000000000000000000000000000000000000000000000000008152600401612ae690614816565b60405180910390fd5b6000620151808461ffff16612b049190614ca5565b83612b0f9190614c11565b90506000600487604051612b239190614508565b908152602001604051809103902060020160149054906101000a900463ffffffff1690508063ffffffff168263ffffffff1610612b95576040517f08c379a0000000000000000000000000000000000000000000000000000000008152600401612b8c906148b6565b60405180910390fd5b50505050505050565b6000600485604051612bb09190614508565b908152602001604051809103902060010160009054906101000a900473ffffffffffffffffffffffffffffffffffffffff1690508373ffffffffffffffffffffffffffffffffffffffff168173ffffffffffffffffffffffffffffffffffffffff161415612c53576040517f08c379a0000000000000000000000000000000000000000000000000000000008152600401612c4a90614716565b60405180910390fd5b6000600160008373ffffffffffffffffffffffffffffffffffffffff1673ffffffffffffffffffffffffffffffffffffffff1681526020019081526020016000209050600073ffffffffffffffffffffffffffffffffffffffff168160010187604051612cc09190614508565b908152602001604051809103902060020160009054906101000a900473ffffffffffffffffffffffffffffffffffffffff1673ffffffffffffffffffffffffffffffffffffffff1614612d48576040517f08c379a0000000000000000000000000000000000000000000000000000000008152600401612d3f906147f6565b60405180910390fd5b848160010187604051612d5b9190614508565b908152602001604051809103902060020160006101000a81548173ffffffffffffffffffffffffffffffffffffffff021916908373ffffffffffffffffffffffffffffffffffffffff16021790555060006040518060a001604052808881526020018473ffffffffffffffffffffffffffffffffffffffff1681526020018773ffffffffffffffffffffffffffffffffffffffff1681526020018661ffff1681526020018563ffffffff1681525090506000600160008873ffffffffffffffffffffffffffffffffffffffff1673ffffffffffffffffffffffffffffffffffffffff1681526020019081526020016000209050600073ffffffffffffffffffffffffffffffffffffffff168160020189604051612e789190614508565b908152602001604051809103902060020160009054906101000a900473ffffffffffffffffffffffffffffffffffffffff1673ffffffffffffffffffffffffffffffffffffffff1614612f00576040517f08c379a0000000000000000000000000000000000000000000000000000000008152600401612ef7906149f6565b60405180910390fd5b818160020189604051612f139190614508565b90815260200160405180910390206000820151816000019080519060200190612f3d929190613765565b5060208201518160010160006101000a81548173ffffffffffffffffffffffffffffffffffffffff021916908373ffffffffffffffffffffffffffffffffffffffff16021790555060408201518160020160006101000a81548173ffffffffffffffffffffffffffffffffffffffff021916908373ffffffffffffffffffffffffffffffffffffffff16021790555060608201518160020160146101000a81548161ffff021916908361ffff16021790555060808201518160020160166101000a81548163ffffffff021916908363ffffffff160217905550905050600073ffffffffffffffffffffffffffffffffffffffff166005896040516130419190614508565b908152602001604051809103902060020160009054906101000a900473ffffffffffffffffffffffffffffffffffffffff1673ffffffffffffffffffffffffffffffffffffffff16146130c9576040517f08c379a00000000000000000000000000000000000000000000000000000000081526004016130c0906149f6565b60405180910390fd5b816005896040516130da9190614508565b90815260200160405180910390206000820151816000019080519060200190613104929190613765565b5060208201518160010160006101000a81548173ffffffffffffffffffffffffffffffffffffffff021916908373ffffffffffffffffffffffffffffffffffffffff16021790555060408201518160020160006101000a81548173ffffffffffffffffffffffffffffffffffffffff021916908373ffffffffffffffffffffffffffffffffffffffff16021790555060608201518160020160146101000a81548161ffff021916908361ffff16021790555060808201518160020160166101000a81548163ffffffff021916908363ffffffff16021790555090505060006131eb896135d1565b90506131f681613680565b6004896040516132069190614508565b90815260200160405180910390206000808201600061322591906138b8565b6001820160006101000a81549073ffffffffffffffffffffffffffffffffffffffff02191690556002820160006101000a81549073ffffffffffffffffffffffffffffffffffffffff02191690556002820160146101000a81549063ffffffff0219169055600382016000905560048201600090555050505050505050505050565b60006040518060c001604052808781526020018673ffffffffffffffffffffffffffffffffffffffff168152602001600073ffffffffffffffffffffffffffffffffffffffff1681526020018563ffffffff1681526020018481526020018381525090506000600160008773ffffffffffffffffffffffffffffffffffffffff1673ffffffffffffffffffffffffffffffffffffffff16815260200190815260200160002090508181600101886040516133619190614508565b9081526020016040518091039020600082015181600001908051906020019061338b929190613765565b5060208201518160010160006101000a81548173ffffffffffffffffffffffffffffffffffffffff021916908373ffffffffffffffffffffffffffffffffffffffff16021790555060408201518160020160006101000a81548173ffffffffffffffffffffffffffffffffffffffff021916908373ffffffffffffffffffffffffffffffffffffffff16021790555060608201518160020160146101000a81548163ffffffff021916908363ffffffff1602179055506080820151816003015560a08201518160040155905050816004886040516134699190614508565b90815260200160405180910390206000820151816000019080519060200190613493929190613765565b5060208201518160010160006101000a81548173ffffffffffffffffffffffffffffffffffffffff021916908373ffffffffffffffffffffffffffffffffffffffff16021790555060408201518160020160006101000a81548173ffffffffffffffffffffffffffffffffffffffff021916908373ffffffffffffffffffffffffffffffffffffffff16021790555060608201518160020160146101000a81548163ffffffff021916908363ffffffff1602179055506080820151816003015560a0820151816004015590505060028790806001815401808255809150506001900390600052602060002001600090919091909150908051906020019061359b929190613765565b507fdb8317522294099fa9360f57f5f2c8178138bbeb092f99c41ada4fefc39fbe5e60405160405180910390a150505050505050565b600080600280549050905060005b8181101561367557600281815481106135fb576135fa614f18565b5b90600052602060002001604051602001613615919061451f565b604051602081830303815290604052805190602001208460405160200161363c9190614508565b60405160208183030381529060405280519060200120141561366257809250505061367b565b808061366d90614e42565b9150506135df565b50809150505b919050565b60028054905081106136c7576040517f08c379a00000000000000000000000000000000000000000000000000000000081526004016136be90614976565b60405180910390fd5b600060016002805490506136db9190614ce3565b9050600281815481106136f1576136f0614f18565b5b906000526020600020016002838154811061370f5761370e614f18565b5b9060005260206000200190805461372590614ddf565b6137309291906138f8565b50600280548061374357613742614ee9565b5b60019003818190600052602060002001600061375f91906138b8565b90555050565b82805461377190614ddf565b90600052602060002090601f01602090048101928261379357600085556137da565b82601f106137ac57805160ff19168380011785556137da565b828001600101855582156137da579182015b828111156137d95782518255916020019190600101906137be565b5b5090506137e79190613985565b5090565b6040518060a0016040528060608152602001600073ffffffffffffffffffffffffffffffffffffffff168152602001600073ffffffffffffffffffffffffffffffffffffffff168152602001600061ffff168152602001600063ffffffff1681525090565b6040518060c0016040528060608152602001600073ffffffffffffffffffffffffffffffffffffffff168152602001600073ffffffffffffffffffffffffffffffffffffffff168152602001600063ffffffff16815260200160008152602001600081525090565b5080546138c490614ddf565b6000825580601f106138d657506138f5565b601f0160209004906000526020600020908101906138f49190613985565b5b50565b82805461390490614ddf565b90600052602060002090601f0160209004810192826139265760008555613974565b82601f106139375780548555613974565b8280016001018555821561397457600052602060002091601f016020900482015b82811115613973578254825591600101919060010190613958565b5b5090506139819190613985565b5090565b5b8082111561399e576000816000905550600101613986565b5090565b60006139b56139b084614a9a565b614a75565b9050828152602081018484840111156139d1576139d0614f7b565b5b6139dc848285614d9d565b509392505050565b60006139f76139f284614acb565b614a75565b905082815260208101848484011115613a1357613a12614f7b565b5b613a1e848285614d9d565b509392505050565b600081359050613a35816155b0565b92915050565b600082601f830112613a5057613a4f614f76565b5b8135613a608482602086016139a2565b91505092915050565b600082601f830112613a7e57613a7d614f76565b5b8135613a8e8482602086016139e4565b91505092915050565b600081359050613aa6816155c7565b92915050565b600081359050613abb816155de565b92915050565b600081359050613ad0816155f5565b92915050565b600060208284031215613aec57613aeb614f85565b5b6000613afa84828501613a26565b91505092915050565b60008060008060808587031215613b1d57613b1c614f85565b5b6000613b2b87828801613a26565b9450506020613b3c87828801613a26565b9350506040613b4d87828801613aac565b925050606085013567ffffffffffffffff811115613b6e57613b6d614f80565b5b613b7a87828801613a3b565b91505092959194509250565b60008060408385031215613b9d57613b9c614f85565b5b6000613bab85828601613a26565b925050602083013567ffffffffffffffff811115613bcc57613bcb614f80565b5b613bd885828601613a69565b9150509250929050565b600060208284031215613bf857613bf7614f85565b5b600082013567ffffffffffffffff811115613c1657613c15614f80565b5b613c2284828501613a69565b91505092915050565b60008060008060008060008060008060006101608c8e031215613c5157613c50614f85565b5b60008c013567ffffffffffffffff811115613c6f57613c6e614f80565b5b613c7b8e828f01613a69565b9b50506020613c8c8e828f01613a26565b9a50506040613c9d8e828f01613a26565b9950506060613cae8e828f01613aac565b9850506080613cbf8e828f01613ac1565b97505060a08c013567ffffffffffffffff811115613ce057613cdf614f80565b5b613cec8e828f01613a69565b96505060c08c013567ffffffffffffffff811115613d0d57613d0c614f80565b5b613d198e828f01613a69565b95505060e0613d2a8e828f01613a26565b945050610100613d3c8e828f01613ac1565b935050610120613d4e8e828f01613aac565b925050610140613d608e828f01613aac565b9150509295989b509295989b9093969950565b60008060008060808587031215613d8d57613d8c614f85565b5b600085013567ffffffffffffffff811115613dab57613daa614f80565b5b613db787828801613a69565b9450506020613dc887828801613a26565b9350506040613dd987828801613a97565b9250506060613dea87828801613ac1565b91505092959194509250565b6000613e028383613e22565b60208301905092915050565b6000613e1a8383613f22565b905092915050565b613e2b81614d17565b82525050565b613e3a81614d17565b82525050565b6000613e4b82614b31565b613e558185614b6c565b9350613e6083614afc565b8060005b83811015613e91578151613e788882613df6565b9750613e8383614b52565b925050600181019050613e64565b5085935050505092915050565b6000613ea982614b3c565b613eb38185614b7d565b935083602082028501613ec585614b0c565b8060005b85811015613f015784840389528151613ee28582613e0e565b9450613eed83614b5f565b925060208a01995050600181019050613ec9565b50829750879550505050505092915050565b613f1c81614d29565b82525050565b6000613f2d82614b47565b613f378185614b8e565b9350613f47818560208601614dac565b613f5081614f8a565b840191505092915050565b6000613f6682614b47565b613f708185614b9f565b9350613f80818560208601614dac565b613f8981614f8a565b840191505092915050565b6000613f9f82614b47565b613fa98185614bb0565b9350613fb9818560208601614dac565b80840191505092915050565b60008154613fd281614ddf565b613fdc8186614bb0565b94506001821660008114613ff757600181146140085761403b565b60ff1983168652818601935061403b565b61401185614b1c565b60005b8381101561403357815481890152600182019150602081019050614014565b838801955050505b50505092915050565b6000614051602483614b9f565b915061405c82614f9b565b604082019050919050565b6000614074603483614b9f565b915061407f82614fea565b604082019050919050565b6000614097600f83614b9f565b91506140a282615039565b602082019050919050565b60006140ba600d83614b9f565b91506140c582615062565b602082019050919050565b60006140dd601583614b9f565b91506140e88261508b565b602082019050919050565b6000614100601483614b9f565b915061410b826150b4565b602082019050919050565b6000614123602883614b9f565b915061412e826150dd565b604082019050919050565b6000614146602283614b9f565b91506141518261512c565b604082019050919050565b6000614169602283614b9f565b91506141748261517b565b604082019050919050565b600061418c600f83614b9f565b9150614197826151ca565b602082019050919050565b60006141af602a83614b9f565b91506141ba826151f3565b604082019050919050565b60006141d2602083614b9f565b91506141dd82615242565b602082019050919050565b60006141f5601d83614b9f565b91506142008261526b565b602082019050919050565b6000614218601583614b9f565b915061422382615294565b602082019050919050565b600061423b604183614b9f565b9150614246826152bd565b606082019050919050565b600061425e601383614b9f565b915061426982615332565b602082019050919050565b6000614281602a83614b9f565b915061428c8261535b565b604082019050919050565b60006142a4602d83614b9f565b91506142af826153aa565b604082019050919050565b60006142c7601183614b9f565b91506142d2826153f9565b602082019050919050565b60006142ea602883614b9f565b91506142f582615422565b604082019050919050565b600061430d602d83614b9f565b915061431882615471565b604082019050919050565b6000614330602b83614b9f565b915061433b826154c0565b604082019050919050565b6000614353601483614b9f565b915061435e8261550f565b602082019050919050565b6000614376601783614b9f565b915061438182615538565b602082019050919050565b6000614399602a83614b9f565b91506143a482615561565b604082019050919050565b600060c08301600083015184820360008601526143cc8282613f22565b91505060208301516143e16020860182613e22565b5060408301516143f46040860182613e22565b50606083015161440760608601826144ea565b50608083015161441a60808601826144cc565b5060a083015161442d60a08601826144cc565b508091505092915050565b600060a08301600083015184820360008601526144558282613f22565b915050602083015161446a6020860182613e22565b50604083015161447d6040860182613e22565b50606083015161449060608601826144ae565b5060808301516144a360808601826144ea565b508091505092915050565b6144b781614d55565b82525050565b6144c681614d55565b82525050565b6144d581614d83565b82525050565b6144e481614d83565b82525050565b6144f381614d8d565b82525050565b61450281614d8d565b82525050565b60006145148284613f94565b915081905092915050565b600061452b8284613fc5565b915081905092915050565b600060208201905061454b6000830184613e31565b92915050565b6000602082019050818103600083015261456b8184613e40565b905092915050565b6000602082019050818103600083015261458d8184613e9e565b905092915050565b60006020820190506145aa6000830184613f13565b92915050565b600060a08201905081810360008301526145ca8188613f5b565b90506145d96020830187613e31565b6145e66040830186613e31565b6145f360608301856144bd565b61460060808301846144f9565b9695505050505050565b600060e0820190508181036000830152614624818a613f5b565b90506146336020830189613e31565b6146406040830188613e31565b61464d60608301876144db565b61465a60808301866144f9565b81810360a083015261466c8185613f5b565b905081810360c08301526146808184613f5b565b905098975050505050505050565b600060c08201905081810360008301526146a88189613f5b565b90506146b76020830188613e31565b6146c46040830187613e31565b6146d160608301866144f9565b6146de60808301856144db565b6146eb60a08301846144db565b979650505050505050565b6000602082019050818103600083015261470f81614044565b9050919050565b6000602082019050818103600083015261472f81614067565b9050919050565b6000602082019050818103600083015261474f8161408a565b9050919050565b6000602082019050818103600083015261476f816140ad565b9050919050565b6000602082019050818103600083015261478f816140d0565b9050919050565b600060208201905081810360008301526147af816140f3565b9050919050565b600060208201905081810360008301526147cf81614116565b9050919050565b600060208201905081810360008301526147ef81614139565b9050919050565b6000602082019050818103600083015261480f8161415c565b9050919050565b6000602082019050818103600083015261482f8161417f565b9050919050565b6000602082019050818103600083015261484f816141a2565b9050919050565b6000602082019050818103600083015261486f816141c5565b9050919050565b6000602082019050818103600083015261488f816141e8565b9050919050565b600060208201905081810360008301526148af8161420b565b9050919050565b600060208201905081810360008301526148cf8161422e565b9050919050565b600060208201905081810360008301526148ef81614251565b9050919050565b6000602082019050818103600083015261490f81614274565b9050919050565b6000602082019050818103600083015261492f81614297565b9050919050565b6000602082019050818103600083015261494f816142ba565b9050919050565b6000602082019050818103600083015261496f816142dd565b9050919050565b6000602082019050818103600083015261498f81614300565b9050919050565b600060208201905081810360008301526149af81614323565b9050919050565b600060208201905081810360008301526149cf81614346565b9050919050565b600060208201905081810360008301526149ef81614369565b9050919050565b60006020820190508181036000830152614a0f8161438c565b9050919050565b60006020820190508181036000830152614a3081846143af565b905092915050565b60006020820190508181036000830152614a528184614438565b905092915050565b6000602082019050614a6f60008301846144db565b92915050565b6000614a7f614a90565b9050614a8b8282614e11565b919050565b6000604051905090565b600067ffffffffffffffff821115614ab557614ab4614f47565b5b614abe82614f8a565b9050602081019050919050565b600067ffffffffffffffff821115614ae657614ae5614f47565b5b614aef82614f8a565b9050602081019050919050565b6000819050602082019050919050565b6000819050602082019050919050565b60008190508160005260206000209050919050565b600081519050919050565b600081519050919050565b600081519050919050565b6000602082019050919050565b6000602082019050919050565b600082825260208201905092915050565b600082825260208201905092915050565b600082825260208201905092915050565b600082825260208201905092915050565b600081905092915050565b6000614bc682614d83565b9150614bd183614d83565b9250827fffffffffffffffffffffffffffffffffffffffffffffffffffffffffffffffff03821115614c0657614c05614e8b565b5b828201905092915050565b6000614c1c82614d8d565b9150614c2783614d8d565b92508263ffffffff03821115614c4057614c3f614e8b565b5b828201905092915050565b6000614c5682614d83565b9150614c6183614d83565b9250817fffffffffffffffffffffffffffffffffffffffffffffffffffffffffffffffff0483118215151615614c9a57614c99614e8b565b5b828202905092915050565b6000614cb082614d8d565b9150614cbb83614d8d565b92508163ffffffff0483118215151615614cd857614cd7614e8b565b5b828202905092915050565b6000614cee82614d83565b9150614cf983614d83565b925082821015614d0c57614d0b614e8b565b5b828203905092915050565b6000614d2282614d63565b9050919050565b60007fffffffff0000000000000000000000000000000000000000000000000000000082169050919050565b600061ffff82169050919050565b600073ffffffffffffffffffffffffffffffffffffffff82169050919050565b6000819050919050565b600063ffffffff82169050919050565b82818337600083830152505050565b60005b83811015614dca578082015181840152602081019050614daf565b83811115614dd9576000848401525b50505050565b60006002820490506001821680614df757607f821691505b60208210811415614e0b57614e0a614eba565b5b50919050565b614e1a82614f8a565b810181811067ffffffffffffffff82111715614e3957614e38614f47565b5b80604052505050565b6000614e4d82614d83565b91507fffffffffffffffffffffffffffffffffffffffffffffffffffffffffffffffff821415614e8057614e7f614e8b565b5b600182019050919050565b7f4e487b7100000000000000000000000000000000000000000000000000000000600052601160045260246000fd5b7f4e487b7100000000000000000000000000000000000000000000000000000000600052602260045260246000fd5b7f4e487b7100000000000000000000000000000000000000000000000000000000600052603160045260246000fd5b7f4e487b7100000000000000000000000000000000000000000000000000000000600052603260045260246000fd5b7f4e487b7100000000000000000000000000000000000000000000000000000000600052604160045260246000fd5b600080fd5b600080fd5b600080fd5b600080fd5b6000601f19601f8301169050919050565b7f4e465420697320616c726561647920617661696c61626c6520666f722072656e60008201527f74696e6700000000000000000000000000000000000000000000000000000000602082015250565b7f426f72726f77657220616464726573732063616e27742062652074686520736160008201527f6d65206173206c656e6465722061646472657373000000000000000000000000602082015250565b7f496e76616c696420616464726573730000000000000000000000000000000000600082015250565b7f4e6f6e204e4654204f776e657200000000000000000000000000000000000000600082015250565b7f4e465420697320616c72656164792072656e7465640000000000000000000000600082015250565b7f4e4654206973206e6f7420617661696c61626c65000000000000000000000000600082015250565b7f5573657220646f6573206e6f74206861766520616e792073756368204e46547360008201527f206173206c656e64000000000000000000000000000000000000000000000000602082015250565b7f43616e27742073746f70206c656e6420736f6d656f6e6520656c73652773204e60008201527f4654000000000000000000000000000000000000000000000000000000000000602082015250565b7f4e465420616c72656164792072656e74656420627920736f6d656f6e6520656c60008201527f7365000000000000000000000000000000000000000000000000000000000000602082015250565b7f4261642074696d6520626f756e64730000000000000000000000000000000000600082015250565b7f4e6577204e46542063616e277420626520696e20616e7920757365727320776960008201527f73686c6973742079657400000000000000000000000000000000000000000000602082015250565b7f4e4654206973206e6f7420617661696c61626c6520666f722072656e74696e67600082015250565b7f43616e2774206c656e6420736f6d656f6e6520656c73652773204e4654000000600082015250565b7f4c656e64657220646f6573206e6f742065786973740000000000000000000000600082015250565b7f43616e27742072656e74204e465420666f72206d6f7265207468616e20616d6f60008201527f756e74206f662074696d6520617661696c61626c6520666f722072656e74696e60208201527f6700000000000000000000000000000000000000000000000000000000000000604082015250565b7f5573657220646f6573206e6f7420657869737400000000000000000000000000600082015250565b7f43616e27742072656e74204e465420617320696e73756666696369656e74206160008201527f6d6f756e74207061696400000000000000000000000000000000000000000000602082015250565b7f43616e277420626f72726f77204e465420666f7220616e6f7468657220626f7260008201527f726f776572206164647265737300000000000000000000000000000000000000602082015250565b7f4e4654206973206e6f742072656e746564000000000000000000000000000000600082015250565b7f4f6e6c792074686520757365722063616e2061646420686973206163636f756e60008201527f7420746f20617070000000000000000000000000000000000000000000000000602082015250565b7f4e6674206b6579206e6f7420617661696c61626c6520696e207468652061707060008201527f2072656e74696e67206c69737400000000000000000000000000000000000000602082015250565b7f43616e277420636c61696d20636f6c6c61746572616c2074696c6c2072656e7460008201527f656420656e642074696d65000000000000000000000000000000000000000000602082015250565b7f5573657220646f6573206e6f7420657869737473000000000000000000000000600082015250565b7f426f72726f77657220646f6573206e6f74206578697374000000000000000000600082015250565b7f4e667420697320616c72656164792070726573656e7420696e2075736572207260008201527f656e746564204e66747300000000000000000000000000000000000000000000602082015250565b6155b981614d17565b81146155c457600080fd5b50565b6155d081614d55565b81146155db57600080fd5b50565b6155e781614d83565b81146155f257600080fd5b50565b6155fe81614d8d565b811461560957600080fd5b5056fea26469706673582212201d2d69ff468ccf2fb9362bbae7aa2ef77b82a5501d922bb2dd63e0149ec7042664736f6c63430008050033",
  "linkReferences": {},
  "deployedLinkReferences": {}
}