{
  "_format": "hh-sol-artifact-1",
  "contractName": "NFTRental",
  "sourceName": "contracts/NFTRental.sol",
  "abi": [
    {
      "anonymous": false,
      "inputs": [],
      "name": "NFTLended",
      "type": "event"
    },
    {
      "anonymous": false,
      "inputs": [],
      "name": "NFTRented",
      "type": "event"
    },
    {
      "inputs": [
        {
          "internalType": "string",
          "name": "_nftKey",
          "type": "string"
        },
        {
          "internalType": "address",
          "name": "_nftOwner",
          "type": "address"
        },
        {
          "internalType": "address",
          "name": "_nftAddress",
          "type": "address"
        },
        {
          "internalType": "uint256",
          "name": "_nftId",
          "type": "uint256"
        },
        {
          "internalType": "uint32",
          "name": "_wishlistCount",
          "type": "uint32"
        },
        {
          "internalType": "string",
          "name": "_nftName",
          "type": "string"
        },
        {
          "internalType": "string",
          "name": "_nftImageURL",
          "type": "string"
        },
        {
          "internalType": "address",
          "name": "_lenderAddress",
          "type": "address"
        },
        {
          "internalType": "uint32",
          "name": "_dueDate",
          "type": "uint32"
        },
        {
          "internalType": "uint256",
          "name": "_dailyRent",
          "type": "uint256"
        },
        {
          "internalType": "uint256",
          "name": "_collateral",
          "type": "uint256"
        }
      ],
      "name": "addNFTToLend",
      "outputs": [],
      "stateMutability": "payable",
      "type": "function"
    },
    {
      "inputs": [
        {
          "internalType": "address",
          "name": "_userAddress",
          "type": "address"
        }
      ],
      "name": "addUser",
      "outputs": [],
      "stateMutability": "nonpayable",
      "type": "function"
    },
    {
      "inputs": [
        {
          "internalType": "address",
          "name": "",
          "type": "address"
        }
      ],
      "name": "addressToUser",
      "outputs": [
        {
          "internalType": "address",
          "name": "userAddress",
          "type": "address"
        }
      ],
      "stateMutability": "view",
      "type": "function"
    },
    {
      "inputs": [
        {
          "internalType": "address",
          "name": "_nftAddress",
          "type": "address"
        },
        {
          "internalType": "uint256",
          "name": "_nftId",
          "type": "uint256"
        },
        {
          "internalType": "address",
          "name": "_testAddress",
          "type": "address"
        }
      ],
      "name": "approveNFT",
      "outputs": [
        {
          "internalType": "bool",
          "name": "",
          "type": "bool"
        }
      ],
      "stateMutability": "nonpayable",
      "type": "function"
    },
    {
      "inputs": [],
      "name": "getNftKeysListAvaiableForRent",
      "outputs": [
        {
          "internalType": "string[]",
          "name": "",
          "type": "string[]"
        }
      ],
      "stateMutability": "view",
      "type": "function"
    },
    {
      "inputs": [],
      "name": "getUserAddressList",
      "outputs": [
        {
          "internalType": "address[]",
          "name": "",
          "type": "address[]"
        }
      ],
      "stateMutability": "view",
      "type": "function"
    },
    {
      "inputs": [
        {
          "internalType": "address",
          "name": "_userAddress",
          "type": "address"
        },
        {
          "internalType": "string",
          "name": "_nftKey",
          "type": "string"
        }
      ],
      "name": "getUserLendedNFTDetails",
      "outputs": [
        {
          "components": [
            {
              "internalType": "string",
              "name": "nftKey",
              "type": "string"
            },
            {
              "internalType": "address",
              "name": "lenderAddress",
              "type": "address"
            },
            {
              "internalType": "address",
              "name": "borrowerAddress",
              "type": "address"
            },
            {
              "internalType": "uint32",
              "name": "dueDate",
              "type": "uint32"
            },
            {
              "internalType": "uint256",
              "name": "dailyRent",
              "type": "uint256"
            },
            {
              "internalType": "uint256",
              "name": "collateral",
              "type": "uint256"
            }
          ],
          "internalType": "struct NFTRental.lendedNFT",
          "name": "",
          "type": "tuple"
        }
      ],
      "stateMutability": "view",
      "type": "function"
    },
    {
      "inputs": [
        {
          "internalType": "address",
          "name": "_userAddress",
          "type": "address"
        },
        {
          "internalType": "string",
          "name": "_nftKey",
          "type": "string"
        }
      ],
      "name": "getUserRentedNFTDetails",
      "outputs": [
        {
          "components": [
            {
              "internalType": "string",
              "name": "nftKey",
              "type": "string"
            },
            {
              "internalType": "address",
              "name": "lenderAddress",
              "type": "address"
            },
            {
              "internalType": "address",
              "name": "borrowerAddress",
              "type": "address"
            },
            {
              "internalType": "uint16",
              "name": "numberOfDays",
              "type": "uint16"
            },
            {
              "internalType": "uint32",
              "name": "rentalStartTime",
              "type": "uint32"
            }
          ],
          "internalType": "struct NFTRental.rentedNFT",
          "name": "",
          "type": "tuple"
        }
      ],
      "stateMutability": "view",
      "type": "function"
    },
    {
      "inputs": [],
      "name": "msgSender",
      "outputs": [
        {
          "internalType": "address",
          "name": "",
          "type": "address"
        }
      ],
      "stateMutability": "view",
      "type": "function"
    },
    {
      "inputs": [
        {
          "internalType": "string",
          "name": "",
          "type": "string"
        }
      ],
      "name": "nftKeyToLendedNftDetails",
      "outputs": [
        {
          "internalType": "string",
          "name": "nftKey",
          "type": "string"
        },
        {
          "internalType": "address",
          "name": "lenderAddress",
          "type": "address"
        },
        {
          "internalType": "address",
          "name": "borrowerAddress",
          "type": "address"
        },
        {
          "internalType": "uint32",
          "name": "dueDate",
          "type": "uint32"
        },
        {
          "internalType": "uint256",
          "name": "dailyRent",
          "type": "uint256"
        },
        {
          "internalType": "uint256",
          "name": "collateral",
          "type": "uint256"
        }
      ],
      "stateMutability": "view",
      "type": "function"
    },
    {
      "inputs": [
        {
          "internalType": "string",
          "name": "",
          "type": "string"
        }
      ],
      "name": "nftKeyToNftProps",
      "outputs": [
        {
          "internalType": "string",
          "name": "nftKey",
          "type": "string"
        },
        {
          "internalType": "address",
          "name": "nftOwner",
          "type": "address"
        },
        {
          "internalType": "address",
          "name": "nftAddress",
          "type": "address"
        },
        {
          "internalType": "uint256",
          "name": "nftId",
          "type": "uint256"
        },
        {
          "internalType": "uint32",
          "name": "wishlistCount",
          "type": "uint32"
        },
        {
          "internalType": "string",
          "name": "nftName",
          "type": "string"
        },
        {
          "internalType": "string",
          "name": "nftImageURL",
          "type": "string"
        }
      ],
      "stateMutability": "view",
      "type": "function"
    },
    {
      "inputs": [
        {
          "internalType": "string",
          "name": "",
          "type": "string"
        }
      ],
      "name": "nftKeyToRentedNftDetails",
      "outputs": [
        {
          "internalType": "string",
          "name": "nftKey",
          "type": "string"
        },
        {
          "internalType": "address",
          "name": "lenderAddress",
          "type": "address"
        },
        {
          "internalType": "address",
          "name": "borrowerAddress",
          "type": "address"
        },
        {
          "internalType": "uint16",
          "name": "numberOfDays",
          "type": "uint16"
        },
        {
          "internalType": "uint32",
          "name": "rentalStartTime",
          "type": "uint32"
        }
      ],
      "stateMutability": "view",
      "type": "function"
    },
    {
      "inputs": [
        {
          "internalType": "address",
          "name": "",
          "type": "address"
        },
        {
          "internalType": "address",
          "name": "",
          "type": "address"
        },
        {
          "internalType": "uint256",
          "name": "",
          "type": "uint256"
        },
        {
          "internalType": "bytes",
          "name": "",
          "type": "bytes"
        }
      ],
      "name": "onERC721Received",
      "outputs": [
        {
          "internalType": "bytes4",
          "name": "",
          "type": "bytes4"
        }
      ],
      "stateMutability": "nonpayable",
      "type": "function"
    },
    {
      "inputs": [
        {
          "internalType": "string",
          "name": "_nftKey",
          "type": "string"
        },
        {
          "internalType": "address",
          "name": "_borrowerAddress",
          "type": "address"
        },
        {
          "internalType": "uint16",
          "name": "_numberOfDays",
          "type": "uint16"
        },
        {
          "internalType": "uint32",
          "name": "_rentalStartTime",
          "type": "uint32"
        }
      ],
      "name": "rentNft",
      "outputs": [],
      "stateMutability": "payable",
      "type": "function"
    },
    {
      "inputs": [
        {
          "internalType": "address",
          "name": "_nftAddress",
          "type": "address"
        },
        {
          "internalType": "address",
          "name": "_testAddress",
          "type": "address"
        }
      ],
      "name": "setApproval",
      "outputs": [
        {
          "internalType": "bool",
          "name": "",
          "type": "bool"
        }
      ],
      "stateMutability": "nonpayable",
      "type": "function"
    }
  ],
  "bytecode": "0x608060405234801561001057600080fd5b5061490e806100206000396000f3fe6080604052600436106100e85760003560e01c80637f73ef6c1161008a578063d737d0c711610059578063d737d0c714610333578063dc4ace8c1461035e578063deb4121614610389578063edf53886146103c6576100e8565b80637f73ef6c1461023b5780638d2221d914610278578063b3c12354146102b9578063d10b6e0c146102f6576100e8565b8063423fdefb116100c6578063423fdefb1461017e5780635289f68a1461019a57806364afd674146101dd578063657ed37d146101f9576100e8565b8063150b7a02146100ed578063213f44ab1461012a578063421b2d8b14610155575b600080fd5b3480156100f957600080fd5b50610114600480360381019061010f9190612fbd565b610403565b6040516101219190613a4c565b60405180910390f35b34801561013657600080fd5b5061013f610417565b60405161014c91906139ed565b60405180910390f35b34801561016157600080fd5b5061017c60048036038101906101779190612f50565b6104a5565b005b61019860048036038101906101939190613280565b610708565b005b3480156101a657600080fd5b506101c160048036038101906101bc91906130ef565b6108fe565b6040516101d49796959493929190613ac1565b60405180910390f35b6101f760048036038101906101f29190613138565b610b3e565b005b34801561020557600080fd5b50610220600480360381019061021b91906130ef565b611099565b60405161023296959493929190613b45565b60405180910390f35b34801561024757600080fd5b50610262600480360381019061025d9190613040565b6111c3565b60405161026f9190613e2f565b60405180910390f35b34801561028457600080fd5b5061029f600480360381019061029a91906130ef565b61157d565b6040516102b0959493929190613a67565b60405180910390f35b3480156102c557600080fd5b506102e060048036038101906102db9190612f7d565b6116af565b6040516102ed9190613a31565b60405180910390f35b34801561030257600080fd5b5061031d6004803603810190610318919061309c565b61172e565b60405161032a9190613a31565b60405180910390f35b34801561033f57600080fd5b506103486117ad565b6040516103559190613980565b60405180910390f35b34801561036a57600080fd5b506103736117b5565b6040516103809190613a0f565b60405180910390f35b34801561039557600080fd5b506103b060048036038101906103ab9190613040565b61188e565b6040516103bd9190613e0d565b60405180910390f35b3480156103d257600080fd5b506103ed60048036038101906103e89190612f50565b611c3c565b6040516103fa9190613980565b60405180910390f35b600063150b7a0260e01b9050949350505050565b6060600080548060200260200160405190810160405280929190818152602001828054801561049b57602002820191906000526020600020905b8160009054906101000a900473ffffffffffffffffffffffffffffffffffffffff1673ffffffffffffffffffffffffffffffffffffffff1681526020019060010190808311610451575b5050505050905090565b600073ffffffffffffffffffffffffffffffffffffffff168173ffffffffffffffffffffffffffffffffffffffff161415610515576040517f08c379a000000000000000000000000000000000000000000000000000000000815260040161050c90613bed565b60405180910390fd5b8073ffffffffffffffffffffffffffffffffffffffff163373ffffffffffffffffffffffffffffffffffffffff1614610583576040517f08c379a000000000000000000000000000000000000000000000000000000000815260040161057a90613d6d565b60405180910390fd5b600073ffffffffffffffffffffffffffffffffffffffff16600160008373ffffffffffffffffffffffffffffffffffffffff1673ffffffffffffffffffffffffffffffffffffffff16815260200190815260200160002060000160009054906101000a900473ffffffffffffffffffffffffffffffffffffffff1673ffffffffffffffffffffffffffffffffffffffff161415610705576000600160008373ffffffffffffffffffffffffffffffffffffffff1673ffffffffffffffffffffffffffffffffffffffff1681526020019081526020016000209050818160000160006101000a81548173ffffffffffffffffffffffffffffffffffffffff021916908373ffffffffffffffffffffffffffffffffffffffff1602179055506000829080600181540180825580915050600190039060005260206000200160009091909190916101000a81548173ffffffffffffffffffffffffffffffffffffffff021916908373ffffffffffffffffffffffffffffffffffffffff160217905550505b50565b61071484848484611c7a565b60006004856040516107269190613952565b9081526020016040518091039020600301549050600060048660405161074c9190613952565b908152602001604051809103902060040154905060008461ffff16836107729190614027565b9050600082826107829190613f97565b9050803410156107c7576040517f08c379a00000000000000000000000000000000000000000000000000000000081526004016107be90613d2d565b60405180910390fd5b6107d388888888612018565b803411156108345760008790508073ffffffffffffffffffffffffffffffffffffffff166108fc833461080691906140bf565b9081150290604051600060405180830381858888f19350505050158015610831573d6000803e3d6000fd5b50505b60006004896040516108469190613952565b908152602001604051809103902060010160009054906101000a900473ffffffffffffffffffffffffffffffffffffffff16905060008190508073ffffffffffffffffffffffffffffffffffffffff166108fc859081150290604051600060405180830381858888f193505050501580156108c5573d6000803e3d6000fd5b507fe85b6202f15dfae39a54e501b5e65cbcc44a996fb8d14f843c7cb8e16fd49c7460405160405180910390a150505050505050505050565b600381805160208101820180518482526020830160208501208183528095505050505050600091509050806000018054610937906141c7565b80601f0160208091040260200160405190810160405280929190818152602001828054610963906141c7565b80156109b05780601f10610985576101008083540402835291602001916109b0565b820191906000526020600020905b81548152906001019060200180831161099357829003601f168201915b5050505050908060010160009054906101000a900473ffffffffffffffffffffffffffffffffffffffff16908060020160009054906101000a900473ffffffffffffffffffffffffffffffffffffffff16908060030154908060040160009054906101000a900463ffffffff1690806005018054610a2d906141c7565b80601f0160208091040260200160405190810160405280929190818152602001828054610a59906141c7565b8015610aa65780601f10610a7b57610100808354040283529160200191610aa6565b820191906000526020600020905b815481529060010190602001808311610a8957829003601f168201915b505050505090806006018054610abb906141c7565b80601f0160208091040260200160405190810160405280929190818152602001828054610ae7906141c7565b8015610b345780601f10610b0957610100808354040283529160200191610b34565b820191906000526020600020905b815481529060010190602001808311610b1757829003601f168201915b5050505050905087565b8373ffffffffffffffffffffffffffffffffffffffff163373ffffffffffffffffffffffffffffffffffffffff1614610bac576040517f08c379a0000000000000000000000000000000000000000000000000000000008152600401610ba390613ccd565b60405180910390fd5b600073ffffffffffffffffffffffffffffffffffffffff16600160008673ffffffffffffffffffffffffffffffffffffffff1673ffffffffffffffffffffffffffffffffffffffff16815260200190815260200160002060000160009054906101000a900473ffffffffffffffffffffffffffffffffffffffff1673ffffffffffffffffffffffffffffffffffffffff161415610c7e576040517f08c379a0000000000000000000000000000000000000000000000000000000008152600401610c7590613d0d565b60405180910390fd5b600073ffffffffffffffffffffffffffffffffffffffff1660038c604051610ca69190613952565b908152602001604051809103902060020160009054906101000a900473ffffffffffffffffffffffffffffffffffffffff1673ffffffffffffffffffffffffffffffffffffffff1614610d2e576040517f08c379a0000000000000000000000000000000000000000000000000000000008152600401610d2590613bad565b60405180910390fd5b600073ffffffffffffffffffffffffffffffffffffffff1660048c604051610d569190613952565b908152602001604051809103902060010160009054906101000a900473ffffffffffffffffffffffffffffffffffffffff1673ffffffffffffffffffffffffffffffffffffffff1614610dde576040517f08c379a0000000000000000000000000000000000000000000000000000000008152600401610dd590613bad565b60405180910390fd5b8373ffffffffffffffffffffffffffffffffffffffff168a73ffffffffffffffffffffffffffffffffffffffff1614610e4c576040517f08c379a0000000000000000000000000000000000000000000000000000000008152600401610e4390613c0d565b60405180910390fd5b428363ffffffff1611610e94576040517f08c379a0000000000000000000000000000000000000000000000000000000008152600401610e8b90613c4d565b60405180910390fd5b60008763ffffffff1614610edd576040517f08c379a0000000000000000000000000000000000000000000000000000000008152600401610ed490613c6d565b60405180910390fd5b60006040518060e001604052808d81526020018c73ffffffffffffffffffffffffffffffffffffffff1681526020018b73ffffffffffffffffffffffffffffffffffffffff1681526020018a81526020018963ffffffff1681526020018881526020018781525090508060038d604051610f579190613952565b90815260200160405180910390206000820151816000019080519060200190610f81929190612bdf565b5060208201518160010160006101000a81548173ffffffffffffffffffffffffffffffffffffffff021916908373ffffffffffffffffffffffffffffffffffffffff16021790555060408201518160020160006101000a81548173ffffffffffffffffffffffffffffffffffffffff021916908373ffffffffffffffffffffffffffffffffffffffff1602179055506060820151816003015560808201518160040160006101000a81548163ffffffff021916908363ffffffff16021790555060a082015181600501908051906020019061105d929190612bdf565b5060c082015181600601908051906020019061107a929190612bdf565b5090505061108b8c86868686612721565b505050505050505050505050565b6004818051602081018201805184825260208301602085012081835280955050505050506000915090508060000180546110d2906141c7565b80601f01602080910402602001604051908101604052809291908181526020018280546110fe906141c7565b801561114b5780601f106111205761010080835404028352916020019161114b565b820191906000526020600020905b81548152906001019060200180831161112e57829003601f168201915b5050505050908060010160009054906101000a900473ffffffffffffffffffffffffffffffffffffffff16908060020160009054906101000a900473ffffffffffffffffffffffffffffffffffffffff16908060020160149054906101000a900463ffffffff16908060030154908060040154905086565b6111cb612c65565b600073ffffffffffffffffffffffffffffffffffffffff168373ffffffffffffffffffffffffffffffffffffffff16141561123b576040517f08c379a000000000000000000000000000000000000000000000000000000000815260040161123290613bed565b60405180910390fd5b6000600160008573ffffffffffffffffffffffffffffffffffffffff1673ffffffffffffffffffffffffffffffffffffffff1681526020019081526020016000209050600073ffffffffffffffffffffffffffffffffffffffff168160000160009054906101000a900473ffffffffffffffffffffffffffffffffffffffff1673ffffffffffffffffffffffffffffffffffffffff161415611312576040517f08c379a000000000000000000000000000000000000000000000000000000000815260040161130990613dad565b60405180910390fd5b600073ffffffffffffffffffffffffffffffffffffffff16816002018460405161133c9190613952565b908152602001604051809103902060020160009054906101000a900473ffffffffffffffffffffffffffffffffffffffff1673ffffffffffffffffffffffffffffffffffffffff1614156113c5576040517f08c379a00000000000000000000000000000000000000000000000000000000081526004016113bc90613cad565b60405180910390fd5b80600201836040516113d79190613952565b90815260200160405180910390206040518060a0016040529081600082018054611400906141c7565b80601f016020809104026020016040519081016040528092919081815260200182805461142c906141c7565b80156114795780601f1061144e57610100808354040283529160200191611479565b820191906000526020600020905b81548152906001019060200180831161145c57829003601f168201915b505050505081526020016001820160009054906101000a900473ffffffffffffffffffffffffffffffffffffffff1673ffffffffffffffffffffffffffffffffffffffff1673ffffffffffffffffffffffffffffffffffffffff1681526020016002820160009054906101000a900473ffffffffffffffffffffffffffffffffffffffff1673ffffffffffffffffffffffffffffffffffffffff1673ffffffffffffffffffffffffffffffffffffffff1681526020016002820160149054906101000a900461ffff1661ffff1661ffff1681526020016002820160169054906101000a900463ffffffff1663ffffffff1663ffffffff168152505091505092915050565b6005818051602081018201805184825260208301602085012081835280955050505050506000915090508060000180546115b6906141c7565b80601f01602080910402602001604051908101604052809291908181526020018280546115e2906141c7565b801561162f5780601f106116045761010080835404028352916020019161162f565b820191906000526020600020905b81548152906001019060200180831161161257829003601f168201915b5050505050908060010160009054906101000a900473ffffffffffffffffffffffffffffffffffffffff16908060020160009054906101000a900473ffffffffffffffffffffffffffffffffffffffff16908060020160149054906101000a900461ffff16908060020160169054906101000a900463ffffffff16905085565b6000808390508073ffffffffffffffffffffffffffffffffffffffff1663a22cb4658460016040518363ffffffff1660e01b81526004016116f192919061399b565b600060405180830381600087803b15801561170b57600080fd5b505af115801561171f573d6000803e3d6000fd5b50505050600191505092915050565b6000808490508073ffffffffffffffffffffffffffffffffffffffff1663095ea7b384866040518363ffffffff1660e01b815260040161176f9291906139c4565b600060405180830381600087803b15801561178957600080fd5b505af115801561179d573d6000803e3d6000fd5b5050505060019150509392505050565b600033905090565b60606002805480602002602001604051908101604052809291908181526020016000905b828210156118855783829060005260206000200180546117f8906141c7565b80601f0160208091040260200160405190810160405280929190818152602001828054611824906141c7565b80156118715780601f1061184657610100808354040283529160200191611871565b820191906000526020600020905b81548152906001019060200180831161185457829003601f168201915b5050505050815260200190600101906117d9565b50505050905090565b611896612cca565b600073ffffffffffffffffffffffffffffffffffffffff168373ffffffffffffffffffffffffffffffffffffffff161415611906576040517f08c379a00000000000000000000000000000000000000000000000000000000081526004016118fd90613bed565b60405180910390fd5b6000600160008573ffffffffffffffffffffffffffffffffffffffff1673ffffffffffffffffffffffffffffffffffffffff1681526020019081526020016000209050600073ffffffffffffffffffffffffffffffffffffffff168160000160009054906101000a900473ffffffffffffffffffffffffffffffffffffffff1673ffffffffffffffffffffffffffffffffffffffff1614156119dd576040517f08c379a00000000000000000000000000000000000000000000000000000000081526004016119d490613dad565b60405180910390fd5b600073ffffffffffffffffffffffffffffffffffffffff168160010184604051611a079190613952565b908152602001604051809103902060010160009054906101000a900473ffffffffffffffffffffffffffffffffffffffff1673ffffffffffffffffffffffffffffffffffffffff161415611a90576040517f08c379a0000000000000000000000000000000000000000000000000000000008152600401611a8790613dcd565b60405180910390fd5b8060010183604051611aa29190613952565b90815260200160405180910390206040518060c0016040529081600082018054611acb906141c7565b80601f0160208091040260200160405190810160405280929190818152602001828054611af7906141c7565b8015611b445780601f10611b1957610100808354040283529160200191611b44565b820191906000526020600020905b815481529060010190602001808311611b2757829003601f168201915b505050505081526020016001820160009054906101000a900473ffffffffffffffffffffffffffffffffffffffff1673ffffffffffffffffffffffffffffffffffffffff1673ffffffffffffffffffffffffffffffffffffffff1681526020016002820160009054906101000a900473ffffffffffffffffffffffffffffffffffffffff1673ffffffffffffffffffffffffffffffffffffffff1673ffffffffffffffffffffffffffffffffffffffff1681526020016002820160149054906101000a900463ffffffff1663ffffffff1663ffffffff1681526020016003820154815260200160048201548152505091505092915050565b60016020528060005260406000206000915090508060000160009054906101000a900473ffffffffffffffffffffffffffffffffffffffff16905081565b8273ffffffffffffffffffffffffffffffffffffffff163373ffffffffffffffffffffffffffffffffffffffff1614611ce8576040517f08c379a0000000000000000000000000000000000000000000000000000000008152600401611cdf90613d4d565b60405180910390fd5b600073ffffffffffffffffffffffffffffffffffffffff16600160008573ffffffffffffffffffffffffffffffffffffffff1673ffffffffffffffffffffffffffffffffffffffff16815260200190815260200160002060000160009054906101000a900473ffffffffffffffffffffffffffffffffffffffff1673ffffffffffffffffffffffffffffffffffffffff161415611dba576040517f08c379a0000000000000000000000000000000000000000000000000000000008152600401611db190613d0d565b60405180910390fd5b6000600385604051611dcc9190613952565b90815260200160405180910390209050600073ffffffffffffffffffffffffffffffffffffffff168160020160009054906101000a900473ffffffffffffffffffffffffffffffffffffffff1673ffffffffffffffffffffffffffffffffffffffff161415611e70576040517f08c379a0000000000000000000000000000000000000000000000000000000008152600401611e6790613c8d565b60405180910390fd5b600073ffffffffffffffffffffffffffffffffffffffff16600486604051611e989190613952565b908152602001604051809103902060010160009054906101000a900473ffffffffffffffffffffffffffffffffffffffff1673ffffffffffffffffffffffffffffffffffffffff161415611f21576040517f08c379a0000000000000000000000000000000000000000000000000000000008152600401611f1890613c8d565b60405180910390fd5b428263ffffffff1610611f69576040517f08c379a0000000000000000000000000000000000000000000000000000000008152600401611f6090613c4d565b60405180910390fd5b6000620151808461ffff16611f7e9190614081565b83611f899190613fed565b90506000600487604051611f9d9190613952565b908152602001604051809103902060020160149054906101000a900463ffffffff1690508063ffffffff168263ffffffff161061200f576040517f08c379a000000000000000000000000000000000000000000000000000000000815260040161200690613ced565b60405180910390fd5b50505050505050565b600060048560405161202a9190613952565b908152602001604051809103902060010160009054906101000a900473ffffffffffffffffffffffffffffffffffffffff1690508373ffffffffffffffffffffffffffffffffffffffff168173ffffffffffffffffffffffffffffffffffffffff1614156120cd576040517f08c379a00000000000000000000000000000000000000000000000000000000081526004016120c490613bcd565b60405180910390fd5b6000600160008373ffffffffffffffffffffffffffffffffffffffff1673ffffffffffffffffffffffffffffffffffffffff1681526020019081526020016000209050600073ffffffffffffffffffffffffffffffffffffffff16816001018760405161213a9190613952565b908152602001604051809103902060020160009054906101000a900473ffffffffffffffffffffffffffffffffffffffff1673ffffffffffffffffffffffffffffffffffffffff16146121c2576040517f08c379a00000000000000000000000000000000000000000000000000000000081526004016121b990613c2d565b60405180910390fd5b8481600101876040516121d59190613952565b908152602001604051809103902060020160006101000a81548173ffffffffffffffffffffffffffffffffffffffff021916908373ffffffffffffffffffffffffffffffffffffffff16021790555060006040518060a001604052808881526020018473ffffffffffffffffffffffffffffffffffffffff1681526020018773ffffffffffffffffffffffffffffffffffffffff1681526020018661ffff1681526020018563ffffffff1681525090506000600160008873ffffffffffffffffffffffffffffffffffffffff1673ffffffffffffffffffffffffffffffffffffffff1681526020019081526020016000209050600073ffffffffffffffffffffffffffffffffffffffff1681600201896040516122f29190613952565b908152602001604051809103902060020160009054906101000a900473ffffffffffffffffffffffffffffffffffffffff1673ffffffffffffffffffffffffffffffffffffffff161461237a576040517f08c379a000000000000000000000000000000000000000000000000000000000815260040161237190613ded565b60405180910390fd5b81816002018960405161238d9190613952565b908152602001604051809103902060008201518160000190805190602001906123b7929190612bdf565b5060208201518160010160006101000a81548173ffffffffffffffffffffffffffffffffffffffff021916908373ffffffffffffffffffffffffffffffffffffffff16021790555060408201518160020160006101000a81548173ffffffffffffffffffffffffffffffffffffffff021916908373ffffffffffffffffffffffffffffffffffffffff16021790555060608201518160020160146101000a81548161ffff021916908361ffff16021790555060808201518160020160166101000a81548163ffffffff021916908363ffffffff160217905550905050600073ffffffffffffffffffffffffffffffffffffffff166005896040516124bb9190613952565b908152602001604051809103902060020160009054906101000a900473ffffffffffffffffffffffffffffffffffffffff1673ffffffffffffffffffffffffffffffffffffffff1614612543576040517f08c379a000000000000000000000000000000000000000000000000000000000815260040161253a90613ded565b60405180910390fd5b816005896040516125549190613952565b9081526020016040518091039020600082015181600001908051906020019061257e929190612bdf565b5060208201518160010160006101000a81548173ffffffffffffffffffffffffffffffffffffffff021916908373ffffffffffffffffffffffffffffffffffffffff16021790555060408201518160020160006101000a81548173ffffffffffffffffffffffffffffffffffffffff021916908373ffffffffffffffffffffffffffffffffffffffff16021790555060608201518160020160146101000a81548161ffff021916908361ffff16021790555060808201518160020160166101000a81548163ffffffff021916908363ffffffff160217905550905050600061266589612a4b565b905061267081612afa565b6004896040516126809190613952565b90815260200160405180910390206000808201600061269f9190612d32565b6001820160006101000a81549073ffffffffffffffffffffffffffffffffffffffff02191690556002820160006101000a81549073ffffffffffffffffffffffffffffffffffffffff02191690556002820160146101000a81549063ffffffff0219169055600382016000905560048201600090555050505050505050505050565b60006040518060c001604052808781526020018673ffffffffffffffffffffffffffffffffffffffff168152602001600073ffffffffffffffffffffffffffffffffffffffff1681526020018563ffffffff1681526020018481526020018381525090506000600160008773ffffffffffffffffffffffffffffffffffffffff1673ffffffffffffffffffffffffffffffffffffffff16815260200190815260200160002090508181600101886040516127db9190613952565b90815260200160405180910390206000820151816000019080519060200190612805929190612bdf565b5060208201518160010160006101000a81548173ffffffffffffffffffffffffffffffffffffffff021916908373ffffffffffffffffffffffffffffffffffffffff16021790555060408201518160020160006101000a81548173ffffffffffffffffffffffffffffffffffffffff021916908373ffffffffffffffffffffffffffffffffffffffff16021790555060608201518160020160146101000a81548163ffffffff021916908363ffffffff1602179055506080820151816003015560a08201518160040155905050816004886040516128e39190613952565b9081526020016040518091039020600082015181600001908051906020019061290d929190612bdf565b5060208201518160010160006101000a81548173ffffffffffffffffffffffffffffffffffffffff021916908373ffffffffffffffffffffffffffffffffffffffff16021790555060408201518160020160006101000a81548173ffffffffffffffffffffffffffffffffffffffff021916908373ffffffffffffffffffffffffffffffffffffffff16021790555060608201518160020160146101000a81548163ffffffff021916908363ffffffff1602179055506080820151816003015560a08201518160040155905050600287908060018154018082558091505060019003906000526020600020016000909190919091509080519060200190612a15929190612bdf565b507fdb8317522294099fa9360f57f5f2c8178138bbeb092f99c41ada4fefc39fbe5e60405160405180910390a150505050505050565b600080600280549050905060005b81811015612aef5760028181548110612a7557612a74614300565b5b90600052602060002001604051602001612a8f9190613969565b6040516020818303038152906040528051906020012084604051602001612ab69190613952565b604051602081830303815290604052805190602001201415612adc578092505050612af5565b8080612ae79061422a565b915050612a59565b50809150505b919050565b6002805490508110612b41576040517f08c379a0000000000000000000000000000000000000000000000000000000008152600401612b3890613d8d565b60405180910390fd5b60006001600280549050612b5591906140bf565b905060028181548110612b6b57612b6a614300565b5b9060005260206000200160028381548110612b8957612b88614300565b5b90600052602060002001908054612b9f906141c7565b612baa929190612d72565b506002805480612bbd57612bbc6142d1565b5b600190038181906000526020600020016000612bd99190612d32565b90555050565b828054612beb906141c7565b90600052602060002090601f016020900481019282612c0d5760008555612c54565b82601f10612c2657805160ff1916838001178555612c54565b82800160010185558215612c54579182015b82811115612c53578251825591602001919060010190612c38565b5b509050612c619190612dff565b5090565b6040518060a0016040528060608152602001600073ffffffffffffffffffffffffffffffffffffffff168152602001600073ffffffffffffffffffffffffffffffffffffffff168152602001600061ffff168152602001600063ffffffff1681525090565b6040518060c0016040528060608152602001600073ffffffffffffffffffffffffffffffffffffffff168152602001600073ffffffffffffffffffffffffffffffffffffffff168152602001600063ffffffff16815260200160008152602001600081525090565b508054612d3e906141c7565b6000825580601f10612d505750612d6f565b601f016020900490600052602060002090810190612d6e9190612dff565b5b50565b828054612d7e906141c7565b90600052602060002090601f016020900481019282612da05760008555612dee565b82601f10612db15780548555612dee565b82800160010185558215612dee57600052602060002091601f016020900482015b82811115612ded578254825591600101919060010190612dd2565b5b509050612dfb9190612dff565b5090565b5b80821115612e18576000816000905550600101612e00565b5090565b6000612e2f612e2a84613e76565b613e51565b905082815260208101848484011115612e4b57612e4a614363565b5b612e56848285614185565b509392505050565b6000612e71612e6c84613ea7565b613e51565b905082815260208101848484011115612e8d57612e8c614363565b5b612e98848285614185565b509392505050565b600081359050612eaf8161487c565b92915050565b600082601f830112612eca57612ec961435e565b5b8135612eda848260208601612e1c565b91505092915050565b600082601f830112612ef857612ef761435e565b5b8135612f08848260208601612e5e565b91505092915050565b600081359050612f2081614893565b92915050565b600081359050612f35816148aa565b92915050565b600081359050612f4a816148c1565b92915050565b600060208284031215612f6657612f6561436d565b5b6000612f7484828501612ea0565b91505092915050565b60008060408385031215612f9457612f9361436d565b5b6000612fa285828601612ea0565b9250506020612fb385828601612ea0565b9150509250929050565b60008060008060808587031215612fd757612fd661436d565b5b6000612fe587828801612ea0565b9450506020612ff687828801612ea0565b935050604061300787828801612f26565b925050606085013567ffffffffffffffff81111561302857613027614368565b5b61303487828801612eb5565b91505092959194509250565b600080604083850312156130575761305661436d565b5b600061306585828601612ea0565b925050602083013567ffffffffffffffff81111561308657613085614368565b5b61309285828601612ee3565b9150509250929050565b6000806000606084860312156130b5576130b461436d565b5b60006130c386828701612ea0565b93505060206130d486828701612f26565b92505060406130e586828701612ea0565b9150509250925092565b6000602082840312156131055761310461436d565b5b600082013567ffffffffffffffff81111561312357613122614368565b5b61312f84828501612ee3565b91505092915050565b60008060008060008060008060008060006101608c8e03121561315e5761315d61436d565b5b60008c013567ffffffffffffffff81111561317c5761317b614368565b5b6131888e828f01612ee3565b9b505060206131998e828f01612ea0565b9a505060406131aa8e828f01612ea0565b99505060606131bb8e828f01612f26565b98505060806131cc8e828f01612f3b565b97505060a08c013567ffffffffffffffff8111156131ed576131ec614368565b5b6131f98e828f01612ee3565b96505060c08c013567ffffffffffffffff81111561321a57613219614368565b5b6132268e828f01612ee3565b95505060e06132378e828f01612ea0565b9450506101006132498e828f01612f3b565b93505061012061325b8e828f01612f26565b92505061014061326d8e828f01612f26565b9150509295989b509295989b9093969950565b6000806000806080858703121561329a5761329961436d565b5b600085013567ffffffffffffffff8111156132b8576132b7614368565b5b6132c487828801612ee3565b94505060206132d587828801612ea0565b93505060406132e687828801612f11565b92505060606132f787828801612f3b565b91505092959194509250565b600061330f838361332f565b60208301905092915050565b6000613327838361343e565b905092915050565b613338816140f3565b82525050565b613347816140f3565b82525050565b600061335882613f0d565b6133628185613f48565b935061336d83613ed8565b8060005b8381101561339e5781516133858882613303565b975061339083613f2e565b925050600181019050613371565b5085935050505092915050565b60006133b682613f18565b6133c08185613f59565b9350836020820285016133d285613ee8565b8060005b8581101561340e57848403895281516133ef858261331b565b94506133fa83613f3b565b925060208a019950506001810190506133d6565b50829750879550505050505092915050565b61342981614105565b82525050565b61343881614111565b82525050565b600061344982613f23565b6134538185613f6a565b9350613463818560208601614194565b61346c81614372565b840191505092915050565b600061348282613f23565b61348c8185613f7b565b935061349c818560208601614194565b6134a581614372565b840191505092915050565b60006134bb82613f23565b6134c58185613f8c565b93506134d5818560208601614194565b80840191505092915050565b600081546134ee816141c7565b6134f88186613f8c565b94506001821660008114613513576001811461352457613557565b60ff19831686528186019350613557565b61352d85613ef8565b60005b8381101561354f57815481890152600182019150602081019050613530565b838801955050505b50505092915050565b600061356d602483613f7b565b915061357882614383565b604082019050919050565b6000613590603483613f7b565b915061359b826143d2565b604082019050919050565b60006135b3600f83613f7b565b91506135be82614421565b602082019050919050565b60006135d6600d83613f7b565b91506135e18261444a565b602082019050919050565b60006135f9602283613f7b565b915061360482614473565b604082019050919050565b600061361c600f83613f7b565b9150613627826144c2565b602082019050919050565b600061363f602a83613f7b565b915061364a826144eb565b604082019050919050565b6000613662602083613f7b565b915061366d8261453a565b602082019050919050565b6000613685602683613f7b565b915061369082614563565b604082019050919050565b60006136a8601d83613f7b565b91506136b3826145b2565b602082019050919050565b60006136cb604183613f7b565b91506136d6826145db565b606082019050919050565b60006136ee601383613f7b565b91506136f982614650565b602082019050919050565b6000613711602a83613f7b565b915061371c82614679565b604082019050919050565b6000613734602d83613f7b565b915061373f826146c8565b604082019050919050565b6000613757602883613f7b565b915061376282614717565b604082019050919050565b600061377a602d83613f7b565b915061378582614766565b604082019050919050565b600061379d601483613f7b565b91506137a8826147b5565b602082019050919050565b60006137c0602683613f7b565b91506137cb826147de565b604082019050919050565b60006137e3602a83613f7b565b91506137ee8261482d565b604082019050919050565b600060c0830160008301518482036000860152613816828261343e565b915050602083015161382b602086018261332f565b50604083015161383e604086018261332f565b5060608301516138516060860182613934565b5060808301516138646080860182613916565b5060a083015161387760a0860182613916565b508091505092915050565b600060a083016000830151848203600086015261389f828261343e565b91505060208301516138b4602086018261332f565b5060408301516138c7604086018261332f565b5060608301516138da60608601826138f8565b5060808301516138ed6080860182613934565b508091505092915050565b6139018161413d565b82525050565b6139108161413d565b82525050565b61391f8161416b565b82525050565b61392e8161416b565b82525050565b61393d81614175565b82525050565b61394c81614175565b82525050565b600061395e82846134b0565b915081905092915050565b600061397582846134e1565b915081905092915050565b6000602082019050613995600083018461333e565b92915050565b60006040820190506139b0600083018561333e565b6139bd6020830184613420565b9392505050565b60006040820190506139d9600083018561333e565b6139e66020830184613925565b9392505050565b60006020820190508181036000830152613a07818461334d565b905092915050565b60006020820190508181036000830152613a2981846133ab565b905092915050565b6000602082019050613a466000830184613420565b92915050565b6000602082019050613a61600083018461342f565b92915050565b600060a0820190508181036000830152613a818188613477565b9050613a90602083018761333e565b613a9d604083018661333e565b613aaa6060830185613907565b613ab76080830184613943565b9695505050505050565b600060e0820190508181036000830152613adb818a613477565b9050613aea602083018961333e565b613af7604083018861333e565b613b046060830187613925565b613b116080830186613943565b81810360a0830152613b238185613477565b905081810360c0830152613b378184613477565b905098975050505050505050565b600060c0820190508181036000830152613b5f8189613477565b9050613b6e602083018861333e565b613b7b604083018761333e565b613b886060830186613943565b613b956080830185613925565b613ba260a0830184613925565b979650505050505050565b60006020820190508181036000830152613bc681613560565b9050919050565b60006020820190508181036000830152613be681613583565b9050919050565b60006020820190508181036000830152613c06816135a6565b9050919050565b60006020820190508181036000830152613c26816135c9565b9050919050565b60006020820190508181036000830152613c46816135ec565b9050919050565b60006020820190508181036000830152613c668161360f565b9050919050565b60006020820190508181036000830152613c8681613632565b9050919050565b60006020820190508181036000830152613ca681613655565b9050919050565b60006020820190508181036000830152613cc681613678565b9050919050565b60006020820190508181036000830152613ce68161369b565b9050919050565b60006020820190508181036000830152613d06816136be565b9050919050565b60006020820190508181036000830152613d26816136e1565b9050919050565b60006020820190508181036000830152613d4681613704565b9050919050565b60006020820190508181036000830152613d6681613727565b9050919050565b60006020820190508181036000830152613d868161374a565b9050919050565b60006020820190508181036000830152613da68161376d565b9050919050565b60006020820190508181036000830152613dc681613790565b9050919050565b60006020820190508181036000830152613de6816137b3565b9050919050565b60006020820190508181036000830152613e06816137d6565b9050919050565b60006020820190508181036000830152613e2781846137f9565b905092915050565b60006020820190508181036000830152613e498184613882565b905092915050565b6000613e5b613e6c565b9050613e6782826141f9565b919050565b6000604051905090565b600067ffffffffffffffff821115613e9157613e9061432f565b5b613e9a82614372565b9050602081019050919050565b600067ffffffffffffffff821115613ec257613ec161432f565b5b613ecb82614372565b9050602081019050919050565b6000819050602082019050919050565b6000819050602082019050919050565b60008190508160005260206000209050919050565b600081519050919050565b600081519050919050565b600081519050919050565b6000602082019050919050565b6000602082019050919050565b600082825260208201905092915050565b600082825260208201905092915050565b600082825260208201905092915050565b600082825260208201905092915050565b600081905092915050565b6000613fa28261416b565b9150613fad8361416b565b9250827fffffffffffffffffffffffffffffffffffffffffffffffffffffffffffffffff03821115613fe257613fe1614273565b5b828201905092915050565b6000613ff882614175565b915061400383614175565b92508263ffffffff0382111561401c5761401b614273565b5b828201905092915050565b60006140328261416b565b915061403d8361416b565b9250817fffffffffffffffffffffffffffffffffffffffffffffffffffffffffffffffff048311821515161561407657614075614273565b5b828202905092915050565b600061408c82614175565b915061409783614175565b92508163ffffffff04831182151516156140b4576140b3614273565b5b828202905092915050565b60006140ca8261416b565b91506140d58361416b565b9250828210156140e8576140e7614273565b5b828203905092915050565b60006140fe8261414b565b9050919050565b60008115159050919050565b60007fffffffff0000000000000000000000000000000000000000000000000000000082169050919050565b600061ffff82169050919050565b600073ffffffffffffffffffffffffffffffffffffffff82169050919050565b6000819050919050565b600063ffffffff82169050919050565b82818337600083830152505050565b60005b838110156141b2578082015181840152602081019050614197565b838111156141c1576000848401525b50505050565b600060028204905060018216806141df57607f821691505b602082108114156141f3576141f26142a2565b5b50919050565b61420282614372565b810181811067ffffffffffffffff821117156142215761422061432f565b5b80604052505050565b60006142358261416b565b91507fffffffffffffffffffffffffffffffffffffffffffffffffffffffffffffffff82141561426857614267614273565b5b600182019050919050565b7f4e487b7100000000000000000000000000000000000000000000000000000000600052601160045260246000fd5b7f4e487b7100000000000000000000000000000000000000000000000000000000600052602260045260246000fd5b7f4e487b7100000000000000000000000000000000000000000000000000000000600052603160045260246000fd5b7f4e487b7100000000000000000000000000000000000000000000000000000000600052603260045260246000fd5b7f4e487b7100000000000000000000000000000000000000000000000000000000600052604160045260246000fd5b600080fd5b600080fd5b600080fd5b600080fd5b6000601f19601f8301169050919050565b7f4e465420697320616c726561647920617661696c61626c6520666f722072656e60008201527f74696e6700000000000000000000000000000000000000000000000000000000602082015250565b7f426f72726f77657220616464726573732063616e27742062652074686520736160008201527f6d65206173206c656e6465722061646472657373000000000000000000000000602082015250565b7f496e76616c696420616464726573730000000000000000000000000000000000600082015250565b7f4e6f6e204e4654204f776e657200000000000000000000000000000000000000600082015250565b7f4e465420616c72656164792072656e74656420627920736f6d656f6e6520656c60008201527f7365000000000000000000000000000000000000000000000000000000000000602082015250565b7f4261642074696d6520626f756e64730000000000000000000000000000000000600082015250565b7f4e6577204e46542063616e277420626520696e20616e7920757365727320776960008201527f73686c6973742079657400000000000000000000000000000000000000000000602082015250565b7f4e4654206973206e6f7420617661696c61626c6520666f722072656e74696e67600082015250565b7f5573657220646f6573206e6f74206861766520616e7920737563682072656e7460008201527f6564204e66740000000000000000000000000000000000000000000000000000602082015250565b7f43616e2774206c656e6420736f6d656f6e6520656c73652773204e4654000000600082015250565b7f43616e27742072656e74204e465420666f72206d6f7265207468616e20616d6f60008201527f756e74206f662074696d6520617661696c61626c6520666f722072656e74696e60208201527f6700000000000000000000000000000000000000000000000000000000000000604082015250565b7f5573657220646f6573206e6f7420657869737400000000000000000000000000600082015250565b7f43616e27742072656e74204e465420617320696e73756666696369656e74206160008201527f6d6f756e74207061696400000000000000000000000000000000000000000000602082015250565b7f43616e277420626f72726f77204e465420666f7220616e6f7468657220626f7260008201527f726f776572206164647265737300000000000000000000000000000000000000602082015250565b7f4f6e6c792074686520757365722063616e2061646420686973206163636f756e60008201527f7420746f20617070000000000000000000000000000000000000000000000000602082015250565b7f4e6674206b6579206e6f7420617661696c61626c6520696e207468652061707060008201527f2072656e74696e67206c69737400000000000000000000000000000000000000602082015250565b7f5573657220646f6573206e6f7420657869737473000000000000000000000000600082015250565b7f5573657220646f6573206e6f74206861766520616e792073756368206c656e6460008201527f6564204e66740000000000000000000000000000000000000000000000000000602082015250565b7f4e667420697320616c72656164792070726573656e7420696e2075736572207260008201527f656e746564204e66747300000000000000000000000000000000000000000000602082015250565b614885816140f3565b811461489057600080fd5b50565b61489c8161413d565b81146148a757600080fd5b50565b6148b38161416b565b81146148be57600080fd5b50565b6148ca81614175565b81146148d557600080fd5b5056fea264697066735822122071074adb24025ee7e182c4813b1096e1fbfc76618dcdf9b31f0e1ec6ef0077aa64736f6c63430008050033",
  "linkReferences": {},
  "deployedLinkReferences": {}
}