{
  "_format": "hh-sol-artifact-1",
  "contractName": "NFTRental",
  "sourceName": "contracts/NFTRental.sol",
  "abi": [
    {
      "anonymous": false,
      "inputs": [],
      "name": "NFTLended",
      "type": "event"
    },
    {
      "inputs": [
        {
          "internalType": "string",
          "name": "_nftKey",
          "type": "string"
        },
        {
          "internalType": "address",
          "name": "_nftOwner",
          "type": "address"
        },
        {
          "internalType": "address",
          "name": "_nftAddress",
          "type": "address"
        },
        {
          "internalType": "uint256",
          "name": "_nftId",
          "type": "uint256"
        },
        {
          "internalType": "uint32",
          "name": "_wishlistCount",
          "type": "uint32"
        },
        {
          "internalType": "string",
          "name": "_nftName",
          "type": "string"
        },
        {
          "internalType": "string",
          "name": "_nftImageURL",
          "type": "string"
        },
        {
          "internalType": "address",
          "name": "_lenderAddress",
          "type": "address"
        },
        {
          "internalType": "uint32",
          "name": "_dueDate",
          "type": "uint32"
        },
        {
          "internalType": "uint256",
          "name": "_dailyRent",
          "type": "uint256"
        },
        {
          "internalType": "uint256",
          "name": "_collateral",
          "type": "uint256"
        }
      ],
      "name": "addNFTToLend",
      "outputs": [],
      "stateMutability": "nonpayable",
      "type": "function"
    },
    {
      "inputs": [
        {
          "internalType": "address",
          "name": "_userAddress",
          "type": "address"
        }
      ],
      "name": "addUser",
      "outputs": [],
      "stateMutability": "nonpayable",
      "type": "function"
    },
    {
      "inputs": [
        {
          "internalType": "address",
          "name": "",
          "type": "address"
        }
      ],
      "name": "addressToUser",
      "outputs": [
        {
          "internalType": "address",
          "name": "userAddress",
          "type": "address"
        },
        {
          "internalType": "uint32",
          "name": "userLendedNftsSize",
          "type": "uint32"
        },
        {
          "internalType": "uint32",
          "name": "userRentedNftsSize",
          "type": "uint32"
        },
        {
          "internalType": "uint32",
          "name": "userWishlistSize",
          "type": "uint32"
        }
      ],
      "stateMutability": "view",
      "type": "function"
    },
    {
      "inputs": [],
      "name": "getNftKeysListAvaiableForRent",
      "outputs": [
        {
          "internalType": "string[]",
          "name": "",
          "type": "string[]"
        }
      ],
      "stateMutability": "view",
      "type": "function"
    },
    {
      "inputs": [],
      "name": "getUserAddressList",
      "outputs": [
        {
          "internalType": "address[]",
          "name": "",
          "type": "address[]"
        }
      ],
      "stateMutability": "view",
      "type": "function"
    },
    {
      "inputs": [
        {
          "internalType": "address",
          "name": "_userAddress",
          "type": "address"
        },
        {
          "internalType": "uint32",
          "name": "_index",
          "type": "uint32"
        }
      ],
      "name": "getUserLendedNFTDetails",
      "outputs": [
        {
          "components": [
            {
              "internalType": "string",
              "name": "nftKey",
              "type": "string"
            },
            {
              "internalType": "address",
              "name": "lenderAddress",
              "type": "address"
            },
            {
              "internalType": "uint32",
              "name": "dueDate",
              "type": "uint32"
            },
            {
              "internalType": "uint256",
              "name": "dailyRent",
              "type": "uint256"
            },
            {
              "internalType": "uint256",
              "name": "collateral",
              "type": "uint256"
            }
          ],
          "internalType": "struct NFTRental.lendedNFT",
          "name": "",
          "type": "tuple"
        }
      ],
      "stateMutability": "view",
      "type": "function"
    },
    {
      "inputs": [
        {
          "internalType": "string",
          "name": "",
          "type": "string"
        }
      ],
      "name": "nftKeyToLendedNftDetails",
      "outputs": [
        {
          "internalType": "string",
          "name": "nftKey",
          "type": "string"
        },
        {
          "internalType": "address",
          "name": "lenderAddress",
          "type": "address"
        },
        {
          "internalType": "uint32",
          "name": "dueDate",
          "type": "uint32"
        },
        {
          "internalType": "uint256",
          "name": "dailyRent",
          "type": "uint256"
        },
        {
          "internalType": "uint256",
          "name": "collateral",
          "type": "uint256"
        }
      ],
      "stateMutability": "view",
      "type": "function"
    },
    {
      "inputs": [
        {
          "internalType": "string",
          "name": "",
          "type": "string"
        }
      ],
      "name": "nftKeyToNftProps",
      "outputs": [
        {
          "internalType": "string",
          "name": "nftKey",
          "type": "string"
        },
        {
          "internalType": "address",
          "name": "nftOwner",
          "type": "address"
        },
        {
          "internalType": "address",
          "name": "nftAddress",
          "type": "address"
        },
        {
          "internalType": "uint256",
          "name": "nftId",
          "type": "uint256"
        },
        {
          "internalType": "uint32",
          "name": "wishlistCount",
          "type": "uint32"
        },
        {
          "internalType": "string",
          "name": "nftName",
          "type": "string"
        },
        {
          "internalType": "string",
          "name": "nftImageURL",
          "type": "string"
        }
      ],
      "stateMutability": "view",
      "type": "function"
    }
  ],
  "bytecode": "0x608060405234801561001057600080fd5b506121aa806100206000396000f3fe608060405234801561001057600080fd5b50600436106100885760003560e01c8063657ed37d1161005b578063657ed37d14610119578063dc4ace8c1461014d578063eb3439cc1461016b578063edf538861461019b57610088565b8063213f44ab1461008d578063421b2d8b146100ab5780635289f68a146100c757806364afd674146100fd575b600080fd5b6100956101ce565b6040516100a29190611aaa565b60405180910390f35b6100c560048036038101906100c091906114e9565b61025c565b005b6100e160048036038101906100dc9190611556565b61044d565b6040516100f49796959493929190611aee565b60405180910390f35b6101176004803603810190610112919061159f565b61068d565b005b610133600480360381019061012e9190611556565b610b7a565b604051610144959493929190611b72565b60405180910390f35b610155610c7e565b6040516101629190611acc565b60405180910390f35b61018560048036038101906101809190611516565b610d57565b6040516101929190611cac565b60405180910390f35b6101b560048036038101906101b091906114e9565b610fef565b6040516101c59493929190611a65565b60405180910390f35b6060600080548060200260200160405190810160405280929190818152602001828054801561025257602002820191906000526020600020905b8160009054906101000a900473ffffffffffffffffffffffffffffffffffffffff1673ffffffffffffffffffffffffffffffffffffffff1681526020019060010190808311610208575b5050505050905090565b600073ffffffffffffffffffffffffffffffffffffffff16600160008373ffffffffffffffffffffffffffffffffffffffff1673ffffffffffffffffffffffffffffffffffffffff16815260200190815260200160002060000160009054906101000a900473ffffffffffffffffffffffffffffffffffffffff1673ffffffffffffffffffffffffffffffffffffffff16141561044a576000600160008373ffffffffffffffffffffffffffffffffffffffff1673ffffffffffffffffffffffffffffffffffffffff1681526020019081526020016000209050818160000160006101000a81548173ffffffffffffffffffffffffffffffffffffffff021916908373ffffffffffffffffffffffffffffffffffffffff16021790555060008160020160006101000a81548163ffffffff021916908363ffffffff16021790555060008160040160006101000a81548163ffffffff021916908363ffffffff16021790555060008160060160006101000a81548163ffffffff021916908363ffffffff1602179055506000829080600181540180825580915050600190039060005260206000200160009091909190916101000a81548173ffffffffffffffffffffffffffffffffffffffff021916908373ffffffffffffffffffffffffffffffffffffffff160217905550505b50565b60038180516020810182018051848252602083016020850120818352809550505050505060009150905080600001805461048690611e5c565b80601f01602080910402602001604051908101604052809291908181526020018280546104b290611e5c565b80156104ff5780601f106104d4576101008083540402835291602001916104ff565b820191906000526020600020905b8154815290600101906020018083116104e257829003601f168201915b5050505050908060010160009054906101000a900473ffffffffffffffffffffffffffffffffffffffff16908060020160009054906101000a900473ffffffffffffffffffffffffffffffffffffffff16908060030154908060040160009054906101000a900463ffffffff169080600501805461057c90611e5c565b80601f01602080910402602001604051908101604052809291908181526020018280546105a890611e5c565b80156105f55780601f106105ca576101008083540402835291602001916105f5565b820191906000526020600020905b8154815290600101906020018083116105d857829003601f168201915b50505050509080600601805461060a90611e5c565b80601f016020809104026020016040519081016040528092919081815260200182805461063690611e5c565b80156106835780601f1061065857610100808354040283529160200191610683565b820191906000526020600020905b81548152906001019060200180831161066657829003601f168201915b5050505050905087565b600073ffffffffffffffffffffffffffffffffffffffff16600160008673ffffffffffffffffffffffffffffffffffffffff1673ffffffffffffffffffffffffffffffffffffffff16815260200190815260200160002060000160009054906101000a900473ffffffffffffffffffffffffffffffffffffffff1673ffffffffffffffffffffffffffffffffffffffff16141561075f576040517f08c379a000000000000000000000000000000000000000000000000000000000815260040161075690611c6c565b60405180910390fd5b600073ffffffffffffffffffffffffffffffffffffffff1660038c6040516107879190611a4e565b908152602001604051809103902060020160009054906101000a900473ffffffffffffffffffffffffffffffffffffffff1673ffffffffffffffffffffffffffffffffffffffff161461080f576040517f08c379a000000000000000000000000000000000000000000000000000000000815260040161080690611bcc565b60405180910390fd5b600073ffffffffffffffffffffffffffffffffffffffff1660048c6040516108379190611a4e565b908152602001604051809103902060010160009054906101000a900473ffffffffffffffffffffffffffffffffffffffff1673ffffffffffffffffffffffffffffffffffffffff16146108bf576040517f08c379a00000000000000000000000000000000000000000000000000000000081526004016108b690611bcc565b60405180910390fd5b8373ffffffffffffffffffffffffffffffffffffffff168a73ffffffffffffffffffffffffffffffffffffffff161461092d576040517f08c379a000000000000000000000000000000000000000000000000000000000815260040161092490611bec565b60405180910390fd5b428363ffffffff1611610975576040517f08c379a000000000000000000000000000000000000000000000000000000000815260040161096c90611c2c565b60405180910390fd5b60008763ffffffff16146109be576040517f08c379a00000000000000000000000000000000000000000000000000000000081526004016109b590611c4c565b60405180910390fd5b60006040518060e001604052808d81526020018c73ffffffffffffffffffffffffffffffffffffffff1681526020018b73ffffffffffffffffffffffffffffffffffffffff1681526020018a81526020018963ffffffff1681526020018881526020018781525090508060038d604051610a389190611a4e565b90815260200160405180910390206000820151816000019080519060200190610a6292919061134c565b5060208201518160010160006101000a81548173ffffffffffffffffffffffffffffffffffffffff021916908373ffffffffffffffffffffffffffffffffffffffff16021790555060408201518160020160006101000a81548173ffffffffffffffffffffffffffffffffffffffff021916908373ffffffffffffffffffffffffffffffffffffffff1602179055506060820151816003015560808201518160040160006101000a81548163ffffffff021916908363ffffffff16021790555060a0820151816005019080519060200190610b3e92919061134c565b5060c0820151816006019080519060200190610b5b92919061134c565b50905050610b6c8c8686868661106f565b505050505050505050505050565b600481805160208101820180518482526020830160208501208183528095505050505050600091509050806000018054610bb390611e5c565b80601f0160208091040260200160405190810160405280929190818152602001828054610bdf90611e5c565b8015610c2c5780601f10610c0157610100808354040283529160200191610c2c565b820191906000526020600020905b815481529060010190602001808311610c0f57829003601f168201915b5050505050908060010160009054906101000a900473ffffffffffffffffffffffffffffffffffffffff16908060010160149054906101000a900463ffffffff16908060020154908060030154905085565b60606002805480602002602001604051908101604052809291908181526020016000905b82821015610d4e578382906000526020600020018054610cc190611e5c565b80601f0160208091040260200160405190810160405280929190818152602001828054610ced90611e5c565b8015610d3a5780601f10610d0f57610100808354040283529160200191610d3a565b820191906000526020600020905b815481529060010190602001808311610d1d57829003601f168201915b505050505081526020019060010190610ca2565b50505050905090565b610d5f6113d2565b6000600160008573ffffffffffffffffffffffffffffffffffffffff1673ffffffffffffffffffffffffffffffffffffffff1681526020019081526020016000209050600073ffffffffffffffffffffffffffffffffffffffff168160000160009054906101000a900473ffffffffffffffffffffffffffffffffffffffff1673ffffffffffffffffffffffffffffffffffffffff161415610e36576040517f08c379a0000000000000000000000000000000000000000000000000000000008152600401610e2d90611c8c565b60405180910390fd5b8060020160009054906101000a900463ffffffff1663ffffffff168363ffffffff1610610e98576040517f08c379a0000000000000000000000000000000000000000000000000000000008152600401610e8f90611c0c565b60405180910390fd5b8060010160008463ffffffff1663ffffffff1681526020019081526020016000206040518060a0016040529081600082018054610ed490611e5c565b80601f0160208091040260200160405190810160405280929190818152602001828054610f0090611e5c565b8015610f4d5780601f10610f2257610100808354040283529160200191610f4d565b820191906000526020600020905b815481529060010190602001808311610f3057829003601f168201915b505050505081526020016001820160009054906101000a900473ffffffffffffffffffffffffffffffffffffffff1673ffffffffffffffffffffffffffffffffffffffff1673ffffffffffffffffffffffffffffffffffffffff1681526020016001820160149054906101000a900463ffffffff1663ffffffff1663ffffffff1681526020016002820154815260200160038201548152505091505092915050565b60016020528060005260406000206000915090508060000160009054906101000a900473ffffffffffffffffffffffffffffffffffffffff16908060020160009054906101000a900463ffffffff16908060040160009054906101000a900463ffffffff16908060060160009054906101000a900463ffffffff16905084565b60006040518060a001604052808781526020018673ffffffffffffffffffffffffffffffffffffffff1681526020018563ffffffff1681526020018481526020018381525090506000600160008773ffffffffffffffffffffffffffffffffffffffff1673ffffffffffffffffffffffffffffffffffffffff168152602001908152602001600020905060008160020160009054906101000a900463ffffffff169050828260010160008363ffffffff1663ffffffff168152602001908152602001600020600082015181600001908051906020019061115092919061134c565b5060208201518160010160006101000a81548173ffffffffffffffffffffffffffffffffffffffff021916908373ffffffffffffffffffffffffffffffffffffffff16021790555060408201518160010160146101000a81548163ffffffff021916908363ffffffff160217905550606082015181600201556080820151816003015590505081600201600081819054906101000a900463ffffffff16809291906111fa90611ebf565b91906101000a81548163ffffffff021916908363ffffffff160217905550508260048960405161122a9190611a4e565b9081526020016040518091039020600082015181600001908051906020019061125492919061134c565b5060208201518160010160006101000a81548173ffffffffffffffffffffffffffffffffffffffff021916908373ffffffffffffffffffffffffffffffffffffffff16021790555060408201518160010160146101000a81548163ffffffff021916908363ffffffff160217905550606082015181600201556080820151816003015590505060028890806001815401808255809150506001900390600052602060002001600090919091909150908051906020019061131592919061134c565b507fdb8317522294099fa9360f57f5f2c8178138bbeb092f99c41ada4fefc39fbe5e60405160405180910390a15050505050505050565b82805461135890611e5c565b90600052602060002090601f01602090048101928261137a57600085556113c1565b82601f1061139357805160ff19168380011785556113c1565b828001600101855582156113c1579182015b828111156113c05782518255916020019190600101906113a5565b5b5090506113ce919061141d565b5090565b6040518060a0016040528060608152602001600073ffffffffffffffffffffffffffffffffffffffff168152602001600063ffffffff16815260200160008152602001600081525090565b5b8082111561143657600081600090555060010161141e565b5090565b600061144d61144884611cf3565b611cce565b90508281526020810184848401111561146957611468611f7e565b5b611474848285611e1a565b509392505050565b60008135905061148b8161212f565b92915050565b600082601f8301126114a6576114a5611f79565b5b81356114b684826020860161143a565b91505092915050565b6000813590506114ce81612146565b92915050565b6000813590506114e38161215d565b92915050565b6000602082840312156114ff576114fe611f88565b5b600061150d8482850161147c565b91505092915050565b6000806040838503121561152d5761152c611f88565b5b600061153b8582860161147c565b925050602061154c858286016114d4565b9150509250929050565b60006020828403121561156c5761156b611f88565b5b600082013567ffffffffffffffff81111561158a57611589611f83565b5b61159684828501611491565b91505092915050565b60008060008060008060008060008060006101608c8e0312156115c5576115c4611f88565b5b60008c013567ffffffffffffffff8111156115e3576115e2611f83565b5b6115ef8e828f01611491565b9b505060206116008e828f0161147c565b9a505060406116118e828f0161147c565b99505060606116228e828f016114bf565b98505060806116338e828f016114d4565b97505060a08c013567ffffffffffffffff81111561165457611653611f83565b5b6116608e828f01611491565b96505060c08c013567ffffffffffffffff81111561168157611680611f83565b5b61168d8e828f01611491565b95505060e061169e8e828f0161147c565b9450506101006116b08e828f016114d4565b9350506101206116c28e828f016114bf565b9250506101406116d48e828f016114bf565b9150509295989b509295989b9093969950565b60006116f38383611713565b60208301905092915050565b600061170b8383611804565b905092915050565b61171c81611dce565b82525050565b61172b81611dce565b82525050565b600061173c82611d44565b6117468185611d7f565b935061175183611d24565b8060005b8381101561178257815161176988826116e7565b975061177483611d65565b925050600181019050611755565b5085935050505092915050565b600061179a82611d4f565b6117a48185611d90565b9350836020820285016117b685611d34565b8060005b858110156117f257848403895281516117d385826116ff565b94506117de83611d72565b925060208a019950506001810190506117ba565b50829750879550505050505092915050565b600061180f82611d5a565b6118198185611da1565b9350611829818560208601611e29565b61183281611f8d565b840191505092915050565b600061184882611d5a565b6118528185611db2565b9350611862818560208601611e29565b61186b81611f8d565b840191505092915050565b600061188182611d5a565b61188b8185611dc3565b935061189b818560208601611e29565b80840191505092915050565b60006118b4602483611db2565b91506118bf82611f9e565b604082019050919050565b60006118d7600d83611db2565b91506118e282611fed565b602082019050919050565b60006118fa602583611db2565b915061190582612016565b604082019050919050565b600061191d600f83611db2565b915061192882612065565b602082019050919050565b6000611940602a83611db2565b915061194b8261208e565b604082019050919050565b6000611963601383611db2565b915061196e826120dd565b602082019050919050565b6000611986601483611db2565b915061199182612106565b602082019050919050565b600060a08301600083015184820360008601526119b98282611804565b91505060208301516119ce6020860182611713565b5060408301516119e16040860182611a30565b5060608301516119f46060860182611a12565b506080830151611a076080860182611a12565b508091505092915050565b611a1b81611e00565b82525050565b611a2a81611e00565b82525050565b611a3981611e0a565b82525050565b611a4881611e0a565b82525050565b6000611a5a8284611876565b915081905092915050565b6000608082019050611a7a6000830187611722565b611a876020830186611a3f565b611a946040830185611a3f565b611aa16060830184611a3f565b95945050505050565b60006020820190508181036000830152611ac48184611731565b905092915050565b60006020820190508181036000830152611ae6818461178f565b905092915050565b600060e0820190508181036000830152611b08818a61183d565b9050611b176020830189611722565b611b246040830188611722565b611b316060830187611a21565b611b3e6080830186611a3f565b81810360a0830152611b50818561183d565b905081810360c0830152611b64818461183d565b905098975050505050505050565b600060a0820190508181036000830152611b8c818861183d565b9050611b9b6020830187611722565b611ba86040830186611a3f565b611bb56060830185611a21565b611bc26080830184611a21565b9695505050505050565b60006020820190508181036000830152611be5816118a7565b9050919050565b60006020820190508181036000830152611c05816118ca565b9050919050565b60006020820190508181036000830152611c25816118ed565b9050919050565b60006020820190508181036000830152611c4581611910565b9050919050565b60006020820190508181036000830152611c6581611933565b9050919050565b60006020820190508181036000830152611c8581611956565b9050919050565b60006020820190508181036000830152611ca581611979565b9050919050565b60006020820190508181036000830152611cc6818461199c565b905092915050565b6000611cd8611ce9565b9050611ce48282611e8e565b919050565b6000604051905090565b600067ffffffffffffffff821115611d0e57611d0d611f4a565b5b611d1782611f8d565b9050602081019050919050565b6000819050602082019050919050565b6000819050602082019050919050565b600081519050919050565b600081519050919050565b600081519050919050565b6000602082019050919050565b6000602082019050919050565b600082825260208201905092915050565b600082825260208201905092915050565b600082825260208201905092915050565b600082825260208201905092915050565b600081905092915050565b6000611dd982611de0565b9050919050565b600073ffffffffffffffffffffffffffffffffffffffff82169050919050565b6000819050919050565b600063ffffffff82169050919050565b82818337600083830152505050565b60005b83811015611e47578082015181840152602081019050611e2c565b83811115611e56576000848401525b50505050565b60006002820490506001821680611e7457607f821691505b60208210811415611e8857611e87611f1b565b5b50919050565b611e9782611f8d565b810181811067ffffffffffffffff82111715611eb657611eb5611f4a565b5b80604052505050565b6000611eca82611e0a565b915063ffffffff821415611ee157611ee0611eec565b5b600182019050919050565b7f4e487b7100000000000000000000000000000000000000000000000000000000600052601160045260246000fd5b7f4e487b7100000000000000000000000000000000000000000000000000000000600052602260045260246000fd5b7f4e487b7100000000000000000000000000000000000000000000000000000000600052604160045260246000fd5b600080fd5b600080fd5b600080fd5b600080fd5b6000601f19601f8301169050919050565b7f4e465420697320616c726561647920617661696c61626c6520666f722072656e60008201527f74696e6700000000000000000000000000000000000000000000000000000000602082015250565b7f4e6f6e204e4654204f776e657200000000000000000000000000000000000000600082015250565b7f4e66742061742074686520676976656e20696e64657820646f6573206e6f742060008201527f6578697374000000000000000000000000000000000000000000000000000000602082015250565b7f4261642074696d6520626f756e64730000000000000000000000000000000000600082015250565b7f4e6577204e46542063616e277420626520696e20616e7920757365727320776960008201527f73686c6973742079657400000000000000000000000000000000000000000000602082015250565b7f5573657220646f6573206e6f7420657869737400000000000000000000000000600082015250565b7f5573657220646f6573206e6f7420657869737473000000000000000000000000600082015250565b61213881611dce565b811461214357600080fd5b50565b61214f81611e00565b811461215a57600080fd5b50565b61216681611e0a565b811461217157600080fd5b5056fea264697066735822122021429fe9fcf444ceb6a1728299d90aa7733b51a23ac325f0692eda7900c3076464736f6c63430008050033",
  "linkReferences": {},
  "deployedLinkReferences": {}
}