{
  "_format": "hh-sol-artifact-1",
  "contractName": "NFTRental",
  "sourceName": "contracts/NFTRental.sol",
  "abi": [
    {
      "anonymous": false,
      "inputs": [],
      "name": "NFTLended",
      "type": "event"
    },
    {
      "anonymous": false,
      "inputs": [],
      "name": "NFTRented",
      "type": "event"
    },
    {
      "inputs": [
        {
          "internalType": "string",
          "name": "_nftKey",
          "type": "string"
        },
        {
          "internalType": "address",
          "name": "_nftOwner",
          "type": "address"
        },
        {
          "internalType": "address",
          "name": "_nftAddress",
          "type": "address"
        },
        {
          "internalType": "uint256",
          "name": "_nftId",
          "type": "uint256"
        },
        {
          "internalType": "string",
          "name": "_nftName",
          "type": "string"
        },
        {
          "internalType": "string",
          "name": "_nftImageURL",
          "type": "string"
        },
        {
          "internalType": "address",
          "name": "_lenderAddress",
          "type": "address"
        },
        {
          "internalType": "uint32",
          "name": "_dueDate",
          "type": "uint32"
        },
        {
          "internalType": "uint256",
          "name": "_dailyRent",
          "type": "uint256"
        },
        {
          "internalType": "uint256",
          "name": "_collateral",
          "type": "uint256"
        }
      ],
      "name": "addNFTToLend",
      "outputs": [],
      "stateMutability": "payable",
      "type": "function"
    },
    {
      "inputs": [
        {
          "internalType": "address",
          "name": "_userAddress",
          "type": "address"
        }
      ],
      "name": "addUser",
      "outputs": [],
      "stateMutability": "nonpayable",
      "type": "function"
    },
    {
      "inputs": [
        {
          "internalType": "address",
          "name": "",
          "type": "address"
        }
      ],
      "name": "addressToUser",
      "outputs": [
        {
          "internalType": "address",
          "name": "userAddress",
          "type": "address"
        }
      ],
      "stateMutability": "view",
      "type": "function"
    },
    {
      "inputs": [
        {
          "internalType": "string",
          "name": "_nftKey",
          "type": "string"
        }
      ],
      "name": "claimCollateral",
      "outputs": [],
      "stateMutability": "nonpayable",
      "type": "function"
    },
    {
      "inputs": [],
      "name": "getContractBalance",
      "outputs": [
        {
          "internalType": "uint256",
          "name": "",
          "type": "uint256"
        }
      ],
      "stateMutability": "view",
      "type": "function"
    },
    {
      "inputs": [],
      "name": "getNftKeysListAvaiableForRent",
      "outputs": [
        {
          "internalType": "string[]",
          "name": "",
          "type": "string[]"
        }
      ],
      "stateMutability": "view",
      "type": "function"
    },
    {
      "inputs": [],
      "name": "getUserAddressList",
      "outputs": [
        {
          "internalType": "address[]",
          "name": "",
          "type": "address[]"
        }
      ],
      "stateMutability": "view",
      "type": "function"
    },
    {
      "inputs": [
        {
          "internalType": "address",
          "name": "_userAddress",
          "type": "address"
        },
        {
          "internalType": "string",
          "name": "_nftKey",
          "type": "string"
        }
      ],
      "name": "getUserLendedNFTDetails",
      "outputs": [
        {
          "components": [
            {
              "internalType": "string",
              "name": "nftKey",
              "type": "string"
            },
            {
              "internalType": "address",
              "name": "lenderAddress",
              "type": "address"
            },
            {
              "internalType": "address",
              "name": "borrowerAddress",
              "type": "address"
            },
            {
              "internalType": "uint32",
              "name": "dueDate",
              "type": "uint32"
            },
            {
              "internalType": "uint256",
              "name": "dailyRent",
              "type": "uint256"
            },
            {
              "internalType": "uint256",
              "name": "collateral",
              "type": "uint256"
            }
          ],
          "internalType": "struct NFTRental.lendedNFT",
          "name": "",
          "type": "tuple"
        }
      ],
      "stateMutability": "view",
      "type": "function"
    },
    {
      "inputs": [
        {
          "internalType": "address",
          "name": "_userAddress",
          "type": "address"
        },
        {
          "internalType": "uint256",
          "name": "_index",
          "type": "uint256"
        }
      ],
      "name": "getUserLendedNFTListDetails",
      "outputs": [
        {
          "internalType": "string",
          "name": "",
          "type": "string"
        }
      ],
      "stateMutability": "view",
      "type": "function"
    },
    {
      "inputs": [
        {
          "internalType": "address",
          "name": "_userAddress",
          "type": "address"
        },
        {
          "internalType": "string",
          "name": "_nftKey",
          "type": "string"
        }
      ],
      "name": "getUserRentedNFTDetails",
      "outputs": [
        {
          "components": [
            {
              "internalType": "string",
              "name": "nftKey",
              "type": "string"
            },
            {
              "internalType": "address",
              "name": "lenderAddress",
              "type": "address"
            },
            {
              "internalType": "address",
              "name": "borrowerAddress",
              "type": "address"
            },
            {
              "internalType": "uint16",
              "name": "numberOfDays",
              "type": "uint16"
            },
            {
              "internalType": "uint32",
              "name": "rentalStartTime",
              "type": "uint32"
            }
          ],
          "internalType": "struct NFTRental.rentedNFT",
          "name": "",
          "type": "tuple"
        }
      ],
      "stateMutability": "view",
      "type": "function"
    },
    {
      "inputs": [
        {
          "internalType": "address",
          "name": "_userAddress",
          "type": "address"
        },
        {
          "internalType": "uint256",
          "name": "_index",
          "type": "uint256"
        }
      ],
      "name": "getUserRentedNFTListDetails",
      "outputs": [
        {
          "internalType": "string",
          "name": "",
          "type": "string"
        }
      ],
      "stateMutability": "view",
      "type": "function"
    },
    {
      "inputs": [
        {
          "internalType": "string",
          "name": "",
          "type": "string"
        }
      ],
      "name": "nftKeyToLendedNftDetails",
      "outputs": [
        {
          "internalType": "string",
          "name": "nftKey",
          "type": "string"
        },
        {
          "internalType": "address",
          "name": "lenderAddress",
          "type": "address"
        },
        {
          "internalType": "address",
          "name": "borrowerAddress",
          "type": "address"
        },
        {
          "internalType": "uint32",
          "name": "dueDate",
          "type": "uint32"
        },
        {
          "internalType": "uint256",
          "name": "dailyRent",
          "type": "uint256"
        },
        {
          "internalType": "uint256",
          "name": "collateral",
          "type": "uint256"
        }
      ],
      "stateMutability": "view",
      "type": "function"
    },
    {
      "inputs": [
        {
          "internalType": "string",
          "name": "",
          "type": "string"
        }
      ],
      "name": "nftKeyToNftProps",
      "outputs": [
        {
          "internalType": "string",
          "name": "nftKey",
          "type": "string"
        },
        {
          "internalType": "address",
          "name": "nftOwner",
          "type": "address"
        },
        {
          "internalType": "address",
          "name": "nftAddress",
          "type": "address"
        },
        {
          "internalType": "uint256",
          "name": "nftId",
          "type": "uint256"
        },
        {
          "internalType": "string",
          "name": "nftName",
          "type": "string"
        },
        {
          "internalType": "string",
          "name": "nftImageURL",
          "type": "string"
        }
      ],
      "stateMutability": "view",
      "type": "function"
    },
    {
      "inputs": [
        {
          "internalType": "string",
          "name": "",
          "type": "string"
        }
      ],
      "name": "nftKeyToRentedNftDetails",
      "outputs": [
        {
          "internalType": "string",
          "name": "nftKey",
          "type": "string"
        },
        {
          "internalType": "address",
          "name": "lenderAddress",
          "type": "address"
        },
        {
          "internalType": "address",
          "name": "borrowerAddress",
          "type": "address"
        },
        {
          "internalType": "uint16",
          "name": "numberOfDays",
          "type": "uint16"
        },
        {
          "internalType": "uint32",
          "name": "rentalStartTime",
          "type": "uint32"
        }
      ],
      "stateMutability": "view",
      "type": "function"
    },
    {
      "inputs": [
        {
          "internalType": "address",
          "name": "",
          "type": "address"
        },
        {
          "internalType": "address",
          "name": "",
          "type": "address"
        },
        {
          "internalType": "uint256",
          "name": "",
          "type": "uint256"
        },
        {
          "internalType": "bytes",
          "name": "",
          "type": "bytes"
        }
      ],
      "name": "onERC721Received",
      "outputs": [
        {
          "internalType": "bytes4",
          "name": "",
          "type": "bytes4"
        }
      ],
      "stateMutability": "nonpayable",
      "type": "function"
    },
    {
      "inputs": [
        {
          "internalType": "string",
          "name": "_nftKey",
          "type": "string"
        },
        {
          "internalType": "address",
          "name": "_borrowerAddress",
          "type": "address"
        },
        {
          "internalType": "uint16",
          "name": "_numberOfDays",
          "type": "uint16"
        },
        {
          "internalType": "uint32",
          "name": "_rentalStartTime",
          "type": "uint32"
        }
      ],
      "name": "rentNft",
      "outputs": [],
      "stateMutability": "payable",
      "type": "function"
    },
    {
      "inputs": [],
      "name": "returnNFT",
      "outputs": [],
      "stateMutability": "nonpayable",
      "type": "function"
    },
    {
      "inputs": [
        {
          "internalType": "string",
          "name": "_nftKey",
          "type": "string"
        }
      ],
      "name": "stopLend",
      "outputs": [],
      "stateMutability": "nonpayable",
      "type": "function"
    }
  ],
  "bytecode": "0x608060405234801561001057600080fd5b506161ab80620000216000396000f3fe6080604052600436106101095760003560e01c80638d2221d911610095578063dc4ace8c11610064578063dc4ace8c14610395578063deb41216146103c0578063e08b5737146103fd578063e287183a14610426578063edf538861461044f57610109565b80638d2221d9146102e4578063a66a89fd14610325578063c6d62d9014610362578063c81e8d861461037957610109565b80634df3d7b9116100dc5780634df3d7b9146101bb5780635289f68a146101f8578063657ed37d1461023a5780636f9fb98a1461027c5780637f73ef6c146102a757610109565b8063150b7a021461010e578063213f44ab1461014b578063421b2d8b14610176578063423fdefb1461019f575b600080fd5b34801561011a57600080fd5b5061013560048036038101906101309190614509565b61048c565b604051610142919061500c565b60405180910390f35b34801561015757600080fd5b506101606104a0565b60405161016d9190614fc8565b60405180910390f35b34801561018257600080fd5b5061019d600480360381019061019891906144dc565b61052e565b005b6101b960048036038101906101b491906147a4565b610791565b005b3480156101c757600080fd5b506101e260048036038101906101dd91906145e8565b610987565b6040516101ef9190615027565b60405180910390f35b34801561020457600080fd5b5061021f600480360381019061021a9190614628565b610bcb565b604051610231969594939291906150a3565b60405180910390f35b34801561024657600080fd5b50610261600480360381019061025c9190614628565b610df5565b60405161027396959493929190615119565b60405180910390f35b34801561028857600080fd5b50610291610f1f565b60405161029e9190615525565b60405180910390f35b3480156102b357600080fd5b506102ce60048036038101906102c9919061458c565b610f27565b6040516102db9190615503565b60405180910390f35b3480156102f057600080fd5b5061030b60048036038101906103069190614628565b6112e1565b60405161031c959493929190615049565b60405180910390f35b34801561033157600080fd5b5061034c600480360381019061034791906145e8565b611413565b6040516103599190615027565b60405180910390f35b34801561036e57600080fd5b50610377611657565b005b610393600480360381019061038e9190614671565b611659565b005b3480156103a157600080fd5b506103aa611b37565b6040516103b79190614fea565b60405180910390f35b3480156103cc57600080fd5b506103e760048036038101906103e2919061458c565b611c10565b6040516103f491906154e1565b60405180910390f35b34801561040957600080fd5b50610424600480360381019061041f9190614628565b611fbe565b005b34801561043257600080fd5b5061044d60048036038101906104489190614628565b612602565b005b34801561045b57600080fd5b50610476600480360381019061047191906144dc565b612e04565b6040516104839190614fad565b60405180910390f35b600063150b7a0260e01b9050949350505050565b6060600080548060200260200160405190810160405280929190818152602001828054801561052457602002820191906000526020600020905b8160009054906101000a900473ffffffffffffffffffffffffffffffffffffffff1673ffffffffffffffffffffffffffffffffffffffff16815260200190600101908083116104da575b5050505050905090565b600073ffffffffffffffffffffffffffffffffffffffff168173ffffffffffffffffffffffffffffffffffffffff16141561059e576040517f08c379a0000000000000000000000000000000000000000000000000000000008152600401610595906151c1565b60405180910390fd5b8073ffffffffffffffffffffffffffffffffffffffff163373ffffffffffffffffffffffffffffffffffffffff161461060c576040517f08c379a000000000000000000000000000000000000000000000000000000000815260040161060390615401565b60405180910390fd5b600073ffffffffffffffffffffffffffffffffffffffff16600160008373ffffffffffffffffffffffffffffffffffffffff1673ffffffffffffffffffffffffffffffffffffffff16815260200190815260200160002060000160009054906101000a900473ffffffffffffffffffffffffffffffffffffffff1673ffffffffffffffffffffffffffffffffffffffff16141561078e576000600160008373ffffffffffffffffffffffffffffffffffffffff1673ffffffffffffffffffffffffffffffffffffffff1681526020019081526020016000209050818160000160006101000a81548173ffffffffffffffffffffffffffffffffffffffff021916908373ffffffffffffffffffffffffffffffffffffffff1602179055506000829080600181540180825580915050600190039060005260206000200160009091909190916101000a81548173ffffffffffffffffffffffffffffffffffffffff021916908373ffffffffffffffffffffffffffffffffffffffff160217905550505b50565b61079d84848484612e42565b60006004856040516107af9190614f7f565b908152602001604051809103902060030154905060006004866040516107d59190614f7f565b908152602001604051809103902060040154905060008461ffff16836107fb9190615716565b90506000828261080b9190615686565b905080341015610850576040517f08c379a0000000000000000000000000000000000000000000000000000000008152600401610847906153a1565b60405180910390fd5b60006004896040516108629190614f7f565b908152602001604051809103902060010160009054906101000a900473ffffffffffffffffffffffffffffffffffffffff1690506108a2898989896131e0565b813411156109035760008890508073ffffffffffffffffffffffffffffffffffffffff166108fc84346108d591906157ae565b9081150290604051600060405180830381858888f19350505050158015610900573d6000803e3d6000fd5b50505b60008190508073ffffffffffffffffffffffffffffffffffffffff166108fc859081150290604051600060405180830381858888f1935050505015801561094e573d6000803e3d6000fd5b507fe85b6202f15dfae39a54e501b5e65cbcc44a996fb8d14f843c7cb8e16fd49c7460405160405180910390a150505050505050505050565b6060600073ffffffffffffffffffffffffffffffffffffffff168373ffffffffffffffffffffffffffffffffffffffff1614156109f9576040517f08c379a00000000000000000000000000000000000000000000000000000000081526004016109f0906151c1565b60405180910390fd5b6000600160008573ffffffffffffffffffffffffffffffffffffffff1673ffffffffffffffffffffffffffffffffffffffff1681526020019081526020016000209050600073ffffffffffffffffffffffffffffffffffffffff168160000160009054906101000a900473ffffffffffffffffffffffffffffffffffffffff1673ffffffffffffffffffffffffffffffffffffffff161415610ad0576040517f08c379a0000000000000000000000000000000000000000000000000000000008152600401610ac790615461565b60405180910390fd5b80600401805490508310610b19576040517f08c379a0000000000000000000000000000000000000000000000000000000008152600401610b1090615201565b60405180910390fd5b806004018381548110610b2f57610b2e6159e3565b5b906000526020600020018054610b44906158aa565b80601f0160208091040260200160405190810160405280929190818152602001828054610b70906158aa565b8015610bbd5780601f10610b9257610100808354040283529160200191610bbd565b820191906000526020600020905b815481529060010190602001808311610ba057829003601f168201915b505050505091505092915050565b600381805160208101820180518482526020830160208501208183528095505050505050600091509050806000018054610c04906158aa565b80601f0160208091040260200160405190810160405280929190818152602001828054610c30906158aa565b8015610c7d5780601f10610c5257610100808354040283529160200191610c7d565b820191906000526020600020905b815481529060010190602001808311610c6057829003601f168201915b5050505050908060010160009054906101000a900473ffffffffffffffffffffffffffffffffffffffff16908060020160009054906101000a900473ffffffffffffffffffffffffffffffffffffffff1690806003015490806004018054610ce4906158aa565b80601f0160208091040260200160405190810160405280929190818152602001828054610d10906158aa565b8015610d5d5780601f10610d3257610100808354040283529160200191610d5d565b820191906000526020600020905b815481529060010190602001808311610d4057829003601f168201915b505050505090806005018054610d72906158aa565b80601f0160208091040260200160405190810160405280929190818152602001828054610d9e906158aa565b8015610deb5780601f10610dc057610100808354040283529160200191610deb565b820191906000526020600020905b815481529060010190602001808311610dce57829003601f168201915b5050505050905086565b600481805160208101820180518482526020830160208501208183528095505050505050600091509050806000018054610e2e906158aa565b80601f0160208091040260200160405190810160405280929190818152602001828054610e5a906158aa565b8015610ea75780601f10610e7c57610100808354040283529160200191610ea7565b820191906000526020600020905b815481529060010190602001808311610e8a57829003601f168201915b5050505050908060010160009054906101000a900473ffffffffffffffffffffffffffffffffffffffff16908060020160009054906101000a900473ffffffffffffffffffffffffffffffffffffffff16908060020160149054906101000a900463ffffffff16908060030154908060040154905086565b600047905090565b610f2f61416b565b600073ffffffffffffffffffffffffffffffffffffffff168373ffffffffffffffffffffffffffffffffffffffff161415610f9f576040517f08c379a0000000000000000000000000000000000000000000000000000000008152600401610f96906151c1565b60405180910390fd5b6000600160008573ffffffffffffffffffffffffffffffffffffffff1673ffffffffffffffffffffffffffffffffffffffff1681526020019081526020016000209050600073ffffffffffffffffffffffffffffffffffffffff168160000160009054906101000a900473ffffffffffffffffffffffffffffffffffffffff1673ffffffffffffffffffffffffffffffffffffffff161415611076576040517f08c379a000000000000000000000000000000000000000000000000000000000815260040161106d90615461565b60405180910390fd5b600073ffffffffffffffffffffffffffffffffffffffff1681600301846040516110a09190614f7f565b908152602001604051809103902060020160009054906101000a900473ffffffffffffffffffffffffffffffffffffffff1673ffffffffffffffffffffffffffffffffffffffff161415611129576040517f08c379a000000000000000000000000000000000000000000000000000000000815260040161112090615301565b60405180910390fd5b806003018360405161113b9190614f7f565b90815260200160405180910390206040518060a0016040529081600082018054611164906158aa565b80601f0160208091040260200160405190810160405280929190818152602001828054611190906158aa565b80156111dd5780601f106111b2576101008083540402835291602001916111dd565b820191906000526020600020905b8154815290600101906020018083116111c057829003601f168201915b505050505081526020016001820160009054906101000a900473ffffffffffffffffffffffffffffffffffffffff1673ffffffffffffffffffffffffffffffffffffffff1673ffffffffffffffffffffffffffffffffffffffff1681526020016002820160009054906101000a900473ffffffffffffffffffffffffffffffffffffffff1673ffffffffffffffffffffffffffffffffffffffff1673ffffffffffffffffffffffffffffffffffffffff1681526020016002820160149054906101000a900461ffff1661ffff1661ffff1681526020016002820160169054906101000a900463ffffffff1663ffffffff1663ffffffff168152505091505092915050565b60058180516020810182018051848252602083016020850120818352809550505050505060009150905080600001805461131a906158aa565b80601f0160208091040260200160405190810160405280929190818152602001828054611346906158aa565b80156113935780601f1061136857610100808354040283529160200191611393565b820191906000526020600020905b81548152906001019060200180831161137657829003601f168201915b5050505050908060010160009054906101000a900473ffffffffffffffffffffffffffffffffffffffff16908060020160009054906101000a900473ffffffffffffffffffffffffffffffffffffffff16908060020160149054906101000a900461ffff16908060020160169054906101000a900463ffffffff16905085565b6060600073ffffffffffffffffffffffffffffffffffffffff168373ffffffffffffffffffffffffffffffffffffffff161415611485576040517f08c379a000000000000000000000000000000000000000000000000000000000815260040161147c906151c1565b60405180910390fd5b6000600160008573ffffffffffffffffffffffffffffffffffffffff1673ffffffffffffffffffffffffffffffffffffffff1681526020019081526020016000209050600073ffffffffffffffffffffffffffffffffffffffff168160000160009054906101000a900473ffffffffffffffffffffffffffffffffffffffff1673ffffffffffffffffffffffffffffffffffffffff16141561155c576040517f08c379a000000000000000000000000000000000000000000000000000000000815260040161155390615461565b60405180910390fd5b806002018054905083106115a5576040517f08c379a000000000000000000000000000000000000000000000000000000000815260040161159c90615201565b60405180910390fd5b8060020183815481106115bb576115ba6159e3565b5b9060005260206000200180546115d0906158aa565b80601f01602080910402602001604051908101604052809291908181526020018280546115fc906158aa565b80156116495780601f1061161e57610100808354040283529160200191611649565b820191906000526020600020905b81548152906001019060200180831161162c57829003601f168201915b505050505091505092915050565b565b8373ffffffffffffffffffffffffffffffffffffffff163373ffffffffffffffffffffffffffffffffffffffff16146116c7576040517f08c379a00000000000000000000000000000000000000000000000000000000081526004016116be90615321565b60405180910390fd5b600073ffffffffffffffffffffffffffffffffffffffff16600160008673ffffffffffffffffffffffffffffffffffffffff1673ffffffffffffffffffffffffffffffffffffffff16815260200190815260200160002060000160009054906101000a900473ffffffffffffffffffffffffffffffffffffffff1673ffffffffffffffffffffffffffffffffffffffff161415611799576040517f08c379a000000000000000000000000000000000000000000000000000000000815260040161179090615381565b60405180910390fd5b600073ffffffffffffffffffffffffffffffffffffffff1660038b6040516117c19190614f7f565b908152602001604051809103902060020160009054906101000a900473ffffffffffffffffffffffffffffffffffffffff1673ffffffffffffffffffffffffffffffffffffffff1614611849576040517f08c379a000000000000000000000000000000000000000000000000000000000815260040161184090615181565b60405180910390fd5b600073ffffffffffffffffffffffffffffffffffffffff1660048b6040516118719190614f7f565b908152602001604051809103902060010160009054906101000a900473ffffffffffffffffffffffffffffffffffffffff1673ffffffffffffffffffffffffffffffffffffffff16146118f9576040517f08c379a00000000000000000000000000000000000000000000000000000000081526004016118f090615181565b60405180910390fd5b8373ffffffffffffffffffffffffffffffffffffffff168973ffffffffffffffffffffffffffffffffffffffff1614611967576040517f08c379a000000000000000000000000000000000000000000000000000000000815260040161195e906151e1565b60405180910390fd5b428363ffffffff16116119af576040517f08c379a00000000000000000000000000000000000000000000000000000000081526004016119a6906152c1565b60405180910390fd5b60006040518060c001604052808c81526020018b73ffffffffffffffffffffffffffffffffffffffff1681526020018a73ffffffffffffffffffffffffffffffffffffffff1681526020018981526020018881526020018781525090508060038c604051611a1d9190614f7f565b90815260200160405180910390206000820151816000019080519060200190611a479291906141d0565b5060208201518160010160006101000a81548173ffffffffffffffffffffffffffffffffffffffff021916908373ffffffffffffffffffffffffffffffffffffffff16021790555060408201518160020160006101000a81548173ffffffffffffffffffffffffffffffffffffffff021916908373ffffffffffffffffffffffffffffffffffffffff160217905550606082015181600301556080820151816004019080519060200190611afc9291906141d0565b5060a0820151816005019080519060200190611b199291906141d0565b50905050611b2a8b86868686613927565b5050505050505050505050565b60606002805480602002602001604051908101604052809291908181526020016000905b82821015611c07578382906000526020600020018054611b7a906158aa565b80601f0160208091040260200160405190810160405280929190818152602001828054611ba6906158aa565b8015611bf35780601f10611bc857610100808354040283529160200191611bf3565b820191906000526020600020905b815481529060010190602001808311611bd657829003601f168201915b505050505081526020019060010190611b5b565b50505050905090565b611c18614256565b600073ffffffffffffffffffffffffffffffffffffffff168373ffffffffffffffffffffffffffffffffffffffff161415611c88576040517f08c379a0000000000000000000000000000000000000000000000000000000008152600401611c7f906151c1565b60405180910390fd5b6000600160008573ffffffffffffffffffffffffffffffffffffffff1673ffffffffffffffffffffffffffffffffffffffff1681526020019081526020016000209050600073ffffffffffffffffffffffffffffffffffffffff168160000160009054906101000a900473ffffffffffffffffffffffffffffffffffffffff1673ffffffffffffffffffffffffffffffffffffffff161415611d5f576040517f08c379a0000000000000000000000000000000000000000000000000000000008152600401611d5690615461565b60405180910390fd5b600073ffffffffffffffffffffffffffffffffffffffff168160010184604051611d899190614f7f565b908152602001604051809103902060010160009054906101000a900473ffffffffffffffffffffffffffffffffffffffff1673ffffffffffffffffffffffffffffffffffffffff161415611e12576040517f08c379a0000000000000000000000000000000000000000000000000000000008152600401611e0990615481565b60405180910390fd5b8060010183604051611e249190614f7f565b90815260200160405180910390206040518060c0016040529081600082018054611e4d906158aa565b80601f0160208091040260200160405190810160405280929190818152602001828054611e79906158aa565b8015611ec65780601f10611e9b57610100808354040283529160200191611ec6565b820191906000526020600020905b815481529060010190602001808311611ea957829003601f168201915b505050505081526020016001820160009054906101000a900473ffffffffffffffffffffffffffffffffffffffff1673ffffffffffffffffffffffffffffffffffffffff1673ffffffffffffffffffffffffffffffffffffffff1681526020016002820160009054906101000a900473ffffffffffffffffffffffffffffffffffffffff1673ffffffffffffffffffffffffffffffffffffffff1673ffffffffffffffffffffffffffffffffffffffff1681526020016002820160149054906101000a900463ffffffff1663ffffffff1663ffffffff1681526020016003820154815260200160048201548152505091505092915050565b6000600160003373ffffffffffffffffffffffffffffffffffffffff1673ffffffffffffffffffffffffffffffffffffffff1681526020019081526020016000209050600073ffffffffffffffffffffffffffffffffffffffff168160000160009054906101000a900473ffffffffffffffffffffffffffffffffffffffff1673ffffffffffffffffffffffffffffffffffffffff161415612095576040517f08c379a000000000000000000000000000000000000000000000000000000000815260040161208c90615461565b60405180910390fd5b60006003836040516120a79190614f7f565b90815260200160405180910390209050600073ffffffffffffffffffffffffffffffffffffffff168160020160009054906101000a900473ffffffffffffffffffffffffffffffffffffffff1673ffffffffffffffffffffffffffffffffffffffff16141561214b576040517f08c379a000000000000000000000000000000000000000000000000000000000815260040161214290615241565b60405180910390fd5b600060048460405161215d9190614f7f565b90815260200160405180910390209050600073ffffffffffffffffffffffffffffffffffffffff168160010160009054906101000a900473ffffffffffffffffffffffffffffffffffffffff1673ffffffffffffffffffffffffffffffffffffffff161415612201576040517f08c379a00000000000000000000000000000000000000000000000000000000081526004016121f890615221565b60405180910390fd5b600073ffffffffffffffffffffffffffffffffffffffff168160020160009054906101000a900473ffffffffffffffffffffffffffffffffffffffff1673ffffffffffffffffffffffffffffffffffffffff1614612294576040517f08c379a000000000000000000000000000000000000000000000000000000000815260040161228b90615221565b60405180910390fd5b3373ffffffffffffffffffffffffffffffffffffffff168160010160009054906101000a900473ffffffffffffffffffffffffffffffffffffffff1673ffffffffffffffffffffffffffffffffffffffff1614612326576040517f08c379a000000000000000000000000000000000000000000000000000000000815260040161231d90615281565b60405180910390fd5b3373ffffffffffffffffffffffffffffffffffffffff16836001018560405161234f9190614f7f565b908152602001604051809103902060010160009054906101000a900473ffffffffffffffffffffffffffffffffffffffff1673ffffffffffffffffffffffffffffffffffffffff16146123d7576040517f08c379a00000000000000000000000000000000000000000000000000000000081526004016123ce90615261565b60405180910390fd5b60006123e285613c8f565b90506123ed81613d3e565b6004856040516123fd9190614f7f565b90815260200160405180910390206000808201600061241c91906142be565b6001820160006101000a81549073ffffffffffffffffffffffffffffffffffffffff02191690556002820160006101000a81549073ffffffffffffffffffffffffffffffffffffffff02191690556002820160146101000a81549063ffffffff02191690556003820160009055600482016000905550506003856040516124a39190614f7f565b9081526020016040518091039020600080820160006124c291906142be565b6001820160006101000a81549073ffffffffffffffffffffffffffffffffffffffff02191690556002820160006101000a81549073ffffffffffffffffffffffffffffffffffffffff0219169055600382016000905560048201600061252891906142be565b60058201600061253891906142be565b505060006125468686613e23565b90506125528186613ed7565b84600101866040516125649190614f7f565b90815260200160405180910390206000808201600061258391906142be565b6001820160006101000a81549073ffffffffffffffffffffffffffffffffffffffff02191690556002820160006101000a81549073ffffffffffffffffffffffffffffffffffffffff02191690556002820160146101000a81549063ffffffff0219169055600382016000905560048201600090555050505050505050565b6000600160003373ffffffffffffffffffffffffffffffffffffffff1673ffffffffffffffffffffffffffffffffffffffff1681526020019081526020016000209050600073ffffffffffffffffffffffffffffffffffffffff168160000160009054906101000a900473ffffffffffffffffffffffffffffffffffffffff1673ffffffffffffffffffffffffffffffffffffffff1614156126d9576040517f08c379a00000000000000000000000000000000000000000000000000000000081526004016126d090615341565b60405180910390fd5b60006003836040516126eb9190614f7f565b90815260200160405180910390209050600073ffffffffffffffffffffffffffffffffffffffff168160020160009054906101000a900473ffffffffffffffffffffffffffffffffffffffff1673ffffffffffffffffffffffffffffffffffffffff16141561278f576040517f08c379a000000000000000000000000000000000000000000000000000000000815260040161278690615241565b60405180910390fd5b60006004846040516127a19190614f7f565b90815260200160405180910390209050600073ffffffffffffffffffffffffffffffffffffffff168160010160009054906101000a900473ffffffffffffffffffffffffffffffffffffffff1673ffffffffffffffffffffffffffffffffffffffff1614612844576040517f08c379a000000000000000000000000000000000000000000000000000000000815260040161283b906153e1565b60405180910390fd5b60006005856040516128569190614f7f565b90815260200160405180910390209050600073ffffffffffffffffffffffffffffffffffffffff168160020160009054906101000a900473ffffffffffffffffffffffffffffffffffffffff1673ffffffffffffffffffffffffffffffffffffffff1614156128fa576040517f08c379a00000000000000000000000000000000000000000000000000000000081526004016128f1906153e1565b60405180910390fd5b6000600160008360020160009054906101000a900473ffffffffffffffffffffffffffffffffffffffff1673ffffffffffffffffffffffffffffffffffffffff1673ffffffffffffffffffffffffffffffffffffffff1681526020019081526020016000209050600073ffffffffffffffffffffffffffffffffffffffff168160000160009054906101000a900473ffffffffffffffffffffffffffffffffffffffff1673ffffffffffffffffffffffffffffffffffffffff1614156129f5576040517f08c379a00000000000000000000000000000000000000000000000000000000081526004016129ec906154a1565b60405180910390fd5b60008560010187604051612a099190614f7f565b908152602001604051809103902090503373ffffffffffffffffffffffffffffffffffffffff168160010160009054906101000a900473ffffffffffffffffffffffffffffffffffffffff1673ffffffffffffffffffffffffffffffffffffffff1614612aab576040517f08c379a0000000000000000000000000000000000000000000000000000000008152600401612aa290615261565b60405180910390fd5b60008360020160169054906101000a900463ffffffff1663ffffffff16905060008460020160149054906101000a900461ffff1661ffff16905060006201518082612af69190615770565b63ffffffff1683612b079190615686565b9050428110612b4b576040517f08c379a0000000000000000000000000000000000000000000000000000000008152600401612b4290615441565b60405180910390fd5b60008460040154905060058b604051612b649190614f7f565b908152602001604051809103902060008082016000612b8391906142be565b6001820160006101000a81549073ffffffffffffffffffffffffffffffffffffffff02191690556002820160006101000a81549073ffffffffffffffffffffffffffffffffffffffff02191690556002820160146101000a81549061ffff02191690556002820160166101000a81549063ffffffff021916905550506000612c0b8c8c613e23565b9050612c17818c613ed7565b8a6001018c604051612c299190614f7f565b908152602001604051809103902060008082016000612c4891906142be565b6001820160006101000a81549073ffffffffffffffffffffffffffffffffffffffff02191690556002820160006101000a81549073ffffffffffffffffffffffffffffffffffffffff02191690556002820160146101000a81549063ffffffff02191690556003820160009055600482016000905550506000612ccb8d89613fc7565b9050612cd7818961407b565b876003018d604051612ce99190614f7f565b908152602001604051809103902060008082016000612d0891906142be565b6001820160006101000a81549073ffffffffffffffffffffffffffffffffffffffff02191690556002820160006101000a81549073ffffffffffffffffffffffffffffffffffffffff02191690556002820160146101000a81549061ffff02191690556002820160166101000a81549063ffffffff0219169055505060008c60000160009054906101000a900473ffffffffffffffffffffffffffffffffffffffff1690508073ffffffffffffffffffffffffffffffffffffffff166108fc859081150290604051600060405180830381858888f19350505050158015612df3573d6000803e3d6000fd5b505050505050505050505050505050565b60016020528060005260406000206000915090508060000160009054906101000a900473ffffffffffffffffffffffffffffffffffffffff16905081565b8273ffffffffffffffffffffffffffffffffffffffff163373ffffffffffffffffffffffffffffffffffffffff1614612eb0576040517f08c379a0000000000000000000000000000000000000000000000000000000008152600401612ea7906153c1565b60405180910390fd5b600073ffffffffffffffffffffffffffffffffffffffff16600160008573ffffffffffffffffffffffffffffffffffffffff1673ffffffffffffffffffffffffffffffffffffffff16815260200190815260200160002060000160009054906101000a900473ffffffffffffffffffffffffffffffffffffffff1673ffffffffffffffffffffffffffffffffffffffff161415612f82576040517f08c379a0000000000000000000000000000000000000000000000000000000008152600401612f7990615381565b60405180910390fd5b6000600385604051612f949190614f7f565b90815260200160405180910390209050600073ffffffffffffffffffffffffffffffffffffffff168160020160009054906101000a900473ffffffffffffffffffffffffffffffffffffffff1673ffffffffffffffffffffffffffffffffffffffff161415613038576040517f08c379a000000000000000000000000000000000000000000000000000000000815260040161302f906152e1565b60405180910390fd5b600073ffffffffffffffffffffffffffffffffffffffff166004866040516130609190614f7f565b908152602001604051809103902060010160009054906101000a900473ffffffffffffffffffffffffffffffffffffffff1673ffffffffffffffffffffffffffffffffffffffff1614156130e9576040517f08c379a00000000000000000000000000000000000000000000000000000000081526004016130e0906152e1565b60405180910390fd5b428263ffffffff1610613131576040517f08c379a0000000000000000000000000000000000000000000000000000000008152600401613128906152c1565b60405180910390fd5b6000620151808461ffff166131469190615770565b8361315191906156dc565b905060006004876040516131659190614f7f565b908152602001604051809103902060020160149054906101000a900463ffffffff1690508063ffffffff168263ffffffff16106131d7576040517f08c379a00000000000000000000000000000000000000000000000000000000081526004016131ce90615361565b60405180910390fd5b50505050505050565b60006004856040516131f29190614f7f565b908152602001604051809103902060010160009054906101000a900473ffffffffffffffffffffffffffffffffffffffff1690508373ffffffffffffffffffffffffffffffffffffffff168173ffffffffffffffffffffffffffffffffffffffff161415613295576040517f08c379a000000000000000000000000000000000000000000000000000000000815260040161328c906151a1565b60405180910390fd5b6000600160008373ffffffffffffffffffffffffffffffffffffffff1673ffffffffffffffffffffffffffffffffffffffff1681526020019081526020016000209050600073ffffffffffffffffffffffffffffffffffffffff1681600101876040516133029190614f7f565b908152602001604051809103902060020160009054906101000a900473ffffffffffffffffffffffffffffffffffffffff1673ffffffffffffffffffffffffffffffffffffffff161461338a576040517f08c379a0000000000000000000000000000000000000000000000000000000008152600401613381906152a1565b60405180910390fd5b84816001018760405161339d9190614f7f565b908152602001604051809103902060020160006101000a81548173ffffffffffffffffffffffffffffffffffffffff021916908373ffffffffffffffffffffffffffffffffffffffff16021790555060006040518060a001604052808881526020018473ffffffffffffffffffffffffffffffffffffffff1681526020018773ffffffffffffffffffffffffffffffffffffffff1681526020018661ffff1681526020018563ffffffff1681525090506000600160008873ffffffffffffffffffffffffffffffffffffffff1673ffffffffffffffffffffffffffffffffffffffff1681526020019081526020016000209050600073ffffffffffffffffffffffffffffffffffffffff1681600301896040516134ba9190614f7f565b908152602001604051809103902060020160009054906101000a900473ffffffffffffffffffffffffffffffffffffffff1673ffffffffffffffffffffffffffffffffffffffff1614613542576040517f08c379a0000000000000000000000000000000000000000000000000000000008152600401613539906154c1565b60405180910390fd5b8181600301896040516135559190614f7f565b9081526020016040518091039020600082015181600001908051906020019061357f9291906141d0565b5060208201518160010160006101000a81548173ffffffffffffffffffffffffffffffffffffffff021916908373ffffffffffffffffffffffffffffffffffffffff16021790555060408201518160020160006101000a81548173ffffffffffffffffffffffffffffffffffffffff021916908373ffffffffffffffffffffffffffffffffffffffff16021790555060608201518160020160146101000a81548161ffff021916908361ffff16021790555060808201518160020160166101000a81548163ffffffff021916908363ffffffff16021790555090505080600401889080600181540180825580915050600190039060005260206000200160009091909190915090805190602001906136989291906141d0565b50600073ffffffffffffffffffffffffffffffffffffffff166005896040516136c19190614f7f565b908152602001604051809103902060020160009054906101000a900473ffffffffffffffffffffffffffffffffffffffff1673ffffffffffffffffffffffffffffffffffffffff1614613749576040517f08c379a0000000000000000000000000000000000000000000000000000000008152600401613740906154c1565b60405180910390fd5b8160058960405161375a9190614f7f565b908152602001604051809103902060008201518160000190805190602001906137849291906141d0565b5060208201518160010160006101000a81548173ffffffffffffffffffffffffffffffffffffffff021916908373ffffffffffffffffffffffffffffffffffffffff16021790555060408201518160020160006101000a81548173ffffffffffffffffffffffffffffffffffffffff021916908373ffffffffffffffffffffffffffffffffffffffff16021790555060608201518160020160146101000a81548161ffff021916908361ffff16021790555060808201518160020160166101000a81548163ffffffff021916908363ffffffff160217905550905050600061386b89613c8f565b905061387681613d3e565b6004896040516138869190614f7f565b9081526020016040518091039020600080820160006138a591906142be565b6001820160006101000a81549073ffffffffffffffffffffffffffffffffffffffff02191690556002820160006101000a81549073ffffffffffffffffffffffffffffffffffffffff02191690556002820160146101000a81549063ffffffff0219169055600382016000905560048201600090555050505050505050505050565b60006040518060c001604052808781526020018673ffffffffffffffffffffffffffffffffffffffff168152602001600073ffffffffffffffffffffffffffffffffffffffff1681526020018563ffffffff1681526020018481526020018381525090506000600160008773ffffffffffffffffffffffffffffffffffffffff1673ffffffffffffffffffffffffffffffffffffffff16815260200190815260200160002090508181600101886040516139e19190614f7f565b90815260200160405180910390206000820151816000019080519060200190613a0b9291906141d0565b5060208201518160010160006101000a81548173ffffffffffffffffffffffffffffffffffffffff021916908373ffffffffffffffffffffffffffffffffffffffff16021790555060408201518160020160006101000a81548173ffffffffffffffffffffffffffffffffffffffff021916908373ffffffffffffffffffffffffffffffffffffffff16021790555060608201518160020160146101000a81548163ffffffff021916908363ffffffff1602179055506080820151816003015560a082015181600401559050508060020187908060018154018082558091505060019003906000526020600020016000909190919091509080519060200190613b159291906141d0565b5081600488604051613b279190614f7f565b90815260200160405180910390206000820151816000019080519060200190613b519291906141d0565b5060208201518160010160006101000a81548173ffffffffffffffffffffffffffffffffffffffff021916908373ffffffffffffffffffffffffffffffffffffffff16021790555060408201518160020160006101000a81548173ffffffffffffffffffffffffffffffffffffffff021916908373ffffffffffffffffffffffffffffffffffffffff16021790555060608201518160020160146101000a81548163ffffffff021916908363ffffffff1602179055506080820151816003015560a08201518160040155905050600287908060018154018082558091505060019003906000526020600020016000909190919091509080519060200190613c599291906141d0565b507fdb8317522294099fa9360f57f5f2c8178138bbeb092f99c41ada4fefc39fbe5e60405160405180910390a150505050505050565b600080600280549050905060005b81811015613d335760028181548110613cb957613cb86159e3565b5b90600052602060002001604051602001613cd39190614f96565b6040516020818303038152906040528051906020012084604051602001613cfa9190614f7f565b604051602081830303815290604052805190602001201415613d20578092505050613d39565b8080613d2b9061590d565b915050613c9d565b50809150505b919050565b6002805490508110613d85576040517f08c379a0000000000000000000000000000000000000000000000000000000008152600401613d7c90615421565b60405180910390fd5b60006001600280549050613d9991906157ae565b905060028181548110613daf57613dae6159e3565b5b9060005260206000200160028381548110613dcd57613dcc6159e3565b5b90600052602060002001908054613de3906158aa565b613dee9291906142fe565b506002805480613e0157613e006159b4565b5b600190038181906000526020600020016000613e1d91906142be565b90555050565b6000808260020180549050905060005b81811015613ecb57836002018181548110613e5157613e506159e3565b5b90600052602060002001604051602001613e6b9190614f96565b6040516020818303038152906040528051906020012085604051602001613e929190614f7f565b604051602081830303815290604052805190602001201415613eb8578092505050613ed1565b8080613ec39061590d565b915050613e33565b50809150505b92915050565b80600201805490508210613f20576040517f08c379a0000000000000000000000000000000000000000000000000000000008152600401613f1790615421565b60405180910390fd5b600060018260020180549050613f3691906157ae565b9050816002018181548110613f4e57613f4d6159e3565b5b90600052602060002001826002018481548110613f6e57613f6d6159e3565b5b90600052602060002001908054613f84906158aa565b613f8f9291906142fe565b5081600201805480613fa457613fa36159b4565b5b600190038181906000526020600020016000613fc091906142be565b9055505050565b6000808260040180549050905060005b8181101561406f57836004018181548110613ff557613ff46159e3565b5b9060005260206000200160405160200161400f9190614f96565b60405160208183030381529060405280519060200120856040516020016140369190614f7f565b60405160208183030381529060405280519060200120141561405c578092505050614075565b80806140679061590d565b915050613fd7565b50809150505b92915050565b806004018054905082106140c4576040517f08c379a00000000000000000000000000000000000000000000000000000000081526004016140bb90615421565b60405180910390fd5b6000600182600401805490506140da91906157ae565b90508160040181815481106140f2576140f16159e3565b5b90600052602060002001826004018481548110614112576141116159e3565b5b90600052602060002001908054614128906158aa565b6141339291906142fe565b5081600401805480614148576141476159b4565b5b60019003818190600052602060002001600061416491906142be565b9055505050565b6040518060a0016040528060608152602001600073ffffffffffffffffffffffffffffffffffffffff168152602001600073ffffffffffffffffffffffffffffffffffffffff168152602001600061ffff168152602001600063ffffffff1681525090565b8280546141dc906158aa565b90600052602060002090601f0160209004810192826141fe5760008555614245565b82601f1061421757805160ff1916838001178555614245565b82800160010185558215614245579182015b82811115614244578251825591602001919060010190614229565b5b509050614252919061438b565b5090565b6040518060c0016040528060608152602001600073ffffffffffffffffffffffffffffffffffffffff168152602001600073ffffffffffffffffffffffffffffffffffffffff168152602001600063ffffffff16815260200160008152602001600081525090565b5080546142ca906158aa565b6000825580601f106142dc57506142fb565b601f0160209004906000526020600020908101906142fa919061438b565b5b50565b82805461430a906158aa565b90600052602060002090601f01602090048101928261432c576000855561437a565b82601f1061433d578054855561437a565b8280016001018555821561437a57600052602060002091601f016020900482015b8281111561437957825482559160010191906001019061435e565b5b509050614387919061438b565b5090565b5b808211156143a457600081600090555060010161438c565b5090565b60006143bb6143b684615565565b615540565b9050828152602081018484840111156143d7576143d6615a46565b5b6143e2848285615868565b509392505050565b60006143fd6143f884615596565b615540565b90508281526020810184848401111561441957614418615a46565b5b614424848285615868565b509392505050565b60008135905061443b81616119565b92915050565b600082601f83011261445657614455615a41565b5b81356144668482602086016143a8565b91505092915050565b600082601f83011261448457614483615a41565b5b81356144948482602086016143ea565b91505092915050565b6000813590506144ac81616130565b92915050565b6000813590506144c181616147565b92915050565b6000813590506144d68161615e565b92915050565b6000602082840312156144f2576144f1615a50565b5b60006145008482850161442c565b91505092915050565b6000806000806080858703121561452357614522615a50565b5b60006145318782880161442c565b94505060206145428782880161442c565b9350506040614553878288016144b2565b925050606085013567ffffffffffffffff81111561457457614573615a4b565b5b61458087828801614441565b91505092959194509250565b600080604083850312156145a3576145a2615a50565b5b60006145b18582860161442c565b925050602083013567ffffffffffffffff8111156145d2576145d1615a4b565b5b6145de8582860161446f565b9150509250929050565b600080604083850312156145ff576145fe615a50565b5b600061460d8582860161442c565b925050602061461e858286016144b2565b9150509250929050565b60006020828403121561463e5761463d615a50565b5b600082013567ffffffffffffffff81111561465c5761465b615a4b565b5b6146688482850161446f565b91505092915050565b6000806000806000806000806000806101408b8d03121561469557614694615a50565b5b60008b013567ffffffffffffffff8111156146b3576146b2615a4b565b5b6146bf8d828e0161446f565b9a505060206146d08d828e0161442c565b99505060406146e18d828e0161442c565b98505060606146f28d828e016144b2565b97505060808b013567ffffffffffffffff81111561471357614712615a4b565b5b61471f8d828e0161446f565b96505060a08b013567ffffffffffffffff8111156147405761473f615a4b565b5b61474c8d828e0161446f565b95505060c061475d8d828e0161442c565b94505060e061476e8d828e016144c7565b9350506101006147808d828e016144b2565b9250506101206147928d828e016144b2565b9150509295989b9194979a5092959850565b600080600080608085870312156147be576147bd615a50565b5b600085013567ffffffffffffffff8111156147dc576147db615a4b565b5b6147e88782880161446f565b94505060206147f98782880161442c565b935050604061480a8782880161449d565b925050606061481b878288016144c7565b91505092959194509250565b60006148338383614853565b60208301905092915050565b600061484b8383614953565b905092915050565b61485c816157e2565b82525050565b61486b816157e2565b82525050565b600061487c826155fc565b6148868185615637565b9350614891836155c7565b8060005b838110156148c25781516148a98882614827565b97506148b48361561d565b925050600181019050614895565b5085935050505092915050565b60006148da82615607565b6148e48185615648565b9350836020820285016148f6856155d7565b8060005b858110156149325784840389528151614913858261483f565b945061491e8361562a565b925060208a019950506001810190506148fa565b50829750879550505050505092915050565b61494d816157f4565b82525050565b600061495e82615612565b6149688185615659565b9350614978818560208601615877565b61498181615a55565b840191505092915050565b600061499782615612565b6149a1818561566a565b93506149b1818560208601615877565b6149ba81615a55565b840191505092915050565b60006149d082615612565b6149da818561567b565b93506149ea818560208601615877565b80840191505092915050565b60008154614a03816158aa565b614a0d818661567b565b94506001821660008114614a285760018114614a3957614a6c565b60ff19831686528186019350614a6c565b614a42856155e7565b60005b83811015614a6457815481890152600182019150602081019050614a45565b838801955050505b50505092915050565b6000614a8260248361566a565b9150614a8d82615a66565b604082019050919050565b6000614aa560348361566a565b9150614ab082615ab5565b604082019050919050565b6000614ac8600f8361566a565b9150614ad382615b04565b602082019050919050565b6000614aeb600d8361566a565b9150614af682615b2d565b602082019050919050565b6000614b0e60258361566a565b9150614b1982615b56565b604082019050919050565b6000614b3160158361566a565b9150614b3c82615ba5565b602082019050919050565b6000614b5460148361566a565b9150614b5f82615bce565b602082019050919050565b6000614b7760288361566a565b9150614b8282615bf7565b604082019050919050565b6000614b9a60228361566a565b9150614ba582615c46565b604082019050919050565b6000614bbd60228361566a565b9150614bc882615c95565b604082019050919050565b6000614be0600f8361566a565b9150614beb82615ce4565b602082019050919050565b6000614c0360208361566a565b9150614c0e82615d0d565b602082019050919050565b6000614c2660268361566a565b9150614c3182615d36565b604082019050919050565b6000614c49601d8361566a565b9150614c5482615d85565b602082019050919050565b6000614c6c60158361566a565b9150614c7782615dae565b602082019050919050565b6000614c8f60418361566a565b9150614c9a82615dd7565b606082019050919050565b6000614cb260138361566a565b9150614cbd82615e4c565b602082019050919050565b6000614cd5602a8361566a565b9150614ce082615e75565b604082019050919050565b6000614cf8602d8361566a565b9150614d0382615ec4565b604082019050919050565b6000614d1b60118361566a565b9150614d2682615f13565b602082019050919050565b6000614d3e60288361566a565b9150614d4982615f3c565b604082019050919050565b6000614d61602d8361566a565b9150614d6c82615f8b565b604082019050919050565b6000614d84602b8361566a565b9150614d8f82615fda565b604082019050919050565b6000614da760148361566a565b9150614db282616029565b602082019050919050565b6000614dca60268361566a565b9150614dd582616052565b604082019050919050565b6000614ded60178361566a565b9150614df8826160a1565b602082019050919050565b6000614e10602a8361566a565b9150614e1b826160ca565b604082019050919050565b600060c0830160008301518482036000860152614e438282614953565b9150506020830151614e586020860182614853565b506040830151614e6b6040860182614853565b506060830151614e7e6060860182614f61565b506080830151614e916080860182614f43565b5060a0830151614ea460a0860182614f43565b508091505092915050565b600060a0830160008301518482036000860152614ecc8282614953565b9150506020830151614ee16020860182614853565b506040830151614ef46040860182614853565b506060830151614f076060860182614f25565b506080830151614f1a6080860182614f61565b508091505092915050565b614f2e81615820565b82525050565b614f3d81615820565b82525050565b614f4c8161584e565b82525050565b614f5b8161584e565b82525050565b614f6a81615858565b82525050565b614f7981615858565b82525050565b6000614f8b82846149c5565b915081905092915050565b6000614fa282846149f6565b915081905092915050565b6000602082019050614fc26000830184614862565b92915050565b60006020820190508181036000830152614fe28184614871565b905092915050565b6000602082019050818103600083015261500481846148cf565b905092915050565b60006020820190506150216000830184614944565b92915050565b60006020820190508181036000830152615041818461498c565b905092915050565b600060a0820190508181036000830152615063818861498c565b90506150726020830187614862565b61507f6040830186614862565b61508c6060830185614f34565b6150996080830184614f70565b9695505050505050565b600060c08201905081810360008301526150bd818961498c565b90506150cc6020830188614862565b6150d96040830187614862565b6150e66060830186614f52565b81810360808301526150f8818561498c565b905081810360a083015261510c818461498c565b9050979650505050505050565b600060c0820190508181036000830152615133818961498c565b90506151426020830188614862565b61514f6040830187614862565b61515c6060830186614f70565b6151696080830185614f52565b61517660a0830184614f52565b979650505050505050565b6000602082019050818103600083015261519a81614a75565b9050919050565b600060208201905081810360008301526151ba81614a98565b9050919050565b600060208201905081810360008301526151da81614abb565b9050919050565b600060208201905081810360008301526151fa81614ade565b9050919050565b6000602082019050818103600083015261521a81614b01565b9050919050565b6000602082019050818103600083015261523a81614b24565b9050919050565b6000602082019050818103600083015261525a81614b47565b9050919050565b6000602082019050818103600083015261527a81614b6a565b9050919050565b6000602082019050818103600083015261529a81614b8d565b9050919050565b600060208201905081810360008301526152ba81614bb0565b9050919050565b600060208201905081810360008301526152da81614bd3565b9050919050565b600060208201905081810360008301526152fa81614bf6565b9050919050565b6000602082019050818103600083015261531a81614c19565b9050919050565b6000602082019050818103600083015261533a81614c3c565b9050919050565b6000602082019050818103600083015261535a81614c5f565b9050919050565b6000602082019050818103600083015261537a81614c82565b9050919050565b6000602082019050818103600083015261539a81614ca5565b9050919050565b600060208201905081810360008301526153ba81614cc8565b9050919050565b600060208201905081810360008301526153da81614ceb565b9050919050565b600060208201905081810360008301526153fa81614d0e565b9050919050565b6000602082019050818103600083015261541a81614d31565b9050919050565b6000602082019050818103600083015261543a81614d54565b9050919050565b6000602082019050818103600083015261545a81614d77565b9050919050565b6000602082019050818103600083015261547a81614d9a565b9050919050565b6000602082019050818103600083015261549a81614dbd565b9050919050565b600060208201905081810360008301526154ba81614de0565b9050919050565b600060208201905081810360008301526154da81614e03565b9050919050565b600060208201905081810360008301526154fb8184614e26565b905092915050565b6000602082019050818103600083015261551d8184614eaf565b905092915050565b600060208201905061553a6000830184614f52565b92915050565b600061554a61555b565b905061555682826158dc565b919050565b6000604051905090565b600067ffffffffffffffff8211156155805761557f615a12565b5b61558982615a55565b9050602081019050919050565b600067ffffffffffffffff8211156155b1576155b0615a12565b5b6155ba82615a55565b9050602081019050919050565b6000819050602082019050919050565b6000819050602082019050919050565b60008190508160005260206000209050919050565b600081519050919050565b600081519050919050565b600081519050919050565b6000602082019050919050565b6000602082019050919050565b600082825260208201905092915050565b600082825260208201905092915050565b600082825260208201905092915050565b600082825260208201905092915050565b600081905092915050565b60006156918261584e565b915061569c8361584e565b9250827fffffffffffffffffffffffffffffffffffffffffffffffffffffffffffffffff038211156156d1576156d0615956565b5b828201905092915050565b60006156e782615858565b91506156f283615858565b92508263ffffffff0382111561570b5761570a615956565b5b828201905092915050565b60006157218261584e565b915061572c8361584e565b9250817fffffffffffffffffffffffffffffffffffffffffffffffffffffffffffffffff048311821515161561576557615764615956565b5b828202905092915050565b600061577b82615858565b915061578683615858565b92508163ffffffff04831182151516156157a3576157a2615956565b5b828202905092915050565b60006157b98261584e565b91506157c48361584e565b9250828210156157d7576157d6615956565b5b828203905092915050565b60006157ed8261582e565b9050919050565b60007fffffffff0000000000000000000000000000000000000000000000000000000082169050919050565b600061ffff82169050919050565b600073ffffffffffffffffffffffffffffffffffffffff82169050919050565b6000819050919050565b600063ffffffff82169050919050565b82818337600083830152505050565b60005b8381101561589557808201518184015260208101905061587a565b838111156158a4576000848401525b50505050565b600060028204905060018216806158c257607f821691505b602082108114156158d6576158d5615985565b5b50919050565b6158e582615a55565b810181811067ffffffffffffffff8211171561590457615903615a12565b5b80604052505050565b60006159188261584e565b91507fffffffffffffffffffffffffffffffffffffffffffffffffffffffffffffffff82141561594b5761594a615956565b5b600182019050919050565b7f4e487b7100000000000000000000000000000000000000000000000000000000600052601160045260246000fd5b7f4e487b7100000000000000000000000000000000000000000000000000000000600052602260045260246000fd5b7f4e487b7100000000000000000000000000000000000000000000000000000000600052603160045260246000fd5b7f4e487b7100000000000000000000000000000000000000000000000000000000600052603260045260246000fd5b7f4e487b7100000000000000000000000000000000000000000000000000000000600052604160045260246000fd5b600080fd5b600080fd5b600080fd5b600080fd5b6000601f19601f8301169050919050565b7f4e465420697320616c726561647920617661696c61626c6520666f722072656e60008201527f74696e6700000000000000000000000000000000000000000000000000000000602082015250565b7f426f72726f77657220616464726573732063616e27742062652074686520736160008201527f6d65206173206c656e6465722061646472657373000000000000000000000000602082015250565b7f496e76616c696420616464726573730000000000000000000000000000000000600082015250565b7f4e6f6e204e4654204f776e657200000000000000000000000000000000000000600082015250565b7f4e66742061742074686520676976656e20696e64657820646f6573206e6f742060008201527f6578697374000000000000000000000000000000000000000000000000000000602082015250565b7f4e465420697320616c72656164792072656e7465640000000000000000000000600082015250565b7f4e4654206973206e6f7420617661696c61626c65000000000000000000000000600082015250565b7f5573657220646f6573206e6f74206861766520616e792073756368204e46547360008201527f206173206c656e64000000000000000000000000000000000000000000000000602082015250565b7f43616e27742073746f70206c656e6420736f6d656f6e6520656c73652773204e60008201527f4654000000000000000000000000000000000000000000000000000000000000602082015250565b7f4e465420616c72656164792072656e74656420627920736f6d656f6e6520656c60008201527f7365000000000000000000000000000000000000000000000000000000000000602082015250565b7f4261642074696d6520626f756e64730000000000000000000000000000000000600082015250565b7f4e4654206973206e6f7420617661696c61626c6520666f722072656e74696e67600082015250565b7f5573657220646f6573206e6f74206861766520616e7920737563682072656e7460008201527f6564204e66740000000000000000000000000000000000000000000000000000602082015250565b7f43616e2774206c656e6420736f6d656f6e6520656c73652773204e4654000000600082015250565b7f4c656e64657220646f6573206e6f742065786973740000000000000000000000600082015250565b7f43616e27742072656e74204e465420666f72206d6f7265207468616e20616d6f60008201527f756e74206f662074696d6520617661696c61626c6520666f722072656e74696e60208201527f6700000000000000000000000000000000000000000000000000000000000000604082015250565b7f5573657220646f6573206e6f7420657869737400000000000000000000000000600082015250565b7f43616e27742072656e74204e465420617320696e73756666696369656e74206160008201527f6d6f756e74207061696400000000000000000000000000000000000000000000602082015250565b7f43616e277420626f72726f77204e465420666f7220616e6f7468657220626f7260008201527f726f776572206164647265737300000000000000000000000000000000000000602082015250565b7f4e4654206973206e6f742072656e746564000000000000000000000000000000600082015250565b7f4f6e6c792074686520757365722063616e2061646420686973206163636f756e60008201527f7420746f20617070000000000000000000000000000000000000000000000000602082015250565b7f4e6674206b6579206e6f7420617661696c61626c6520696e207468652061707060008201527f2072656e74696e67206c69737400000000000000000000000000000000000000602082015250565b7f43616e277420636c61696d20636f6c6c61746572616c2074696c6c2072656e7460008201527f656420656e642074696d65000000000000000000000000000000000000000000602082015250565b7f5573657220646f6573206e6f7420657869737473000000000000000000000000600082015250565b7f5573657220646f6573206e6f74206861766520616e792073756368206c656e6460008201527f6564204e66740000000000000000000000000000000000000000000000000000602082015250565b7f426f72726f77657220646f6573206e6f74206578697374000000000000000000600082015250565b7f4e667420697320616c72656164792070726573656e7420696e2075736572207260008201527f656e746564204e66747300000000000000000000000000000000000000000000602082015250565b616122816157e2565b811461612d57600080fd5b50565b61613981615820565b811461614457600080fd5b50565b6161508161584e565b811461615b57600080fd5b50565b61616781615858565b811461617257600080fd5b5056fea264697066735822122006c37ff3acfb8c6aa10c68047e2ea4870bbea2dfeaeaa1381f43e6e5cd8590ca64736f6c63430008050033",
  "linkReferences": {},
  "deployedLinkReferences": {}
}