{
  "_format": "hh-sol-artifact-1",
  "contractName": "NFTHelper",
  "sourceName": "contracts/NFTHelper.sol",
  "abi": [
    {
      "anonymous": false,
      "inputs": [],
      "name": "NFTCollateralClaimed",
      "type": "event"
    },
    {
      "anonymous": false,
      "inputs": [],
      "name": "NFTLended",
      "type": "event"
    },
    {
      "anonymous": false,
      "inputs": [],
      "name": "NFTRented",
      "type": "event"
    },
    {
      "anonymous": false,
      "inputs": [],
      "name": "NFTReturned",
      "type": "event"
    },
    {
      "anonymous": false,
      "inputs": [],
      "name": "NFTStopLended",
      "type": "event"
    },
    {
      "inputs": [
        {
          "internalType": "string",
          "name": "_nftKey",
          "type": "string"
        },
        {
          "internalType": "address",
          "name": "_nftOwner",
          "type": "address"
        },
        {
          "internalType": "address",
          "name": "_nftAddress",
          "type": "address"
        },
        {
          "internalType": "uint256",
          "name": "_nftId",
          "type": "uint256"
        },
        {
          "internalType": "string",
          "name": "_nftName",
          "type": "string"
        },
        {
          "internalType": "string",
          "name": "_nftImageURL",
          "type": "string"
        },
        {
          "internalType": "address",
          "name": "_lenderAddress",
          "type": "address"
        },
        {
          "internalType": "uint32",
          "name": "_dueDate",
          "type": "uint32"
        },
        {
          "internalType": "uint256",
          "name": "_dailyRent",
          "type": "uint256"
        },
        {
          "internalType": "uint256",
          "name": "_collateral",
          "type": "uint256"
        }
      ],
      "name": "addNFTToLend",
      "outputs": [],
      "stateMutability": "payable",
      "type": "function"
    },
    {
      "inputs": [
        {
          "internalType": "address",
          "name": "_userAddress",
          "type": "address"
        }
      ],
      "name": "addUser",
      "outputs": [],
      "stateMutability": "nonpayable",
      "type": "function"
    },
    {
      "inputs": [
        {
          "internalType": "address",
          "name": "",
          "type": "address"
        }
      ],
      "name": "addressToUser",
      "outputs": [
        {
          "internalType": "address",
          "name": "userAddress",
          "type": "address"
        }
      ],
      "stateMutability": "view",
      "type": "function"
    },
    {
      "inputs": [
        {
          "internalType": "string",
          "name": "_nftKey",
          "type": "string"
        }
      ],
      "name": "claimCollateral",
      "outputs": [],
      "stateMutability": "nonpayable",
      "type": "function"
    },
    {
      "inputs": [],
      "name": "getContractBalance",
      "outputs": [
        {
          "internalType": "uint256",
          "name": "",
          "type": "uint256"
        }
      ],
      "stateMutability": "view",
      "type": "function"
    },
    {
      "inputs": [],
      "name": "getNftKeysListAvaiableForRent",
      "outputs": [
        {
          "internalType": "string[]",
          "name": "",
          "type": "string[]"
        }
      ],
      "stateMutability": "view",
      "type": "function"
    },
    {
      "inputs": [],
      "name": "getUserAddressList",
      "outputs": [
        {
          "internalType": "address[]",
          "name": "",
          "type": "address[]"
        }
      ],
      "stateMutability": "view",
      "type": "function"
    },
    {
      "inputs": [
        {
          "internalType": "address",
          "name": "_userAddress",
          "type": "address"
        },
        {
          "internalType": "string",
          "name": "_nftKey",
          "type": "string"
        }
      ],
      "name": "getUserLendedNFTDetails",
      "outputs": [
        {
          "components": [
            {
              "internalType": "string",
              "name": "nftKey",
              "type": "string"
            },
            {
              "internalType": "address",
              "name": "lenderAddress",
              "type": "address"
            },
            {
              "internalType": "address",
              "name": "borrowerAddress",
              "type": "address"
            },
            {
              "internalType": "uint32",
              "name": "dueDate",
              "type": "uint32"
            },
            {
              "internalType": "uint256",
              "name": "dailyRent",
              "type": "uint256"
            },
            {
              "internalType": "uint256",
              "name": "collateral",
              "type": "uint256"
            }
          ],
          "internalType": "struct NFTLend.lendedNFT",
          "name": "",
          "type": "tuple"
        }
      ],
      "stateMutability": "view",
      "type": "function"
    },
    {
      "inputs": [
        {
          "internalType": "address",
          "name": "_userAddress",
          "type": "address"
        },
        {
          "internalType": "uint256",
          "name": "_index",
          "type": "uint256"
        }
      ],
      "name": "getUserLendedNFTListDetails",
      "outputs": [
        {
          "internalType": "string",
          "name": "",
          "type": "string"
        }
      ],
      "stateMutability": "view",
      "type": "function"
    },
    {
      "inputs": [
        {
          "internalType": "address",
          "name": "_userAddress",
          "type": "address"
        },
        {
          "internalType": "string",
          "name": "_nftKey",
          "type": "string"
        }
      ],
      "name": "getUserRentedNFTDetails",
      "outputs": [
        {
          "components": [
            {
              "internalType": "string",
              "name": "nftKey",
              "type": "string"
            },
            {
              "internalType": "address",
              "name": "lenderAddress",
              "type": "address"
            },
            {
              "internalType": "address",
              "name": "borrowerAddress",
              "type": "address"
            },
            {
              "internalType": "uint16",
              "name": "numberOfDays",
              "type": "uint16"
            },
            {
              "internalType": "uint32",
              "name": "rentalStartTime",
              "type": "uint32"
            }
          ],
          "internalType": "struct NFTRent.rentedNFT",
          "name": "",
          "type": "tuple"
        }
      ],
      "stateMutability": "view",
      "type": "function"
    },
    {
      "inputs": [
        {
          "internalType": "address",
          "name": "_userAddress",
          "type": "address"
        },
        {
          "internalType": "uint256",
          "name": "_index",
          "type": "uint256"
        }
      ],
      "name": "getUserRentedNFTListDetails",
      "outputs": [
        {
          "internalType": "string",
          "name": "",
          "type": "string"
        }
      ],
      "stateMutability": "view",
      "type": "function"
    },
    {
      "inputs": [
        {
          "internalType": "string",
          "name": "",
          "type": "string"
        }
      ],
      "name": "nftKeyToLendedNftDetails",
      "outputs": [
        {
          "internalType": "string",
          "name": "nftKey",
          "type": "string"
        },
        {
          "internalType": "address",
          "name": "lenderAddress",
          "type": "address"
        },
        {
          "internalType": "address",
          "name": "borrowerAddress",
          "type": "address"
        },
        {
          "internalType": "uint32",
          "name": "dueDate",
          "type": "uint32"
        },
        {
          "internalType": "uint256",
          "name": "dailyRent",
          "type": "uint256"
        },
        {
          "internalType": "uint256",
          "name": "collateral",
          "type": "uint256"
        }
      ],
      "stateMutability": "view",
      "type": "function"
    },
    {
      "inputs": [
        {
          "internalType": "string",
          "name": "",
          "type": "string"
        }
      ],
      "name": "nftKeyToNftProps",
      "outputs": [
        {
          "internalType": "string",
          "name": "nftKey",
          "type": "string"
        },
        {
          "internalType": "address",
          "name": "nftOwner",
          "type": "address"
        },
        {
          "internalType": "address",
          "name": "nftAddress",
          "type": "address"
        },
        {
          "internalType": "uint256",
          "name": "nftId",
          "type": "uint256"
        },
        {
          "internalType": "string",
          "name": "nftName",
          "type": "string"
        },
        {
          "internalType": "string",
          "name": "nftImageURL",
          "type": "string"
        }
      ],
      "stateMutability": "view",
      "type": "function"
    },
    {
      "inputs": [
        {
          "internalType": "string",
          "name": "",
          "type": "string"
        }
      ],
      "name": "nftKeyToRentedNftDetails",
      "outputs": [
        {
          "internalType": "string",
          "name": "nftKey",
          "type": "string"
        },
        {
          "internalType": "address",
          "name": "lenderAddress",
          "type": "address"
        },
        {
          "internalType": "address",
          "name": "borrowerAddress",
          "type": "address"
        },
        {
          "internalType": "uint16",
          "name": "numberOfDays",
          "type": "uint16"
        },
        {
          "internalType": "uint32",
          "name": "rentalStartTime",
          "type": "uint32"
        }
      ],
      "stateMutability": "view",
      "type": "function"
    },
    {
      "inputs": [
        {
          "internalType": "string",
          "name": "_nftKey",
          "type": "string"
        },
        {
          "internalType": "address",
          "name": "_borrowerAddress",
          "type": "address"
        },
        {
          "internalType": "uint16",
          "name": "_numberOfDays",
          "type": "uint16"
        },
        {
          "internalType": "uint32",
          "name": "_rentalStartTime",
          "type": "uint32"
        }
      ],
      "name": "rentNft",
      "outputs": [],
      "stateMutability": "payable",
      "type": "function"
    },
    {
      "inputs": [
        {
          "internalType": "string",
          "name": "_nftKey",
          "type": "string"
        }
      ],
      "name": "returnNFT",
      "outputs": [],
      "stateMutability": "nonpayable",
      "type": "function"
    },
    {
      "inputs": [
        {
          "internalType": "string",
          "name": "_nftKey",
          "type": "string"
        }
      ],
      "name": "stopLend",
      "outputs": [],
      "stateMutability": "nonpayable",
      "type": "function"
    }
  ],
  "bytecode": "0x608060405234801561001057600080fd5b5061420b806100206000396000f3fe60806040526004361061010e5760003560e01c80637f73ef6c116100a5578063dc4ace8c11610074578063e08b573711610059578063e08b57371461031f578063e287183a1461033f578063edf538861461035f57600080fd5b8063dc4ace8c146102d0578063deb41216146102f257600080fd5b80637f73ef6c1461023f5780638d2221d91461026c578063a66a89fd1461029d578063c81e8d86146102bd57600080fd5b80634df3d7b9116100e15780634df3d7b9146101935780635289f68a146101c0578063657ed37d146101f25780636f9fb98a1461022457600080fd5b8063213f44ab14610113578063378a243b1461013e578063421b2d8b14610160578063423fdefb14610180575b600080fd5b34801561011f57600080fd5b506101286103ad565b6040516101359190613dbf565b60405180910390f35b34801561014a57600080fd5b5061015e610159366004613b3c565b61040f565b005b34801561016c57600080fd5b5061015e61017b366004613aa2565b61081c565b61015e61018e366004613c63565b6109ac565b34801561019f57600080fd5b506101b36101ae366004613b12565b610b90565b6040516101359190613e6e565b3480156101cc57600080fd5b506101e06101db366004613b3c565b610d4e565b60405161013596959493929190613ecb565b3480156101fe57600080fd5b5061021261020d366004613b3c565b610f36565b60405161013596959493929190613f2f565b34801561023057600080fd5b50604051478152602001610135565b34801561024b57600080fd5b5061025f61025a366004613ac4565b611013565b6040516101359190613fec565b34801561027857600080fd5b5061028c610287366004613b3c565b611288565b604051610135959493929190613e81565b3480156102a957600080fd5b506101b36102b8366004613b12565b611365565b61015e6102cb366004613b79565b611486565b3480156102dc57600080fd5b506102e5611830565b6040516101359190613e0c565b3480156102fe57600080fd5b5061031261030d366004613ac4565b611909565b6040516101359190613f7d565b34801561032b57600080fd5b5061015e61033a366004613b3c565b611b88565b34801561034b57600080fd5b5061015e61035a366004613b3c565b611fe7565b34801561036b57600080fd5b5061039561037a366004613aa2565b6005602052600090815260409020546001600160a01b031681565b6040516001600160a01b039091168152602001610135565b6060600080548060200260200160405190810160405280929190818152602001828054801561040557602002820191906000526020600020905b81546001600160a01b031681526001909101906020018083116103e7575b5050505050905090565b61041881612588565b33600090815260056020526040808220905190919060049061043b908590613d07565b90815260408051602092819003830181206001808201546001600160a01b031660009081526005909552928420909450929183019061047b908790613d07565b9081526040519081900360200181206004808201548554885493955090936001600160a01b039182169390911691906104b5908a90613d07565b90815260405190819003602001902060006104d08282613897565b506001810180546001600160a01b031916905560020180546001600160d01b031916905560006105008989612868565b905061050c818961290f565b876003018960405161051e9190613d07565b90815260405190819003602001902060006105398282613897565b506001810180546001600160a01b0319169055600290810180546001600160d01b0319169055850154600160a01b900463ffffffff16428111156106c1576002860180546001600160a01b03191690556040805160c0810182528b81526001600160a01b038616602082015260008183015263ffffffff83166060820152600380890154608083015260a082018890529151909182916105da908e90613d07565b908152602001604051809103902060008201518160000190805190602001906106049291906138d1565b50602082810151600180840180546001600160a01b039384166001600160a01b0319909116179055604085015160028086018054606089015163ffffffff16600160a01b026001600160c01b031990911693909516929092179390931790556080850151600385015560a090940151600490930192909255815492830182556000919091528c516106ba927f405787fa12a823e0f2b7631cc41b3ba8828b3321ca811111fa75cd3aa3bb5ace01918e01906138d1565b50506107b0565b60006106cd8b89612a1a565b90506106d98189612ab9565b876001018b6040516106eb9190613d07565b90815260405190819003602001902060006107068282613897565b50600181810180546001600160a01b03191690556002820180546001600160c01b031916905560006003830181905560049092019190915560405161074c908d90613d07565b90815260405190819003602001902060006107678282613897565b6001820180546001600160a01b0319908116909155600283018054909116905560006003830181905561079e906004840190613897565b6107ac600583016000613897565b5050505b6040516001600160a01b0384169086156108fc029087906000818181858888f193505050501580156107e6573d6000803e3d6000fd5b506040517f5762dfb61a8669a649a124998e72cecf9e9bc9d3f30c4c5dbca184ca7a97d6d090600090a150505050505050505050565b61085a6040518060400160405280600181526020017f4800000000000000000000000000000000000000000000000000000000000000815250612ba1565b6001600160a01b0381166108a75760405162461bcd60e51b815260206004820152600f60248201526e496e76616c6964206164647265737360881b60448201526064015b60405180910390fd5b336001600160a01b038216146109255760405162461bcd60e51b815260206004820152602860248201527f4f6e6c792074686520757365722063616e2061646420686973206163636f756e60448201527f7420746f20617070000000000000000000000000000000000000000000000000606482015260840161089e565b6001600160a01b03818116600090815260056020526040902054166109a9576001600160a01b038116600081815260056020526040812080546001600160a01b0319908116841790915581546001810183559180527f290decd9548b62a8d60345a988386fc84ba6bc95484008f6362f93160ef3e563909101805490911690911790555b50565b6109b884848484612c12565b60006003856040516109ca9190613d07565b908152602001604051809103902060030154905060006003866040516109f09190613d07565b9081526040519081900360200190206004015490506000610a1561ffff861684614095565b90506000610a238383614055565b905080341015610a9b5760405162461bcd60e51b815260206004820152602a60248201527f43616e27742072656e74204e465420617320696e73756666696369656e74206160448201527f6d6f756e74207061696400000000000000000000000000000000000000000000606482015260840161089e565b6000600389604051610aad9190613d07565b908152604051908190036020019020600101546001600160a01b03169050610ad789898989612f40565b81341115610b2257876001600160a01b0381166108fc610af785346140e0565b6040518115909202916000818181858888f19350505050158015610b1f573d6000803e3d6000fd5b50505b60405181906001600160a01b0382169085156108fc029086906000818181858888f19350505050158015610b5a573d6000803e3d6000fd5b506040517fe85b6202f15dfae39a54e501b5e65cbcc44a996fb8d14f843c7cb8e16fd49c7490600090a150505050505050505050565b60606001600160a01b038316610bda5760405162461bcd60e51b815260206004820152600f60248201526e496e76616c6964206164647265737360881b604482015260640161089e565b6001600160a01b0380841660009081526005602052604090208054909116610c3b5760405162461bcd60e51b81526020600482015260146024820152735573657220646f6573206e6f742065786973747360601b604482015260640161089e565b60048101548310610c9c5760405162461bcd60e51b815260206004820152602560248201527f4e66742061742074686520676976656e20696e64657820646f6573206e6f7420604482015264195e1a5cdd60da1b606482015260840161089e565b806004018381548110610cb157610cb16141a9565b906000526020600020018054610cc690614127565b80601f0160208091040260200160405190810160405280929190818152602001828054610cf290614127565b8015610d3f5780601f10610d1457610100808354040283529160200191610d3f565b820191906000526020600020905b815481529060010190602001808311610d2257829003601f168201915b50505050509150505b92915050565b8051602081830181018051600182529282019190930120915280548190610d7490614127565b80601f0160208091040260200160405190810160405280929190818152602001828054610da090614127565b8015610ded5780601f10610dc257610100808354040283529160200191610ded565b820191906000526020600020905b815481529060010190602001808311610dd057829003601f168201915b5050505060018301546002840154600385015460048601805495966001600160a01b03948516969490931694509092610e2590614127565b80601f0160208091040260200160405190810160405280929190818152602001828054610e5190614127565b8015610e9e5780601f10610e7357610100808354040283529160200191610e9e565b820191906000526020600020905b815481529060010190602001808311610e8157829003601f168201915b505050505090806005018054610eb390614127565b80601f0160208091040260200160405190810160405280929190818152602001828054610edf90614127565b8015610f2c5780601f10610f0157610100808354040283529160200191610f2c565b820191906000526020600020905b815481529060010190602001808311610f0f57829003601f168201915b5050505050905086565b8051602081830181018051600382529282019190930120915280548190610f5c90614127565b80601f0160208091040260200160405190810160405280929190818152602001828054610f8890614127565b8015610fd55780601f10610faa57610100808354040283529160200191610fd5565b820191906000526020600020905b815481529060010190602001808311610fb857829003601f168201915b5050505060018301546002840154600385015460049095015493946001600160a01b03928316949282169350600160a01b90910463ffffffff169186565b6040805160a0810182526060808252600060208301819052928201839052810182905260808101919091526001600160a01b0383166110865760405162461bcd60e51b815260206004820152600f60248201526e496e76616c6964206164647265737360881b604482015260640161089e565b6001600160a01b03808416600090815260056020526040902080549091166110e75760405162461bcd60e51b81526020600482015260146024820152735573657220646f6573206e6f742065786973747360601b604482015260640161089e565b60006001600160a01b031681600301846040516111049190613d07565b908152604051908190036020019020600201546001600160a01b0316141561117d5760405162461bcd60e51b815260206004820152602660248201527f5573657220646f6573206e6f74206861766520616e7920737563682072656e7460448201526519590813999d60d21b606482015260840161089e565b806003018360405161118f9190613d07565b90815260200160405180910390206040518060a00160405290816000820180546111b890614127565b80601f01602080910402602001604051908101604052809291908181526020018280546111e490614127565b80156112315780601f1061120657610100808354040283529160200191611231565b820191906000526020600020905b81548152906001019060200180831161121457829003601f168201915b505050918352505060018201546001600160a01b0390811660208301526002909201549182166040820152600160a01b820461ffff166060820152600160b01b90910463ffffffff16608090910152949350505050565b80516020818301810180516004825292820191909301209152805481906112ae90614127565b80601f01602080910402602001604051908101604052809291908181526020018280546112da90614127565b80156113275780601f106112fc57610100808354040283529160200191611327565b820191906000526020600020905b81548152906001019060200180831161130a57829003601f168201915b50505050600183015460029093015491926001600160a01b03908116929081169150600160a01b810461ffff1690600160b01b900463ffffffff1685565b60606001600160a01b0383166113af5760405162461bcd60e51b815260206004820152600f60248201526e496e76616c6964206164647265737360881b604482015260640161089e565b6001600160a01b03808416600090815260056020526040902080549091166114105760405162461bcd60e51b81526020600482015260146024820152735573657220646f6573206e6f742065786973747360601b604482015260640161089e565b600281015483106114715760405162461bcd60e51b815260206004820152602560248201527f4e66742061742074686520676976656e20696e64657820646f6573206e6f7420604482015264195e1a5cdd60da1b606482015260840161089e565b806002018381548110610cb157610cb16141a9565b336001600160a01b038516146114de5760405162461bcd60e51b815260206004820152601d60248201527f43616e2774206c656e6420736f6d656f6e6520656c73652773204e4654000000604482015260640161089e565b6001600160a01b03848116600090815260056020526040902054166115455760405162461bcd60e51b815260206004820152601360248201527f5573657220646f6573206e6f7420657869737400000000000000000000000000604482015260640161089e565b60006001600160a01b031660018b6040516115609190613d07565b908152604051908190036020019020600201546001600160a01b0316146115d55760405162461bcd60e51b8152602060048201526024808201527f4e465420697320616c726561647920617661696c61626c6520666f722072656e60448201526374696e6760e01b606482015260840161089e565b60006001600160a01b031660038b6040516115f09190613d07565b908152604051908190036020019020600101546001600160a01b0316146116655760405162461bcd60e51b8152602060048201526024808201527f4e465420697320616c726561647920617661696c61626c6520666f722072656e60448201526374696e6760e01b606482015260840161089e565b836001600160a01b0316896001600160a01b0316146116c65760405162461bcd60e51b815260206004820152600d60248201527f4e6f6e204e4654204f776e657200000000000000000000000000000000000000604482015260640161089e565b428363ffffffff161161171b5760405162461bcd60e51b815260206004820152600f60248201527f4261642074696d6520626f756e64730000000000000000000000000000000000604482015260640161089e565b60006040518060c001604052808c81526020018b6001600160a01b031681526020018a6001600160a01b031681526020018981526020018881526020018781525090508060018c60405161176f9190613d07565b908152602001604051809103902060008201518160000190805190602001906117999291906138d1565b506020828101516001830180546001600160a01b039283166001600160a01b031991821617909155604085015160028501805491909316911617905560608301516003830155608083015180516117f692600485019201906138d1565b5060a082015180516118129160058401916020909101906138d1565b509050506118238b86868686613488565b5050505050505050505050565b60606002805480602002602001604051908101604052809291908181526020016000905b8282101561190057838290600052602060002001805461187390614127565b80601f016020809104026020016040519081016040528092919081815260200182805461189f90614127565b80156118ec5780601f106118c1576101008083540402835291602001916118ec565b820191906000526020600020905b8154815290600101906020018083116118cf57829003601f168201915b505050505081526020019060010190611854565b50505050905090565b6040805160c081018252606080825260006020830181905292820183905281018290526080810182905260a08101919091526001600160a01b0383166119835760405162461bcd60e51b815260206004820152600f60248201526e496e76616c6964206164647265737360881b604482015260640161089e565b6001600160a01b03808416600090815260056020526040902080549091166119e45760405162461bcd60e51b81526020600482015260146024820152735573657220646f6573206e6f742065786973747360601b604482015260640161089e565b60006001600160a01b03168160010184604051611a019190613d07565b908152604051908190036020019020600101546001600160a01b03161415611a7a5760405162461bcd60e51b815260206004820152602660248201527f5573657220646f6573206e6f74206861766520616e792073756368206c656e6460448201526519590813999d60d21b606482015260840161089e565b8060010183604051611a8c9190613d07565b90815260200160405180910390206040518060c0016040529081600082018054611ab590614127565b80601f0160208091040260200160405190810160405280929190818152602001828054611ae190614127565b8015611b2e5780601f10611b0357610100808354040283529160200191611b2e565b820191906000526020600020905b815481529060010190602001808311611b1157829003601f168201915b505050918352505060018201546001600160a01b03908116602083015260028301549081166040830152600160a01b900463ffffffff1660608201526003820154608082015260049091015460a090910152949350505050565b33600090815260056020526040902080546001600160a01b0316611be55760405162461bcd60e51b81526020600482015260146024820152735573657220646f6573206e6f742065786973747360601b604482015260640161089e565b6000600183604051611bf79190613d07565b90815260405190819003602001902060028101549091506001600160a01b0316611c635760405162461bcd60e51b815260206004820152601460248201527f4e4654206973206e6f7420617661696c61626c65000000000000000000000000604482015260640161089e565b6000600384604051611c759190613d07565b90815260405190819003602001902060018101549091506001600160a01b0316611ce15760405162461bcd60e51b815260206004820152601560248201527f4e465420697320616c72656164792072656e7465640000000000000000000000604482015260640161089e565b60028101546001600160a01b031615611d3c5760405162461bcd60e51b815260206004820152601560248201527f4e465420697320616c72656164792072656e7465640000000000000000000000604482015260640161089e565b60018101546001600160a01b03163314611dbe5760405162461bcd60e51b815260206004820152602260248201527f43616e27742073746f70206c656e6420736f6d656f6e6520656c73652773204e60448201527f4654000000000000000000000000000000000000000000000000000000000000606482015260840161089e565b336001600160a01b03168360010185604051611dda9190613d07565b908152604051908190036020019020600101546001600160a01b031614611e545760405162461bcd60e51b815260206004820152602860248201527f5573657220646f6573206e6f74206861766520616e792073756368204e46547360448201526708185cc81b195b9960c21b606482015260840161089e565b6000611e5f856136d6565b9050611e6a81613776565b600385604051611e7a9190613d07565b9081526040519081900360200190206000611e958282613897565b50600181810180546001600160a01b03191690556002820180546001600160c01b0319169055600060038301819055600490920191909155604051611edb908790613d07565b9081526040519081900360200190206000611ef68282613897565b6001820180546001600160a01b03199081169091556002830180549091169055600060038301819055611f2d906004840190613897565b611f3b600583016000613897565b50506000611f498686612a1a565b9050611f558186612ab9565b8460010186604051611f679190613d07565b9081526040519081900360200190206000611f828282613897565b506001810180546001600160a01b03191690556002810180546001600160c01b031916905560006003820181905560049091018190556040517fe0306ce2bcb4de1bd06e23b7f715b3fdf3ab2c75402eb54e99bd333eb89c8f899190a1505050505050565b33600090815260056020526040902080546001600160a01b031661204d5760405162461bcd60e51b815260206004820152601560248201527f4c656e64657220646f6573206e6f742065786973740000000000000000000000604482015260640161089e565b600060018360405161205f9190613d07565b90815260405190819003602001902060028101549091506001600160a01b03166120cb5760405162461bcd60e51b815260206004820152601460248201527f4e4654206973206e6f7420617661696c61626c65000000000000000000000000604482015260640161089e565b60006003846040516120dd9190613d07565b90815260405190819003602001902060018101549091506001600160a01b03161561213e5760405162461bcd60e51b8152602060048201526011602482015270139195081a5cc81b9bdd081c995b9d1959607a1b604482015260640161089e565b60006004856040516121509190613d07565b90815260405190819003602001902060028101549091506001600160a01b03166121b05760405162461bcd60e51b8152602060048201526011602482015270139195081a5cc81b9bdd081c995b9d1959607a1b604482015260640161089e565b60028101546001600160a01b039081166000908152600560205260409020805490911661221f5760405162461bcd60e51b815260206004820152601760248201527f426f72726f77657220646f6573206e6f74206578697374000000000000000000604482015260640161089e565b600085600101876040516122339190613d07565b90815260405190819003602001902060018101549091506001600160a01b031633146122b25760405162461bcd60e51b815260206004820152602860248201527f5573657220646f6573206e6f74206861766520616e792073756368204e46547360448201526708185cc81b195b9960c21b606482015260840161089e565b6002830154600160b01b810463ffffffff1690600160a01b900461ffff1660006122df82620151806140b4565b6122ef9063ffffffff1684614055565b90504281106123665760405162461bcd60e51b815260206004820152602b60248201527f43616e277420636c61696d20636f6c6c61746572616c2074696c6c2072656e7460448201527f656420656e642074696d65000000000000000000000000000000000000000000606482015260840161089e565b60008460040154905060048b60405161237f9190613d07565b908152604051908190036020019020600061239a8282613897565b50600181810180546001600160a01b0319169055600290910180546001600160d01b03191690556040516123cf908d90613d07565b90815260405190819003602001902060006123ea8282613897565b6001820180546001600160a01b03199081169091556002830180549091169055600060038301819055612421906004840190613897565b61242f600583016000613897565b5050600061243d8c8c612a1a565b9050612449818c612ab9565b8a6001018c60405161245b9190613d07565b90815260405190819003602001902060006124768282613897565b506001810180546001600160a01b03191690556002810180546001600160c01b031916905560006003820181905560049091018190556124b68d89612868565b90506124c2818961290f565b876003018d6040516124d49190613d07565b90815260405190819003602001902060006124ef8282613897565b506001810180546001600160a01b031916905560020180546001600160d01b03191690558b546040516001600160a01b039091169081906108fc8615029086906000818181858888f1935050505015801561254e573d6000803e3d6000fd5b506040517f19d743eeac3391625f97989fda0986e3b231edcea866ff523edc642b6a9a6e6890600090a15050505050505050505050505050565b33600090815260056020526040902080546001600160a01b03166125e55760405162461bcd60e51b81526020600482015260146024820152735573657220646f6573206e6f742065786973747360601b604482015260640161089e565b60006001836040516125f79190613d07565b90815260405190819003602001902060028101549091506001600160a01b03166126635760405162461bcd60e51b815260206004820152601460248201527f4e4654206973206e6f7420617661696c61626c65000000000000000000000000604482015260640161089e565b60006003846040516126759190613d07565b90815260405190819003602001902060018101549091506001600160a01b0316156126d65760405162461bcd60e51b8152602060048201526011602482015270139195081a5cc81b9bdd081c995b9d1959607a1b604482015260640161089e565b60006004856040516126e89190613d07565b90815260405190819003602001902060028101549091506001600160a01b03166127485760405162461bcd60e51b8152602060048201526011602482015270139195081a5cc81b9bdd081c995b9d1959607a1b604482015260640161089e565b60018101546001600160a01b03908116600090815260056020526040902080549091166127b75760405162461bcd60e51b815260206004820152601560248201527f4c656e64657220646f6573206e6f742065786973740000000000000000000000604482015260640161089e565b600085600301876040516127cb9190613d07565b90815260405190819003602001902060028101549091506001600160a01b0316331461285f5760405162461bcd60e51b815260206004820152602860248201527f5573657220646f6573206e6f74206861766520616e792073756368204e46547360448201527f2061732072656e74000000000000000000000000000000000000000000000000606482015260840161089e565b50505050505050565b6004810154600090815b818110156129075783600401818154811061288f5761288f6141a9565b906000526020600020016040516020016128a99190613d23565b60405160208183030381529060405280519060200120856040516020016128d09190613d07565b6040516020818303038152906040528051906020012014156128f5579150610d489050565b806128ff81614162565b915050612872565b509392505050565b600481015482106129785760405162461bcd60e51b815260206004820152602d60248201527f4e6674206b6579206e6f7420617661696c61626c6520696e207468652061707060448201526c081c995b9d1a5b99c81b1a5cdd609a1b606482015260840161089e565b600481015460009061298c906001906140e0565b90508160040181815481106129a3576129a36141a9565b906000526020600020018260040184815481106129c2576129c26141a9565b906000526020600020019080546129d890614127565b6129e3929190613955565b50816004018054806129f7576129f7614193565b600190038181906000526020600020016000612a139190613897565b9055505050565b6002810154600090815b8181101561290757836002018181548110612a4157612a416141a9565b90600052602060002001604051602001612a5b9190613d23565b6040516020818303038152906040528051906020012085604051602001612a829190613d07565b604051602081830303815290604052805190602001201415612aa7579150610d489050565b80612ab181614162565b915050612a24565b60028101548210612b225760405162461bcd60e51b815260206004820152602d60248201527f4e6674206b6579206e6f7420617661696c61626c6520696e207468652061707060448201526c081c995b9d1a5b99c81b1a5cdd609a1b606482015260840161089e565b6002810154600090612b36906001906140e0565b9050816002018181548110612b4d57612b4d6141a9565b90600052602060002001826002018481548110612b6c57612b6c6141a9565b90600052602060002001908054612b8290614127565b612b8d929190613955565b50816002018054806129f7576129f7614193565b6109a981604051602401612bb59190613e6e565b60408051601f198184030181529190526020810180517bffffffffffffffffffffffffffffffffffffffffffffffffffffffff167f41304fac00000000000000000000000000000000000000000000000000000000179052613876565b336001600160a01b03841614612c905760405162461bcd60e51b815260206004820152602d60248201527f43616e277420626f72726f77204e465420666f7220616e6f7468657220626f7260448201527f726f776572206164647265737300000000000000000000000000000000000000606482015260840161089e565b6001600160a01b0383811660009081526005602052604090205416612cf75760405162461bcd60e51b815260206004820152601360248201527f5573657220646f6573206e6f7420657869737400000000000000000000000000604482015260640161089e565b6000600185604051612d099190613d07565b90815260405190819003602001902060028101549091506001600160a01b0316612d755760405162461bcd60e51b815260206004820181905260248201527f4e4654206973206e6f7420617661696c61626c6520666f722072656e74696e67604482015260640161089e565b60006001600160a01b0316600386604051612d909190613d07565b908152604051908190036020019020600101546001600160a01b03161415612dfa5760405162461bcd60e51b815260206004820181905260248201527f4e4654206973206e6f7420617661696c61626c6520666f722072656e74696e67604482015260640161089e565b428263ffffffff1610612e4f5760405162461bcd60e51b815260206004820152600f60248201527f4261642074696d6520626f756e64730000000000000000000000000000000000604482015260640161089e565b6000612e6261ffff8516620151806140b4565b612e6c908461406d565b90506000600387604051612e809190613d07565b9081526040519081900360200190206002015463ffffffff600160a01b909104811691508216811161285f5760405162461bcd60e51b815260206004820152604160248201527f43616e27742072656e74204e465420666f72206d6f7265207468616e20616d6f60448201527f756e74206f662074696d6520617661696c61626c6520666f722072656e74696e60648201527f6700000000000000000000000000000000000000000000000000000000000000608482015260a40161089e565b6000600385604051612f529190613d07565b908152604051908190036020019020600101546001600160a01b0390811691508416811415612fe95760405162461bcd60e51b815260206004820152603460248201527f426f72726f77657220616464726573732063616e27742062652074686520736160448201527f6d65206173206c656e6465722061646472657373000000000000000000000000606482015260840161089e565b6001600160a01b03811660009081526005602052604080822090519091906001830190613017908990613d07565b908152604051908190036020019020600201546001600160a01b0316146130a65760405162461bcd60e51b815260206004820152602260248201527f4e465420616c72656164792072656e74656420627920736f6d656f6e6520656c60448201527f7365000000000000000000000000000000000000000000000000000000000000606482015260840161089e565b8481600101876040516130b99190613d07565b908152604080516020928190038301812060020180546001600160a01b0319166001600160a01b0395861617905560a0810182528981528584168382015292881683820181905261ffff8816606085015263ffffffff871660808501526000908152600590925280822090519091906003830190613138908b90613d07565b908152604051908190036020019020600201546001600160a01b0316146131b45760405162461bcd60e51b815260206004820152602a60248201527f4e667420697320616c72656164792070726573656e7420696e20757365722072604482015269656e746564204e66747360b01b606482015260840161089e565b8181600301896040516131c79190613d07565b908152602001604051809103902060008201518160000190805190602001906131f19291906138d1565b50602082810151600180840180546001600160a01b039384166001600160a01b0319909116179055604085015160029094018054606087015160809097015163ffffffff16600160b01b0263ffffffff60b01b1961ffff909816600160a01b0275ffffffffffffffffffffffffffffffffffffffffffff199092169690941695909517949094179490941617909155600483018054928301815560009081528190208a516132a69391909101918b01906138d1565b5060006001600160a01b03166004896040516132c29190613d07565b908152604051908190036020019020600201546001600160a01b03161461333e5760405162461bcd60e51b815260206004820152602a60248201527f4e667420697320616c72656164792070726573656e7420696e20757365722072604482015269656e746564204e66747360b01b606482015260840161089e565b8160048960405161334f9190613d07565b908152602001604051809103902060008201518160000190805190602001906133799291906138d1565b5060208201516001820180546001600160a01b039283166001600160a01b0319909116179055604083015160029092018054606085015160809095015163ffffffff16600160b01b0263ffffffff60b01b1961ffff909616600160a01b0275ffffffffffffffffffffffffffffffffffffffffffff19909216949093169390931792909217929092169190911790556000613413896136d6565b905061341e81613776565b60038960405161342e9190613d07565b90815260405190819003602001902060006134498282613897565b506001810180546001600160a01b03191690556002810180546001600160c01b0319169055600060038201819055600490910155505050505050505050565b6040805160c0810182528681526001600160a01b0386166020808301829052600083850181905263ffffffff881660608501526080840187905260a08401869052918252600590528290209151909190829060018301906134ea908a90613d07565b908152602001604051809103902060008201518160000190805190602001906135149291906138d1565b50602082810151600180840180546001600160a01b039384166001600160a01b0319909116179055604085015160028086018054606089015163ffffffff16600160a01b026001600160c01b031990911693909516929092179390931790556080850151600385015560a09094015160049093019290925590830180549283018155600090815281902089516135b19391909101918a01906138d1565b50816003886040516135c39190613d07565b908152602001604051809103902060008201518160000190805190602001906135ed9291906138d1565b50602082810151600180840180546001600160a01b039384166001600160a01b0319909116179055604085015160028086018054606089015163ffffffff16600160a01b026001600160c01b031990911693909516929092179390931790556080850151600385015560a0909401516004909301929092558154928301825560009190915288516136a3927f405787fa12a823e0f2b7631cc41b3ba8828b3321ca811111fa75cd3aa3bb5ace01918a01906138d1565b506040517fdb8317522294099fa9360f57f5f2c8178138bbeb092f99c41ada4fefc39fbe5e90600090a150505050505050565b600254600090815b8181101561376f57600281815481106136f9576136f96141a9565b906000526020600020016040516020016137139190613d23565b604051602081830303815290604052805190602001208460405160200161373a9190613d07565b60405160208183030381529060405280519060200120141561375d579392505050565b8061376781614162565b9150506136de565b5092915050565b60025481106137dd5760405162461bcd60e51b815260206004820152602d60248201527f4e6674206b6579206e6f7420617661696c61626c6520696e207468652061707060448201526c081c995b9d1a5b99c81b1a5cdd609a1b606482015260840161089e565b6002546000906137ef906001906140e0565b905060028181548110613804576138046141a9565b9060005260206000200160028381548110613821576138216141a9565b9060005260206000200190805461383790614127565b613842929190613955565b50600280548061385457613854614193565b6001900381819060005260206000200160006138709190613897565b90555050565b80516a636f6e736f6c652e6c6f67602083016000808483855afa5050505050565b5080546138a390614127565b6000825580601f106138b3575050565b601f0160209004906000526020600020908101906109a991906139d0565b8280546138dd90614127565b90600052602060002090601f0160209004810192826138ff5760008555613945565b82601f1061391857805160ff1916838001178555613945565b82800160010185558215613945579182015b8281111561394557825182559160200191906001019061392a565b506139519291506139d0565b5090565b82805461396190614127565b90600052602060002090601f0160209004810192826139835760008555613945565b82601f106139945780548555613945565b8280016001018555821561394557600052602060002091601f016020900482015b828111156139455782548255916001019190600101906139b5565b5b8082111561395157600081556001016139d1565b80356001600160a01b03811681146139fc57600080fd5b919050565b600082601f830112613a1257600080fd5b813567ffffffffffffffff80821115613a2d57613a2d6141bf565b604051601f8301601f19908116603f01168101908282118183101715613a5557613a556141bf565b81604052838152866020858801011115613a6e57600080fd5b836020870160208301376000602085830101528094505050505092915050565b803563ffffffff811681146139fc57600080fd5b600060208284031215613ab457600080fd5b613abd826139e5565b9392505050565b60008060408385031215613ad757600080fd5b613ae0836139e5565b9150602083013567ffffffffffffffff811115613afc57600080fd5b613b0885828601613a01565b9150509250929050565b60008060408385031215613b2557600080fd5b613b2e836139e5565b946020939093013593505050565b600060208284031215613b4e57600080fd5b813567ffffffffffffffff811115613b6557600080fd5b613b7184828501613a01565b949350505050565b6000806000806000806000806000806101408b8d031215613b9957600080fd5b8a3567ffffffffffffffff80821115613bb157600080fd5b613bbd8e838f01613a01565b9b50613bcb60208e016139e5565b9a50613bd960408e016139e5565b995060608d0135985060808d0135915080821115613bf657600080fd5b613c028e838f01613a01565b975060a08d0135915080821115613c1857600080fd5b50613c258d828e01613a01565b955050613c3460c08c016139e5565b9350613c4260e08c01613a8e565b92506101008b013591506101208b013590509295989b9194979a5092959850565b60008060008060808587031215613c7957600080fd5b843567ffffffffffffffff811115613c9057600080fd5b613c9c87828801613a01565b945050613cab602086016139e5565b9250604085013561ffff81168114613cc257600080fd5b9150613cd060608601613a8e565b905092959194509250565b60008151808452613cf38160208601602086016140f7565b601f01601f19169290920160200192915050565b60008251613d198184602087016140f7565b9190910192915050565b600080835481600182811c915080831680613d3f57607f831692505b6020808410821415613d5f57634e487b7160e01b86526022600452602486fd5b818015613d735760018114613d8457613db1565b60ff19861689528489019650613db1565b60008a81526020902060005b86811015613da95781548b820152908501908301613d90565b505084890196505b509498975050505050505050565b6020808252825182820181905260009190848201906040850190845b81811015613e005783516001600160a01b031683529284019291840191600101613ddb565b50909695505050505050565b6000602080830181845280855180835260408601915060408160051b870101925083870160005b82811015613e6157603f19888603018452613e4f858351613cdb565b94509285019290850190600101613e33565b5092979650505050505050565b602081526000613abd6020830184613cdb565b60a081526000613e9460a0830188613cdb565b6001600160a01b03968716602084015294909516604082015261ffff92909216606083015263ffffffff1660809091015292915050565b60c081526000613ede60c0830189613cdb565b6001600160a01b03888116602085015287166040840152606083018690528281036080840152613f0e8186613cdb565b905082810360a0840152613f228185613cdb565b9998505050505050505050565b60c081526000613f4260c0830189613cdb565b6001600160a01b03978816602084015295909616604082015263ffffffff939093166060840152608083019190915260a09091015292915050565b602081526000825160c06020840152613f9960e0840182613cdb565b905060208401516001600160a01b038082166040860152806040870151166060860152505063ffffffff6060850151166080840152608084015160a084015260a084015160c08401528091505092915050565b602081526000825160a0602084015261400860c0840182613cdb565b905060208401516001600160a01b038082166040860152806040870151166060860152505061ffff606085015116608084015263ffffffff60808501511660a08401528091505092915050565b600082198211156140685761406861417d565b500190565b600063ffffffff80831681851680830382111561408c5761408c61417d565b01949350505050565b60008160001904831182151516156140af576140af61417d565b500290565b600063ffffffff808316818516818304811182151516156140d7576140d761417d565b02949350505050565b6000828210156140f2576140f261417d565b500390565b60005b838110156141125781810151838201526020016140fa565b83811115614121576000848401525b50505050565b600181811c9082168061413b57607f821691505b6020821081141561415c57634e487b7160e01b600052602260045260246000fd5b50919050565b60006000198214156141765761417661417d565b5060010190565b634e487b7160e01b600052601160045260246000fd5b634e487b7160e01b600052603160045260246000fd5b634e487b7160e01b600052603260045260246000fd5b634e487b7160e01b600052604160045260246000fdfea2646970667358221220a6290879b66309b74d3bbf934e3e46862d2142751249969666dd5abd852d840764736f6c63430008050033",
  "linkReferences": {},
  "deployedLinkReferences": {}
}